:10000000B8200020811300007D1300007D13000044
:1000100000000000000000000000000000000000E0
:100020000000000000000000000000007D13000040
:1000300000000000000000007D1300007D130000A0
:100040007D1300007D1300007D1300007D13000070
:100050007D1300007D1300007D1300007D13000060
:100060007D130000D90C0000E90C0000F90C000021
:10007000090D00007D1300007D1300007D130000BA
:100080007D1300007D1300007D1300007D13000030
:100090007D1300007D1300007D1300007D13000020
:1000A0007D1300007D1300007D1300007D13000010
:1000B00010B5064C2378002B07D1054B002B02D03E
:1000C000044800E000BF0123237010BD0C00002095
:1000D00000000000C01D000008B5084B002B03D035
:1000E0000748084900E000BF07480368002B03D019
:1000F000064B002B00D0984708BDC046000000000A
:10010000C01D000010000020C01D00000000000005
:10011000F0B583B06F46F87107370B4C0B4E201CBF
:10012000311C01220A4DA8478022D203094B5A6193
:10013000201C391C0122084B9847201C311C00222E
:10014000A84703B0F0BDC046600000209C0000201E
:1001500081070000004400416D080000F0B591B037
:10016000614B98470020614B98476149614B984724
:10017000830018184000802212045F4B5A61002847
:1001800000D19DE05D4B586000229A60191C8022CE
:1001900052020B681342FCD097E00B681342FCD06C
:1001A000574C1823237000236370A37002A9012207
:1001B0004A708B700A701820524B98472378D909DF
:1001C0000022002903D15A09D2014B4952181F2796
:1001D0003B400124211C9940916102AA1470002324
:1001E00053609360137453749474D47413752421FE
:1001F000535409930A9380235B02D360424B93626A
:10020000424BD362424B1363424B5363384B93616F
:10021000414E301C4149424B98473568281C414BA0
:1002200098470740BC40404B1C603268D369002BA4
:10023000FCD12A68022313432B6001AC01236370B5
:100240000022A27023701620211C2E4DA8471720D3
:10025000211CA84780221204274B9A61D520334CD9
:10026000A0478020A047A820A0473F20A047D32038
:10027000A0470020A0474020A0478D20A047142081
:10028000A0472020A0470020A047A120A047C820C9
:10029000A047DA20A0471220A0478120A0478F2046
:1002A000A047A420A047A620A047DB20A0474020CD
:1002B000A047D920A047F120A047AF20A04710E0D9
:1002C000802212040C4B9A616AE7802212040A4BC6
:1002D0009A610A4B586000229A60191C80225202CF
:1002E0005BE711B0F0BDC046190D000035110000EC
:1002F00040420F00791500000044004110E000E08A
:100300009C000020810D000002001000020011007E
:10031000020012000200130060000020000C0042E6
:1003200069050000AD0C000000E100E011010000D3
:10033000F0B583B06F46F87107370B4C0B4E201C9D
:10034000311C01220A4DA8478022D203094B9A6131
:10035000201C391C0122084B9847201C311C00220C
:10036000A84703B0F0BDC046600000209C000020FC
:1003700081070000004400416D08000038B5051CED
:10038000081C5038C0B2064CA04728091023184357
:10039000A0470E2005400123281C1843A04738BD64
:1003A0001101000010B5031C4908402099420CD3EC
:1003B0000024C91A601C80B28B4201D8041CF8E7E3
:1003C0004020FF2C01D81480002010BD10B582B051
:1003D000041C0F4B1B78002B01D000290DD001A964
:1003E0000C7013200B4B984713200B4B9847084B6E
:1003F0005C7001221A70002007E0054B5A781D201E
:10040000141B621E94416442204002B010BDC046DD
:10041000280000204D120000C11100002E4B984210
:100420001CD003D82D4B984207D04AE02C4B984261
:1004300025D02C4B984233D043E0012943D00029EA
:1004400004D0022906D0032906D001E0264841E065
:1004500000203FE025483DE025483BE0012934D01D
:10046000002904D0022906D0032906D001E0032088
:1004700030E000202EE01F482CE01F482AE0012930
:1004800025D0002904D0022906D0032906D001E096
:100490001A481FE000201DE019481BE0194819E028
:1004A000012916D0002904D0022906D0032906D03C
:1004B00001E015480EE000200CE014480AE0144862
:1004C00008E0002006E0134804E0134802E0134867
:1004D00000E013487047C046000C0042000800428C
:1004E0000010004200140042030004000300060054
:1004F0000300070003001E0003001F0003000800A4
:1005000003000A0003000B000300100003001200A8
:1005100003001300030005000300010003000900AD
:100520000300110070B584B00E4A694670CA70C1EC
:1005300012680A60031C009A82420FD0019C844218
:1005400008D0029D854207D00020039E9E4207D11D
:10055000032004E0012002E0022000E00020C0B2FD
:1005600004B070BD78160000F0B5474680B488B07E
:10057000051C0C1C161C29600B681C209A0700D552
:10058000DFE00B680520DA0700D5DAE0081C6F4BC6
:1005900098476F4B196A821C012797403A1C0A43FF
:1005A0001A6207A92427F35D0B701430C0B280468D
:1005B000684B98474046684B9847F05D0021674B71
:1005C00098473378012B03D122680C23134323600F
:1005D0003378002B00D0B1E0226808231343236056
:1005E000ACE0EA18D16004331C2BFAD10023EB6293
:1005F000AB620024AB862B863623EC543723EC54B5
:100600003823EC5403236B722C7128684F4B9847A6
:10061000071C5349534B9847BF00534BFD502F685D
:1006200002AB80221A705C7001229A70DC70337801
:10063000002B02D1002202AB9A70B36A0393F06AD6
:100640000490326B0592736B06930024E1B2A30011
:1006500003AA9858002802D1381C444A9047431CEA
:1006600006D06A461072000CC0B202A9404B9847EF
:100670000134042CEAD133786B71337CAB71B37CD9
:10068000EB71337D2B7200226B46DA803378012BBD
:1006900014D128682D4B98471430C0B2354B984779
:1006A000011CB0696A460632334B9847031C172079
:1006B000002B46D16B4606331B783B733378002BF7
:1006C0000FD1B169B38B786AF47F2404B27F2243DF
:1006D00002437A622022B25C002A04D040221343F3
:1006E00001E000230021B26870680243F068024311
:1006F0000A43317C0B43717C002903D11F4989785F
:10070000880701D580210A43B17C002902D08021CD
:1007100089020B43F17C002902D0802189000B4320
:10072000317D002902D0802189010B4339680A43B9
:100730003A607A6813437B60002002E000230021C6
:100740004FE708B004BC9046F0BDC0462505000048
:10075000000400404D120000C1110000CD03000054
:10076000890A00006D0C0000A40000201D04000098
:100770002913000069120000A503000000200041B9
:1007800010B544791523012C6CD1047A0023002C78
:1007900068D1002A57D04B78002B44D00268137ED2
:1007A000DC070FD40B78D9090022002903D15A099C
:1007B000D2012D4952181F210B400121994091610E
:1007C00005234FE00B78DC090022002C03D15A09E5
:1007D000D201254C12191F24234001249C4054614E
:1007E000897803681A7ED40700D59962C2790023FC
:1007F000002A37D102680421137E0B42FCD0117EFF
:1008000000234C072ED5538B590703D5518B042356
:100810000B4353838379012B02D1936A002321E098
:10082000936A00231EE00B78D9090022002903D126
:100830005A09D2010C4C12191F210B400121994079
:10084000516100230EE00B78D9090022002903D161
:100850005A09D201044952181F210B400121994025
:1008600091610023181C10BD00440041F0B55F46A3
:1008700056464D464446F0B483B0041C9246382395
:10088000C05CC0B2052800D1F1E01720002A00D1D9
:10089000EDE06379002B05D12368187E820701D52E
:1008A000022018765546002001230226B44604276C
:1008B000BB468FE06279002A01D0266816E02268E4
:1008C000167E1E4206D16D4E177E1F4202D1013E9A
:1008D000002EF9D1167E67463E4203D002231376DE
:1008E0000420C4E0127E1A42E7D1B3E0327E1A42FD
:1008F000FCD0421C92B290460F5CA279012A01D032
:10090000404605E0023080B242468A5C120217433C
:10091000327E1A4202D0FF05FF0DB7626A1E96B200
:10092000E279002A01D1351C56E06279002A37D1DC
:10093000534A01912668377E1F421CD0471CBFB224
:10094000B9460199095C8846A779012F01D048462C
:1009500008E0023080B201994F46C95D090247465E
:100960000F43B846377E1F4203D04746F905CF0DE7
:10097000B762013DADB22668377E59460F4202D1BB
:10098000013A002AD6D10199327E67463A4203D015
:100990000223337604206AE0327E5E4632425BD028
:1009A0002668327E5F463A42FBD0327E3A420DD014
:1009B000728B3A4204D0728B04273A4392B272830C
:1009C000A279012A01D1B26A00E0B26A5246013A24
:1009D00092B29246013DADB22A4A954200D069E7F3
:1009E00051466379012B05D1216802220B7E134207
:1009F000FCD033E0002B33D1E3790020002B36D03C
:100A000000292FD004251D4E042750461CE00A7EE5
:100A10002A4202D1013B002BF9D10B7E2B4223D07D
:100A20000B7E2B420CD04B8B2B4203D04B8B3B438A
:100A30009BB24B83A379012B01D18B6A00E08B6AB7
:100A4000013880B2002811D021680B7E2B42E4D1FE
:100A5000331CDCE712200AE0122008E0002006E048
:100A6000002004E0002002E0122000E0002003B09B
:100A70003CBC90469946A246AB46F0BD102700000C
:100A800011270000FFFF0000F8B58000744BC45828
:100A900025683623E35C3722A75C1F402B7EAE7DA2
:100AA0001E40F10749D56379012B16D1637A002BDB
:100AB0000FD16C4B1B88AB62638E013B9BB263868C
:100AC000638E9BB2002B01D101232B756379012B1F
:100AD00003D1637A002B05D12FE0002B2DD1637A4F
:100AE000002B2AD02268E36A1978C9B2581CE06248
:100AF000A079012804D15878000201430233E3624F
:100B0000CB05DB0D9362A38E013B9BB2A386A38E24
:100B10009BB2002B11D101232B75637A012B0CD1D1
:100B2000E379002B09D10323637200223823E254B6
:100B3000FA0702D5201CE3689847710761D56B8BD3
:100B40005A0714D5637A012B0BD01E223823E254A6
:100B50000323637205232B753B0702D5201CA16973
:100B60008847AB6A6A8B042313436B8349E0637A3B
:100B7000012B16D123689B6A638E013B9BB263866F
:100B8000638E9BB2002B3CD104232B7500223823AB
:100B9000E25403236372FA0733D5201CE3689847B5
:100BA0002FE023689A6AD205D20DD3B2A16A0B70E6
:100BB000A36A591CA162A179012904D1120A5A70B1
:100BC000A36A0133A362238E013B9BB22386238E4B
:100BD0009BB2002B15D100223823E25404232B753D
:100BE000637A022B05D17A070BD5201C63699847DD
:100BF00007E0637A002B04D1B90702D5201C2269D3
:100C00009047B30713D56379002B10D107232B75B9
:100C100002232B76032363720023A38623863823C3
:100C20000022E254F90602D5201CE26990473307FE
:100C30000AD56379002B07D108232B752B76B906CB
:100C400002D5201C226A9047F60907D080232B7515
:100C50002B767B0602D5636A201C9847F8BDC046F8
:100C6000A4000020A00000207047C04630B50B4B08
:100C70001B78002B0ED10A4C0A4D25600A4B00222E
:100C80001A6065605A60A5609A60E560DA600122CA
:100C9000024B1A708000024BC15030BD2C00002066
:100CA00030000020690C0000A400002030B583B0A3
:100CB000051C01AC201C05490422054B9847281C43
:100CC000044B9847205603B030BDC046881600003C
:100CD000651600002505000008B5024B1B680020C2
:100CE000984708BD3000002008B5024B5B68012022
:100CF000984708BD3000002008B5024B9B680220D1
:100D0000984708BD3000002008B5024BDB6803207F
:100D1000984708BD3000002010B50020084B9847C8
:100D2000084CFA218900A047074B1860FA21890076
:100D3000A047064B18600522054B1A6010BDC0463F
:100D4000351100007915000004000020000000208B
:100D500010E000E030B5084B1C68084A00258021EF
:100D6000490206E0002C04D05460956013680B42E1
:100D7000FCD00138F6D230BD0400002010E000E0C5
:100D800000B583B001AB80221A700A785A704A7895
:100D90009A708A78DA70191C014B984703B000BD2D
:100DA000291300007047C0460C4B1B68002B10D164
:100DB000EFF31083002B09D172B6BFF35F8F0022CF
:100DC000074B1A700122074B1A7002E00022054BF4
:100DD0001A70024B1A6801321A60704740000020F6
:100DE0000800002044000020084B1A68013A1A60ED
:100DF0001B68002B09D1064B1B78002B05D0012264
:100E0000044B1A70BFF35F8F62B67047400000203A
:100E1000440000200800002008B5082834D88000CD
:100E20001B4B1B589F468020000230E0194B18696D
:100E30002DE0194B186A8005800F184BC340181C11
:100E400025E0144B586922E0124B1B680220184021
:100E50001DD011491022CB681A42FCD00D4B1B68E3
:100E60005A0713D500200E4B98470A4B9B681B046A
:100E70001B0C58430BE05023074AD35C00205A0751
:100E800005D5044BD86802E0002000E0054808BD05
:100E90008C160000480000200008004000127A0074
:100EA00069120000006CDC0270B50C4B1C6A017802
:100EB000857840780122104080014026B4430443E5
:100EC0002A40D00180229443221C02430320014087
:100ED0000902034802400A431A6270BD000800403C
:100EE000FFFCFFFF082843D88000224B1B589F4679
:100EF00000203EE0204B196A02220A431A620020B9
:100F000037E01D4B996902220A439A61002030E0C4
:100F1000194B198A02220A431A82002029E0164B33
:100F2000998A02220A439A82002022E0134B196810
:100F300002220A431A601A68114B1A400E4B9A8417
:100F4000191C1022CB681A42FCD00C4A91680A4B3B
:100F5000D96251689962126892B29A84002008E0BE
:100F6000054A4423D05C02210143D154002000E013
:100F700017207047B016000000080040480000200D
:100F80007FFF000030B585B0C222D200194B9A60B5
:100F9000194B5A681E218A435A6001236A4613700E
:100FA0000024164DE0B26946A8470134252CF9D13A
:100FB00003A800244470012585700470104B9847E5
:100FC0000620104B9847104B9847104B1C725C72D0
:100FD0009C7201956B465C7006236A46137014720E
:100FE0005472002069460A4B98470020094B9847E5
:100FF00005B030BD00080040004000414D12000027
:10100000A90E0000E50E00001910000000040040C9
:101010003D100000F1100000064B996908220A43B8
:101020009A610122044B1A70191C0B781342FCD1EF
:101030007047C04600040040000C0040F8B5061C94
:10104000071C0D782D0205434B78002B02D080231E
:10105000DB021D434B7A002B02D080231B031D4370
:101060004C68012C17D9631E1C420FD1022C06D9E3
:101070000223002201325B009C42FBD800E00022E8
:101080001702374380235B031D4304E027023743E5
:1010900080239B021D430B7A002B02D080239B03ED
:1010A0001D430F4A53785BB2002BFBDB0D4B984777
:1010B0000D4B1E700A4A53785BB2002BFBDB084BCA
:1010C0009F601A1C53785BB2002BFBDB044B596802
:1010D000802252020A4015435D60044B9847F8BDD8
:1010E000000C0040A90D0000080C0040E90D0000B4
:1010F00010B5041C0B4A53785BB2002BFBDB0A4B88
:1011000098470A4B1C70074A53785BB2002BFBDBF5
:10111000044B5968802252020A435A60044B984794
:1011200010BDC046000C0040A90D0000040C00409A
:10113000E90D000070B5041C1A4A53785BB2002B0D
:10114000FBDB194B9847194B1C70164A53785BB25E
:10115000002BFBDB134E7068C004C00E144B984785
:10116000051C124B1C707668F602F60F114B1C70B2
:101170000C4A53785BB2002BFBDB0A4B9C68240AB9
:10118000A4B20D4B9847002E07D1012C07D9281C7B
:10119000211C0A4B9847051C01E00134E540281C3E
:1011A00070BDC046000C0040A90D0000040C0040BA
:1011B000190E0000080C0040E90D00007915000030
:1011C00010B5041C064B9847064B1C70064B5988FB
:1011D0008022D2010A435A80044B984710BDC04672
:1011E000A90D0000020C0040000C0040E90D0000B9
:1011F00010B5041C0F4B98470F4B1C700F4B5888B1
:101200000005000F59880E4A0A405A8059880D4A35
:101210000A405A80191C8022D2014B881342FCD10B
:10122000064B01025888064A02400A435A80064B80
:10123000984710BDA90D0000020C0040000C0040B2
:10124000FFF0FFFFFFBFFFFFE90D000010B50C78B6
:1012500024020443024B9847A4B2024B5C8010BDA9
:10126000F1110000000C004010B5041C064B98471B
:10127000064B1C70064B5C882405240F054B9847D1
:10128000201C054B984710BDA90D0000020C004022
:10129000000C0040E90D00003511000030B5D37896
:1012A000002B1ED11378802B04D01B0680246402EF
:1012B000234300E0002354780225AC430AD19478FC
:1012C000002C03D18024A402234302E0C024E402C2
:1012D000234341605478013C012C04D8114C234035
:1012E00001E0416000230D042D0CA024E4052C43F3
:1012F0001C4384620D0CD02424062C431C438462BE
:10130000D478002C0CD15C0305D59378012B01D146
:10131000816100E041615378013B012B00D881607D
:1013200030BDC046FFFFFBFF08B5031C0A1CC10906
:101330000020002903D15809C001044940181F2189
:101340000B4001219940024B984708BD00440041E1
:101350009D1200007047C04608B5044B9847044BE7
:101360009847044B9847044B984708BD850F0000E9
:10137000A50D00005513000055130000FEE7C04600
:1013800070B5022190235B00284AD150284BD878B1
:101390000321884302221043D870DD780C24A54332
:1013A00008200543DD70234B9E7B3025AE4320256E
:1013B00035439D739D7BA54328439873987B884351
:1013C00002439A731C4B1D4A9A4203D01C4B1A4A83
:1013D0009A4204D31B4B1C4A9A4210D31BE01B4B6E
:1013E00017480330C01A80080130800000231249DA
:1013F000124AD458CC5004338342FAD1EAE7124B54
:101400001A1D10490331891A8908890052180021D0
:1014100002C39342FCD10E4B7F210E4A8A439A604D
:101420000D4B98470D4B9847FEE7C04600700041B2
:10143000005000410048004100000020C01D000095
:101440000C000020B40000200C000020040000204C
:1014500000ED00E00000000019160000611400001B
:10146000F0B557464E464546E0B4384CA544384C96
:10147000A047A047374B9847374B9847B720374C82
:10148000A0471020A0470020A04701A83449354AB2
:10149000354B9847354B984601AB99469A464D4691
:1014A0003A3500200021C0474C466F462137304E68
:1014B0002078B0470134BC42FAD1002001212B4BE7
:1014C00098476C4621342A4E2078B0470134AC420C
:1014D000FAD100200221254B98476C463E345746EE
:1014E0005737234E2078B0470134BC42FAD1002050
:1014F00003211E4B98476C465B34574674371C4E8D
:101500002078B0470134BC42FAD100200421174BA7
:1015100098471EAC57469137154E2078B047013496
:10152000BC42FAD100200521104B98476C469534F7
:101530005646AE360E4F2078B8470134B442FAD141
:10154000FA2080000B4B9847ABE7C04630F9FFFF0D
:1015500059130000190D00005D0100001101000089
:10156000D4160000CC060000651600007D030000C4
:1015700031030000550D0000002934D00123002262
:1015800010B488422CD301242407A14204D2814202
:1015900002D209011B01F8E7E400A14204D2814212
:1015A00002D249005B00F8E7884201D3401A1A438F
:1015B0004C08A04202D3001B5C0822438C08A042C6
:1015C00002D3001B9C082243CC08A04202D3001B7C
:1015D000DC082243002803D01B0901D00909E3E7F6
:1015E000101C10BC7047002801D00020C04307B475
:1015F000024802A14018029003BDC0461900000035
:101600000029F0D003B5FFF7B9FF0EBC4243891A99
:101610001847C0467047C04670B50E4B0E4D0024AB
:10162000ED1AAD101E1CAC4204D0A300F35898472D
:101630000134F8E700F0B4FB084B094D0024ED1A23
:10164000AD101E1CAC4204D0A300F35898470134DF
:10165000F8E770BDAC1D0000AC1D0000AC1D000023
:10166000B01D000010B50023934203D0CC5CC454DD
:101670000133F9E710BD000000080042000C0042F1
:101680000010004200140042090A0B0C2C0E00004E
:10169000880E0000880E0000260E0000260E0000B6
:1016A000420E0000320E0000480E0000760E0000D0
:1016B000100F0000700F0000700F0000F00E00000F
:1016C000020F00001E0F0000F40E00002C0F00009F
:1016D000600F000000000000C0E0F0F8FC7E3E1E3D
:1016E0000F0F0F0F0F1F1F3E7EFCF8F0E0C0000031
:1016F000000080F8FFFFFFFF3F0100000000000036
:10170000000000000000013FFFFFFFFFF88000FF26
:10171000FFFFFFFFFF0000000000000000000000CE
:101720000000000000FFFFFFFFFFFF00077FFFFF3B
:10173000FFFFF000000000000000000000000000BB
:1017400000F0FFFFFFFF7F07000000030F1F3F7F38
:10175000FEF8F0E0C0C0C0C0C0E0E0F0F8FE7F3F9F
:101760001F0F030000000000000000000000010146
:101770000103030303030303010100000000000051
:10178000000000000000001C1C1C1C1C1C1EFEFE97
:10179000FEFEFE000000000000000000000000004F
:1017A0000000000000000000000000FFFFFFFFFF3E
:1017B0000000000000000000000000000000000029
:1017C0000000000000000000FFFFFFFFFF0000001E
:1017D0000000000000000000000000000000000009
:1017E0000000000000FFFFFFFFFF000000000000FE
:1017F00000000000000000000000000000000000E9
:101800000000FFFFFFFFFF000000000000000000DD
:1018100000000000000000000000000000000001C7
:1018200001010101000000000000000000000000B4
:10183000000000F87C3C3E1E1E1F0F0F0F0F0F0F05
:101840001F1F3EFEFCFCF8F0E080000000000000DE
:101850000000000000000000000000000000000088
:10186000C0FFFFFFFFFF7F0000000000000000003E
:1018700000000000000080C0E0F0F8FCFF7F3F1F88
:101880000F0701000000000000000000C0E0F0F8B9
:10189000FCFE7F1F0F070301010000000000000095
:1018A000000000000000F8FEFFFFFFFFFFF3F0F074
:1018B000F0F0F0F0F0F0F0F0F0F0F0F0F0F0000008
:1018C000000000010101010101010101010101010B
:1018D00001010101010101010101010000000000FD
:1018E00000007C3E3E1E1E1F0F0F0F0F0F0F0F1F1D
:1018F0001E3E7EFCFCF8F0C000000000000000006E
:10190000000000000000000000000000000080E077
:10191000FFFFFF7F0F000000000000000000003C00
:101920003C3C3C3C3C3C7E7E7EF7F7F7E3E1C1C0AB
:101930008000000000000000000000000000000027
:1019400000000000000000000107FFFFFFFFFFF89C
:101950000000000000F0F0E0E0E0C0C0C0C0C0C087
:10196000C0C0E0E0F0F8FEFF7F7F3F0F0300000003
:101970000000010101030303030303030303030343
:101980000101010000000000000000000000000054
:1019900000000000000000000080C0F0F8FCFEFE27
:1019A000FEFEFE000000000000000000000000003D
:1019B00000C0E0F8FC7E3F1F070301FFFFFFFFFFB1
:1019C000000000000000000080E0F0FCFE3F1F0F60
:1019D0000301000000000000FFFFFFFFFF00000008
:1019E0000000003E3F3F3F3F3D3C3C3C3C3C3C3CDC
:1019F0003C3C3C3C3CFFFFFFFFFF3C3C3C3C3C0094
:101A000000000000000000000000000000000000D6
:101A10000000FFFFFFFFFF000000000000000000CB
:101A200000000000000000000000000000000001B5
:101A3000010101010000000000000000000000FEA4
:101A4000FEFEFEFE3E3E3E3E3E3E3E3E3E3E3E3EB6
:101A50003E3E3E000000000000000000FFFFFFFFD0
:101A6000FF00000000000000000000000000000077
:101A70000000000000000000000F0F0F0F0F0F0FFD
:101A80000F1F1F1E3E7EFCFCF8F8F0E080000000F7
:101A90000000000000000000000000000000000046
:101AA0000000000003FFFFFFFFFFFE00000000003A
:101AB0000000F0E0E0E0C0C0C0C0C0C0C0E0E0F0A6
:101AC000F8FEFF7F3F1F0F01000000000000000133
:101AD00001030303030303030303030101010000E4
:101AE00000000000000000000000000080C0F0F8CE
:101AF000F8FC7E3E1E1F0F0F0F0F0F0F0F1F1E1E35
:101B00003E3E7C00000080F8FEFFFFFF3F03000028
:101B100000008080808080808080000000000000C5
:101B2000000000FFFFFFFFFFFFF83C1E1E0F0F0726
:101B300007070707070F0F1F7FFEFCFCF0E0000000
:101B40000FFFFFFFFFFF800000000000000000000B
:101B500000000000000001FFFFFFFFFF0000000386
:101B60000F3F7F7FFEF8F0E0E0C0C0C0C0C0C0E023
:101B7000E0F0F87F7F3F0F0700000000000000004A
:101B8000000001010103030303030303010101003A
:101B90000000000000000000003E3E3E3E3E3E3E93
:101BA0003E3E3E3E3E3E3E3E3E3E3E3E3EBEFEFE55
:101BB000FEFE7E00000000000000000000000000AB
:101BC000000000000080E0F8FCFF3F1F070300005A
:101BD00000000000000000000000000000C0E0F86D
:101BE000FCFF3F1F07010000000000000000000094
:101BF000000000000080E0F8FEFFFF3F0F03000040
:101C00000000000000000000000000000000008054
:101C1000F8FEFFFFFF7F070100000000000000004A
:101C200000000000000000000000000001010101B0
:101C300001010000000000000000000000000000A2
:101C4000000000000000000080E0F0F8FC7E3E1E76
:101C50000F0F0F0F0F0F1F1F3E7EFEFCF8F0C0008E
:101C600000000000001F7FFFFFFFF0E0C080800049
:101C70000000000080C0F0FFFF7F3F0F0000000069
:101C800000000080C0E1F3FF7F3F3F3F3F7EFEFE4C
:101C9000FFFFF7F3E1E0C0800000000000F0FEFF6E
:101CA000FFFF070100000000000000000001030327
:101CB000071FFFFFFFFFFEF00000031F3F7FFFFE37
:101CC000F8F0E0E0C0C0C0C0C0C0E0E0F0F0FCFF51
:101CD0007F7F3F0F030000000000000000010101B2
:101CE00003030303030303030301010100000000D6
:101CF0000000000080C0F0F8F87C3E1E1E0F0F0FA1
:101D00000F0F0F1F1E3E7EFCF8F8F0C08000000091
:101D1000FCFFFFFFFF0100000000000000000000CA
:101D2000000000000107FFFFFFFFFCC000030F3FA2
:101D30007FFFFEF8E0C0C0808080808080C0C0E06F
:101D4000E0F07CFFFFFFFFFFFF000000000000014C
:101D5000030303070707070707070303010080F0D2
:101D6000FFFFFFFF1F01000000F0E0E0E0E0C0C067
:101D7000C0C0C0C0C0E0E0F0F0F8FE7F3F1F0F031E
:101D8000000000000000010101030303030303033B
:101D90000303030101010000000000000000000037
:101DA000F8B5C046F8BC08BC9E467047D900000094
:101DB000F8B5C046F8BC08BC9E467047B1000000AC
:0C1DC00008000000401F000001000000AF
:040000030000138165
:00000001FF
