:10000000184400203D33000039330000393300002C
:1000100000000000000000000000000000000000E0
:100020000000000000000000000000003933000064
:1000300000000000000000003933000039330000E8
:100040003933000039330000393300003933000000
:1000500039330000393300003933000039330000F0
:1000600039330000DD2A0000ED2A0000FD2A0000DF
:100070000D2B000039330000393300003933000004
:10008000393300003933000079160000891600006A
:10009000991600003933000039330000393300006D
:1000A00039330000393300003933000039330000A0
:1000B00010B5064C2378002B07D1054B002B02D03E
:1000C000044800E000BF0123237010BDA8010020F8
:1000D0000000000064AC000008B5084B002B03D002
:1000E0000748084900E000BF07480368002B03D019
:1000F000064B002B00D0984708BDC046000000000A
:1001000064AC0000AC01002064AC00000000000002
:10011000F0B583B06F46F87107370B4C0B4E201CBF
:10012000311C01220A4DA8478022D203094B5A6193
:10013000201C391C0122084B9847201C311C00222E
:10014000A84703B0F0BDC046100200204C0A0020B2
:10015000852500000044004171260000F0B591B0F3
:10016000644B98470020644B98476449644B984718
:1001700083001818400080221204624B5A61002844
:1001800000D1A3E0604B586000229A60191C8022C5
:1001900052020B681342FCD09DE00B681342FCD066
:1001A0005A4C1823237000236370A37002A9012204
:1001B0004A708B700A701820554B98472378D909DC
:1001C0000022002903D15A09D2014E4952181F2793
:1001D0003B400124211C9940916102AA1470002324
:1001E00053609360137453749474D47413752421FE
:1001F000535409930A9380235B02D360454B936267
:10020000454BD362454B1363454B53633B4B936163
:10021000444E301C4449454B98473568281C444B94
:1002200098470740BC40434B1C603268D369002BA1
:10023000FCD12A68022313432B6001AC01236370B5
:100240000022A27023701620211C314DA8471720D0
:10025000211CA847802212042A4B9A61D520364CD3
:10026000A0478020A047A820A0473F20A047D32038
:10027000A0470020A0474020A0478D20A047142081
:10028000A0472020A0470020A047A120A047C820C9
:10029000A047DA20A0471220A0478120A047FF20D6
:1002A000A047A420A047A620A047DB20A0474020CD
:1002B000A047D920A047F120A04720480021802254
:1002C000D2001F4B9847AF20A04710E080221204B5
:1002D0000C4B9A6164E7802212040A4B9A610A4B24
:1002E000586000229A60191C8022520255E711B012
:1002F000F0BDC0461D2B0000F130000040420F0051
:10030000FD7800000044004110E000E04C0A0020AD
:10031000852B0000020010000200110002001200F4
:100320000200130010020020000C00426D230000A8
:10033000B12A000000E100E0110100004C020020A1
:10034000DF360000F0B583B06F46F87107370B4C0D
:100350000B4E201C311C01220A4DA8478022D203DB
:10036000094B9A61201C391C0122084B9847201C1C
:10037000311C0022A84703B0F0BDC0461002002087
:100380004C0A002085250000004400417126000031
:1003900070B50E480E4901220E4B984721200E4C95
:1003A000A0470020A0477F20A0472220A047002090
:1003B000A0470720A047094C8023DB00E618084D22
:1003C0002078A8470134B442FAD170BD1002002051
:1003D0004C0A002085250000110100004C06002079
:1003E0004503000038B50E480E4901220E4B9847D0
:1003F00021200E4CA0470020A0477F20A0472220AC
:10040000A0470020A0470720A0478024E400084D13
:100410000020A847013CA4B2002CF9D138BDC04649
:10042000100200204C0A0020852500001101000068
:1004300045030000F0B55F4656464D464446F0B4CD
:1004400091B0051C0C1C161C2960081CAD4B98476C
:10045000021C23680520D90700D54BE123681C2026
:100460009F0700D546E1A84B186A911C01278F40D1
:10047000391C014319620FA92D27F35D0B7014324B
:10048000D2B29046101CA14B98474046A04B9847CB
:10049000F05D00219F4B9847F37A6B712423F35C46
:1004A000AB712523F35CEB71F37E2B72337F6B72A0
:1004B00029688846081C934B9847143000226B46E5
:1004C000DA84328A02928023DB019A4221D080238F
:1004D000DB019A4204D880239B019A4211D008E0A4
:1004E000C023DB01029F9F420FD080231B029F424B
:1004F00003D01027069700270EE003270697002752
:100500000AE010270697012706E00827069701272B
:1005100002E008270697002731680391F2689146A8
:1005200073690493317E8A462623F35C9B46736885
:10053000002B13D08022520593422ED12723F35C47
:10054000002B2ED1376AC0B2734B9847011C381C60
:100550006A462632714B9847031C1FE02723F35C41
:10056000002B0AD0069A0092306AB16A6A46263297
:100570003B1C6B4FB847031C10E0316A0791C0B2B7
:10058000654B9847011C069A009207986A462632E6
:100590003B1C634FB847031C00E00023181E00D02B
:1005A000A8E0737E002B02D0B37E41468B732A688D
:1005B000029FD369002BFCD102976B4626331B8820
:1005C000424693814B46039F3B43049F3B437168E4
:1005D0000B43029F1F43524613021F4359464B07CA
:1005E0001F432723F35C002B01D104231F43717E9B
:1005F0008902337F5B021943F27AB37A13431943BA
:10060000737F1B0219432423F35C5B0419432523E6
:10061000F35C1B0419433389FF2B0BD0F27E002AB5
:1006200003D0A022D204174302E0802252041743D1
:10063000194305E0F37E002B02D08023DB041F4327
:100640002C23F35C002B03D1364B9B789A0701D502
:1006500080231F432A68D369002BFCD1434659608D
:100660002A68D369002BFCD141460F600EAB802273
:100670001A7000225A70DA709A70326B0A92736B99
:100680000B93B76B0C97F66B0D9600270EAEF9B275
:10069000BB000AAA9858002802D1201C224A904781
:1006A000431C05D03070000CC0B2311C1F4A90476B
:1006B0000137042FEBD10023EB602B616B61AB6141
:1006C000EB612B62AB626B620022EB85AB85302362
:1006D000EA543123EA543223EA543323EA54286893
:1006E000084B9847041C1249124B9847A400124B20
:1006F000E550002011B03CBC90469946A246AB465E
:10070000F0BDC0462923000000040040093200006B
:100710007D310000D121000025320000F51F0000CE
:10072000212000000020004121220000E5320000CD
:1007300049080000712A00000424002010B5021CA2
:100740000368C4791C20002C0DD0D28D92B20520F4
:10075000002A08D1DA69002AFCD1198502211A7E03
:100760000A42FCD0002010BD10B5031C0468827939
:100770001C20002A33D09B8D9BB20520002B2ED14C
:10078000237E5A072BD5E369002BFCD1638BDBB2A8
:100790009A0621D09A0703D5022363831A201EE00C
:1007A0005A0703D5042363831E2018E0DA0703D514
:1007B00001236383132012E0DA0605D5628B102330
:1007C0001343638342200AE09A0605D5628B2023F7
:1007D00013436383412002E0238D0B80002010BD72
:1007E00003688285416205213222815404229A7570
:1007F000027A002A01D020229A75427A002A01D07A
:1008000008229A757047C046931C9B00C318596014
:10081000012393401A1C3023C15C0A43C254704721
:1008200010B51723002A0BD084791C23002C07D085
:10083000848DA4B20523002C02D1024B98470023DB
:10084000181C10BDE1070000F8B58000644BC558C6
:100850002C68E369002BFCD1237EA67D1E4031234A
:10086000EB5C3022AF5C1F40F10720D5EB8D9BB2D3
:10087000002B1AD0AB6A1A78D2B2591CA9626979D6
:10088000012904D1597809020A430233AB62D30526
:10089000DB0D2385EB8D013B9BB2EB85002B06D155
:1008A000012323750223A37501E001232375B207F9
:1008B00009D50223237500223323EA54FB0702D50E
:1008C000281CE968884772076AD5AB8D9BB2002B5C
:1008D00064D0638BDBB2190702D43F22134001E0DE
:1008E00037221340002B37D09A0707D51A2232231C
:1008F000EA54628B02231343638327E0590707D529
:100900001E223223EA54628B0423134363831DE0C7
:10091000DA0707D513223223EA54628B01231343EB
:10092000638313E0D90607D542223223EA54628B4F
:1009300010231343638309E020221A4206D0412288
:100940003223EA54628B2023134363837A0727D52B
:10095000281C6B69984723E0228DD205D20DD3B2B3
:10096000696A0B706B6A591C69626979012904D143
:10097000120A5A706B6A01336B62AB8D013B9BB2FA
:10098000AB85002B0CD10423237500223223EA54BB
:10099000BA0705D5281C2B69984701E00423237565
:1009A000F10607D5102323752376FA0602D5281CF5
:1009B000EB699847B10607D52023237523763A07BC
:1009C00002D5281CAB699847310707D50823237542
:1009D0002376BA0602D52B6A281C9847F8BDC04674
:1009E00004240020F0B5474680B40C1C9046002833
:1009F0000CD1002A0DDD8F18094E0A4D3068211CDC
:100A00002B6898470134BC42F8D104E001204042F1
:100A100002E0002000E0404604BC9046F0BDC04625
:100A2000580A0020500A0020F0B5474680B40E1C3A
:100A3000151C0138022810D8002A11D000240D4BB3
:100A400098460D4F43461868315D3B68984700282B
:100A500008DB0134A542F5D107E00120404205E062
:100A6000002003E00120404200E0201C04BC90462E
:100A7000F0BDC046580A0020540A0020F8B5061CF4
:100A80000C1C171C1D1C06AB1B78012B07D00888FB
:100A9000431C0B8030180F4902220F4B98472088C7
:100AA00030180E493A1C0E4B9847381C0D4B98478E
:100AB00023880333181880B22080002D09D0301805
:100AC000291C094B9847281C064B98472388C018B7
:100AD0002080F8BD44990000CD3600004899000000
:100AE00045380000C5380000B538000084B0F0B5C6
:100AF00005900691079208930B990D4D4C5B600091
:100B00000019C00008181030031C05AAC1CAC1C3CF
:100B1000C1CAC1C30134A4B24C53064BCB5AA34241
:100B200001D100224A53F0BC08BC04B01847C046AB
:100B3000FA170000F8170000F0B54F464646C0B45B
:100B40000D4A90468C5A62001219D2008A1810324F
:100B5000051CC8CAC8C5C8CAC8C50134A4B2454620
:100B60004C53064BCB5AA34201D100224A530CBC32
:100B700090469946F0BDC046FC170000F8170000EB
:100B8000F0B55F4656464D464446F0B48C4CA544FD
:100B900000226B4666331A808A4B8B4A9A5A8B49DD
:100BA0005B5A92B29A4200D102E16C4666342088C8
:100BB000431C23801AA9081885490222854B9847AF
:100BC0008049CA680FA88449844B98470123009341
:100BD0001AA869466631824A0FAB824DA8470023A6
:100BE00000931AA8694666317F4AA8472088431CAB
:100BF00023801AAA10187D490222764B9847724B1F
:100C00007049CA5A714BCB5A92B29A4200D0C8E08E
:100C100095E013A86B49764B98475246002A0CD0B2
:100C200066236B441888431C662169440B801AAA0A
:100C3000101870490222674B98476D466635288820
:100C4000431C2B801AAB181861490222614B98474C
:100C500013A989460FA86049139A604EB047012333
:100C600000931AA869466631634A0FAB5D4CA047F2
:100C7000624A9046624B9B46494648689847021C28
:100C80000B1C0FA84146B047002700971AA86946D9
:100C900066315C4A0FABA0474A469068D847021CB1
:100CA0000B1C0FA84146B04700971AA86946663149
:100CB000554A0FABA047554B98464946C868D84798
:100CC000021C0B1C0FA84146B04700971AA86946A2
:100CD00066314F4A0FABA0474B461A7C0FA83E49DE
:100CE000B04700971AA8694666314A4A0FABA04739
:100CF00049464869D847021C0B1C0FA84146B0471B
:100D000000971AA869466631434A0FABA047288866
:100D1000431C2B801AAA1018404902222D4B9847D9
:100D200053460133DBB29A46282B08D0254B264A7E
:100D30009A5A26495B5A92B29A4200D069E76621D4
:100D400069440C881AAA101935490222214DA84776
:100D5000A31C662169440B80601C80B21AAA10187B
:100D60002E490222A8471AA82E4B984780B26B46FC
:100D7000D88108AC201C2C490422184B984704AB9E
:100D800004942A4A059201221A72294A07920D4BAD
:100D90000D4A9A5A0D495B5A92B29A4200D004E722
:100DA00006E013A80749124B984700239A4644E7E8
:100DB000204B9D443CBC90469946A246AB46F0BDB4
:100DC000DCF3FFFFAC0B0020FA170000FC1700005B
:100DD00050990000CD3600005499000045380000BD
:100DE000589900007D0A0000609900006899000091
:100DF000390B0000449900006C99000070990000C4
:100E00004D970000789900007C99000080990000BF
:100E1000889900008C990000909900009499000036
:100E200098990000C53800009C990000B499000012
:100E3000390F0000240C000030B58BB004AB0C4A15
:100E400090681169059154690694D26907920E223F
:100E50001A74084A0992084A029208AA694630CAD6
:100E600030C10599069A079B044CA0470BB030BDD2
:100E7000FC0A0020A4700D40AC0B0020ED0A00001D
:100E8000F0B583B000AF041C2E21174B9847061B0A
:100E9000F31DDB08DB006A46D21A9546811E381C1A
:100EA0000722124DA847B21E6846211CA847684673
:100EB0000F4EB047041C0D1C381CB047094B084AA4
:100EC0000C4EB047021C0B1C201C291C0A4CA047CE
:100ED0000A4B9847BD4603B0F0BDC046C046C04669
:100EE0000000000000004E4089380000D3380000A8
:100EF00069360000A5810000617B0000F1970000C9
:100F000008B5084B1978084A117018700438830026
:100F100018188000054BC018054B9847054B98479B
:100F200008BDC046E8230020E923002090000020EF
:100F3000451E00009103000082B06B46D871024A42
:100F4000024B5A6002B07047F0990000C00A0020BE
:100F500082B06B46D871024A024B5A6002B07047A9
:100F6000F4990000C00A002070B586B00C1C6B46D6
:100F7000D871D9790733C9B26A46D1751B78DBB20B
:100F8000D375201C2C213E4B984700286ED000259D
:100F90003C4E66E019781170013301328342F9D179
:100FA000011B041C00E00021002202AB5A540B2D4F
:100FB0004ED8AB00F3589F4602A8334B9847334BAB
:100FC000986045E002AB1A78304B1A7340E02F4B23
:100FD0001B7B562B05D002A82D4B98472B4B186135
:100FE00036E00022294B1A6132E002AB1A78274B17
:100FF0001A762DE0254B1B7B562B05D002A8244BDF
:101000009847224B586123E00022204B5A611FE091
:1010100002AB1A781D4B5A761AE002A81D4B98476E
:101020001D4B9847194BD86112E002A8194B9847FD
:10103000194B9847154B18620AE002A812498847D5
:10104000124B586204E002AB1A7828230F49CA54A5
:1010500001340135EDB2201C2C21094B98470028A2
:1010600004D084429FD202AA231C93E7074B1B7B28
:10107000412B02D109480A4B984706B070BDC046C3
:1010800089380000C099000073360000FC0A002077
:10109000810E000069360000F1970000AC0B0020C3
:1010A000390E00007047C04608B5104B1B780A2B5C
:1010B0000AD180230E4AD35C012B11D90021D154CF
:1010C00001218123D1540BE0084B1B780D2B07D055
:1010D000074B8022995C0548007858540131995497
:1010E000044802490122044B984708BD8C0A00209D
:1010F000280B0020B42300202108000070B582B026
:10110000051C0E1C00226B46DA80064C281C694622
:101110000631A0470028F9D16B4606331B8833708F
:1011200002B070BD6907000070B5061C0D1C034CB1
:10113000301C291CA0470028FAD170BD3D070000D3
:1011400070B584B06C46009001910292054A111C62
:1011500061CC61C10B6004480099044B984704B00E
:1011600070BDC046C00A0020009A0000F1360000A1
:1011700070B582B000226B46DA71254E8023F35C95
:101180006C46A371234B5D68281C234B9847C0B263
:101190006B46607162790533D2B2B15C01AA1170FD
:1011A000A2791B78D2B29A4205D96B4605331B78D7
:1011B000DBB20021F1541648291C184B984700282F
:1011C00002D101226B46DA716B4605331B78DBB224
:1011D00001AA11780E4AD1540E4B1B7A002B06D06F
:1011E0006B46D879C0B20B4BDB68111C9847084896
:1011F00000228123C2548023C15C0091C25400218B
:101200008022074B98476B46D879C0B202B070BDB8
:10121000280B0020C00A0020C5380000A1380000BB
:10122000DF36000008B5044981228B5C012BFCD11C
:10123000024B984708BDC046280B002071110000E2
:1012400070B50B4D4026AE61FA204000094CA04716
:101250006E610948A047094B186859689A68DB68AD
:10126000074DA847074B9847C820A04770BDC04608
:1012700000440041592B000070170000A00A002014
:101280004111000025120000F0B587B06B46002226
:10129000DA750121D97501AB274902911A72274FDE
:1012A000274D284C381C0299039A049BA847A04755
:1012B00025480299039A049BA847A047002802D119
:1012C00000226B46DA7521480299039A049B1C4E52
:1012D000B0471C4B9847002802D100226B46DA75B4
:1012E0001B480299039A049B154EB047154B98472B
:1012F000002802D100226B46DA7516480190029947
:10130000039A049B0E4EB0470E4B9847002802D11B
:1013100000226B46DA756B4617331B78002B04D11D
:1013200001226B46DA750C4B98476B4617331B78D6
:10133000002BB7D007B0F0BDF0990000089A00006C
:101340004111000025120000149A0000289A0000A4
:10135000409A0000889A000041120000F0B585B064
:101360000D49019100236A4613720C48029A039BAF
:101370000B4FB8470B4EB047C8256D00281C0A4CD0
:10138000A0470A480199029A039BB847B047281C16
:10139000A04705B0F0BDC046F0990000A49A000037
:1013A0004111000025120000592B0000C49A0000D2
:1013B00070B586B001226B46DA7501AC1149029115
:1013C000002323721048039A049B104EB047104D1F
:1013D000A847FA20C0000F4B98470F48019061685A
:1013E000A268E368B047A847002802D100226B46F4
:1013F000DA75FA204000074B98476B46D87DC0B29B
:1014000006B070BDF0990000EC9A00004111000098
:1014100025120000592B0000FC9A000070B5174BF4
:10142000186859689A68DB68154CA047C820154EA3
:10143000B047154B186859689A68DB68A047134D88
:10144000281C13490122134B9847281C12490122DA
:10145000124B9847124DA847C820B047114B186847
:1014600059689A68DB68A047A8470F4E0F4D104C8B
:10147000B047A847A0470028FAD070BDB00A0020A6
:1014800041110000592B00005C0A0020B423002009
:10149000A9100000090800008C0A002021080000A3
:1014A00025120000A00A00205D1300008912000030
:1014B000B113000070B590B08023DB0500930023CA
:1014C0000193FF226846028100228372C372962133
:1014D00089010891012124206C46215425202154A2
:1014E00026216354272163540A93882149030391D9
:1014F0002C2163542D21635405932382E3762276B5
:10150000227762761323A37662771F4B0C931F4BCF
:101510000D9301235B420E930F931D4E1D4D1E4CE8
:10152000301C291C6A46A0470028F9D1184C1B4BD7
:101530001C601B4A1B4B1A601B4A1C4B1A60201C68
:1015400014496A46144B9847194E3368986800212D
:10155000184DA847336858680021A8472568281CFB
:10156000154B98471F23184001238340181C134B29
:1015700018602268D369002BFCD12A680223134328
:101580002B6010B070BDC04602000A0002000900C6
:10159000B42300200008004235040000580A00204F
:1015A00029110000540A0020FD100000500A0020FC
:1015B0006801002025370000B12A000000E100E0AA
:1015C00010B5064C201C06490022064B98473123D3
:1015D000E15C03220A43E25410BDC046B42300205C
:1015E000A510000009080000931C9B001950022A56
:1015F00004D1027E1023134303760CE0032A04D1A6
:10160000027E20231343037605E0012393401A1C36
:10161000037E1A43027600207047C04638B580002A
:10162000144BC4582268957B237E1D40637E1D4069
:10163000EB0705D5201CA26890470123226893730D
:10164000AB0705D5201CE2689047022322689373FC
:10165000EB0605D5201C226990471023226893735E
:10166000AB0605D5201C62699047236820229A7337
:1016700038BDC046EC23002008B50020014B984738
:1016800008BDC0461D16000008B50120014B984753
:1016900008BDC0461D16000008B50220014B984742
:1016A00008BDC0461D16000070B584B0011C01AB1A
:1016B0000A4A70CA70C3019B83420AD0029C8442CA
:1016C00005D00020039D8D4205D1022002E00120BB
:1016D00000E00020C0B204B070BDC0460C9B00000A
:1016E000F0B54F464646C0B487B0041C0D1C90466A
:1016F000081C904B984781468F4F391C0C3105A828
:1017000003228E4EB047391C103103A80622B04781
:101710000023A360E3602361636123766376484618
:101720008200874BD450256041468B78082B04D12A
:1017300017204A46D20700D4F6E023712B880520F3
:10174000D90700D5F0E0EB7B1C20DA0600D5EBE0F2
:101750002B88990700D5E7E04246137C002B0CD07C
:1017600002A901238B700022CA704046806908706C
:101770004B704246107D734B98474046037F002BC9
:101780000BD002A901238B700022CA70426A0A7032
:101790004B70036AD8B26B4B98476B4B196A48463B
:1017A000420003A8125A0A431A6241468B78082B5A
:1017B00008D1654B1A6A48460130400003A9415AD6
:1017C0000A431A6201A9424613780B7005AB4846DA
:1017D0001E5C301C5D4B9847301C5D4B9847414662
:1017E00088880B89034388798A78104318434B789B
:1017F000002B02D080231B01184321687F22CB7B62
:101800009343FCD128804246507B431E9841800080
:10181000937B002B01D00123184321687F22CB7BCF
:101820009343FCD1FF232B71002805D021687F2230
:10183000CB7B9343FCD168714346987ADB7A002BCB
:1018400001D01023184341460B7B002B01D02023ED
:10185000184321687F22CB7B9343FCD1A871226877
:101860007F21D37B8B43FCD12379042B05D0082B1C
:1018700041D01720002B57D124E07F21D37B8B430D
:10188000FCD128234246D35C2B7421687F22CB7B7A
:101890009343FCD129234046C35C2B7521687F22EA
:1018A000CB7B9343FCD12A234146CB5C2B7621682A
:1018B0007F22CB7B9343FCD12B234246D35C6B76B8
:1018C000002031E07F21D37B8B43FCD14046038D48
:1018D0002B8221687F22CB7B9343FCD141464B8DE9
:1018E0002B8321687F22CB7B9343FCD14246938D8F
:1018F0006B83002018E07F21D37B8B43FCD14346D0
:101900009B6A2B6121687F22CB7B9343FCD14046AD
:10191000C06AA86121687F22CB7B9343FCD14146FA
:101920000B6BEB610020FFE707B00CBC90469946BB
:10193000F0BDC046A91600000C9B0000CD3600008B
:10194000EC230020E53200000004004009320000D2
:101950007D31000082B0274B5B78D9090022002935
:1019600003D15A09D20124495218126A1F210B408F
:10197000012199400B1C13405A1E9341DBB26A4669
:10198000D3711E4B5B78D9090022002903D15A0973
:10199000D20119495218126A1F210B4001219940A6
:1019A0000B1C13405A1E9341DBB26A4693716B467F
:1019B00007331B78002B06D10E4B9B78012B02D1ED
:1019C00001220C4B1A706B4606331B78002B06D194
:1019D0000A4B9B78012B02D10122084B1A706B46EF
:1019E000DA79044B9A706B469A79044B9A7002B07C
:1019F0007047C046FC23002000440041F82300202B
:101A000038B50C490F234B7001228A7000230B70EC
:101A100009490E2048708A700B70084C2370627060
:101A2000A3700F20211C064DA8470E20211CA8479B
:101A300038BDC046FC230020F8230020AC23002042
:101A4000852B000010B58EB001AA00230021137071
:101A5000937093711381002050709172D172117341
:101A600091735173117453619361117713625362CF
:101A7000138553859385C0239B009380074C201CBE
:101A80000749084B984722687F21D37B8B43FCD1C1
:101A9000118802230B4313800EB010BDD00A002022
:101AA000002C0042E116000010B50D4C201C0D4921
:101AB00000220D4B984720680C4B98470C4B1B5C41
:101AC0001F21194001231A1C8A40111C094A116068
:101AD000617E01220A4362762268537310BDC046BC
:101AE000D00A002055190000E9150000A9160000D1
:101AF000249B000000E100E0014B18607047C046E5
:101B0000C401002010B5C9018A18064909688A185D
:101B10005C1EE4B201340023C15CD1540133A34202
:101B2000FAD110BDC4010020024B1B68C00141184E
:101B3000CA547047C4010020024B1B68C001401802
:101B4000185C7047C4010020F0B5474680B4041CFF
:101B5000151C43B2002B22DB3F2920D8CE08F7000A
:101B6000C91B01278F40FBB29846301C211C0D4B2E
:101B70009847021C012D04D0002D06D0022D07D05D
:101B800009E043461843C2B205E0B843C2B202E0DE
:101B900043465840C2B2301C211C034B984704BC3A
:101BA0009046F0BD391B0000291B0000F0B55746D8
:101BB0004E464546E0B48418802C03DD8022524214
:101BC000121AD2B2002A53D0CC08E500491B0125D5
:101BD0008D40A846EFB2012B0BD0002B11D0022B69
:101BE00046D1151C01388246244B99462449884623
:101BF0002FE0151C01388246204B99462049884623
:101C000006E0151C013882461C4B99461C4F0FE01C
:101C100051466E18F6B2201C311CC8473843C2B278
:101C2000201C311CC047013DEDB2002DF0D11FE05A
:101C30005346EE18F6B2201C311CC8474146884373
:101C4000C2B2201C311CB847013DEDB2002DEFD1CE
:101C50000EE05346EE18F6B2201C311CC8477840FF
:101C6000C2B2201C311CC047013DEDB2002DF0D1A5
:101C70001CBC90469946A246F0BDC046391B0000E8
:101C8000291B0000F8B54F464646C0B4051C161C7B
:101C900008AA1778002B0FD01C1C01398946084B65
:101CA00098464B46E118C9B2281C321C3B1CC04761
:101CB000013CE4B2002CF4D10CBC90469946F8BD2E
:101CC000AD1B0000F8B55F4656464D464446F0B49D
:101CD000051C0F1C4378DB089A46D208934683788C
:101CE000002B08D0012B34D15046002831D00026DB
:101CF0001B49894615E000245246002A1AD128E0E3
:101D0000E119C9B2734368680219D25C4046C847FA
:101D10000134E4B22B78A342F2D80136F3B2534532
:101D200017D22B78002BF8D0002459468A19D2B24A
:101D30009046E5E70B4E2B78181C60436A68101834
:101D40005A461119C9B23A1CB0470134E3B29A4558
:101D5000F1D83CBC90469946A246AB46F8BDC04679
:101D6000291B0000051B0000F0B54F464646C0B4D5
:101D700083B0061C0C1C407C03212A4B9847C7B239
:101D8000B37CBB4201D1002C0AD000230093002079
:101D9000102180223023244CA0470122234B1A70AB
:101DA000B7740023009300201021062230231E4C1C
:101DB000A047707C03211E4B9847CAB20132120122
:101DC000D2B21C4800211C4B9847184B1B78002BA3
:101DD00022D07C003C19E4B201377B00DF19BC4201
:101DE00017DA337AA34214D91025144A9146144BBA
:101DF0009846A3007268985807212A1C4B46C04792
:101E00000134E4B2BC4204DA1035EDB2337AA342B5
:101E1000EFD80022054B1A7003B00CBC90469946CF
:101E2000F0BDC046FD780000851C0000C801002000
:101E30008579000000000020C51C0000080000207B
:101E4000A11F000030B583B0041C002300930020C4
:101E5000002180224023074DA8472068002100224E
:101E6000054B064DA847201C0121054B984703B0A0
:101E700030BDC046851C000008000020A11F0000E6
:101E8000691D000008B50248024B984708BDC046CE
:101E90004C060020F91A0000F0B55F4656464D4644
:101EA0004446F0B485B0061C8846141C03931A7A85
:101EB0005B7A002100914046211C234DA8470399DD
:101EC0000B78002B39D10A7AD308510700D001339F
:101ED000039A527A934603998A7AB61A5A46564317
:101EE0005E43B6B24B689E19A24607218946039A03
:101EF000177A002F17D000240025E3B24146581866
:101F0000C0B24A461A4201D1357801366BB2002B75
:101F100003DA514601220D4B98476D00EDB20134B2
:101F2000E3B29F42E9D853460133DBB29A465B469F
:101F3000013BDBB29B46002BD9D105B03CBC90469F
:101F40009946A246AB46F0BD851C0000491B000027
:101F5000F8B54F464646C0B4041C884691461F1C3F
:101F60000E1C20780A2806D17B7A01334B44DBB261
:101F70009946464609E00D2807D0311C4A463B1CCD
:101F8000064DA8473B7AF618F6B2013420780028AF
:101F9000E7D10CBC90469946F8BDC046991E00009A
:101FA000F8B54F464646C0B4041C884691461F1CEF
:101FB0000078002817D00D1C0A2806D17B7A01333F
:101FC0004B44DBB29946454609E00D2807D0291C51
:101FD0004A463B1C064EB0473B7AED18EDB2013441
:101FE00020780028E8D10CBC90469946F8BDC04640
:101FF000991E000010B5031C4908402099420CD3DB
:102000000024C91A601C80B28B4201D8041CF8E776
:102010004020FF2C01D81480002010BD00000000DB
:10202000F0B55F4656464D464446F0B487B0061CB0
:102030000D1C049210AA1078321C424340248A429C
:1020400000D9B3E0002B4BD10021321C5E4CA047DD
:1020500083462E1C002700200021002200233F245D
:10206000A4460125A846029003916146203903D475
:1020700040468840814605E0202165464C1B40468D
:10208000E040814641466446A1408A46101C191C26
:1020900080185941021C0B1C5D464C46254202D05B
:1020A000424602430B1C9F420CD801D1964209D8EC
:1020B000921BBB415046029D28434946039C214345
:1020C000029003916546013DAC46CED20298039939
:1020D0003C4B3B4A121A8B41120C1B041A4362E020
:1020E0000022012B5FD14F0FB946CD00AB46002136
:1020F000321C0023344CA047061C0F1C0023012572
:10210000029603979A465046C0B205900021884631
:10211000002200233F24271C203F03D42E1CBE4056
:10212000019604E02020071B291CF94001912E1C78
:10213000A6400096101C191C80185941021C0B1C4B
:102140005F463740BC46019E4F463E4067463E4391
:1021500002D02A1C02430B1C039898420BD802D1D0
:102160000299914207D8029E039F921BBB414746AA
:1021700000980743B846013CCDD2414652468B1ADF
:10218000DB08124CA34208D9059A0132D2B205925B
:102190000126B2445746082FB5D140240598082897
:1021A00004D042031A43049C22800024201C07B060
:1021B0003CBC90469946A246AB46F0BDC046C046E0
:1021C0000000000001000000D97A0000FF1F00009D
:1021D00010B582B0041C0F4B1B78002B01D00029D6
:1021E0000DD001A90C7013200B4B984713200B4BFB
:1021F0009847084B5C7001221A70002007E0054BDD
:102200005A781D20141B621E94416442204002B083
:1022100010BDC046CC010020093200007D31000015
:102220002E4B98421CD003D82D4B984207D04AE041
:102230002C4B984225D02C4B984233D043E00129B7
:1022400043D0002904D0022906D0032906D001E09A
:10225000264841E000203FE025483DE025483BE09E
:10226000012934D0002904D0022906D0032906D040
:1022700001E0032030E000202EE01F482CE01F4842
:102280002AE0012925D0002904D0022906D00329FB
:1022900006D001E01A481FE000201DE019481BE0AD
:1022A000194819E0012916D0002904D0022906D0C6
:1022B000032906D001E015480EE000200CE0144888
:1022C0000AE0144808E0002006E0134804E0134840
:1022D00002E0134800E013487047C046000C00427B
:1022E00000080042001000420014004203000400F5
:1022F000030006000300070003001E0003001F0088
:102300000300080003000A0003000B000300100094
:102310000300120003001300030005000300010086
:10232000030009000300110070B584B00E4A69462D
:1023300070CA70C112680A60031C009A82420FD0F2
:10234000019C844208D0029D854207D00020039E54
:102350009E4207D1032004E0012002E0022000E0B9
:102360000020C0B204B070BDF4A60000F0B547462E
:1023700080B488B0051C0C1C161C29600B681C203E
:102380009A0700D5DFE00B680520DA0700D5DAE010
:10239000081C6F4B98476F4B196A821C01279740A6
:1023A0003A1C0A431A6207A92427F35D0B70143004
:1023B000C0B28046684B98474046684B9847F05DEE
:1023C0000021674B98473378012B03D122680C23F7
:1023D000134323603378002B00D0B1E02268082338
:1023E00013432360ACE0EA18D16004331C2BFAD10C
:1023F0000023EB62AB620024AB862B863623EC54C1
:102400003723EC543823EC5403236B722C71286867
:102410004F4B9847071C5349534B9847BF00534BAA
:10242000FD502F6802AB80221A705C7001229A70F6
:10243000DC703378002B02D1002202AB9A70B36AB1
:102440000393F06A0490326B0592736B0693002439
:10245000E1B2A30003AA9858002802D1381C444ACC
:102460009047431C06D06A461072000CC0B202A905
:10247000404B98470134042CEAD133786B71337C9C
:10248000AB71B37CEB71337D2B7200226B46DA802B
:102490003378012B14D128682D4B98471430C0B2E3
:1024A000354B9847011CB0696A460632334B984752
:1024B000031C1720002B46D16B4606331B783B7359
:1024C0003378002B0FD1B169B38B786AF47F240481
:1024D000B27F224302437A622022B25C002A04D0F7
:1024E0004022134301E000230021B26870680243D8
:1024F000F06802430A43317C0B43717C002903D10D
:102500001F498978880701D580210A43B17C0029B9
:1025100002D0802189020B43F17C002902D0802166
:1025200089000B43317D002902D0802189010B43B2
:1025300039680A433A607A6813437B60002002E0FE
:10254000002300214FE708B004BC9046F0BDC04610
:102550002923000000040040093200007D31000002
:10256000D12100008D280000712A000004240020E1
:1025700021220000E532000025320000F51F000096
:102580000020004110B544791523012C6CD1047A48
:102590000023002C68D1002A57D04B78002B44D060
:1025A0000268137EDC070FD40B78D90900220029BA
:1025B00003D15A09D2012D4952181F210B40012184
:1025C0009940916105234FE00B78DC090022002C33
:1025D00003D15A09D201254C12191F24234001248A
:1025E0009C405461897803681A7ED40700D59962AB
:1025F000C2790023002A37D102680421137E0B42DE
:10260000FCD0117E00234C072ED5538B590703D5E0
:10261000518B04230B4353838379012B02D1936A9B
:10262000002321E0936A00231EE00B78D9090022E1
:10263000002903D15A09D2010C4C12191F210B4059
:1026400001219940516100230EE00B78D909002245
:10265000002903D15A09D201044952181F210B4005
:102660000121994091610023181C10BD00440041D4
:10267000F0B55F4656464D464446F0B483B0041C60
:1026800092463823C05CC0B2052800D1F1E0172083
:10269000002A00D1EDE06379002B05D12368187E74
:1026A000820701D502201876554600200123022614
:1026B000B4460427BB468FE06279002A01D0266821
:1026C00016E02268167E1E4206D16D4E177E1F420E
:1026D00002D1013E002EF9D1167E67463E4203D05C
:1026E000022313760420C4E0127E1A42E7D1B3E03D
:1026F000327E1A42FCD0421C92B290460F5CA27904
:10270000012A01D0404605E0023080B242468A5C90
:1027100012021743327E1A4202D0FF05FF0DB76244
:102720006A1E96B2E279002A01D1351C56E0627920
:10273000002A37D1534A01912668377E1F421CD0A8
:10274000471CBFB2B9460199095C8846A779012F99
:1027500001D0484608E0023080B201994F46C95D79
:10276000090247460F43B846377E1F4203D047460B
:10277000F905CF0DB762013DADB22668377E5946E7
:102780000F4202D1013A002AD6D10199327E674622
:102790003A4203D00223337604206AE0327E5E465A
:1027A00032425BD02668327E5F463A42FBD0327EB0
:1027B0003A420DD0728B3A4204D0728B04273A43CE
:1027C00092B27283A279012A01D1B26A00E0B26AA0
:1027D0005246013A92B29246013DADB22A4A954222
:1027E00000D069E751466379012B05D121680222A7
:1027F0000B7E1342FCD033E0002B33D1E379002071
:10280000002B36D000292FD004251D4E042750461A
:102810001CE00A7E2A4202D1013B002BF9D10B7E3B
:102820002B4223D00B7E2B420CD04B8B2B4203D060
:102830004B8B3B439BB24B83A379012B01D18B6A1A
:1028400000E08B6A013880B2002811D021680B7E2D
:102850002B42E4D1331CDCE712200AE0122008E00E
:10286000002006E0002004E0002002E0122000E04A
:10287000002003B03CBC90469946A246AB46F0BD52
:102880001027000011270000FFFF0000F8B58000AE
:10289000744BC45825683623E35C3722A75C1F407D
:1028A0002B7EAE7D1E40F10749D56379012B16D1F1
:1028B000637A002B0FD16C4B1B88AB62638E013B9C
:1028C0009BB26386638E9BB2002B01D101232B75D3
:1028D0006379012B03D1637A002B05D12FE0002B04
:1028E0002DD1637A002B2AD02268E36A1978C9B205
:1028F000581CE062A079012804D1587800020143F5
:102900000233E362CB05DB0D9362A38E013B9BB2E6
:10291000A386A38E9BB2002B11D101232B75637A62
:10292000012B0CD1E379002B09D103236372002220
:102930003823E254FA0702D5201CE3689847710750
:1029400061D56B8B5A0714D5637A012B0BD01E22ED
:102950003823E2540323637205232B753B0702D50A
:10296000201CA1698847AB6A6A8B042313436B83DD
:1029700049E0637A012B16D123689B6A638E013B81
:102980009BB26386638E9BB2002B3CD104232B75D4
:1029900000223823E25403236372FA0733D5201C44
:1029A000E36898472FE023689A6AD205D20DD3B224
:1029B000A16A0B70A36A591CA162A179012904D1F3
:1029C000120A5A70A36A0133A362238E013B9BB2A1
:1029D0002386238E9BB2002B15D100223823E2548C
:1029E00004232B75637A022B05D17A070BD5201CA3
:1029F0006369984707E0637A002B04D1B90702D5D1
:102A0000201C22699047B30713D56379002B10D19E
:102A100007232B7502232B76032363720023A386DF
:102A2000238638230022E254F90602D5201CE269ED
:102A3000904733070AD56379002B07D108232B75FC
:102A40002B76B90602D5201C226A9047F60907D0DA
:102A500080232B752B767B0602D5636A201C984752
:102A6000F8BDC04604240020002400207047C04662
:102A700030B50B4B1B78002B0ED10A4C0A4D25604C
:102A80000A4B00221A6065605A60A5609A60E56092
:102A9000DA600122024B1A708000024BC15030BD37
:102AA000D0010020D40100206D2A00000424002061
:102AB00030B583B0051C01AC201C05490422054B30
:102AC0009847281C044B9847205603B030BDC04699
:102AD00004A70000CD3600002923000008B5024BF2
:102AE0001B680020984708BDD401002008B5024BA0
:102AF0005B680120984708BDD401002008B5024B4F
:102B00009B680220984708BDD401002008B5024BFD
:102B1000DB680320984708BDD401002010B50020D1
:102B2000084B9847084CFA218900A047074B1860CA
:102B3000FA218900A047064B18600522054B1A6050
:102B400010BDC046F1300000FD78000018000020E4
:102B50001400002010E000E030B5084B1C68084A63
:102B600000258021490206E0002C04D054609560C5
:102B700013680B42FCD00138F6D230BD180000209B
:102B800010E000E000B583B001AB80221A700A7833
:102B90005A704A789A708A78DA70191C014B9847F3
:102BA00003B000BDE53200007047C0460C4B1B6807
:102BB000002B10D1EFF31083002B09D172B6BFF3B5
:102BC0005F8F0022074B1A700122074B1A7002E038
:102BD0000022054B1A70024B1A6801321A607047C6
:102BE000E40100201C000020E8010020084B1A68C6
:102BF000013A1A601B68002B09D1064B1B78002B89
:102C000005D00122044B1A70BFF35F8F62B6704784
:102C1000E4010020E80100201C00002008B508287D
:102C200034D880001B4B1B589F468020000230E0A8
:102C3000194B18692DE0194B186A8005800F184B45
:102C4000C340181C25E0144B586922E0124B1B6846
:102C5000022018401DD011491022CB681A42FCD026
:102C60000D4B1B685A0713D500200E4B98470A4B93
:102C70009B681B041B0C58430BE05023074AD35C92
:102C800000205A0705D5044BD86802E0002000E078
:102C9000054808BD08A70000EC010020000800401E
:102CA00000127A0025320000006CDC0270B50C4B7B
:102CB0001C6A017885784078012210408001402606
:102CC000B44304432A40D00180229443221C02438F
:102CD000032001400902034802400A431A6270BD02
:102CE00000080040FFFCFFFFF0B55F4656464D462A
:102CF0004446F0B4254A948A4578037859425941AC
:102D00008A4683789C46C178884603799946467BF3
:102D1000077B817B8B4680681D4B586101235146A0
:102D2000880004218C43044348461840C000082111
:102D30008C43044340461840000110218C43044357
:102D400060461840400120218C430443181C384041
:102D500080014027BC430443181C3040C00180263A
:102D6000B44304430720284000020A4D2C4004438A
:102D700059460B4019030848231C03400B43938218
:102D80003CBC90469946A246AB46F0BD00080040C8
:102D9000EC010020FFF8FFFFFFEFFFFF10B5027A04
:102DA0009206120C43899B059B0D1A43154B5A60E2
:102DB000818842881143C479827922430A43417849
:102DC000C9010A431A600378042B0FD1027B9206D3
:102DD000038A1A43C3891B040B490B401A43094B4E
:102DE0009A60196804220A431A6009E0202B07D16F
:102DF000028A044B9A6019688422D2000A431A603E
:102E000010BDC046EC0100200000FF03082843D895
:102E10008000224B1B589F4600203EE0204B196A41
:102E200002220A431A62002037E01D4B99690222F0
:102E30000A439A61002030E0194B198A02220A43A2
:102E40001A82002029E0164B998A02220A439A82AC
:102E5000002022E0134B196802220A431A601A6804
:102E6000114B1A400E4B9A84191C1022CB681A423F
:102E7000FCD00C4A91680A4BD96251689962126879
:102E800092B29A84002008E0054A4423D05C0221D3
:102E90000143D154002000E0172070472CA7000008
:102EA00000080040EC0100207FFF000070B58EB0EC
:102EB000C222D2003C4B9A603C4A51681E2399437F
:102EC00002231943516001AA13700024384DE0B267
:102ED00001A9A8470134252CF9D10AA800230370C1
:102EE0008370802212028260C37001220271037318
:102EF00083730622427043732E4B984705202E4B56
:102F0000984729490222CB681A42FCD0264B998A5D
:102F100080220A439A8205A800230370002443807C
:102F200083808471C471072202723F23438106218A
:102F3000018244700273C381204B984704A84470F7
:102F40000126867004701E4B984706201A4DA8472C
:102F50001C4B984701A94E604C700C724C720523B3
:102F60000B700120184B98470120184B98470720F9
:102F7000A8470D491022CB681A42FCD0144A0023FE
:102F800013725372937201A901224A604B70062298
:102F90000A700B724B7200200B4B984700200B4BB2
:102FA00098470EB070BDC046000800400040004188
:102FB00009320000E92C00000D2E00009D2D0000BC
:102FC000AD2C0000D52F0000F92F0000AD3000001F
:102FD00000040040064B996908220A439A610122C5
:102FE000044B1A70191C0B781342FCD17047C04671
:102FF00000040040000C0040F8B5061C071C0D78CA
:103000002D0205434B78002B02D08023DB021D43A9
:103010004B7A002B02D080231B031D434C68012CEC
:1030200017D9631E1C420FD1022C06D9022300229D
:1030300001325B009C42FBD800E0002217023743BC
:1030400080235B031D4304E02702374380239B0258
:103050001D430B7A002B02D080239B031D430F4A94
:1030600053785BB2002BFBDB0D4B98470D4B1E706A
:103070000A4A53785BB2002BFBDB084B9F601A1C9B
:1030800053785BB2002BFBDB044B59688022520261
:103090000A4015435D60044B9847F8BD000C0040A2
:1030A000AD2B0000080C0040ED2B000010B5041CF7
:1030B0000B4A53785BB2002BFBDB0A4B98470A4B59
:1030C0001C70074A53785BB2002BFBDB044B59683A
:1030D000802252020A435A60044B984710BDC046F2
:1030E000000C0040AD2B0000040C0040ED2B000054
:1030F00070B5041C1A4A53785BB2002BFBDB194BEA
:103100009847194B1C70164A53785BB2002BFBDBB7
:10311000134E7068C004C00E144B9847051C124B28
:103120001C707668F602F60F114B1C700C4A53782F
:103130005BB2002BFBDB0A4B9C68240AA4B20D4B4C
:103140009847002E07D1012C07D9281C211C0A4BB7
:103150009847051C01E00134E540281C70BDC046BD
:10316000000C0040AD2B0000040C00401D2C0000A2
:10317000080C0040ED2B0000FD78000010B5041C89
:10318000064B9847064B1C70064B59888022D2018B
:103190000A435A80044B984710BDC046AD2B00002F
:1031A000020C0040000C0040ED2B000010B5041C88
:1031B0000F4B98470F4B1C700F4B58880005000FA2
:1031C00059880E4A0A405A8059880D4A0A405A8046
:1031D000191C8022D2014B881342FCD1064B0102FC
:1031E0005888064A02400A435A80064B984710BD49
:1031F000AD2B0000020C0040000C0040FFF0FFFF70
:10320000FFBFFFFFED2B000010B50C782402044334
:10321000024B9847A4B2024B5C8010BDAD31000058
:10322000000C004010B5041C064B9847064B1C7060
:10323000064B5C882405240F054B9847201C054B42
:10324000984710BDAD2B0000020C0040000C004060
:10325000ED2B0000F130000030B5D378002B1ED1EB
:103260001378802B04D01B0680246402234300E0E3
:10327000002354780225AC430AD19478002C03D162
:103280008024A402234302E0C024E40223434160DB
:103290005478013C012C04D8114C234001E04160DA
:1032A00000230D042D0CA024E4052C431C43846250
:1032B0000D0CD02424062C431C438462D478002CAB
:1032C0000CD15C0305D59378012B01D1816100E01D
:1032D00041615378013B012B00D8816030BDC0466D
:1032E000FFFFFBFF08B5031C0A1CC10900200029D1
:1032F00003D15809C001044940181F210B40012186
:103300009940024B984708BD0044004159320000E3
:103310007047C04608B5044B9847044B9847044B88
:103320009847044B984708BDAD2E0000A92B00001C
:103330001133000011330000FEE7C04670B50221D2
:1033400090235B00284AD150284BD878032188432A
:1033500002221043D870DD780C24A54308200543D1
:10336000DD70234B9E7B3025AE43202535439D7376
:103370009D7BA54328439873987B884302439A73A7
:103380001C4B1D4A9A4203D01C4B1A4A9A4204D342
:103390001B4B1C4A9A4210D31BE01B4B17480330AF
:1033A000C01A80080130800000231249124AD45804
:1033B000CC5004338342FAD1EAE7124B1A1D10496C
:1033C0000331891A890889005218002102C39342E7
:1033D000FCD10E4B7F210E4A8A439A600D4B9847D1
:1033E0000D4B9847FEE7C046007000410050004179
:1033F000004800410000002064AC0000A80100204B
:1034000018240020A80100200400002000ED00E0A6
:1034100000000000813600005D340000064B1B6890
:10342000002B02D1054A044B1A60034A136818188E
:103430001060181C7047C046040200201844002089
:10344000012040427047C04680239B014B60002012
:103450007047C0460120704700207047F0B54746CE
:1034600080B482B04D4B98474D4B98474D4B984791
:103470004D4B984701254D4B1D70BFF35F8F62B6D2
:103480004B4800248023C4548123C454002180224B
:10349000484B9847484A494B1360494B5360147254
:1034A000484A4949116053601472484A48491160BA
:1034B00053601472474A4849116053601472474A76
:1034C000474911601572474951604749D160474AE1
:1034D00047491160147247495160474A4749116092
:1034E00015725360464BD360464B9847464B9847FE
:1034F000464B9847464B98471622464B1A70464B08
:103500009847464B98470420454B984745494D708E
:103510008C700D700620444B9847009400200021C9
:1035200080224023414DA846A847414E41481721DB
:103530001222331C404DA84740482C212022331C26
:10354000A8473F4FB8473F4B9847009400200021C1
:1035500080224023C0473C480A211222331CA8473E
:103560003A481E212022331CA847B8471B4C384F2D
:10357000384E20686168A268E368B847B0473648AB
:10358000364DA84720686168A268E368B847B0472D
:10359000334B98473348A847EBE7C0461533000044
:1035A0001D2B0000B5140000C11500001C000020F8
:1035B000280B0020DF360000B00A002050A70000D2
:1035C000F09900005C0A002058A70000A00A002023
:1035D00060A70000EC0A002070A700007C0A002011
:1035E00080A7000090A70000690F00006C0A00206F
:1035F0009CA70000ACA70000900A0020B8A700001C
:10360000510F0000851E0000011A0000451A00003D
:10361000A91A0000B02300205D010000E5030000AE
:10362000010F0000AC230020852B0000851C00004A
:1036300008000020C8A70000511F0000D4A7000008
:10364000910300001D140000DCA70000E8A70000A3
:1036500041110000251200004C040000592B00000D
:10366000810B0000583E0F0008B5002100F098FFC4
:1036700008BD08B500210A2201F028F808BD0000A5
:1036800070B50E4B0E4D0024ED1AAD101E1CAC4251
:1036900004D0A300F35898470134F8E707F0D2FAB2
:1036A000084B094D0024ED1AAD101E1CAC4204D08D
:1036B000A300F35898470134F8E770BD50AC000000
:1036C00050AC000050AC000054AC000010B500231A
:1036D000934203D0CC5CC4540133F9E710BD031C02
:1036E0008218934202D019700133FAE77047000044
:1036F0000FB40B4B13B51C68002C05D0A369002B2D
:1037000002D1201C02F002FF05ABA168201C049A24
:10371000019301F061F916BC08BC04B01847C0461B
:103720006801002008B54A424A4180235200DB006C
:1037300000F002F808BD0000F7B51E1C3C4B041C4D
:103740001D680F1C0192002D05D0AA69002A02D124
:10375000281C02F0DBFE374B9C4201D16C6808E06C
:10376000354B9C4201D1AC6803E0344B9C4200D104
:10377000EC68019B022B57D8002E55DB281C211C1E
:1037800002F044FE00236360A361A3891A0603D5F7
:10379000281C216903F0CCFEA38983229343A381D3
:1037A000019B022B13D0002F25D1002E01D18026A2
:1037B000F600301C03F082FA071E18D18020C000EA
:1037C00003F07CFA071E10D10120404200E00020E7
:1037D000A38902221343A3810023A360231C473340
:1037E000236023610123636120E08026F600A38922
:1037F00080221343A381019A012A04D1A389134390
:10380000A3817342A3610E4B0020AB62A3892760A2
:10381000276166611A0709D5032213405A425341B2
:103820005B421E40A66001E001204042FEBDC04652
:10383000680100205CAA00007CAA00009CAA00008D
:10384000656400000EB400B59CB01DAB04CB8222B1
:1038500002A992008A810A4A02908A604A61012282
:103860005242CA81074A086110681D9A019300F00C
:103870009BFF029A002313701CB008BC03B01847CA
:10388000FFFFFF7F68010020C9B20378002B03D03F
:103890008B4204D00130F8E7002900D0181C704793
:1038A00002780B7801300131002A01D09A42F7D01A
:1038B000D01A7047031C0A7801311A700133002AAC
:1038C000F9D170470023C25C0133002AFBD1581E96
:1038D000704730B5031C002A07D00C7801335D1EF9
:1038E000013A2C700131002CF5D19A18934203D083
:1038F000002119700133F9E730BD30B502680C784A
:103900000132002C0AD013781D1C413D192D00D81E
:1039100020330131A342F2D0002001E002600120F7
:1039200030BD000070B5161C0D1C03F0CBFC002E42
:103930000BD06B005B0D6B22D31A002B05DD034D02
:103940001C056319002205F097F870BD0000F03FD8
:10395000F0B5BE4FBC4EA1B0002308900A91199259
:103960001C931B911B9A13780D2B05D8092B15D28C
:10397000002B00D1C1E114E02B2B07D02D2B02D05E
:10398000202B0ED10AE00124169401E000251695A3
:10399000531C1B935378002B05D1AEE101321B92CF
:1039A000E0E7002416941B9D00242B780D94302B07
:1039B0005AD16B78582B01D0782B49D1169C1CAB6F
:1039C0000093019408981BA9A14A1DAB02F059FE6F
:1039D00007240790044001D100F0B0FD062C02D16D
:1039E00001351B958BE11C9A002A07D01EA83521B2
:1039F00003F058FD08981C9903F0C6F91D9B062C8E
:103A00001CD8201C03F070FF040A0714170A0400D6
:103A100000273E1C12E01E9E1F9F0FE08D488E4A1D
:103A20001B181F991B050A401F1C1E9E174305E00B
:103A30008A4F002602E00123894F5E42079C24073B
:103A400001D400F07BFD80231B061F4300F076FDB0
:103A50001B9B5A1C1B925B78302BF9D0002B01D199
:103A600000F06CFD01250D951B9C002510940B9515
:103A70000E9509951B9C25782B1C303BDAB2092A40
:103A800012D8099D0A22082D04DC0E9D6A439B185A
:103A90000E9303E00B9D6A439B180B93099D013421
:103AA000013509951B94E5E7089803F0B3F8006821
:103AB0000790089803F0AEF80068FFF703FF079936
:103AC000021C201C03F07EFE041E06D0099C002070
:103AD0002B1C079484460C9063E008981B9D03F010
:103AE00099F80068FFF7EEFE2D181B952B78099DBD
:103AF000281E48D1302B05D11B9B01305A1C1B922C
:103B00005B78F7E71A1C313A082A45D81B9C844693
:103B1000002010940790303B421C002B2DD00799B9
:103B20009444079D01314C1B94420EDA4C1E082C24
:103B300004DC0E9D0A2465430E95F2E71029F0DCA3
:103B40000B9D0A2465430B95EBE7C243D217104047
:103B50002818441C0794082806DC0E9D0A226A4394
:103B6000D2180E92002208E0079C0022102C04DCE0
:103B70000B9D0A216943C9180B911B9B101C591CF2
:103B80001B915B7803E0099D201C0795A4461A1C35
:103B9000303A092ABFD902E000240794A446012143
:103BA0000C912022191C9143002245295FD1079BCB
:103BB0000D9C03432343934200D19EE01B9D2B1C8D
:103BC00001331B936B780A952B2B03D02D2B03D03D
:103BD000119208E0119201E0012111910A9B0A9CC7
:103BE00002331B93A3781A1C303A092A3CD8302B95
:103BF00004D11B9B5A1C1B925B78F8E71C1C313CC0
:103C00000022082C33D81D1C1B99303D1B9B5A1CCD
:103C10001B925B781C1C303C092C04D80A225543AB
:103C2000ED18303DF2E7521A0F920E4C0F99221CFC
:103C3000082903DC2A1EA24200DD221C119C002C54
:103C400015D0524213E0C046000000000000000002
:103C5000E0A8000033040000FFFFEFFF0000F07F4A
:103C6000FFFFFF7F1F4E00000A9D00221B95079C4F
:103C7000002C48D10D9D284301D000F05FFC0C982A
:103C800000283AD14E2B1CD002DC492B05D034E061
:103C9000692B02D06E2B14D02FE01BA8A849FFF788
:103CA0002CFE002829D01B9B1BA8013BA5491B9378
:103CB000FFF723FE002802D11B9B01331B93A24F69
:103CC00018E01BA8A149FFF718FE002815D01B9982
:103CD0000B78282B0DD11BA89D491EAA02F001FFCD
:103CE000052806D1984A1F9B171C1F431E9E00F0F3
:103CF00025FC984F002600F021FC0A9C1B9400250F
:103D0000169500F01BFC6446099D141B0A94002DB7
:103D100001D1079C0994079C102C00DD10240E98FB
:103D200005F0E0FC061C0F1C092C15DD231C8A4A3B
:103D3000093BDB00D3181A685B6804F09DFE061C83
:103D40000B980F1C05F0CEFC021C0B1C301C391C00
:103D500003F006FF061C0F1C079D0F2D3ADC0A9D81
:103D6000002D01D100F0EAFB26DD162D07DC7A4B91
:103D7000EA009A18106851683B1C321C17E0079D36
:103D800025235B1B0A9D9D4224DC079C0F22151BEB
:103D9000714CEB00E31818685968321C3B1C04F0A6
:103DA0006BFE0A9A571BFF00E4192268636804F04F
:103DB00063FE061C0F1CC1E30A9D16350ADB0A9C34
:103DC000654BE2009A1A301C391C5368126804F0E3
:103DD000E9F9EEE7079D2C1B0A9D2C19002C56DDF6
:103DE0000F2323400AD05C4ADB00D31818685968B7
:103DF000321C3B1C04F040FE061C0F1C0F239C438E
:103E000000D1B7E09A235B009C420EDD00240794AA
:103E1000099410940E94089D109C222300262B6078
:103E2000494FB44200D075E388E32411301C391C9B
:103E30000025012C0BDDE20706D5484BEA00D3181C
:103E40001A685B6804F018FE01356410F1E7444B12
:103E5000ED00CF18414B061C5D19321C3B1C286835
:103E6000696804F009FE384B0F1C0B403D49061CE5
:103E70008B42CBD83C498B4203D901233B4F5E4256
:103E800002E0D425AD047F1900240B9474E0002CCB
:103E900070D064420F2323400AD02F4ADB00D3188E
:103EA000301C391C1A685B6804F07CF9061C0F1C76
:103EB00024115FD01F2C05DD00250795099510956D
:103EC0000E9521E1E3066A25DB171D400B95284D71
:103ED000301C391C002C08DDE20703D52A686B680A
:103EE00004F0CAFD64100835F4E70B9C061C0F1C97
:103EF000002C17D04B005B0D6B21CB1A002B11DD72
:103F00001F2B0BDD0026342B02DDDC239F0409E090
:103F10000121203B494299400F4003E001225242D7
:103F20009A401640301C391C044B034A03F0A6FD8E
:103F30000028C1D120E0C0460000000000000000C1
:103F40001EA9000051AA00000000F07F26A9000071
:103F5000F4A800000000F8FFC8AA000090AB000021
:103F60000000B0FC0000A07C0000907CFFFFEF7F11
:103F7000B8A8000000250B950E9C08980094109995
:103F8000099A079B02F057FF1090002800D13DE7E7
:103F90000A9D00246B42EA17134017930794099473
:103FA000109D08986D68291C069502F0B5FE0E90CC
:103FB000002800D12FE71098109900690C31021CDD
:103FC0000E98023292000C30FFF780FB1DAB00937D
:103FD0001EAB01930898321C3B1C1296139703F0FA
:103FE000E5F91C90002800D115E70898012102F09E
:103FF000ABFF0990002800D10DE70A9D00240D9425
:10400000AC4200DA0D951D9B002B00DA86E0179D6F
:104010000D99EC180B9D1E985B1B36251A182D1A4E
:10402000C7480123824200DB82E0801A2D1A1F2834
:1040300078DC83400020189311900B9863194D1978
:104040000C932D18A34200DD231CAB4200DD2B1C7A
:10405000002B04DD0C99ED1AC91A0C91E41A179A79
:10406000002A69D10C9800287EDC0D99002900D027
:1040700084E0002D00DD8BE0002C00DD92E008984C
:104080001C990E9A03F0B7F80790002800D1C2E6F9
:10409000C4680025C56009990F9403F091F8A842FF
:1040A00000DB8EE0AC4200D01FE2AE4200D01CE24A
:1040B0003B03AB4200D018E2A24AD6233A40DB04CD
:1040C0009A4200D811E207984069A84274D0079933
:1040D0000898012203F022F80999079003F070F87C
:1040E000002800DC01E20B9C964B002C00D199E0EB
:1040F0001A1CD6213A40C9048A4200D992E0DC2336
:104100009B049A4200D9F3E1089D109C2223834F1F
:10411000814E2B60002C00D0FCE10FE20D9CE11AD7
:10412000179C77E78848821A181C9040119001E08C
:1041300000221192189380E70898099902F09CFFD9
:104140000990002800D166E6089809991C9A02F0A7
:1041500004FF0F90002800D15DE608981C9902F03A
:1041600013FE0F9B1C937DE708981C990C9A02F094
:10417000D5FF1C90002800D077E74CE608980E99F0
:104180000D9A02F079FF0E90002800D071E742E608
:1041900008980E992A1C02F0C1FF0E90002800D04A
:1041A0006AE738E608980999221C02F0B7FF0990DF
:1041B000002800D063E72EE607990969012986DC0B
:1041C00093E1002865D10F9C3A03002C25D05F496C
:1041D0003B1C120B8A422ED101210B9D4942301CFF
:1041E0000A1C002D0AD0574CD4253C40ED04AC42AB
:1041F00004D8240D6B22121B91400A1C90421AD144
:10420000534A934202D1013000D104E64D4A802046
:10421000134040031F18002667E1002A0BD1002E2F
:1042200009D160E74B4D494A3B405B19171C1F43BE
:1042300001235E4259E1119C002C03D03C4200D185
:1042400053E103E0189D354200D14EE10F9C301C34
:10425000391C0B9A002C0AD0FFF764FB021C0B1CC4
:104260001298139903F07CFC061C0F1C3DE1FFF72C
:1042700059FB021C0B1C1298139904F08DFE274B5E
:10428000254A061C0F1C03F0F9FB002800D03BE771
:104290002BE10798099903F0E1F8214A214B041C0E
:1042A0000D1C03F0FBFB00285AD00F98002806D005
:1042B000294A00211C4C1D4D0C910D9261E0002EED
:1042C00002D13B0305D10BE0012E02D1002F00D11A
:1042D0001AE721480023164C164D0C930D9050E020
:1042E000201C291C104A114B03F0CEFB002808D1DA
:1042F000201C291C104A114B04F0BEFB0C900D91A0
:1043000003E00F9C154D0C940D950D988021090626
:104310000C9C451835E0C04600000000000000007D
:104320000000000000000040000000000000F03F1E
:10433000000000000000F0BF000000000000E03FAF
:1043400003FCFFFF0000F07FE3FBFFFFFFFF0F0018
:10435000FFFFEF7F0000F0FF0000F03F0000E03FB4
:10436000201C804B7E4A291C04F086FB0F9C0C907D
:104370000D910B1C002C02D180252D064B190C9C95
:104380001D1C8148814B3840119098422BD11299C5
:10439000139A149115927E4A301CBF18391C02F0F2
:1043A00091FF021C0B1C201C291C04F065FB021C45
:1043B0000B1C301C391C03F0D3FB734A754B061CD5
:1043C0000A409A420BD9744B159C9C4203D1149D10
:1043D000013500D11FE501236F4F5E4274E0D42008
:1043E00080040F183AE00B99002925D0119AD423A4
:1043F000DB049A4220D80C980D995B4A5B4B03F082
:104400004DFB002813D00C980D9903F089FB002870
:1044100000D1012005F066F90F9C0C900D910B1C4A
:10442000002C02D180252D064B190C9C1D1CD6207A
:10443000C00411992B185D1A1298139902F042FFCB
:10444000021C0B1C201C291C04F016FB021C0B1C5C
:104450001298139903F084FB061C0F1C0B9C1297F7
:10446000002C31D1484B119D3B409D422CD10D99E0
:104470000C9805F0C5F805F0F7F8021C0B1C0C9819
:104480000D9904F089FD041C0F980D1C002804D11F
:10449000002E02D112990B030ED0201C291C344A85
:1044A000344B03F0F1FA002834D1201C291C324A85
:1044B000324B03F0FDFA05E0201C291C304A314B39
:1044C00003F0E2FA002825D108981C9902F05CFC60
:1044D00008980E9902F058FC0898099902F054FCCB
:1044E0000898079902F050FC5AE50B9C002C11D05B
:1044F0002A4D002014901595301C391C149A159BD8
:1045000004F0BAFA061C0F1C04D1002802D1089C42
:104510002223236008981C9902F036FC08980E9913
:1045200002F032FC0898099902F02EFC08981099C4
:1045300002F02AFC0898079902F026FC199D002D2C
:1045400001D01B982860169C321C3B1C002C02D00A
:1045500080252D067B19101C191C21B0F0BDC0460A
:10456000000000000000E03F0000C0FFFFFFDF414F
:104570009535A094FFFFDF3F35E5AF350000E03F04
:104580009535A094FFFFCF3F0000F07F0000E07F53
:104590000000B0FCFFFF9F7CFFFFEF7F0000503961
:1045A00008B50A1C0349031C0868191CFFF7D0F959
:1045B00008BDC04668010020F0B51D1C424B87B005
:1045C0001B6805900293039101920B1C1C78029FBB
:1045D0005E1C3A19517808220A4001D0331CF5E7D5
:1045E0002D2C04D101279E1C5C78009704E00092DA
:1045F0002B2C01D15C789E1C10232A1C9A4311D1CC
:10460000302C08D1327820218A43582A07D1747877
:104610001D1C023606E0002D04D10A2502E0002D03
:1046200000D10825009F291C7B427B4180273F0643
:10463000FF1A381C03F0A6F9381C0491291C03F05A
:104640005DF90023021C181C029F391949784F0795
:1046500001D5303C07E003270F4017D05721012F29
:1046600000D13721641AAC4210DA591C0BD09042A9
:1046700007D802D1049FBC4203DC68430123201801
:1046800001E001235B4234780136DDE7009F591CCD
:104690000BD180207B427B410006059FC01A22235C
:1046A0003B60019F002F09D10BE0002F00D040425A
:1046B000019F002F05D0039A002B00D0721E019F8E
:1046C0003A6007B0F0BDC0466C01002038B5131C3D
:1046D000044A051C0C1C1068291C221CFFF76CFFE7
:1046E00038BDC04668010020F0B58D6885B0071C54
:1046F0000C1C03920193AB4245D390228B89D200CC
:1047000013423DD062690326564309692068F20FBF
:10471000401A96190290021C019801321218761064
:10472000964200D2161C381C5A050FD5311C02F0D7
:1047300047FF051E13D0029A2169FEF7C7FFA28921
:10474000184B134080221343A38111E0321C02F066
:104750008BFF051E0CD1381C216902F0E9FE0C23E9
:104760003B60A389402213430120A381404217E00C
:10477000029B2561ED1825606661019DF61AA66011
:104780000198A84200D2019D2A1C2068039902F0DA
:10479000AAFAA2680020531BA36023685D19256054
:1047A00005B0F0BD7FFBFFFFF0B59FB00390059310
:1047B0008B890E1C171C19060FD53269002A0CD1E3
:1047C000402102F0FDFE30603061002803D10399E2
:1047D0000C230B60C9E04023736106AD00236B61BD
:1047E00020236B763023AB763C1C2378002B03D13F
:1047F000E21B029211D003E0252BF9D00134F4E73B
:104800000398311C3A1C029BFFF76EFF013000D168
:10481000A6E06969029A8B186B612378002B00D19E
:104820009EE0012252426A606A4600235B320134F4
:104830002B60EB60AB601370AB654E4F2178381C7A
:10484000052202F045FA002807D0C71B2B6801207B
:10485000B840184328600134EFE72B68D90603D528
:104860006A4620215B3211701A0703D56A462B2154
:104870005B32117022782A2A01D0099B0EE0059A3A
:10488000111D12680591002A01DB099204E05242D1
:10489000EA60022213432B60013409E02278303AA7
:1048A000092A04D80A214B4301349B18F6E70993DF
:1048B00023782E2B18D163782A2B09D1059B02343B
:1048C0001A1D1B680592002B0DDA01235B420AE0DA
:1048D000013400232278303A092A04D80A214B43B4
:1048E00001349B18F6E70793234F2178381C0322E5
:1048F00002F0EEF9002806D0C71B2B684020B84014
:1049000018432860013421781C480622671C297648
:1049100002F0DEF9002812D0194B002B06D1059BBE
:104920000722073393430833059314E005AB009344
:104930000398291C321C134B00F0F6F907E005AB75
:1049400000930398291C321C0E4B00F08DFC049040
:104950000499013104D06A69049953186B6143E7E3
:10496000B3895A0601D40B9801E0012040421FB0E0
:10497000F0BDC04608A900000EA9000012A9000061
:10498000294D0000E9460000936810B5013B936093
:10499000002B05DA9469A34208DBCBB20A2B05D0C1
:1049A0001368581C10601970C8B201E000F072FD65
:1049B00010BDF8B5061C0F1C141CD518AC4208D04D
:1049C0002178301C3A1CFFF7DFFF0134431CF5D17E
:1049D00000E00020F8BD0000F0B59FB0061C0F1CE1
:1049E00003920593002804D08169002901D101F0C8
:1049F0008DFD754B9F4201D1776808E0734B9F4254
:104A000001D1B76803E0724B9F4200D1F768BB89C0
:104A10001A070AD53B69002B07D006AD00236B614E
:104A200020236B763023AB763BE0301C391C00F042
:104A300089FD0028F1D001204042C2E0059A111DF5
:104A400012680591002A76DB0992013423782E2B17
:104A500000D181E021785F48032202F039F9002873
:104A600007D05C492A68431A4020984010432860C8
:104A700001342178631C584806220393297602F0FA
:104A800027F9002800D18AE0544B002B7ED1059BEA
:104A9000072207339343083305936A69049953182F
:104AA0006B61039C2378002B04D10399611A029156
:104AB00010D003E0252BF8D00134F3E7301C391C6B
:104AC000039A029BFFF775FF013075D06A6902995E
:104AD00053186B612378002B6ED0012252426A601A
:104AE0006A4600235B3201342B60EB60AB601370CD
:104AF000AB6521783A48052202F0EAF8002808D090
:104B0000374A0134831A012098402B6818432860E3
:104B1000EFE72B68D90603D56A4620215B32117076
:104B20001A0703D56A462B215B32117022782A2A94
:104B300084D0099B05E05242EA60022213432B60B5
:104B400083E72278303A092A04D80A214B430134FA
:104B50009B18F6E7099379E763782A2B09D1059B1F
:104B600002341A1D1B680592002B0DDA01235B42EB
:104B70000AE0013400232278303A092A04D80A21B5
:104B80004B4301349B18F6E7079363E705AB0093AB
:104B9000301C291C3A1C134B00F0C6F807E005AB8B
:104BA0000093301C291C3A1C0E4B00F05DFB049056
:104BB0000499013100D070E7BB895A0600D53AE765
:104BC0000B981FB0F0BDC0465CAA00007CAA000094
:104BD0009CAA00000EA9000012A90000294D0000A7
:104BE00008A90000B3490000F0B58BB0161C1C1CCE
:104BF000129904D580221206A4182D2300E0002368
:104C0000149F0B7020239F43462F08D03A1C453A2F
:104C100051424A41109902238918109100E0032360
:104C20000093139B109A029308AB039309AB019274
:104C30000493321C231C00F083FD051C472F02D176
:104C40001199C9072CD5109969180791462F14D1CD
:104C50002B78302B0CD1301C211C164B144A02F03F
:104C60000DFF002804D1109A012313999B1A0B60A1
:104C7000139A07991368C9180791301C211C0D4B12
:104C80000B4A02F0FBFE002801D0079A0992099B0B
:104C900007998B4204D25A1C099230221A70F6E707
:104CA000099B281C5A1B159B1A600BB0F0BDC0460F
:104CB0000000000000000000F0B52B2385B0051CAB
:104CC0000C1C0270861C002901DA4C422D236B70EB
:104CD000092C1EDD6F460E37201C0A21019702F0B9
:104CE000B1FE30313970201C0A2102F055FE013F1F
:104CF000041E092CF0DC019B3034013B1C706A4619
:104D00000F32301C934209D21A78013332700136C7
:104D1000F5E73023E4183370B01C7470401B05B005
:104D2000F0BD000000000000F0B593B00C1C0A922A
:104D30000B93189E051C01F06DFF00680C90FEF7A8
:104D4000C1FD0023109333680722073393431A1CD5
:104D500008320D90277E186859683260A064E164BB
:104D600002F0A8FC012819D1A06CE16CB94BB84A3B
:104D700002F08AFE002803D0231C2D2243331A7030
:104D8000472F01D8B44E00E0B44E032320682361BE
:104D90000423984300212060099191E0A06CE16C0C
:104DA00002F088FC236800280CD1472F01D8AC4EB4
:104DB00000E0AC4E032222610422934300222360D0
:104DC00009927DE06268561C01D1062207E020218D
:104DD000381C8843472803D1002A01D10122626090
:104DE0008022D2001343236001936B463B3302932E
:104DF0000FAB6168039310AB0593002300910693FA
:104E00000497A26CE36C281CFFF7EEFE20233A1CEB
:104E1000061C9A430F99472A07D1CB1C02DB606816
:104E200081422EDD023FFFB201E0652F12D8201C27
:104E300001393A1C50300F91FFF73EFF109B09904B
:104E4000C2182261012B02DC2168C9072FD501326B
:104E500022612CE0662F15D16368002908DD2161ED
:104E6000002B02D12268D2071DD50133C91811E0E9
:104E7000002B03D120680122104200D09A1C22612D
:104E800011E06727109A914206DB22682161D20760
:104E900009D50131216106E00123002901DC02234B
:104EA0005B1AD31823610F9B0020A36509906B4602
:104EB0003B331B78002B03D0231C2D2243331A7065
:104EC0000B99281C009111AA211C0A9B00F058F98B
:104ED000013002D1012040424CE12268530504D444
:104EE000281C0A99321C236967E0652F00D8E0E08E
:104EF000A06CE16C574B564A02F0C0FD00282BD045
:104F0000281C0A99584A01230B9EB0470130E1D072
:104F10000F9F1098874207DB2168C90704D42768D0
:104F2000BF0700D50EE113E1281C0A990C9A0D9BCE
:104F30000B9EB0470130CDD00026109B013B9E4216
:104F4000EDDA221C281C0A991A3201230B9FB8475C
:104F50000130BFD00136F0E70F98002830DC281C64
:104F60000A99414A01230B9FB8470130B2D00F98EC
:104F7000002805D11099002902D12268D207CED588
:104F8000281C0A990C9A0D9B0B9FB8470130A1D0A1
:104F900000270F980997099F43420A99281C9F42AE
:104FA00009DA221C1A3201230B9FB847013091D035
:104FB000099F0137EDE7109B321C0B9EB047B5E00F
:104FC000109FA36D08979F4200DD0893089F002F54
:104FD00001DC002714E0281C0A99321C089B0B9F57
:104FE000B8470130F5D175E7221C281C0A991A32FE
:104FF00001230B9FB847013000D16BE7099F0137B0
:105000000997089FA36DFA43D2173A40099F9A1A4D
:105010009742E9DB0F981099F318099388420EDB49
:105020002268D2070BD4109B0F9FF618DB1B099F39
:10503000F61B9E4200DD1E1C002E17DC1FE0281C04
:105040000A990C9A0D9B0B9FB8470130EBD141E7B1
:10505000000000000000000019A900001DA90000C8
:1050600021A9000025A9000029A90000281C0A99EF
:10507000099A331C0B9FB847013000D12AE700275B
:105080000BE0221C281C0A991A3201230B9FB847F7
:10509000013000D11EE7099F0137099710980F9939
:1050A000F343DB17099F421A3340D31A9F42E8DBD0
:1050B00035E71098012802DC01231A423AD0281C57
:1050C0000A99321C01230B9FB847013000D101E738
:1050D000281C0A990C9A0D9BB847013000D1F9E6BB
:1050E000A06CE16C254B244A02F0C8FC002801D0DA
:1050F000002610E0109B721C013B281C0A991CE042
:10510000221C281C0A991A3201230B9FB847013030
:1051100000D1DFE60136109B013B9E42F0DB221CF2
:10512000281C0A995032099B0B9FB847013000D0C8
:10513000F5E6CFE60A99281C321C0B9EB0470130D9
:10514000EDD1C7E60026E0681199431A9E4205DBBF
:10515000119BE06898420DDA181C0BE0221C281CF9
:105160000A99193201230B9FB847013000D1B1E6EB
:105170000136E8E713B0F0BD0000000000000000B9
:10518000F7B5151C01930A698B68061C0C1C934229
:1051900000DA131C221C2B6043321278002A01D043
:1051A00001332B602068800602D52B6802332B6008
:1051B000216806270F401FD0231C43331B785A1E3B
:1051C0009341226892061FD5E11840313020C87003
:1051D000211C5A1C45310978A21840320233D17083
:1051E00012E0221C301C019919320123089FB84794
:1051F000013011D0009F01370097E0682968009FB7
:10520000431A9F42EDDBD7E7221C301C0199433241
:10521000089FB847013002D10120404223E02068B6
:1052200006212B68E26801400025042903D1D51A24
:10523000EB43DB171D40A26823699A4201DDD31AB4
:10524000ED1800270097009FAF420BDA221C301C9C
:1052500001991A320123089FB8470130DCD0009F22
:105260000137EFE70020FEBDF0B50D1C8BB04335D4
:1052700006920590079304950B7E0C1C109A6E2BDA
:1052800000D1A7E011D8632B22D009D8002B00D180
:10529000B0E0582B00D0C0E045310B707B4D4EE0A4
:1052A000642B1CD0692B1AD0B7E0732B00D1A5E07A
:1052B00009D86F2B29D0702B00D0AEE00E682023C8
:1052C00033430B6036E0752B1FD0782B32D0A4E02F
:1052D00013680D1C191D423511601B689FE0216881
:1052E00013680E0603D5191D11601E6805E04806F7
:1052F000F9D5191D116000215E5E644B002E3BDA6A
:10530000049D2D2276422A7036E0216813680E062D
:1053100003D5191D11601E6804E04806F9D5191D52
:105320001E881160594B227E039308276F2A1ED0D6
:105330000A271CE0231C78214533554D197011684C
:105340002368081D039510601E0601D50E6802E053
:105350005806FBD50E88D90702D5202213432360B7
:105360001027002E03D1226820239A432260231C99
:10537000002243331A7001E003930A276368A36095
:10538000002B03DB2568042295432560002E02D103
:10539000049D002B0ED0049D301C391C02F0F2FA43
:1053A0000398013D435C301C2B70391C02F0A6FAB7
:1053B000061EF1D1082F09D12168C90706D56268F8
:1053C00023699A4202DC013D30232B70049E731B3B
:1053D00023612AE0086813684969050604D5181D89
:1053E00010601B68196005E04606F8D5181D1060AE
:1053F0001B68198000232361049D16E01368191DA2
:1054000011601D68281CFEF75DFA636820619842F0
:1054100000D923612069606004E0251C42352B70AF
:1054200001232361049E00233370079E0598009694
:10543000211C09AA069BFFF7A3FE013002D101201F
:10544000404221E02A1C059806992369079DA84738
:105450000130F4D02668B60705D4099BE06898426D
:1054600012DA181C10E00025E0680999431A9D42E1
:10547000F3DA221C0598069919320123079EB047DA
:105480000130DCD00135EFE70BB0F0BD2BA90000F7
:105490003CA9000070B5051C0E1C141C002804D08B
:1054A0008269002A01D101F031F8234B9C4201D1DD
:1054B0006C6808E0214B9C4201D1AC6803E0204BB2
:1054C0009C4200D1EC68A369A360A3891A070AD59E
:1054D0002369002B07D022682369F6B2D01A6269CB
:1054E00090420FDB08E0281C211C00F02BF800285C
:1054F000F1D0012040421DE0281C211C00F086FF55
:105500000028F6D1A3680130013BA36023685A1C30
:1055100022601E706369984205D0A389301CDA07A7
:1055200008D50A2E06D1281C211C00F06FFF002888
:10553000DFD1301C70BDC0465CAA00007CAA000010
:105540009CAA0000344B70B51D68061C0C1C002D75
:1055500005D0A969002902D1281C00F0D7FF2F4BE4
:105560009C4201D16C6808E02D4B9C4201D1AC6893
:1055700003E02C4B9C4200D1EC68A28993B219073E
:1055800021D4D90605D40923336040231A43A281CC
:105590003FE05A0713D5616B002908D0231C443320
:1055A000994202D0301C01F0C3FF00236363A3893A
:1055B00024229343A3810023636023692360A3898A
:1055C00008221343A381216900290BD1A389A022BA
:1055D00092001A4080239B009A4203D0301C211C69
:1055E00001F01CFBA38901221A4005D06169002249
:1055F000A2604A42A26103E0990700D46269A260F6
:1056000022690020824206D1190604D540221343A4
:10561000A3810120404270BD680100205CAA000007
:105620007CAA00009CAA0000F0B589B006910B6925
:105630000169051C002699427FDB069C5F1E14341D
:1056400004940499BC000919021C0B6814320591DA
:105650001419191C01312068039202F04FF90290CD
:10566000B04238D00499039B8C4601960796624657
:1056700004329446043A40CA0299B0B24843310C0D
:10568000029E019A71431018020C51180A0C0192E3
:105690001A6880B296B2079A89B2B618301A1E6894
:1056A000320C521A06149219111480B21204059E7B
:1056B0001043079101C36645D9D2216800290AD158
:1056C000039E043CB44201D82F6104E02168002904
:1056D000FAD1013FF4E7281C069901F071FD00287A
:1056E0002ADB029C039A0134049B02940024116873
:1056F00040CB88B200191468B1B2401A360C210CA4
:10570000891B041409190C1480B20904059E014375
:1057100002C29E42EBD2039CBB00E3181E68002E1F
:105720000AD1039C043BA34201D82F6104E01E6808
:10573000002EFAD1013FF4E7029E301C09B0F0BD03
:10574000F0B5446A9BB00790239D04920593002C0A
:1057500008D1102001F0B2FA0799486244608460D1
:105760000460C460079C636A196800290AD05B68FA
:1057700001229A404B608A60201C01F005FB636A9D
:1057800000221A600598002805DA01232B604300E7
:105790005B08059301E000232B60059EBE4B321C85
:1057A0001A409A4218D1BD4B229C049D2360002DC3
:1057B00001D1360301D0BA4800E0BA48249C002C3D
:1057C00001D100F093FDC278C31C002A00D005333C
:1057D000249D2B6000F08AFD049C059DA54BA44AE6
:1057E000201C291C02F04AF9071E0CD0229C249D83
:1057F00001232360002D01D100F075FDAA48286027
:10580000013800F073FD19AB009318AB01930798B2
:105810002B1C221C01F0CAFD73000A905B0D09D0FD
:10582000201CA24C2A03120B211C1143A04A1697DC
:105830009E181BE0189B199C1D199E4B9D4209DB6D
:105840009D49049A9D4B6818C2405B1B101C9E40EA
:10585000304304E09A48049B401B8340181C03F02B
:1058600041FF984C6E1E012509191695824A834BFB
:1058700003F092FB824A834B03F0FEF8824A834B8B
:1058800002F06EF9041C301C0D1C03F0EDFE804A82
:10589000804B03F0F1F8021C0B1C201C291C02F0A9
:1058A0005FF9041C0D1C03F0ABFE724B704A0690AE
:1058B000291C201C02F0E8F800280DD0069803F0FF
:1058C000D3FE0B1C021C291C201C02F0D7F8069CDE
:1058D00043424341E41A0694069C01251395162C75
:1058E00010D8794AE300D31818685968049A059BC0
:1058F00002F0DEF8002804D0013C00250694139540
:1059000000E0139018980024861B351C0294013D7A
:10591000099504D5099C0025644202940995069CCA
:10592000002C06DB099D12942D19002409950D9475
:1059300007E0069C029D2D1B0295654200240D95F3
:105940001294209D0124092D24D8052D02DD043D4B
:105950002095002420980238032823D801F0C4FFA2
:10596000060E0204012502E0012508E0002510953D
:10597000219D002D1FDD0C95089509E0002510954F
:105980000698219D2D180C9501350895002D18DDE0
:105990002B1C17E0634200250C930893209510946C
:1059A000122306E001256B4210950C930893002505
:1059B0001223219506E001250C9508952B1C2195B5
:1059C00000E0012307980022456A6A600422101C47
:1059D00014306968984203D8013169605200F6E7D3
:1059E000079801F099F92860079D6B6A089D1B686C
:1059F0000B930E2D00D987E1002C00D184E1049C8B
:105A0000059D14941595069D002D61DD2A1C0F231C
:105A10001A402D49D2008A18146855680E940F95C3
:105A2000069D2A4C2F110225F80617D51F40149801
:105A30001599226A636A02F0B5FB0325049005916B
:105A40000CE0F90708D50E980F992268636803F0F7
:105A500013F80E900F9101357F100834002FF0D10C
:105A6000049805990E9A0F9B02F09CFB4EE0C046ED
:105A70000000000000000000000000000000F83FEF
:105A800061436F63A787D23FB3C8608B288AC63F44
:105A9000FB799F501344D33F0000F07F0F27000095
:105AA00057AA00004EAA00002AA900000000F03FFB
:105AB00001FCFFFFEFFBFFFF120400000EFCFFFFE5
:105AC000EEFBFFFF000010FEC8AA000090AB000034
:105AD000069C02256742002F1AD00F233B40CC4A78
