S01000004F4C45445F5350492E73726563A5
S1130000C02B0020A9280000A5280000A528000076
S113001000000000000000000000000000000000DC
S1130020000000000000000000000000A5280000FF
S11300300000000000000000A5280000A528000022
S1130040A5280000A5280000A5280000A528000078
S1130050A5280000A5280000A5280000A528000068
S1130060A52800005521000065210000752100002D
S113007085210000A5280000A5280000A52800006F
S1130080A5280000A5280000E10C0000F10C0000E8
S1130090010D0000A5280000A5280000A5280000E7
S11300A0A5280000A5280000A5280000A528000018
S11300B010B5064C2378002B07D1054B002B02D03A
S11300C0044800E000BF0123237010BDA8010020F4
S11300D000000000A49D000008B5084B002B03D0CD
S11300E00748084900E000BF07480368002B03D015
S11300F0064B002B00D0984708BDC0460000000006
S1130100A49D0000AC010020A49D0000000000009C
S1130110F0B583B06F46F87107370B4C0B4E201CBB
S1130120311C01220A4DA8478022D203094B5A618F
S1130130201C391C0122084B9847201C311C00222A
S1130140A84703B0F0BDC046100200204C0A0020AE
S1130150FD1B000000440041E91C0000F0B591B013
S1130160644B98470020644B98476449644B984714
S113017083001818400080221204624B5A61002840
S113018000D1A3E0604B586000229A60191C8022C1
S113019052020B681342FCD09DE00B681342FCD062
S11301A05A4C1823237000236370A37002A9012200
S11301B04A708B700A701820554B98472378D909D8
S11301C00022002903D15A09D2014E4952181F278F
S11301D03B400124211C9940916102AA1470002320
S11301E053609360137453749474D47413752421FA
S11301F0535409930A9380235B02D360454B936263
S1130200454BD362454B1363454B53633B4B93615F
S1130210444E301C4449454B98473568281C444B90
S113022098470740BC40434B1C603268D369002B9D
S1130230FCD12A68022313432B6001AC01236370B1
S11302400022A27023701620211C314DA8471720CC
S1130250211CA847802212042A4B9A61D520364CCF
S1130260A0478020A047A820A0473F20A047D32034
S1130270A0470020A0474020A0478D20A04714207D
S1130280A0472020A0470020A047A120A047C820C5
S1130290A047DA20A0471220A0478120A047FF20D2
S11302A0A047A420A047A620A047DB20A0474020C9
S11302B0A047D920A047F120A04720480021802250
S11302C0D2001F4B9847AF20A04710E080221204B1
S11302D00C4B9A6164E7802212040A4B9A610A4B20
S11302E0586000229A60191C8022520255E711B00E
S11302F0F0BDC046952100005D26000040420F007D
S1130300ED6C00000044004110E000E04C0A0020C5
S1130310FD21000002001000020011000200120082
S11303200200130010020020000C0042E519000036
S11303302921000000E100E0110100004C0200202E
S11303403F2E0000F0B583B06F46F87107370B4CB1
S11303500B4E201C311C01220A4DA8478022D203D7
S1130360094B9A61201C391C0122084B9847201C18
S1130370311C0022A84703B0F0BDC0461002002083
S11303804C0A0020FD1B000000440041E91C000051
S113039070B50E480E4901220E4B984721200E4C91
S11303A0A0470020A0477F20A0472220A04700208C
S11303B0A0470720A047094C8023DB00E618084D1E
S11303C02078A8470134B442FAD170BD100200204D
S11303D04C0A0020FD1B0000110100004C06002007
S11303E04503000038B50E480E4901220E4B9847CC
S11303F021200E4CA0470020A0477F20A0472220A8
S1130400A0470020A0470720A0478024E400084D0F
S11304100020A847013CA4B2002CF9D138BDC04645
S1130420100200204C0A0020FD1B000011010000F6
S113043045030000F0B55F4656464D464446F0B4C9
S113044091B0051C0C1C161C2960081CAD4B984768
S1130450021C23680520D90700D54BE123681C2022
S11304609F0700D546E1A84B186A911C01278F40CD
S1130470391C014319620FA92D27F35D0B70143247
S1130480D2B29046101CA14B98474046A04B9847C7
S1130490F05D00219F4B9847F37A6B712423F35C42
S11304A0AB712523F35CEB71F37E2B72337F6B729C
S11304B029688846081C934B9847143000226B46E1
S11304C0DA84328A02928023DB019A4221D080238B
S11304D0DB019A4204D880239B019A4211D008E0A0
S11304E0C023DB01029F9F420FD080231B029F4247
S11304F003D01027069700270EE00327069700274E
S11305000AE010270697012706E008270697012727
S113051002E008270697002731680391F2689146A4
S113052073690493317E8A462623F35C9B46736881
S1130530002B13D08022520593422ED12723F35C43
S1130540002B2ED1376AC0B2734B9847011C381C5C
S11305506A462632714B9847031C1FE02723F35C3D
S1130560002B0AD0069A0092306AB16A6A46263293
S11305703B1C6B4FB847031C10E0316A0791C0B2B3
S1130580654B9847011C069A009207986A462632E2
S11305903B1C634FB847031C00E00023181E00D027
S11305A0A8E0737E002B02D0B37E41468B732A6889
S11305B0029FD369002BFCD102976B4626331B881C
S11305C0424693814B46039F3B43049F3B437168E0
S11305D00B43029F1F43524613021F4359464B07C6
S11305E01F432723F35C002B01D104231F43717E97
S11305F08902337F5B021943F27AB37A13431943B6
S1130600737F1B0219432423F35C5B0419432523E2
S1130610F35C1B0419433389FF2B0BD0F27E002AB1
S113062003D0A022D204174302E0802252041743CD
S1130630194305E0F37E002B02D08023DB041F4323
S11306402C23F35C002B03D1364B9B789A0701D5FE
S113065080231F432A68D369002BFCD14346596089
S11306602A68D369002BFCD141460F600EAB80226F
S11306701A7000225A70DA709A70326B0A92736B95
S11306800B93B76B0C97F66B0D9600270EAEF9B271
S1130690BB000AAA9858002802D1201C224A90477D
S11306A0431C05D03070000CC0B2311C1F4A904767
S11306B00137042FEBD10023EB602B616B61AB613D
S11306C0EB612B62AB626B620022EB85AB8530235E
S11306D0EA543123EA543223EA543323EA5428688F
S11306E0084B9847041C1249124B9847A400124B1C
S11306F0E550002011B03CBC90469946A246AB465A
S1130700F0BDC046A1190000000400407527000098
S1130710E926000049180000912700006D1600002A
S1130720991600000020004199180000512800008B
S113073049080000E9200000C80A002010B5021C86
S11307400368C4791C20002C0DD0D28D92B20520F0
S1130750002A08D1DA69002AFCD1198502211A7EFF
S11307600A42FCD0002010BD10B5031C0468827935
S11307701C20002A33D09B8D9BB20520002B2ED148
S1130780237E5A072BD5E369002BFCD1638BDBB2A4
S11307909A0621D09A0703D5022363831A201EE008
S11307A05A0703D5042363831E2018E0DA0703D510
S11307B001236383132012E0DA0605D5628B10232C
S11307C01343638342200AE09A0605D5628B2023F3
S11307D013436383412002E0238D0B80002010BD6E
S11307E003688285416205213222815404229A756C
S11307F0027A002A01D020229A75427A002A01D076
S113080008229A757047C046931C9B00C318596010
S1130810012393401A1C3023C15C0A43C25470471D
S113082010B51723002A0BD084791C23002C07D081
S1130830848DA4B20523002C02D1024B98470023D7
S1130840181C10BDE1070000F8B58000644BC558C2
S11308502C68E369002BFCD1237EA67D1E40312346
S1130860EB5C3022AF5C1F40F10720D5EB8D9BB2CF
S1130870002B1AD0AB6A1A78D2B2591CA9626979D2
S1130880012904D1597809020A430233AB62D30522
S1130890DB0D2385EB8D013B9BB2EB85002B06D151
S11308A0012323750223A37501E001232375B207F5
S11308B009D50223237500223323EA54FB0702D50A
S11308C0281CE968884772076AD5AB8D9BB2002B58
S11308D064D0638BDBB2190702D43F22134001E0DA
S11308E037221340002B37D09A0707D51A22322318
S11308F0EA54628B02231343638327E0590707D525
S11309001E223223EA54628B0423134363831DE0C3
S1130910DA0707D513223223EA54628B01231343E7
S1130920638313E0D90607D542223223EA54628B4B
S113093010231343638309E020221A4206D0412284
S11309403223EA54628B2023134363837A0727D527
S1130950281C6B69984723E0228DD205D20DD3B2AF
S1130960696A0B706B6A591C69626979012904D13F
S1130970120A5A706B6A01336B62AB8D013B9BB2F6
S1130980AB85002B0CD10423237500223223EA54B7
S1130990BA0705D5281C2B69984701E00423237561
S11309A0F10607D5102323752376FA0602D5281CF1
S11309B0EB699847B10607D52023237523763A07B8
S11309C002D5281CAB699847310707D5082323753E
S11309D02376BA0602D52B6A281C9847F8BDC04670
S11309E0C80A0020F0B5474680B40C1C9046002885
S11309F00CD1002A0DDD8F18094E0A4D3068211CD8
S1130A002B6898470134BC42F8D104E001204042ED
S1130A1002E0002000E0404604BC9046F0BDC04621
S1130A20580A0020500A0020F0B5474680B40E1C36
S1130A30151C0138022810D8002A11D000240D4BAF
S1130A4098460D4F43461868315D3B689847002827
S1130A5008DB0134A542F5D107E00120404205E05E
S1130A60002003E00120404200E0201C04BC90462A
S1130A70F0BDC046580A0020540A002000000000BF
S1130A80F0B583B000AF041C2E21174B9847061B0A
S1130A90F31DDB08DB006A46D21A9546811E381C1A
S1130AA00722124DA847B21E6846211CA847684673
S1130AB00F4EB047041C0D1C381CB047094B084AA4
S1130AC00C4EB047021C0B1C201C291C0A4CA047CE
S1130AD00A4B9847BD4603B0F0BDC046C046C04669
S1130AE00000000000004E40A52F0000EF2F000082
S1130AF0C92D000095750000516F00003D8B00006A
S1130B0008B5084B1978084A117018700438830026
S1130B1018188000054BC018054B9847054B98479B
S1130B2008BDC0465C0A00205D0A00209000002039
S1130B30AD1400009103000070B584B00C1C6B462A
S1130B40D873D873081C2C21384B984700286AD0D6
S1130B500025374E62E01978117001330132834267
S1130B60F9D1021B041C00E00022002369468B54C7
S1130B700B2D4AD8AB00F3589F462E4869462E4B9E
S1130B80984742E00A782D4BDA733EE02B4BDB7B2F
S1130B90562B05D068462A4B9847284B186134E0F9
S1130BA00022264B1A6130E069460A78234B1A76F4
S1130BB02BE0224BDB7B562B05D06846204B984715
S1130BC01E4B586121E000221C4B5A611DE00A783B
S1130BD01A4B5A7619E068461A4B98471A4B9847AD
S1130BE0164BD86111E06846164B9847164B984748
S1130BF0124B186209E06846144988470F4B586243
S1130C0003E00A7828230D49CA5401340135EDB2B2
S1130C10201C2C21054B9847002804D08442A3D2E1
S1130C206A46231C97E704B070BDC046A52F000098
S1130C30908C0000810A0020D12F00007C0A002043
S1130C40810A0000C92D00003D8B0000D32D000057
S1130C50931C9B001950022A04D1027E10231343D3
S1130C6003760CE0032A04D1027E20231343037687
S1130C7005E0012393401A1C037E1A4302760020E8
S1130C807047C04638B58000144BC4582268957B21
S1130C90237E1D40637E1D40EB0705D5201CA26802
S1130CA09047012322689373AB0705D5201CE268A3
S1130CB09047022322689373EB0605D5201C226912
S1130CC09047102322689373AB0605D5201C6269F4
S1130CD09047236820229A7338BDC046B00A00208A
S1130CE008B50020014B984708BDC046850C00009C
S1130CF008B50120014B984708BDC046850C00008B
S1130D0008B50220014B984708BDC046850C000079
S1130D1070B584B0011C01AB0A4A70CA70C3019B50
S1130D2083420AD0029C844205D00020039D8D4258
S1130D3005D1022002E0012000E00020C0B204B08E
S1130D4070BDC046C08C0000F0B54F464646C0B4E6
S1130D5087B0041C0D1C9046081C904B9847814694
S1130D608F4F391C0C3105A803228E4EB047391C15
S1130D70103103A80622B0470023A360E360236177
S1130D8063612376637648468200874BD45025609E
S1130D9041468B78082B04D117204A46D20700D449
S1130DA0F6E023712B880520D90700D5F0E0EB7B12
S1130DB01C20DA0600D5EBE02B88990700D5E7E084
S1130DC04246137C002B0CD002A901238B70002215
S1130DD0CA704046806908704B704246107D734B60
S1130DE098474046037F002B0BD002A901238B7048
S1130DF00022CA70426A0A704B70036AD8B26B4B05
S1130E0098476B4B196A4846420003A8125A0A4392
S1130E101A6241468B78082B08D1654B1A6A4846FA
S1130E200130400003A9415A0A431A6201A942460B
S1130E3013780B7005AB48461E5C301C5D4B98471D
S1130E40301C5D4B9847414688880B890343887959
S1130E508A78104318434B78002B02D080231B015F
S1130E60184321687F22CB7B9343FCD128804246E0
S1130E70507B431E98418000937B002B01D00123BB
S1130E80184321687F22CB7B9343FCD1FF232B7132
S1130E90002805D021687F22CB7B9343FCD1687165
S1130EA04346987ADB7A002B01D01023184341463D
S1130EB00B7B002B01D02023184321687F22CB7B9E
S1130EC09343FCD1A87122687F21D37B8B43FCD14F
S1130ED02379042B05D0082B41D01720002B57D1A0
S1130EE024E07F21D37B8B43FCD128234246D35C6F
S1130EF02B7421687F22CB7B9343FCD1292340466A
S1130F00C35C2B7521687F22CB7B9343FCD12A23BE
S1130F104146CB5C2B7621687F22CB7B9343FCD16B
S1130F202B234246D35C6B76002031E07F21D37BB8
S1130F308B43FCD14046038D2B8221687F22CB7BDF
S1130F409343FCD141464B8D2B8321687F22CB7B7D
S1130F509343FCD14246938D6B83002018E07F219C
S1130F60D37B8B43FCD143469B6A2B6121687F2250
S1130F70CB7B9343FCD14046C06AA86121687F22A1
S1130F80CB7B9343FCD141460B6BEB610020FFE725
S1130F9007B00CBC90469946F0BDC046110D000048
S1130FA0C08C00002D2E0000B00A00205128000043
S1130FB00004004075270000E926000082B0274B9A
S1130FC05B78D9090022002903D15A09D2012449A6
S1130FD05218126A1F210B40012199400B1C134027
S1130FE05A1E9341DBB26A46D3711E4B5B78D90912
S1130FF00022002903D15A09D20119495218126A50
S11310001F210B40012199400B1C13405A1E934190
S1131010DBB26A4693716B4607331B78002B06D10B
S11310200E4B9B78012B02D101220C4B1A706B469C
S113103006331B78002B06D10A4B9B78012B02D177
S11310400122084B1A706B46DA79044B9A706B468E
S11310509A79044B9A7002B07047C046C00A0020C7
S113106000440041BC0A002038B50C490F234B70E2
S113107001228A7000230B7009490E2048708A707F
S11310800B70084C23706270A3700F20211C064D56
S1131090A8470E20211CA84738BDC046C00A00201E
S11310A0BC0A0020A80A0020FD21000010B58EB063
S11310B001AA0023002113709370937113810020FF
S11310C050709172D1721173917351731174536191
S11310D09361117713625362138553859385C023FB
S11310E09B009380074C201C0749084B98472268B3
S11310F07F21D37B8B43FCD1118802230B431380C4
S11311000EB010BD600A0020002C0042490D000002
S113111010B50D4C201C0D4900220D4B984720683A
S11311200C4B98470C4B1B5C1F21194001231A1CC4
S11311308A40111C094A1160617E01220A436276C9
S11311402268537310BDC046600A0020BD0F000022
S1131150510C0000110D0000D88C000000E100E0EB
S1131160014B18607047C046C401002010B5C90186
S11311708A18064909688A185C1EE4B201340023FF
S1131180C15CD1540133A342FAD110BDC401002083
S1131190024B1B68C0014118CA547047C4010020A7
S11311A0024B1B68C0014018185C7047C401002042
S11311B0F0B5474680B4041C151C43B2002B22DB57
S11311C03F2920D8CE08F700C91B01278F40FBB266
S11311D09846301C211C0D4B9847021C012D04D04D
S11311E0002D06D0022D07D009E043461843C2B2B1
S11311F005E0B843C2B202E043465840C2B2301CD4
S1131200211C034B984704BC9046F0BDA11100007B
S113121091110000F0B557464E464546E0B4841897
S1131220802C03DD80225242121AD2B2002A53D0FB
S1131230CC08E500491B01258D40A846EFB2012BDF
S11312400BD0002B11D0022B46D1151C013882463D
S1131250244B9946244988462FE0151C01388246C0
S1131260204B99462049884606E0151C01388246E1
S11312701C4B99461C4F0FE051466E18F6B2201CC9
S1131280311CC8473843C2B2201C311CC047013D41
S1131290EDB2002DF0D11FE05346EE18F6B2201C3B
S11312A0311CC84741468843C2B2201C311CB84790
S11312B0013DEDB2002DEFD10EE05346EE18F6B22B
S11312C0201C311CC8477840C2B2201C311CC047C6
S11312D0013DEDB2002DF0D11CBC90469946A246CA
S11312E0F0BDC046A111000091110000F8B54F46B1
S11312F04646C0B4051C161C08AA1778002B0FD04C
S11313001C1C01398946084B98464B46E118C9B262
S1131310281C321C3B1CC047013CE4B2002CF4D115
S11313200CBC90469946F8BD15120000F8B55F460E
S113133056464D464446F0B4051C0F1C4378DB0862
S11313409A46D20893468378002B08D0012B34D1D7
S11313505046002831D000261B49894615E0002458
S11313605246002A1AD128E0E119C9B273436868C9
S11313700219D25C4046C8470134E4B22B78A34238
S1131380F2D80136F3B2534517D22B78002BF8D09C
S1131390002459468A19D2B29046E5E70B4E2B78C1
S11313A0181C60436A6810185A461119C9B23A1CCD
S11313B0B0470134E3B29A45F1D83CBC9046994613
S11313C0A246AB46F8BDC046911100006D11000065
S11313D0F0B54F464646C0B483B0061C0C1C407C96
S11313E003212A4B9847C7B2B37CBB4201D1002CDE
S11313F00AD0002300930020102180223023244CA3
S1131400A0470122234B1A70B774002300930020D5
S11314101021062230231E4CA047707C03211E4B52
S11314209847CAB201321201D2B21C4800211C4BA7
S11314309847184B1B78002B22D07C003C19E4B24F
S113144001377B00DF19BC4217DA337AA34214D97F
S11314501025144A9146144B9846A3007268985874
S113146007212A1C4B46C0470134E4B2BC4204DACB
S11314701035EDB2337AA342EFD80022054B1A702F
S113148003B00CBC90469946F0BDC046ED6C00001C
S1131490ED120000C8010020756D0000000000205E
S11314A02D130000080000201916000030B583B089
S11314B0041C002300930020002180224023074DB8
S11314C0A847206800210022054B064DA847201C90
S11314D00121054B984703B030BDC046ED12000012
S11314E00800002019160000D113000008B50D29CA
S11314F025D003D8FE20082924D022E0262910D0A4
S113150028291ED1437C027A013A934202D1002356
S1131510437401E00133437400210B4B9847FF20CF
S113152010E0437C002B02D0013B437402E0037AB9
S1131530013B43740021044B9847FF2002E0407CA8
S113154000E0FF2008BDC046D113000008B50248E2
S1131550024B984708BDC0464C06002061110000AC
S1131560F0B55F4656464D464446F0B485B0061C79
S11315708846141C03931A7A5B7A00210091404632
S1131580211C234DA84703990B78002B39D10A7AE3
S1131590D308510700D00133039A527A9346039932
S11315A08A7AB61A5A4656435E43B6B24B689E19B7
S11315B0A24607218946039A177A002F17D00024E0
S11315C00025E3B241465818C0B24A461A4201D136
S11315D0357801366BB2002B03DA514601220D4BEC
S11315E098476D00EDB20134E3B29F42E9D8534607
S11315F00133DBB29A465B46013BDBB29B46002BD0
S1131600D9D105B03CBC90469946A246AB46F0BD44
S1131610ED120000B1110000F8B54F464646C0B4C3
S1131620041C884691461F1C0078002817D00D1C06
S11316300A2806D17B7A01334B44DBB299464546EE
S113164009E00D2807D0291C4A463B1C064EB0472A
S11316503B7AED18EDB2013420780028E8D10CBCB7
S113166090469946F8BDC0466115000010B5031CAC
S11316704908402099420CD30024C91A601C80B246
S11316808B4201D8041CF8E74020FF2C01D81480B9
S1131690002010BD00000000F0B55F4656464D46E0
S11316A04446F0B487B0061C0D1C049210AA1078AE
S11316B0321C424340248A4200D9B3E0002B4BD170
S11316C00021321C5E4CA04783462E1C00270020BC
S11316D00021002200233F24A4460125A8460290AD
S11316E003916146203903D440468840814605E091
S11316F0202165464C1B4046E040814641466446F5
S1131700A1408A46101C191C80185941021C0B1C4C
S11317105D464C46254202D0424602430B1C9F4282
S11317200CD801D1964209D8921BBB415046029D68
S113173028434946039C2143029003916546013D99
S1131740AC46CED2029803993C4B3B4A121A8B41C9
S1131750120C1B041A4362E00022012B5FD14F0FCD
S1131760B946CD00AB460021321C0023344CA047BF
S1131770061C0F1C00230125029603979A46504627
S1131780C0B2059000218846002200233F24271C74
S1131790203F03D42E1CBE40019604E02020071BEA
S11317A0291CF94001912E1CA6400096101C191CFE
S11317B080185941021C0B1C5F463740BC46019EF1
S11317C04F463E4067463E4302D02A1C02430B1C50
S11317D0039898420BD802D10299914207D8029EED
S11317E0039F921BBB41474600980743B846013C00
S11317F0CDD2414652468B1ADB08124CA34208D97B
S1131800059A0132D2B205920126B2445746082FF6
S1131810B5D140240598082804D042031A43049CF7
S113182022800024201C07B03CBC90469946A24666
S1131830AB46F0BDC046C0460000000001000000F9
S1131840C96E0000FF1F000010B582B0041C0F4BCE
S11318501B78002B01D000290DD001A90C70132096
S11318600B4B984713200B4B9847084B5C70012295
S11318701A70002007E0054B5A781D20141B621EC5
S113188094416442204002B010BDC046CC01002007
S113189075270000E92600002E4B98421CD003D87F
S11318A02D4B984207D04AE02C4B984225D02C4B24
S11318B0984233D043E0012943D0002904D00229BF
S11318C006D0032906D001E0264841E000203FE08D
S11318D025483DE025483BE0012934D0002904D0C7
S11318E0022906D0032906D001E0032030E00020BD
S11318F02EE01F482CE01F482AE0012925D00029AA
S113190004D0022906D0032906D001E01A481FE0BA
S113191000201DE019481BE0194819E0012916D0E0
S1131920002904D0022906D0032906D001E0154875
S11319300EE000200CE014480AE0144808E00020FF
S113194006E0134804E0134802E0134800E013489B
S11319507047C046000C00420008004200100042DC
S11319600014004203000400030006000300070003
S113197003001E0003001F000300080003000A0008
S113198003000B0003001000030012000300130007
S11319900300050003000100030009000300110017
S11319A070B584B00E4A694670CA70C112680A6084
S11319B0031C009A82420FD0019C844208D0029DED
S11319C0854207D00020039E9E4207D1032004E0F5
S11319D0012002E0022000E00020C0B204B070BD8B
S11319E0A8980000F0B5474680B488B0051C0C1CCC
S11319F0161C29600B681C209A0700D5DFE00B68D1
S1131A000520DA0700D5DAE0081C6F4B98476F4BC6
S1131A10196A821C012797403A1C0A431A6207A9D3
S1131A202427F35D0B701430C0B28046684B98478E
S1131A304046684B9847F05D0021674B98473378E0
S1131A40012B03D122680C23134323603378002B2A
S1131A5000D0B1E02268082313432360ACE0EA1805
S1131A60D16004331C2BFAD10023EB62AB62002457
S1131A70AB862B863623EC543723EC543823EC54B2
S1131A8003236B722C7128684F4B9847071C5349EA
S1131A90534B9847BF00534BFD502F6802AB802235
S1131AA01A705C7001229A70DC703378002B02D1BA
S1131AB0002202AB9A70B36A0393F06A0490326B0B
S1131AC00592736B06930024E1B2A30003AA98580D
S1131AD0002802D1381C444A9047431C06D06A4669
S1131AE01072000CC0B202A9404B98470134042C78
S1131AF0EAD133786B71337CAB71B37CEB71337D9A
S1131B002B7200226B46DA803378012B14D12868BB
S1131B102D4B98471430C0B2354B9847011CB0691F
S1131B206A460632334B9847031C1720002B46D1D4
S1131B306B4606331B783B733378002B0FD1B169A6
S1131B40B38B786AF47F2404B27F224302437A621F
S1131B502022B25C002A04D04022134301E0002377
S1131B600021B26870680243F06802430A43317C82
S1131B700B43717C002903D11F498978880701D55B
S1131B8080210A43B17C002902D0802189020B43C1
S1131B90F17C002902D0802189000B43317D00298A
S1131BA002D0802189010B4339680A433A607A687C
S1131BB013437B60002002E0002300214FE708B0BC
S1131BC004BC9046F0BDC046A119000000040040CA
S1131BD075270000E926000049180000051F0000D1
S1131BE0E9200000C80A00209918000051280000CC
S1131BF0912700006D1600000020004110B54479C3
S1131C001523012C6CD1047A0023002C68D1002AFE
S1131C1057D04B78002B44D00268137EDC070FD4D6
S1131C200B78D9090022002903D15A09D2012D4980
S1131C3052181F210B4001219940916105234FE067
S1131C400B78DC090022002C03D15A09D201254C5F
S1131C5012191F24234001249C405461897803688D
S1131C601A7ED40700D59962C2790023002A37D19D
S1131C7002680421137E0B42FCD0117E00234C0722
S1131C802ED5538B590703D5518B04230B43538310
S1131C908379012B02D1936A002321E0936A002304
S1131CA01EE00B78D9090022002903D15A09D20178
S1131CB00C4C12191F210B40012199405161002342
S1131CC00EE00B78D9090022002903D15A09D20168
S1131CD0044952181F210B400121994091610023AE
S1131CE0181C10BD00440041F0B55F4656464D46F1
S1131CF04446F0B483B0041C92463823C05CC0B29E
S1131D00052800D1F1E01720002A00D1EDE0637925
S1131D10002B05D12368187E820701D5022018768E
S1131D205546002001230226B4460427BB468FE013
S1131D306279002A01D0266816E02268167E1E42C7
S1131D4006D16D4E177E1F4202D1013E002EF9D1FD
S1131D50167E67463E4203D0022313760420C4E075
S1131D60127E1A42E7D1B3E0327E1A42FCD0421C02
S1131D7092B290460F5CA279012A01D0404605E058
S1131D80023080B242468A5C12021743327E1A4203
S1131D9002D0FF05FF0DB7626A1E96B2E279002AEF
S1131DA001D1351C56E06279002A37D1534A01919A
S1131DB02668377E1F421CD0471CBFB2B946019922
S1131DC0095C8846A779012F01D0484608E0023013
S1131DD080B201994F46C95D090247460F43B84690
S1131DE0377E1F4203D04746F905CF0DB762013D48
S1131DF0ADB22668377E59460F4202D1013A002A15
S1131E00D6D10199327E67463A4203D00223337613
S1131E1004206AE0327E5E4632425BD02668327E1F
S1131E205F463A42FBD0327E3A420DD0728B3A4240
S1131E3004D0728B04273A4392B27283A279012AA6
S1131E4001D1B26A00E0B26A5246013A92B29246B5
S1131E50013DADB22A4A954200D069E75146637903
S1131E60012B05D1216802220B7E1342FCD033E002
S1131E70002B33D1E3790020002B36D000292FD05A
S1131E8004251D4E042750461CE00A7E2A4202D136
S1131E90013B002BF9D10B7E2B4223D00B7E2B422E
S1131EA00CD04B8B2B4203D04B8B3B439BB24B83CD
S1131EB0A379012B01D18B6A00E08B6A013880B2CF
S1131EC0002811D021680B7E2B42E4D1331CDCE7BF
S1131ED012200AE0122008E0002006E0002004E0BE
S1131EE0002002E0122000E0002003B03CBC904639
S1131EF09946A246AB46F0BD10270000112700000A
S1131F00FFFF0000F8B58000744BC45825683623E1
S1131F10E35C3722A75C1F402B7EAE7D1E40F10799
S1131F2049D56379012B16D1637A002B0FD16C4B01
S1131F301B88AB62638E013B9BB26386638E9BB24C
S1131F40002B01D101232B756379012B03D1637A13
S1131F50002B05D12FE0002B2DD1637A002B2AD042
S1131F602268E36A1978C9B2581CE062A079012892
S1131F7004D15878000201430233E362CB05DB0D40
S1131F809362A38E013B9BB2A386A38E9BB2002BCC
S1131F9011D101232B75637A012B0CD1E379002B2A
S1131FA009D10323637200223823E254FA0702D5CD
S1131FB0201CE3689847710761D56B8B5A0714D5C9
S1131FC0637A012B0BD01E223823E254032363725D
S1131FD005232B753B0702D5201CA1698847AB6AF2
S1131FE06A8B042313436B8349E0637A012B16D174
S1131FF023689B6A638E013B9BB26386638E9BB2AC
S1132000002B3CD104232B7500223823E2540323F4
S11320106372FA0733D5201CE36898472FE02368DE
S11320209A6AD205D20DD3B2A16A0B70A36A591C65
S1132030A162A179012904D1120A5A70A36A013359
S1132040A362238E013B9BB22386238E9BB2002B7B
S113205015D100223823E25404232B75637A022B12
S113206005D17A070BD5201C6369984707E0637A8A
S1132070002B04D1B90702D5201C22699047B3076D
S113208013D56379002B10D107232B7502232B76EC
S1132090032363720023A386238638230022E25499
S11320A0F90602D5201CE269904733070AD5637903
S11320B0002B07D108232B752B76B90602D5201CDB
S11320C0226A9047F60907D080232B752B767B066E
S11320D002D5636A201C9847F8BDC046C80A002090
S11320E0C40A00207047C04630B50B4B1B78002B48
S11320F00ED10A4C0A4D25600A4B00221A60656015
S11321005A60A5609A60E560DA600122024B1A7099
S11321108000024BC15030BDD0010020D40100200A
S1132120E5200000C80A002030B583B0051C01ACCE
S1132130201C05490422054B9847281C044B98474A
S1132140205603B030BDC046B89800002D2E0000C4
S1132150A119000008B5024B1B680020984708BD70
S1132160D401002008B5024B5B680120984708BDE4
S1132170D401002008B5024B9B680220984708BD93
S1132180D401002008B5024BDB680320984708BD42
S1132190D401002010B50020084B9847084CFA21C0
S11321A08900A047074B1860FA218900A047064B15
S11321B018600522054B1A6010BDC0465D2600005C
S11321C0ED6C0000180000201400002010E000E076
S11321D030B5084B1C68084A00258021490206E0F6
S11321E0002C04D05460956013680B42FCD0013875
S11321F0F6D230BD1800002010E000E000B583B036
S113220001AB80221A700A785A704A789A708A78D8
S1132210DA70191C014B984703B000BD5128000027
S11322207047C0460C4B1B68002B10D1EFF3108392
S1132230002B09D172B6BFF35F8F0022074B1A70CF
S11322400122074B1A7002E00022054B1A70024B60
S11322501A6801321A607047E40100201C00002053
S1132260E8010020084B1A68013A1A601B68002B29
S113227009D1064B1B78002B05D00122044B1A70A0
S1132280BFF35F8F62B67047E4010020E8010020CD
S11322901C00002008B5082834D880001B4B1B58AC
S11322A09F468020000230E0194B18692DE0194B3D
S11322B0186A8005800F184BC340181C25E0144B86
S11322C0586922E0124B1B68022018401DD01149A6
S11322D01022CB681A42FCD00D4B1B685A0713D549
S11322E000200E4B98470A4B9B681B041B0C584359
S11322F00BE05023074AD35C00205A0705D5044B52
S1132300D86802E0002000E0054808BDBC98000041
S1132310EC0100200008004000127A009127000020
S1132320006CDC0270B50C4B1C6A0178857840782F
S11323300122104080014026B44304432A40D001C6
S113234080229443221C02430320014009020348D3
S113235002400A431A6270BD00080040FFFCFFFF00
S113236010B5027A9206120C43899B059B0D1A4301
S1132370154B5A60818842881143C479827922437B
S11323800A434178C9010A431A600378042B0FD128
S1132390027B9206038A1A43C3891B040B490B4030
S11323A01A43094B9A60196804220A431A6009E027
S11323B0202B07D1028A044B9A6019688422D20028
S11323C00A431A6010BDC046EC0100200000FF0360
S11323D0082843D88000224B1B589F4600203EE02B
S11323E0204B196A02220A431A62002037E01D4B6F
S11323F0996902220A439A61002030E0194B198A34
S113240002220A431A82002029E0164B998A0222EA
S11324100A439A82002022E0134B196802220A43DD
S11324201A601A68114B1A400E4B9A84191C102218
S1132430CB681A42FCD00C4A91680A4BD9625168A5
S11324409962126892B29A84002008E0054A4423F3
S1132450D05C02210143D154002000E017207047D2
S1132460E098000000080040EC0100207FFF00001D
S113247030B58BB0C222D200274B9A60274B5A68E2
S11324801E218A4302210A435A60012201AB1A70B9
S11324900024234DE0B201A9A8470134252CF9D129
S11324A005A8002303700024438083808471C471D1
S11324B0072202723F234381062101824470027382
S11324C0C381184B984704A8447001238370047097
S11324D0154B98470620154CA047154B98470720E5
S11324E0A0470D491022CB681A42FCD0114A0023A0
S11324F013725372937201A901224A604B7006222F
S11325000A700B724B7200200B4B984700200B4B48
S113251098470BB030BDC046000800400040004161
S1132520752700006123000025230000D12300004B
S11325304125000000040040652500001926000024
S1132540064B996908220A439A610122044B1A70C6
S1132550191C0B781342FCD17047C046000400409C
S1132560000C0040F8B5061C071C0D782D0205432D
S11325704B78002B02D08023DB021D434B7A002BC7
S113258002D080231B031D434C68012C17D9631E02
S11325901C420FD1022C06D90223002201325B0017
S11325A09C42FBD800E000221702374380235B03E0
S11325B01D4304E02702374380239B021D430B7A0B
S11325C0002B02D080239B031D430F4A53785BB238
S11325D0002BFBDB0D4B98470D4B1E700A4A5378BA
S11325E05BB2002BFBDB084B9F601A1C53785BB279
S11325F0002BFBDB044B5968802252020A4015432E
S11326005D60044B9847F8BD000C00402522000093
S1132610080C00406522000010B5041C0B4A5378D6
S11326205BB2002BFBDB0A4B98470A4B1C70074A32
S113263053785BB2002BFBDB044B596880225202B7
S11326400A435A60044B984710BDC046000C004032
S113265025220000040C00406522000070B5041C13
S11326601A4A53785BB2002BFBDB194B9847194B82
S11326701C70164A53785BB2002BFBDB134E706858
S1132680C004C00E144B9847051C124B1C7076688E
S1132690F602F60F114B1C700C4A53785BB2002BF8
S11326A0FBDB0A4B9C68240AA4B20D4B9847002E0E
S11326B007D1012C07D9281C211C0A4B9847051C5B
S11326C001E00134E540281C70BDC046000C004008
S11326D025220000040C004095220000080C004054
S11326E065220000ED6C000010B5041C064B9847F1
S11326F0064B1C70064B59888022D2010A435A802B
S1132700044B984710BDC04625220000020C00402F
S1132710000C00406522000010B5041C0F4B9847C4
S11327200F4B1C700F4B58880005000F59880E4A38
S11327300A405A8059880D4A0A405A80191C80223E
S1132740D2014B881342FCD1064B01025888064A39
S113275002400A435A80064B984710BD25220000C8
S1132760020C0040000C0040FFF0FFFFFFBFFFFF22
S11327706522000010B50C7824020443024B9847EC
S1132780A4B2024B5C8010BD19270000000C00406D
S113279010B5041C064B9847064B1C70064B5C880E
S11327A02405240F054B9847201C054B984710BD62
S11327B025220000020C0040000C004065220000AD
S11327C05D26000030B5D378002B1ED11378802B02
S11327D004D01B0680246402234300E000235478C1
S11327E00225AC430AD19478002C03D18024A4029E
S11327F0234302E0C024E402234341605478013CB3
S1132800012C04D8114C234001E0416000230D0445
S11328102D0CA024E4052C431C4384620D0CD0240D
S113282024062C431C438462D478002C0CD15C0312
S113283005D59378012B01D1816100E04161537882
S1132840013B012B00D8816030BDC046FFFFFBFF78
S113285008B5031C0A1CC1090020002903D158092A
S1132860C001044940181F210B4001219940024B2B
S1132870984708BD00440041C52700007047C04682
S113288008B5044B9847044B9847044B9847044BAE
S1132890984708BD71240000212200007D28000013
S11328A07D280000FEE7C04670B5022190235B003E
S11328B0284AD150284BD878032188430222104358
S11328C0D870DD780C24A54308200543DD70234B24
S11328D09E7B3025AE43202535439D739D7BA543C8
S11328E028439873987B884302439A731C4B1D4A70
S11328F09A4203D01C4B1A4A9A4204D31B4B1C4ADB
S11329009A4210D31BE01B4B17480330C01A8008AF
S11329100130800000231249124AD458CC500433A9
S11329208342FAD1EAE7124B1A1D10490331891A7E
S1132930890889005218002102C39342FCD10E4B2E
S11329407F210E4A8A439A600D4B98470D4B984756
S1132950FEE7C046007000410050004100480041BD
S113296000000020A49D0000A8010020BC0B002052
S1132970A80100200400002000ED00E00000000099
S1132980E12D0000612B0000064B1B68002B02D1D7
S1132990054A044B1A60034A136818181060181C7F
S11329A07047C04604020020C02B00200120404292
S11329B07047C04680239B014B6000207047C0468F
S11329C001207047002070477047C04608B5104B7F
S11329D01B780A2B0AD180230E4AD35C012B11D910
S11329E00021D15401218123D1540BE0084B1B78E1
S11329F00D2B07D0074B8022995C0548007858546A
S1132A0001319954044802490122044B984708BDF6
S1132A10F00A0020000B0020840B00202108000095
S1132A2070B582B0051C0E1C00226B46DA80064C81
S1132A30281C69460631A0470028F9D16B460633A5
S1132A401B88337002B070BD6907000070B5061CA6
S1132A500D1C034C301C291CA0470028FAD170BD62
S1132A603D07000030B585B001AB0190029103929F
S1132A70044A31CB31C204480199044B984705B04C
S1132A8030BDC046F40A002004990000512E000015
S1132A9070B582B000226B46DA71224E8023F35C5B
S1132AA06C46A371204B5D68281C204B9847C0B22C
S1132AB06B46607162790533D2B2B15C01AA1170C0
S1132AC0A2791B78D2B29A4205D96B4605331B789A
S1132AD0DBB20021F1541348291C154B98470028F8
S1132AE002D101226B46DA716B4605331B78DBB2E7
S1132AF001AA12780B4CE2546B46D879C0B20A4B47
S1132B009B68211C984700228123E2548023E15CC6
S1132B100091E254201C00218022064B984702B009
S1132B2070BDC046000B0020F40A0020E12F000015
S1132B30BD2F00003F2E000010B5064C201C064996
S1132B400022064B98473123E15C03220A43E254F6
S1132B5010BDC046840B0020C929000009080000EC
S1132B60F0B5474680B490B0684B9847684B984797
S1132B708023DB05009300230193FF226846028132
S1132B8000228372C37296218901089101212420B5
S1132B906C46215425202154262163542721635453
S1132BA00A938821490303912C2163542D216354F2
S1132BB005932382E3762276227762761323A37623
S1132BC06277544B0C93544B0D9301235B420E9349
S1132BD00F93524E524D534C301C291C6A46A04749
S1132BE00028F9D14D4C504B1C60504A504B1A6090
S1132BF0504A514B1A60201C49496A46494B984730
S1132C004E4E3368986800214D4DA8473368586884
S1132C100021A8472568281C4A4B98471F221040CA
S1132C2001228240484B1A602368DA69002AFCD1E9
S1132C302A68022313432B60444B98470122444BD8
S1132C401A70BFF35F8F62B6424800238022835418
S1132C5081228354002180223F4B98473F4D404BB3
S1132C602B60404B6B60404C404B2360404B636097
S1132C70404BA360404B9847404B9847404B984784
S1132C80404B98471622404B1A70404B9847404B94
S1132C90984704203F4B98473F4B984728686968FA
S1132CA0AA683E4DA847FA277F00381C3C4EB0471F
S1132CB01A498846081C3B4901223B4B9847404629
S1132CC03A4901223A4B9847381CB047206861685A
S1132CD0A268A8471F4D374E374C8123EB5C012B6C
S1132CE000D1B0472378002BF7D00022324B1A7062
S1132CF0324B1B78043B9800C3189B003048C01823
S1132D002821304B9847244B9847E6E78128000058
S1132D109521000002000A0002000900840B002033
S1132D200008004235040000580A00204D2A000023
S1132D30540A0020212A0000500A002068010020C3
S1132D40852E00002921000000E100E0392B00005D
S1132D501C000020000B00203F2E0000D80A002099
S1132D600C99000014990000E40A0020189900004E
S1132D7028990000390B00004D150000691000006F
S1132D80AD10000011110000AC0A00205D0100002C
S1132D90E5030000010B000091030000652A000018
S1132DA0D1210000CD29000009080000F00A00200C
S1132DB021080000912A0000C00A00205C0A0020BB
S1132DC090000020ED14000008B5002100F078FF09
S1132DD008BD08B500210A2201F008F808BD00006A
S1132DE070B50E4B0E4D0024ED1AAD101E1CAC42F6
S1132DF004D0A300F35898470134F8E706F0C2FF63
S1132E00084B094D0024ED1AAD101E1CAC4204D031
S1132E10A300F35898470134F8E770BD909D000073
S1132E20909D0000909D0000949D000010B500232B
S1132E30934203D0CC5CC4540133F9E710BD031CA6
S1132E408218934202D019700133FAE770470000E8
S1132E500FB40B4B13B51C68002C05D0A369002BD1
S1132E6002D1201C02F092FD05ABA168201C049A3B
S1132E70019300F0F1FF16BC08BC04B01847C0462B
S1132E806801002008B54A424A4180235200DB0011
S1132E9000F002F808BD0000F7B51E1C3C4B041CF2
S1132EA01D680F1C0192002D05D0AA69002A02D1C9
S1132EB0281C02F06BFD374B9C4201D16C6808E082
S1132EC0354B9C4201D1AC6803E0344B9C4200D1A9
S1132ED0EC68019B022B57D8002E55DB281C211CC3
S1132EE002F0D4FC00236360A361A3891A0603D50E
S1132EF0281C216903F044FDA38983229343A38101
S1132F00019B022B13D0002F25D1002E01D1802646
S1132F10F600301C03F012F9071E18D18020C000FF
S1132F2003F00CF9071E10D10120404200E00020FC
S1132F30A38902221343A3810023A360231C4733E4
S1132F40236023610123636120E08026F600A389C6
S1132F5080221343A381019A012A04D1A389134334
S1132F60A3817342A3610E4B0020AB62A389276047
S1132F70276166611A0709D5032213405A42534157
S1132F805B421E40A66001E001204042FEBDC046F7
S1132F90680100209C9B0000BC9B0000DC9B00009F
S1132FA0E5580000C9B20378002B03D08B4204D04B
S1132FB00130F8E7002900D0181C704702780B781C
S1132FC001300131002A01D09A42F7D0D01A70475B
S1132FD0031C0A7801311A700133002AF9D17047B1
S1132FE00023C25C0133002AFBD1581E704730B560
S1132FF0031C002A07D00C7801335D1E013A2C70A3
S11330000131002CF5D19A18934203D00021197094
S11330100133F9E730BD30B502680C780132002C79
S11330200AD013781D1C413D192D00D820330131DD
S1133030A342F2D0002001E00260012030BD000074
S113304070B5161C0D1C03F065FB002E0BD06B0035
S11330505B0D6B22D31A002B05DD034D1C05631990
S1133060002204F001FF70BD0000F03F00000000EA
S1133070F0B5BE4FBC4EA1B0002308900A9119923E
S11330801C931B911B9A13780D2B05D8092B15D271
S1133090002B00D1C1E114E02B2B07D02D2B02D043
S11330A0202B0ED10AE00124169401E00025169588
S11330B0531C1B935378002B05D1AEE101321B92B4
S11330C0E0E7002416941B9D00242B780D94302BEC
S11330D05AD16B78582B01D0782B49D1169C1CAB54
S11330E00093019408981BA9A14A1DAB02F009FDA5
S11330F007240790044001D100F0B0FD062C02D152
S113310001351B958BE11C9A002A07D01EA8352196
S113311003F0F0FB08981C9903F05DF81D9B062C46
S11331201CD8201C03F0D8FD040A0714170A040055
S113313000273E1C12E01E9E1F9F0FE08D488E4A02
S11331401B181F991B050A401F1C1E9E174305E0F0
S11331508A4F002602E00123894F5E42079C240720
S113316001D400F07BFD80231B061F4300F076FD95
S11331701B9B5A1C1B925B78302BF9D0002B01D17E
S113318000F06CFD01250D951B9C002510940B95FA
S11331900E9509951B9C25782B1C303BDAB2092A25
S11331A012D8099D0A22082D04DC0E9D6A439B183F
S11331B00E9303E00B9D6A439B180B93099D013406
S11331C0013509951B94E5E7089802F063FF006850
S11331D00790089802F05EFF0068FFF701FF079967
S11331E0021C201C03F0F0FC041E06D0099C0020E5
S11331F02B1C079484460C9063E008981B9D02F0F6
S113320049FF0068FFF7ECFE2D181B952B78099DEC
S1133210281E48D1302B05D11B9B01305A1C1B9210
S11332205B78F7E71A1C313A082A45D81B9C844678
S1133230002010940790303B421C002B2DD007999E
S11332409444079D01314C1B94420EDA4C1E082C09
S113325004DC0E9D0A2465430E95F2E71029F0DC88
S11332600B9D0A2465430B95EBE7C243D21710402C
S11332702818441C0794082806DC0E9D0A226A4379
S1133280D2180E92002208E0079C0022102C04DCC5
S11332900B9D0A216943C9180B911B9B101C591CD7
S11332A01B915B7803E0099D201C0795A4461A1C1A
S11332B0303A092ABFD902E000240794A446012128
S11332C00C912022191C9143002245295FD1079BB0
S11332D00D9C03432343934200D19EE01B9D2B1C72
S11332E001331B936B780A952B2B03D02D2B03D022
S11332F0119208E0119201E0012111910A9B0A9CAC
S113330002331B93A3781A1C303A092A3CD8302B79
S113331004D11B9B5A1C1B925B78F8E71C1C313CA4
S11333200022082C33D81D1C1B99303D1B9B5A1CB2
S11333301B925B781C1C303C092C04D80A22554390
S1133340ED18303DF2E7521A0F920E4C0F99221CE1
S1133350082903DC2A1EA24200DD221C119C002C39
S113336015D0524213E0C0460000000000000000E7
S1133370209A000033040000FFFFEFFF0000F07FFD
S1133380FFFFFF7F1F4E00000A9D00221B95079C34
S1133390002C48D10D9D284301D000F05FFC0C980F
S11333A000283AD14E2B1CD002DC492B05D034E046
S11333B0692B02D06E2B14D02FE01BA8A849FFF76D
S11333C02AFE002829D01B9B1BA8013BA5491B935F
S11333D0FFF721FE002802D11B9B01331B93A24F50
S11333E018E01BA8A149FFF716FE002815D01B9969
S11333F00B78282B0DD11BA89D491EAA02F0B1FD04
S1133400052806D1984A1F9B171C1F431E9E00F0D7
S113341025FC984F002600F021FC0A9C1B940025F3
S1133420169500F01BFC6446099D141B0A94002D9C
S113343001D1079C0994079C102C00DD10240E98E0
S113344005F048FB061C0F1C092C15DD231C8A4AB9
S1133450093BDB00D3181A685B6804F005FD061C01
S11334600B980F1C05F036FB021C0B1C301C391C7E
S113347003F06EFD061C0F1C079D0F2D3ADC0A9D00
S1133480002D01D100F0EAFB26DD162D07DC7A4B76
S1133490EA009A18106851683B1C321C17E0079D1B
S11334A025235B1B0A9D9D4224DC079C0F22151BD0
S11334B0714CEB00E31818685968321C3B1C04F08B
S11334C0D3FC0A9A571BFF00E4192268636804F0CE
S11334D0CBFC061C0F1CC1E30A9D16350ADB0A9CB3
S11334E0654BE2009A1A301C391C5368126804F0C8
S11334F051F8EEE7079D2C1B0A9D2C19002C56DD74
S11335000F2323400AD05C4ADB00D318186859689B
S1133510321C3B1C04F0A8FC061C0F1C0F239C430C
S113352000D1B7E09A235B009C420EDD002407948F
S1133530099410940E94089D109C222300262B605D
S1133540494FB44200D075E388E32411301C391C80
S11335500025012C0BDDE20706D5484BEA00D31801
S11335601A685B6804F080FC01356410F1E7444B91
S1133570ED00CF18414B061C5D19321C3B1C28681A
S1133580696804F071FC384B0F1C0B403D49061C64
S11335908B42CBD83C498B4203D901233B4F5E423B
S11335A002E0D425AD047F1900240B9474E0002CB0
S11335B070D064420F2323400AD02F4ADB00D31873
S11335C0301C391C1A685B6803F0E4FF061C0F1CEE
S11335D024115FD01F2C05DD002507950995109552
S11335E00E9521E1E3066A25DB171D400B95284D56
S11335F0301C391C002C08DDE20703D52A686B68EF
S113360004F032FC64100835F4E70B9C061C0F1C14
S1133610002C17D04B005B0D6B21CB1A002B11DD56
S11336201F2B0BDD0026342B02DDDC239F0409E075
S11336300121203B494299400F4003E001225242BC
S11336409A401640301C391C044B034A03F00EFC0C
S11336500028C1D120E0C0460000000000000000A6
S11336605E9A0000919B00000000F07F669A0000C3
S1133670349A00000000F8FF089C0000D09C000071
S11336800000B0FC0000A07C0000907CFFFFEF7FF6
S1133690F899000000250B950E9C08980094109949
S11336A0099A079B02F0EEFD1090002800D13DE737
S11336B00A9D00246B42EA17134017930794099458
S11336C0109D08986D68291C069502F04CFD0E901B
S11336D0002800D12FE71098109900690C31021CC2
S11336E00E98023292000C30FFF7A0FB1DAB009342
S11336F01EAB01930898321C3B1C1296139703F0DF
S11337007DF81C90002800D115E70898012102F0EB
S113371042FE0990002800D10DE70A9D00240D9473
S1133720AC4200DA0D951D9B002B00DA86E0179D54
S11337300D99EC180B9D1E985B1B36251A182D1A33
S1133740C7480123824200DB82E0801A2D1A1F2819
S113375078DC83400020189311900B9863194D195D
S11337600C932D18A34200DD231CAB4200DD2B1C5F
S1133770002B04DD0C99ED1AC91A0C91E41A179A5E
S1133780002A69D10C9800287EDC0D99002900D00C
S113379084E0002D00DD8BE0002C00DD92E0089831
S11337A01C990E9A02F04FFF0790002800D1C2E640
S11337B0C4680025C56009990F9402F029FFA84246
S11337C000DB8EE0AC4200D01FE2AE4200D01CE22F
S11337D03B03AB4200D018E2A24AD6233A40DB04B2
S11337E09A4200D811E207984069A84274D0079918
S11337F00898012202F0BAFE0999079002F008FF26
S1133800002800DC01E20B9C964B002C00D199E0CF
S11338101A1CD6213A40C9048A4200D992E0DC231A
S11338209B049A4200D9F3E1089D109C2223834F04
S1133830814E2B60002C00D0FCE10FE20D9CE11ABC
S1133840179C77E78848821A181C9040119001E071
S113385000221192189380E70898099902F034FE27
S11338600990002800D166E6089809991C9A02F08C
S11338709BFD0F90002800D15DE608981C9902F08A
S1133880AAFC0F9B1C937DE708981C990C9A02F0E4
S11338906DFE1C90002800D077E74CE608980E993E
S11338A00D9A02F011FE0E90002800D071E742E656
S11338B008980E992A1C02F059FE0E90002800D098
S11338C06AE738E608980999221C02F04FFE09902D
S11338D0002800D063E72EE607990969012986DCF0
S11338E093E1002865D10F9C3A03002C25D05F4951
S11338F03B1C120B8A422ED101210B9D4942301CE4
S11339000A1C002D0AD0574CD4253C40ED04AC428F
S113391004D8240D6B22121B91400A1C90421AD128
S1133920534A934202D1013000D104E64D4A80202B
S1133930134040031F18002667E1002A0BD1002E14
S113394009D160E74B4D494A3B405B19171C1F43A3
S113395001235E4259E1119C002C03D03C4200D16A
S113396053E103E0189D354200D14EE10F9C301C19
S1133970391C0B9A002C0AD0FFF762FB021C0B1CAB
S11339801298139903F0E4FA061C0F1C3DE1FFF7AB
S113399057FB021C0B1C1298139904F0F5FC274BDF
S11339A0254A061C0F1C03F061FA002800D03BE7EF
S11339B02BE10798099902F079FF214A214B041C55
S11339C00D1C03F063FA00285AD00F98002806D083
S11339D0294A00211C4C1D4D0C910D9261E0002ED2
S11339E002D13B0305D10BE0012E02D1002F00D1FF
S11339F01AE721480023164C164D0C930D9050E005
S1133A00201C291C104A114B03F036FA002808D157
S1133A10201C291C104A114B04F026FA0C900D911D
S1133A2003E00F9C154D0C940D950D98802109060B
S1133A300C9C451835E0C046000000000000000062
S1133A400000000000000040000000000000F03F03
S1133A50000000000000F0BF000000000000E03F94
S1133A6003FCFFFF0000F07FE3FBFFFFFFFF0F00FD
S1133A70FFFFEF7F0000F0FF0000F03F0000E03F99
S1133A80201C804B7E4A291C04F0EEF90F9C0C90FC
S1133A900D910B1C002C02D180252D064B190C9C7A
S1133AA01D1C8148814B3840119098422BD11299AA
S1133AB0139A149115927E4A301CBF18391C02F0D7
S1133AC029FE021C0B1C201C291C04F0CDF9021C2D
S1133AD00B1C301C391C03F03BFA734A754B061C53
S1133AE00A409A420BD9744B159C9C4203D1149DF5
S1133AF0013500D11FE501236F4F5E4274E0D420ED
S1133B0080040F183AE00B99002925D0119AD42388
S1133B10DB049A4220D80C980D995B4A5B4B03F066
S1133B20B5F9002813D00C980D9903F0F1F9002889
S1133B3000D1012004F0CEFF0F9C0C900D910B1CC2
S1133B40002C02D180252D064B190C9C1D1CD6205F
S1133B50C00411992B185D1A1298139902F0DAFD1A
S1133B60021C0B1C201C291C04F07EF9021C0B1CDB
S1133B701298139903F0ECF9061C0F1C0B9C129776
S1133B80002C31D1484B119D3B409D422CD10D99C5
S1133B900C9804F02DFF04F05FFF021C0B1C0C9822
S1133BA00D9904F0F1FB041C0F980D1C002804D19E
S1133BB0002E02D112990B030ED0201C291C344A6A
S1133BC0344B03F059F9002834D1201C291C324A03
S1133BD0324B03F065F905E0201C291C304A314BB7
S1133BE003F04AF9002825D108981C9902F0F3FA49
S1133BF008980E9902F0EFFA0898099902F0EBFA86
S1133C000898079902F0E7FA5AE50B9C002C11D0AA
S1133C102A4D002014901595301C391C149A159BBC
S1133C2004F022F9061C0F1C04D1002802D1089CC0
S1133C302223236008981C9902F0CDFA08980E9963
S1133C4002F0C9FA0898099902F0C5FA089810997F
S1133C5002F0C1FA0898079902F0BDFA199D002DE7
S1133C6001D01B982860169C321C3B1C002C02D0EF
S1133C7080252D067B19101C191C21B0F0BDC046EF
S1133C80000000000000E03F0000C0FFFFFFDF4134
S1133C909535A094FFFFDF3F35E5AF350000E03FE9
S1133CA09535A094FFFFCF3F0000F07F0000E07F38
S1133CB00000B0FCFFFF9F7CFFFFEF7F0000503946
S1133CC008B50A1C0349031C0868191CFFF7D0F93E
S1133CD008BDC04668010020F0B51D1C424B87B0EA
S1133CE01B6805900293039101920B1C1C78029FA0
S1133CF05E1C3A19517808220A4001D0331CF5E7BA
S1133D002D2C04D101279E1C5C78009704E00092BE
S1133D102B2C01D15C789E1C10232A1C9A4311D1B0
S1133D20302C08D1327820218A43582A07D174785C
S1133D301D1C023606E0002D04D10A2502E0002DE8
S1133D4000D10825009F291C7B427B4180273F0628
S1133D50FF1A381C03F00EF8381C0491291C02F0D9
S1133D60C5FF0023021C181C029F391949784F070C
S1133D7001D5303C07E003270F4017D05721012F0E
S1133D8000D13721641AAC4210DA591C0BD090428E
S1133D9007D802D1049FBC4203DC684301232018E6
S1133DA001E001235B4234780136DDE7009F591CB2
S1133DB00BD180207B427B410006059FC01A222341
S1133DC03B60019F002F09D10BE0002F00D040423F
S1133DD0019F002F05D0039A002B00D0721E019F73
S1133DE03A6007B0F0BDC0466C01002038B5131C22
S1133DF0044A051C0C1C1068291C221CFFF76CFFCC
S1133E0038BDC04668010020936810B5013B93603B
S1133E10002B05DA9469A34208DBCBB20A2B05D048
S1133E201368581C10601970C8B201E000F072FDEC
S1133E3010BDF8B5061C0F1C141CD518AC4208D0D4
S1133E402178301C3A1CFFF7DFFF0134431CF5D105
S1133E5000E00020F8BD0000F0B59FB0061C0F1C68
S1133E6003920593002804D08169002901D101F04F
S1133E708DFD754B9F4201D1776808E0734B9F42DB
S1133E8001D1B76803E0724B9F4200D1F768BB8948
S1133E901A070AD53B69002B07D006AD00236B61D6
S1133EA020236B763023AB763BE0301C391C00F0CA
S1133EB089FD0028F1D001204042C2E0059A111D7D
S1133EC012680591002A76DB0992013423782E2B9F
S1133ED000D181E021785F48032202F039F90028FB
S1133EE007D05C492A68431A402098401043286050
S1133EF001342178631C584806220393297602F082
S1133F0027F9002800D18AE0544B002B7ED1059B71
S1133F10072207339343083305936A6904995318B6
S1133F206B61039C2378002B04D10399611A0291DD
S1133F3010D003E0252BF8D00134F3E7301C391CF2
S1133F40039A029BFFF775FF013075D06A690299E5
S1133F5053186B612378002B6ED0012252426A60A1
S1133F606A4600235B3201342B60EB60AB60137054
S1133F70AB6521783A48052202F0EAF8002808D017
S1133F80374A0134831A012098402B68184328606B
S1133F90EFE72B68D90603D56A4620215B321170FE
S1133FA01A0703D56A462B215B32117022782A2A1C
S1133FB084D0099B05E05242EA60022213432B603D
S1133FC083E72278303A092A04D80A214B43013482
S1133FD09B18F6E7099379E763782A2B09D1059BA7
S1133FE002341A1D1B680592002B0DDA01235B4273
S1133FF00AE0013400232278303A092A04D80A213D
S11340004B4301349B18F6E7079363E705AB009332
S1134010301C291C3A1C134B00F0C6F807E005AB12
S11340200093301C291C3A1C0E4B00F05DFB0490DD
S11340300499013100D070E7BB895A0600D53AE7EC
S11340400B981FB0F0BDC0469C9B0000BC9B0000B9
S1134050DC9B00004E9A0000529A0000A941000027
S1134060489A0000333E0000F0B58BB0161C1C1CAF
S1134070129904D580221206A4182D2300E00023EF
S1134080149F0B7020239F43462F08D03A1C453AB7
S113409051424A41109902238918109100E00323E8
S11340A00093139B109A029308AB039309AB0192FC
S11340B00493321C231C00F083FD051C472F02D1FE
S11340C01199C9072CD5109969180791462F14D155
S11340D02B78302B0CD1301C211C164B144A02F0C7
S11340E0C5FE002804D1109A012313999B1A0B6072
S11340F0139A07991368C9180791301C211C0D4B9A
S11341000B4A02F0B3FE002801D0079A0992099BDA
S113411007998B4204D25A1C099230221A70F6E78E
S1134120099B281C5A1B159B1A600BB0F0BDC04696
S11341300000000000000000F0B52B2385B0051C32
S11341400C1C0270861C002901DA4C422D236B7072
S1134150092C1EDD6F460E37201C0A21019702F040
S113416069FE30313970201C0A2102F00DFE013F36
S1134170041E092CF0DC019B3034013B1C706A46A0
S11341800F32301C934209D21A780133327001364F
S1134190F5E73023E4183370B01C7470401B05B08D
S11341A0F0BD000000000000F0B593B00C1C0A92B2
S11341B00B93189E051C01F06DFF00680C90FEF730
S11341C00FFF0023109333680722073393431A1C0D
S11341D008320D90277E186859683260A064E16443
S11341E002F06AFC012819D1A06CE16CB94BB84A01
S11341F002F042FE002803D0231C2D2243331A7000
S1134200472F01D8B44E00E0B44E03232068236145
S11342100423984300212060099191E0A06CE16C93
S113422002F04AFC236800280CD1472F01D8AC4E79
S113423000E0AC4E03222261042293430022236057
S113424009927DE06268561C01D1062207E0202114
S1134250381C8843472803D1002A01D10122626017
S11342608022D2001343236001936B463B330293B5
S11342700FAB6168039310AB059300230091069381
S11342800497A26CE36C281CFFF7EEFE20233A1C73
S1134290061C9A430F99472A07D1CB1C02DB60689E
S11342A081422EDD023FFFB201E0652F12D8201CAF
S11342B001393A1C50300F91FFF73EFF109B0990D3
S11342C0C2182261012B02DC2168C9072FD50132F3
S11342D022612CE0662F15D16368002908DD216175
S11342E0002B02D12268D2071DD50133C91811E071
S11342F0002B03D120680122104200D09A1C2261B5
S113430011E06727109A914206DB22682161D207E7
S113431009D50131216106E00123002901DC0223D2
S11343205B1AD31823610F9B0020A36509906B4689
S11343303B331B78002B03D0231C2D2243331A70EC
S11343400B99281C009111AA211C0A9B00F058F912
S1134350013002D1012040424CE12268530504D4CB
S1134360281C0A99321C236967E0652F00D8E0E015
S1134370A06CE16C574B564A02F078FD00282BD014
S1134380281C0A99584A01230B9EB0470130E1D0FA
S11343900F9F1098874207DB2168C90704D4276858
S11343A0BF0700D50EE113E1281C0A990C9A0D9B56
S11343B00B9EB0470130CDD00026109B013B9E429E
S11343C0EDDA221C281C0A991A3201230B9FB847E4
S11343D00130BFD00136F0E70F98002830DC281CEC
S11343E00A99414A01230B9FB8470130B2D00F9874
S11343F0002805D11099002902D12268D207CED510
S1134400281C0A990C9A0D9B0B9FB8470130A1D028
S113441000270F980997099F43420A99281C9F4235
S113442009DA221C1A3201230B9FB847013091D0BC
S1134430099F0137EDE7109B321C0B9EB047B5E096
S1134440109FA36D08979F4200DD0893089F002FDB
S113445001DC002714E0281C0A99321C089B0B9FDE
S1134460B8470130F5D175E7221C281C0A991A3285
S113447001230B9FB847013000D16BE7099F013737
S11344800997089FA36DFA43D2173A40099F9A1AD5
S11344909742E9DB0F981099F318099388420EDBD1
S11344A02268D2070BD4109B0F9FF618DB1B099FC1
S11344B0F61B9E4200DD1E1C002E17DC1FE0281C8C
S11344C00A990C9A0D9B0B9FB8470130EBD141E739
S11344D00000000000000000599A00005D9A0000EE
S11344E0619A0000659A0000699A0000281C0A99E4
S11344F0099A331C0B9FB847013000D12AE70027E3
S11345000BE0221C281C0A991A3201230B9FB8477E
S1134510013000D11EE7099F0137099710980F99C0
S1134520F343DB17099F421A3340D31A9F42E8DB57
S113453035E71098012802DC01231A423AD0281CDE
S11345400A99321C01230B9FB847013000D101E7BF
S1134550281C0A990C9A0D9BB847013000D1F9E642
S1134560A06CE16C254B244A02F080FC002801D0A9
S1134570002610E0109B721C013B281C0A991CE0C9
S1134580221C281C0A991A3201230B9FB8470130B8
S113459000D1DFE60136109B013B9E42F0DB221C7A
S11345A0281C0A995032099B0B9FB847013000D050
S11345B0F5E6CFE60A99281C321C0B9EB047013061
S11345C0EDD1C7E60026E0681199431A9E4205DB47
S11345D0119BE06898420DDA181C0BE0221C281C81
S11345E00A99193201230B9FB847013000D1B1E673
S11345F00136E8E713B0F0BD000000000000000041
S1134600F7B5151C01930A698B68061C0C1C9342B0
S113461000DA131C221C2B6043321278002A01D0CA
S113462001332B602068800602D52B6802332B608F
S1134630216806270F401FD0231C43331B785A1EC2
S11346409341226892061FD5E11840313020C8708A
S1134650211C5A1C45310978A21840320233D1700A
S113466012E0221C301C019919320123089FB8471B
S1134670013011D0009F01370097E0682968009F3E
S1134680431A9F42EDDBD7E7221C301C01994332C9
S1134690089FB847013002D10120404223E020683E
S11346A006212B68E26801400025042903D1D51AAC
S11346B0EB43DB171D40A26823699A4201DDD31A3C
S11346C0ED1800270097009FAF420BDA221C301C24
S11346D001991A320123089FB8470130DCD0009FAA
S11346E00137EFE70020FEBDF0B50D1C8BB043355C
S11346F006920590079304950B7E0C1C109A6E2B62
S113470000D1A7E011D8632B22D009D8002B00D107
S1134710B0E0582B00D0C0E045310B707B4D4EE02B
S1134720642B1CD0692B1AD0B7E0732B00D1A5E001
S113473009D86F2B29D0702B00D0AEE00E6820234F
S113474033430B6036E0752B1FD0782B32D0A4E0B6
S113475013680D1C191D423511601B689FE0216808
S113476013680E0603D5191D11601E6805E048067E
S1134770F9D5191D116000215E5E644B002E3BDAF1
S1134780049D2D2276422A7036E0216813680E06B5
S113479003D5191D11601E6804E04806F9D5191DDA
S11347A01E881160594B227E039308276F2A1ED05E
S11347B00A271CE0231C78214533554D19701168D4
S11347C02368081D039510601E0601D50E6802E0DB
S11347D05806FBD50E88D90702D52022134323603F
S11347E01027002E03D1226820239A432260231C21
S11347F0002243331A7001E003930A276368A3601D
S1134800002B03DB2568042295432560002E02D18A
S1134810049D002B0ED0049D301C391C02F0AAFA12
S11348200398013D435C301C2B70391C02F05EFA86
S1134830061EF1D1082F09D12168C90706D562687F
S113484023699A4202DC013D30232B70049E731BC2
S113485023612AE0086813684969050604D5181D10
S113486010601B68196005E04606F8D5181D106035
S11348701B68198000232361049D16E01368191D29
S113488011601D68281CFEF7ABFB63682061984229
S113489000D923612069606004E0251C42352B7037
S11348A001232361049E00233370079E059800961C
S11348B0211C09AA069BFFF7A3FE013002D10120A7
S11348C0404221E02A1C059806992369079DA847C0
S11348D00130F4D02668B60705D4099BE0689842F5
S11348E012DA181C10E00025E0680999431A9D4269
S11348F0F3DA221C0598069919320123079EB04762
S11349000130DCD00135EFE70BB0F0BD6B9A00004D
S11349107C9A000070B5051C0E1C141C002804D0E1
S11349208269002A01D101F031F8234B9C4201D164
S11349306C6808E0214B9C4201D1AC6803E0204B39
S11349409C4200D1EC68A369A360A3891A070AD525
S11349502369002B07D022682369F6B2D01A626952
S113496090420FDB08E0281C211C00F02BF80028E3
S1134970F1D0012040421DE0281C211C00F086FFDC
S11349800028F6D1A3680130013BA36023685A1CB8
S113499022601E706369984205D0A389301CDA072F
S11349A008D50A2E06D1281C211C00F06FFF002810
S11349B0DFD1301C70BDC0469C9B0000BC9B000036
S11349C0DC9B0000344B70B51D68061C0C1C002DCC
S11349D005D0A969002902D1281C00F0D7FF2F4B6C
S11349E09C4201D16C6808E02D4B9C4201D1AC681B
S11349F003E02C4B9C4200D1EC68A28993B21907C6
S1134A0021D4D90605D40923336040231A43A28153
S1134A103FE05A0713D5616B002908D0231C4433A7
S1134A20994202D0301C01F0ABFF00236363A389D9
S1134A3024229343A3810023636023692360A38911
S1134A4008221343A381216900290BD1A389A02241
S1134A5092001A4080239B009A4203D0301C211CF0
S1134A6001F01CFBA38901221A4005D061690022D0
S1134A70A2604A42A26103E0990700D46269A2607D
S1134A8022690020824206D1190604D5402213432C
S1134A90A3810120404270BD680100209C9B00005E
S1134AA0BC9B0000DC9B0000F0B589B006910B694B
S1134AB00169051C002699427FDB069C5F1E1434A5
S1134AC004940499BC000919021C0B681432059162
S1134AD01419191C01312068039202F007F902909D
S1134AE0B04238D00499039B8C46019607966246DF
S1134AF004329446043A40CA0299B0B24843310C95
S1134B00029E019A71431018020C51180A0C01926A
S1134B101A6880B296B2079A89B2B618301A1E681B
S1134B20320C521A06149219111480B21204059E02
S1134B301043079101C36645D9D2216800290AD1DF
S1134B40039E043CB44201D82F6104E0216800298B
S1134B50FAD1013FF4E7281C069901F059FD002819
S1134B602ADB029C039A0134049B029400241168FA
S1134B7040CB88B200191468B1B2401A360C210C2B
S1134B80891B041409190C1480B20904059E0143FD
S1134B9002C29E42EBD2039CBB00E3181E68002EA7
S1134BA00AD1039C043BA34201D82F6104E01E6890
S1134BB0002EFAD1013FF4E7029E301C09B0F0BD8B
S1134BC0F0B5446A9BB00790239D04920593002C92
S1134BD008D1102001F0B2FA079948624460846059
S1134BE00460C460079C636A196800290AD05B6882
S1134BF001229A404B608A60201C01F0ECFA636A3F
S1134C0000221A600598002805DA01232B6043006E
S1134C105B08059301E000232B60059EBE4B321C0C
S1134C201A409A4218D1BD4B229C049D2360002D4A
S1134C3001D1360301D0BA4800E0BA48249C002CC4
S1134C4001D100F093FDC278C31C002A00D00533C3
S1134C50249D2B6000F08AFD049C059DA54BA44A6D
S1134C60201C291C02F002F9071E0CD0229C249D52
S1134C7001232360002D01D100F075FDAA482860AE
S1134C80013800F073FD19AB009318AB019307983A
S1134C902B1C221C01F0B2FD73000A905B0D09D09D
S1134CA0201CA24C2A03120B211C1143A04A169764
S1134CB09E181BE0189B199C1D199E4B9D4209DBF5
S1134CC09D49049A9D4B6818C2405B1B101C9E4072
S1134CD0304304E09A48049B401B8340181C03F0B3
S1134CE0F9FE984C6E1E012509191695824A834BCC
S1134CF003F04AFB824A834B03F0B6F8824A834BA3
S1134D0002F026F9041C301C0D1C03F0A5FE804A99
S1134D10804B03F0A9F8021C0B1C201C291C02F078
S1134D2017F9041C0D1C03F063FE724B704A0690C5
S1134D30291C201C02F0A0F800280DD0069803F0CE
S1134D408BFE0B1C021C291C201C02F08FF8069CF5
S1134D5043424341E41A0694069C01251395162CFC
S1134D6010D8794AE300D31818685968049A059B47
S1134D7002F096F8002804D0013C0025069413950F
S1134D8000E0139018980024861B351C0294013D02
S1134D90099504D5099C0025644202940995069C52
S1134DA0002C06DB099D12942D19002409950D94FD
S1134DB007E0069C029D2D1B0295654200240D957B
S1134DC01294209D0124092D24D8052D02DD043DD3
S1134DD02095002420980238032823D801F07CFF72
S1134DE0060E0204012502E0012508E000251095C5
S1134DF0219D002D1FDD0C95089509E000251095D7
S1134E000698219D2D180C9501350895002D18DD67
S1134E102B1C17E0634200250C93089320951094F3
S1134E20122306E001256B4210950C93089300258C
S1134E301223219506E001250C9508952B1C21953C
S1134E4000E0012307980022456A6A600422101CCE
S1134E5014306968984203D8013169605200F6E75A
S1134E60079801F080F92860079D6B6A089D1B680C
S1134E700B930E2D00D987E1002C00D184E1049C12
S1134E80059D14941595069D002D61DD2A1C0F23A4
S1134E901A402D49D2008A18146855680E940F954B
S1134EA0069D2A4C2F110225F80617D51F40149889
S1134EB01599226A636A02F06DFB0325049005913B
S1134EC00CE0F90708D50E980F992268636802F080
S1134ED0CBFF0E900F9101357F100834002FF0D1D5
S1134EE0049805990E9A0F9B02F054FB4EE0C046BD
S1134EF00000000000000000000000000000F83F77
S1134F0061436F63A787D23FB3C8608B288AC63FCB
S1134F10FB799F501344D33F0000F07F0F2700001C
S1134F20979B00008E9B00006A9A00000000F03FEF
S1134F3001FCFFFFEFFBFFFF120400000EFCFFFF6C
S1134F40EEFBFFFF000010FE089C0000D09C000058
S1134F50069C02256742002F1AD00F233B40CC4AFF
S1134F60DB00D318149815991A685B6802F07CFF6B
S1134F70C84E3F11002F09D0FA0704D53268736870
S1134F80013502F071FF7F100836F3E704900591B4
S1134F90139C002C1ED0049E059FB44BB24A301CB7
S1134FA0391C01F069FF002814D0089C002C11D092
S1134FB00C9C002C00DCE3E0069C301C013C391CFA
S1134FC0AB4AAC4B119402F04FFF013504900591AC
S1134FD00C9C02E0069C1194089C281C049E059FCE
S1134FE00E9403F039FD321C3B1C02F03DFFA24A33
S1134FF0A24B01F0ADFF041CA74808180E990490B9
S1135000051C00291BD19E4A9E4B301C391C03F001
S1135010BBF9221C049B061C0F1C01F041FF002855
S113502000D05CE2221C8025049C2D06301C391C17
S1135030631901F021FF002800D047E2A0E00E9A96
S1135040934B013A1098D2009B18002849D01A6853
S11350505B688D488D4902F09DFA2B1C221C03F0DD
S113506093F9049005910B9D391C301C03F0C0FC8E
S1135070041C03F0F1FC021C0B1C301C391C03F053
S113508083F901356B1E30341C70049A059B061C91
S11350900F1C01F0F1FE002800D053E3321C3B1C2E
S11350A07249714803F070F9049A059B01F0E4FE1B
S11350B0002800D0CBE00B9C2B1B0E9CA3425FDA94
S11350C0049805996A4A6B4B02F0CEFE684A694B14
S11350D004900591301C391C02F0C6FE061C0F1CFE
S11350E0C2E718685968221C2B1C02F0BDFE0B9CF9
S11350F00E9D0490059165191795391C301C03F019
S113510077FC051C03F0A8FC021C0B1C301C391C8A
S113511003F03AF930352570179D0134061C0F1C35
S1135120AC4226D10E980B9C574A584B251804982C
S1135130059901F00DFF021C0B1C301C391C01F0F9
S1135140AFFE002800D082E0049A059B4E484F49E8
S113515003F01AF9021C0B1C301C391C01F08CFEE4
S113516000280DD06B1E1A78302A00D0EAE21D1CEC
S1135170F8E73F4A3F4B02F077FE061C0F1CBCE7E2
S1135180149C159D04940595199B002B00DA9FE04F
S1135190069D0E2D00DD9BE03D4AEB00D3181C68F4
S11351A05D6802940395219D002D14DA089C002C5F
S11351B011DC00D08CE1324A324B0298039902F0A0
S11351C053FE049A059B01F075FE089F3E1C0028BF
S11351D000D07FE187E10B9D049E059F029A039B0B
S11351E0301C391C02F0D6F903F002FC041C03F055
S11351F033FC029A039B02F037FE021C0B1C301C8A
S1135200391C03F0C1F80135021C201C30300B1C82
S1135210691E08700B98291A0898814248D1101CFD
S1135220191C01F095FE029A039B061C0F1C01F049
S113523037FE00280DD1301C391C029A039B01F063
S113524015FE002800D17FE2E10702D47CE2119C24
S113525006946B1E1A78392A26D10B9CA3421DD0C2
S11352601D1CF6E7C046C046000000000000F03FE9
S113527000000000000024400000000000001C406A
S11352800000000000001440000000000000E03FA7
S1135290089C0000D09C00000000C0FC069C30224A
S11352A0013406940B9C22701A7801321A704BE276
S11352B0101C191CC94BC84A02F0D6FDC84AC94B78
S11352C0061C0F1C01F0D2FD002800D186E73BE24A
S11352D0109D002D31D0209C012C0BDC169D002D3F
S11352E002D0C1481B1802E0189936235B1A0D9DA1
S11352F0029C16E0089D0D9C013DAC4201DB651B40
S113530006E00D9C0D952B1B129C0025E4181294AD
S1135310089C002C03DA02980023041B01E0029C81
S1135320089B0299099AC9180291D2180798012179
S1135330099201F030F8061C02E00D9D029C109EBB
S1135340002C0CD0099B002B09DDA34200DD231C9B
S113535002980999C01AC91A0290E41A09910D9A7F
S1135360002A21DD109B002B18D0002D10DD311CEC
S11353702A1C079801F0A8F8061C311C0A9A079801
S113538001F012F80A99071C079800F024FF0A9705
S11353900D98421B08D007980A9902E007980A99C9
S11353A00D9A01F091F80A900798012100F0F3FF9B
S11353B0129D071C002D05DD391C07982A1C01F0DD
S11353C083F8071C20980025012810DC0499A942C1
S11353D00DD1059A1303AB4209D1844B134206D075
S11353E0029D01350295099D013509950125129902
S11353F00120002908D03B6903339B00FB1858683F
S113540000F080FF2023181A099A1F2380181840DF
S11354100DD020231B1A042B06DD1C23181A029B13
S113542024181B18029308E0042B08D0181C0299B6
S11354301C300918099A0291241812180992029B27
S1135440002B05DD07980A991A1C01F08FF80A90C1
S11354500998002805DD391C0798099A01F086F897
S1135460071C139900291BD00A98391C01F0D0F8A5
S1135470002815DA069A0023013A069207980A9939
S11354800A2200F0C1FE0C9B0A9010980893002891
S113549006D0311C07980A22002300F0B5FE061C32
S11354A0089900292ADC209A022A27DD002911D133
S11354B0391C07980522089B00F0A6FE071C391C1E
S11354C00A9801F0A5F800280DDC03E00E9F00E027
S11354D000273E1C219C0B9DE44306940BE0119D88
S11354E00E9F06953E1C0B9C31232370069C0B9D3E
S11354F0013401350694029600260FE11098002825
S113550000D1C5E0002C05DD311C0798221C01F0F8
S11355102DF8061C0296002D12D07168079800F031
S113552022FE3269311C0232041C92000C310C3010
S1135530FDF77CFC0798211C012201F017F802906A
S11355400B9C089D231C013B5B1909941093391C87
S11355500A98FFF7A9FA311C0D90041C0A9801F06F
S113556057F8391C0C90029A079801F06CF8051C46
S1135570C0683034002805D10A98291C01F048F885
S1135580089001E001210891291C079800F023FEEE
S1135590089B209D2B430DD104980123034209D17C
S11355A0392C44D00C9D002D01DD0D9C3134099D16
S11355B0013544E00C9D002D03DA089D002D17DC15
S11355C028E00C9B209D2B4329D1049801230342FE
S11355D025D1F2E7C046C046000000000000244088
S11355E00000000000000000330400000000F07F11
S11355F00A990798012200F0B9FF391C0A9001F0BA
S113560007F8002802DC05D1E10703D5392C0ED0B8
S11356100D9C3134099D099A013514707EE0099D71
S113562001350C95089D002D0CDD392C05D1099D03
S1135630099C3923013523705BE00C9D01340998E2
S113564004706BE00999109A0C9D0C7091423DD046
S11356500A990A220023079800F0D6FD029C0A90BA
S1135660311C07980A220023A64204D100F0CCFD85
S1135670061C029009E000F0C7FD0299061C0A22EC
S11356800798002300F0C0FD02900C9D09955EE789
S11356900B9D391C0A98FFF707FA041C30340B9849
S11356A008992C7001352B1A8B4207DB0B1E00DC8A
S11356B001230B9A0296D518002607E007980A9949
S11356C00A22002300F0A0FD0A90E2E70A99079855
S11356D0012200F04BFF391C0A9000F099FF0028CA
S11356E007DC15D1E30704D412E00B9CA34205D0D8
S11356F01D1C6B1E1A78392AF7D006E0069C31234C
S1135700013406940B9C237008E001321A7005E002
S11357106B1E1A78302A01D11D1CF9E70798391C31
S113572000F059FD029C002C0ED0002E05D0A6429C
S113573003D00798311C00F04EFD0798029900F041
S11357404AFD01E0119C069407980A9900F043FD74
S113575000232B70069B229C01332360249C002C85
S113576003D0256001E0024800E00B981BB0F0BDB7
S1135770699A0000C046C046F7B58B89051C0C1C0D
S113578019075ED46268002A02DC276C002F1ADD38
S1135790E76A002F17D000222E682A608022520167
S11357A01A4001D0626D15E0281C216A0123B84714
S11357B0021C411C0ED12B68002B0BD01D2B01D0D9
S11357C0162B02D12E6000205EE0A38940210B43FA
S11357D0A38159E0A3895F0706D56168636B521AF8
S11357E0002B01D0276CD21B281C216A0023E76AF6
S11357F0B847A289411C06D12B68002B03D01D2B6E
S113580001D0162B19D10023636023692360D704C8
S113581005D5411C02D12A68002A00D16065616B5C
S11358202E600029CFD0231C4433994202D0281C77
S113583001F0A6F80020606326E040231A43A28109
S113584022E02669002EBED027680022BF1B0197E4
S11358502660990700D16269A260019F002FB2DD22
S1135860281C216A321C019BA76AB847002806DC61
S1135870A389402213430120A381404204E0019FF5
S113588036183F1A0197E8E7FEBD00000A6938B5EB
S1135890051C0C1C002A01D100201CE0002804D0A7
S11358A08369002B01D100F071F80B4B9C4201D1AC
S11358B06C6808E0094B9C4201D1AC6803E0084BDA
S11358C09C4200D1EC680C22A35E002BE4D0281C7F
S11358D0211CFFF751FF38BD9C9B0000BC9B0000BE
S11358E0DC9B0000F8B5041C071C4834002C12D0C3
S11358F0A5686668013E0CD4AB89012B07D90E223A
S1135900AB5E013303D0381C291CFFF7BFFF683599
S1135910F0E72468EAE7F8BD002310B5041C03602F
S11359204360836081814366C28103614361836113
S1135930191C08225C30FDF782FA054B246263626D
S1135940044BA362044BE362044B236310BDC046C3
S1135950316B0000596B0000916B0000BD6B0000BF
S113596070B54B1E68255D430E1C291C743101F073
S11359704FF8041E08D00021016046602A1C0C3038
S1135980A0606832FDF75BFA201C70BD836913B513
S1135990041C002B27D18364C3640365124B134A90
S11359A01B688262984201D101238361201C00F0AC
S11359B01FF86060201C00F01BF8A060201C00F0A1
S11359C017F80421E06000226068FFF7A5FFA068D3
S11359D009210122FFF7A0FFE06812210222FFF74C
S11359E09BFF0123A36113BDF4990000E558000057
S11359F0F8B51D4B071C1E68B269002A02D1301C81
S1135A00FFF7C4FF4836B4687368013B05D40C2221
S1135A10A55E002D10D06834F7E73368002B06D15B
S1135A20381C0421FFF79CFF3060002801D0366841
S1135A30E9E70C233B6016E001235B42E381201C71
S1135A400123A38165662560A560656025616561A4
S1135A50A5615C30291C0822FDF7F1F96563A56393
S1135A60A564E564201CF8BDF4990000F7B5031C97
S1135A70066914334C111A1CB44227DAB6009E1975
S1135A80A4001F2201961C19114001D1191C16E013
S1135A90202220CC521A9446CD401F1C019E3A1C51
S1135AA0B44207D222686646B240154320C720CCD0
S1135AB0CD40F3E73D60002D08D0043206E0019D9F
S1135AC00A1CAC4202D204CC04C1F8E7D31A9B10DE
S1135AD0036100D14361F7BD021C303A031C092A5B
S1135AE001D8203B0BE0021C613A052A01D8473B50
S1135AF005E01A1C413A0020052A01D8273BD8B2F8
S1135B007047F0B58FB006920C930A91089000F09C
S1135B10C1FA00680B90FDF763FA0B9D07902B18F0
S1135B200A9D013B1B782A680D93931C0593059DE0
S1135B30991A28780239099101333028F6D0FFF7F1
S1135B40CBFF061E1FD105980B99079A01F03CF86C
S1135B5000283BD107982F183878FFF7BDFF00289D
S1135B6037D00597059D2878302803D1059D013548
S1135B700595F7E7FFF7B0FF454245410395012539
S1135B803E1C099502E0002503952E1C059F3878DC
S1135B90FFF7A2FF002801D00137F8E7381C0B9962
S1135BA0079A01F011F800280BD1002E0BD1079DA4
S1135BB07F193E1C3878FFF78FFF002801D001378A
S1135BC0F8E7002E09D0F61BB60006E0059F049600
S1135BD000E004900125039500E004963B78502BE7
S1135BE001D0702B27D17B782B2B04D02D2B04D004
S1135BF07C1C002603E0002600E00126BC1C207863
S1135C00FFF76AFF431EDBB2051C182B13D80134BF
S1135C102078FFF761FF431EDBB2103D182B03D839
S1135C200A235D432D18F2E7002E00D06D4204983C
S1135C304019049000E03C1C0A9D2C60039D002D3B
S1135C4006D0099D06206B426B415B42184074E10B
S1135C50059D03997B1B013B072B02DD01315B1082
S1135C60FAE7089800F07FFA051C143503950995A6
S1135C700025041C2E1C059A974227D9013F3B7826
S1135C800D980A97834208D0202E14D109980560F4
S1135C900430002509902E1C0DE00A99079A059BF3
S1135CA08F1A01379F42EFD3381C0B9900F08CFFF9
S1135CB00028E0D0E8E70A990878FFF70DFF0F23E2
S1135CC01840B040054304360A9FD4E7099E039B5D
S1135CD020C6F61AB6102661281C00F013FB069D98
S1135CE076012F68361ABE4227DDF61B201C311CB4
