:10000000F02A00204D28000049280000492800005F
:1000100000000000000000000000000000000000E0
:10002000000000000000000000000000492800005F
:1000300000000000000000004928000049280000DE
:1000400049280000492800004928000049280000EC
:1000500049280000492800004928000049280000DC
:10006000492800002521000035210000452100001D
:1000700055210000492800004928000049280000B7
:100080004928000049280000B50C0000C50C0000FC
:10009000D50C00004928000049280000492800002C
:1000A000492800004928000049280000492800008C
:1000B00010B5064C2378002B07D1054B002B02D03E
:1000C000044800E000BF0123237010BDA4010020FC
:1000D00000000000A486000008B5084B002B03D0E8
:1000E0000748084900E000BF07480368002B03D019
:1000F000064B002B00D0984708BDC046000000000A
:10010000A4860000A8010020A486000000000000D2
:10011000F0B583B06F46F87107370B4C0B4E201CBF
:10012000311C01220A4DA8478022D203094B5A6193
:10013000201C391C0122084B9847201C311C00222E
:10014000A84703B0F0BDC0460C020020480A0020BA
:10015000CD1B000000440041B91C0000F0B591B077
:10016000644B98470020644B98476449644B984718
:1001700083001818400080221204624B5A61002844
:1001800000D1A3E0604B586000229A60191C8022C5
:1001900052020B681342FCD09DE00B681342FCD066
:1001A0005A4C1823237000236370A37002A9012204
:1001B0004A708B700A701820554B98472378D909DC
:1001C0000022002903D15A09D2014E4952181F2793
:1001D0003B400124211C9940916102AA1470002324
:1001E00053609360137453749474D47413752421FE
:1001F000535409930A9380235B02D360454B936267
:10020000454BD362454B1363454B53633B4B936163
:10021000444E301C4449454B98473568281C444B94
:1002200098470740BC40434B1C603268D369002BA1
:10023000FCD12A68022313432B6001AC01236370B5
:100240000022A27023701620211C314DA8471720D0
:10025000211CA847802212042A4B9A61D520364CD3
:10026000A0478020A047A820A0473F20A047D32038
:10027000A0470020A0474020A0478D20A047142081
:10028000A0472020A0470020A047A120A047C820C9
:10029000A047DA20A0471220A0478120A047FF20D6
:1002A000A047A420A047A620A047DB20A0474020CD
:1002B000A047D920A047F120A04720480021802254
:1002C000D2001F4B9847AF20A04710E080221204B5
:1002D0000C4B9A6164E7802212040A4B9A610A4B24
:1002E000586000229A60191C8022520255E711B012
:1002F000F0BDC046652100000126000040420F000D
:10030000714D00000044004110E000E0480A002068
:10031000A1210000020010000200110002001200E2
:10032000020013000C020020000C0042B51900006E
:10033000F920000000E100E0110100004802002067
:10034000DF2C0000F0B583B06F46F87107370B4C17
:100350000B4E201C311C01220A4DA8478022D203DB
:10036000094B9A61201C391C0122084B9847201C1C
:10037000311C0022A84703B0F0BDC0460C0200208B
:10038000480A0020CD1B000000440041B91C0000B9
:1003900070B50E480E4901220E4B984721200E4C95
:1003A000A0470020A0477F20A0472220A047002090
:1003B000A0470720A047094C8023DB00E618084D22
:1003C0002078A8470134B442FAD170BD0C02002055
:1003D000480A0020CD1B0000110100004806002043
:1003E0004503000038B50E480E4901220E4B9847D0
:1003F00021200E4CA0470020A0477F20A0472220AC
:10040000A0470020A0470720A0478024E400084D13
:100410000020A847013CA4B2002CF9D138BDC04649
:100420000C020020480A0020CD1B00001101000032
:100430004503000038B5051C081C5038C0B2064CF6
:10044000A047280910231843A0470E200540012388
:10045000281C1843A04738BD11010000F0B55F46C5
:1004600056464D464446F0B485B083460191141C6F
:10047000632A00D96324E4B2201C0A21244B984744
:10048000C9B203AB5970092C2CD800221A702FE086
:10049000584651461F4B98474D46002403ABF35C2A
:1004A0001A01D2181201D31843441B19585DB847DA
:1004B0000134272CF2D153460133DBB29A4627236D
:1004C00099441223FF339945E2D15B463433DBB2C2
:1004D0009B460136009B9B4513D0019B9A46002307
:1004E0009946D5E7601A0A210B4B984703AB187061
:1004F0005B466833DBB200930026084B9846084FF2
:10050000EBE705B03CBC90469946A246AB46F0BD31
:10051000F94D0000350400000D4E0000B86B0000DE
:1005200045030000F0B55F4656464D464446F0B4DC
:1005300091B0051C0C1C161C2960081CAD4B98477B
:10054000021C23680520D90700D54BE123681C2035
:100550009F0700D546E1A84B186A911C01278F40E0
:10056000391C014319620FA92D27F35D0B7014325A
:10057000D2B29046101CA14B98474046A04B9847DA
:10058000F05D00219F4B9847F37A6B712423F35C55
:10059000AB712523F35CEB71F37E2B72337F6B72AF
:1005A00029688846081C934B9847143000226B46F4
:1005B000DA84328A02928023DB019A4221D080239E
:1005C000DB019A4204D880239B019A4211D008E0B3
:1005D000C023DB01029F9F420FD080231B029F425A
:1005E00003D01027069700270EE003270697002761
:1005F0000AE010270697012706E00827069701273B
:1006000002E008270697002731680391F2689146B7
:1006100073690493317E8A462623F35C9B46736894
:10062000002B13D08022520593422ED12723F35C56
:10063000002B2ED1376AC0B2734B9847011C381C6F
:100640006A462632714B9847031C1FE02723F35C50
:10065000002B0AD0069A0092306AB16A6A462632A6
:100660003B1C6B4FB847031C10E0316A0791C0B2C6
:10067000654B9847011C069A009207986A462632F5
:100680003B1C634FB847031C00E00023181E00D03A
:10069000A8E0737E002B02D0B37E41468B732A689C
:1006A000029FD369002BFCD102976B4626331B882F
:1006B000424693814B46039F3B43049F3B437168F3
:1006C0000B43029F1F43524613021F4359464B07D9
:1006D0001F432723F35C002B01D104231F43717EAA
:1006E0008902337F5B021943F27AB37A13431943C9
:1006F000737F1B0219432423F35C5B0419432523F6
:10070000F35C1B0419433389FF2B0BD0F27E002AC4
:1007100003D0A022D204174302E0802252041743E0
:10072000194305E0F37E002B02D08023DB041F4336
:100730002C23F35C002B03D1364B9B789A0701D511
:1007400080231F432A68D369002BFCD1434659609C
:100750002A68D369002BFCD141460F600EAB802282
:100760001A7000225A70DA709A70326B0A92736BA8
:100770000B93B76B0C97F66B0D9600270EAEF9B284
:10078000BB000AAA9858002802D1201C224A904790
:10079000431C05D03070000CC0B2311C1F4A90477A
:1007A0000137042FEBD10023EB602B616B61AB6150
:1007B000EB612B62AB626B620022EB85AB85302371
:1007C000EA543123EA543223EA543323EA542868A2
:1007D000084B9847041C1249124B9847A400124B2F
:1007E000E550002011B03CBC90469946A246AB466D
:1007F000F0BDC04671190000000400401927000038
:100800008D26000019180000352700004116000051
:10081000691600000020004169180000F52700005B
:1008200069090000B92000009C0A002010B5021CD4
:100830000368C4791C20002C0DD0D28D92B2052003
:10084000002A08D1DA69002AFCD1198502211A7E12
:100850000A42FCD0002010BD10B5031C0468827948
:100860001C20002A33D09B8D9BB20520002B2ED15B
:10087000237E5A072BD5E369002BFCD1638BDBB2B7
:100880009A0621D09A0703D5022363831A201EE01B
:100890005A0703D5042363831E2018E0DA0703D523
:1008A00001236383132012E0DA0605D5628B10233F
:1008B0001343638342200AE09A0605D5628B202306
:1008C00013436383412002E0238D0B80002010BD81
:1008D00003688285416205213222815404229A757F
:1008E000027A002A01D020229A75427A002A01D089
:1008F00008229A757047C046931C9B00C318596024
:10090000012393401A1C3023C15C0A43C254704730
:1009100010B51723002A11D0C48DA4B20523002CD2
:100920000CD1C4791C23002C08D00368C2858162D5
:1009300005213322815401229A750023181C10BD11
:1009400010B51723002A0BD084791C23002C07D064
:10095000848DA4B20523002C02D1024B98470023BA
:10096000181C10BDD1080000F8B58000644BC558B4
:100970002C68E369002BFCD1237EA67D1E40312329
:10098000EB5C3022AF5C1F40F10720D5EB8D9BB2B2
:10099000002B1AD0AB6A1A78D2B2591CA9626979B5
:1009A000012904D1597809020A430233AB62D30505
:1009B000DB0D2385EB8D013B9BB2EB85002B06D134
:1009C000012323750223A37501E001232375B207D8
:1009D00009D50223237500223323EA54FB0702D5ED
:1009E000281CE968884772076AD5AB8D9BB2002B3B
:1009F00064D0638BDBB2190702D43F22134001E0BD
:100A000037221340002B37D09A0707D51A223223FA
:100A1000EA54628B02231343638327E0590707D507
:100A20001E223223EA54628B0423134363831DE0A6
:100A3000DA0707D513223223EA54628B01231343CA
:100A4000638313E0D90607D542223223EA54628B2E
:100A500010231343638309E020221A4206D0412267
:100A60003223EA54628B2023134363837A0727D50A
:100A7000281C6B69984723E0228DD205D20DD3B292
:100A8000696A0B706B6A591C69626979012904D122
:100A9000120A5A706B6A01336B62AB8D013B9BB2D9
:100AA000AB85002B0CD10423237500223223EA549A
:100AB000BA0705D5281C2B69984701E00423237544
:100AC000F10607D5102323752376FA0602D5281CD4
:100AD000EB699847B10607D52023237523763A079B
:100AE00002D5281CAB699847310707D50823237521
:100AF0002376BA0602D52B6A281C9847F8BDC04653
:100B00009C0A0020F0B5474680B40C1C9046002893
:100B10000CD1002A0DDD8F18094E0A4D3068211CBA
:100B20002B6898470134BC42F8D104E001204042D0
:100B300002E0002000E0404604BC9046F0BDC04604
:100B4000540A00204C0A0020F0B5474680B40E1C21
:100B5000151C0138022810D8002A11D000240D4B92
:100B600098460D4F43461868315D3B68984700280A
:100B700008DB0134A542F5D107E00120404205E041
:100B8000002003E00120404200E0201C04BC90460D
:100B9000F0BDC046540A0020500A002008B5084B9A
:100BA0001978084A117018700438830018188000EA
:100BB000054BC018054B9847054B984708BDC046E4
:100BC000580A0020590A00209000002081140000DB
:100BD000910300000023032282425B41D8B2704798
:100BE00008B5044B9847044B1A780F200121034B9A
:100BF000984708BDE5030000800A00205D0400005E
:100C000008B5054B1978054A11701870002801D1F4
:100C1000034B984708BDC046580A0020590A0020D7
:100C2000E10B0000931C9B001950022A04D1027EA4
:100C30001023134303760CE0032A04D1027E202301
:100C40001343037605E0012393401A1C037E1A43E5
:100C5000027600207047C04638B58000144BC45857
:100C60002268957B237E1D40637E1D40EB0705D5E2
:100C7000201CA2689047012322689373AB0705D517
:100C8000201CE2689047022322689373EB0605D587
:100C9000201C22699047102322689373AB0605D568
:100CA000201C62699047236820229A7338BDC04691
:100CB000840A002008B50020014B984708BDC046B3
:100CC000590C000008B50120014B984708BDC046EB
:100CD000590C000008B50220014B984708BDC046DA
:100CE000590C000070B584B0011C01AB0A4A70CAEF
:100CF00070C3019B83420AD0029C844205D000202D
:100D0000039D8D4205D1022002E0012000E0002079
:100D1000C0B204B070BDC04674770000F0B54F4655
:100D20004646C0B487B0041C0D1C9046081C904B6E
:100D3000984781468F4F391C0C3105A803228E4EEF
:100D4000B047391C103103A80622B0470023A36026
:100D5000E360236163612376637648468200874BB4
:100D6000D450256041468B78082B04D117204A4681
:100D7000D20700D4F6E023712B880520D90700D5CF
:100D8000F0E0EB7B1C20DA0600D5EBE02B8899071E
:100D900000D5E7E04246137C002B0CD002A90123CA
:100DA0008B700022CA704046806908704B704246C2
:100DB000107D734B98474046037F002B0BD002A950
:100DC00001238B700022CA70426A0A704B70036A5A
:100DD000D8B26B4B98476B4B196A4846420003A840
:100DE000125A0A431A6241468B78082B08D1654B88
:100DF0001A6A48460130400003A9415A0A431A6260
:100E000001A9424613780B7005AB48461E5C301CA6
:100E10005D4B9847301C5D4B9847414688880B894D
:100E2000034388798A78104318434B78002B02D00B
:100E300080231B01184321687F22CB7B9343FCD185
:100E400028804246507B431E98418000937B002BB4
:100E500001D00123184321687F22CB7B9343FCD12F
:100E6000FF232B71002805D021687F22CB7B934381
:100E7000FCD168714346987ADB7A002B01D01023AD
:100E8000184341460B7B002B01D0202318432168D7
:100E90007F22CB7B9343FCD1A87122687F21D37B37
:100EA0008B43FCD12379042B05D0082B41D017208C
:100EB000002B57D124E07F21D37B8B43FCD1282307
:100EC0004246D35C2B7421687F22CB7B9343FCD1B9
:100ED00029234046C35C2B7521687F22CB7B93433B
:100EE000FCD12A234146CB5C2B7621687F22CB7B29
:100EF0009343FCD12B234246D35C6B76002031E038
:100F00007F21D37B8B43FCD14046038D2B8221680C
:100F10007F22CB7B9343FCD141464B8D2B832168B1
:100F20007F22CB7B9343FCD14246938D6B83002081
:100F300018E07F21D37B8B43FCD143469B6A2B6116
:100F400021687F22CB7B9343FCD14046C06AA861D5
:100F500021687F22CB7B9343FCD141460B6BEB6135
:100F60000020FFE707B00CBC90469946F0BDC04694
:100F7000E50C000074770000CD2C0000840A0020EE
:100F8000F527000000040040192700008D2600000E
:100F900082B0274B5B78D9090022002903D15A0976
:100FA000D20124495218126A1F210B400121994095
:100FB0000B1C13405A1E9341DBB26A46D3711E4B81
:100FC0005B78D9090022002903D15A09D2011949B5
:100FD0005218126A1F210B40012199400B1C13402B
:100FE0005A1E9341DBB26A4693716B4607331B78F6
:100FF000002B06D10E4B9B78012B02D101220C4B0A
:101000001A706B4606331B78002B06D10A4B9B786F
:10101000012B02D10122084B1A706B46DA79044B7E
:101020009A706B469A79044B9A7002B07047C0462A
:10103000940A002000440041900A002038B50C4971
:101040000F234B7001228A7000230B7009490E2078
:1010500048708A700B70084C23706270A3700F2068
:10106000211C064DA8470E20211CA84738BDC046AC
:10107000940A0020900A00207C0A0020A121000090
:1010800010B58EB001AA00230021137093709371E4
:101090001381002050709172D1721173917351734A
:1010A00011745361936111771362536213855385F1
:1010B0009385C0239B009380074C201C0749084B55
:1010C000984722687F21D37B8B43FCD11188022370
:1010D0000B4313800EB010BD5C0A0020002C0042B0
:1010E0001D0D000010B50D4C201C0D4900220D4BAC
:1010F000984720680C4B98470C4B1B5C1F211940EC
:1011000001231A1C8A40111C094A1160617E0122C8
:101110000A4362762268537310BDC0465C0A002001
:10112000910F0000250C0000E50C00008C770000FA
:1011300000E100E0014B18607047C046C00100208C
:1011400010B5C9018A18064909688A185C1EE4B2FC
:1011500001340023C15CD1540133A342FAD110BD44
:10116000C0010020024B1B68C0014118CA547047DF
:10117000C0010020024B1B68C0014018185C70477A
:10118000C0010020F0B5474680B4041C151C43B2D2
:10119000002B22DB3F2920D8CE08F700C91B0127EE
:1011A0008F40FBB29846301C211C0D4B9847021C07
:1011B000012D04D0002D06D0022D07D009E04346B2
:1011C0001843C2B205E0B843C2B202E043465840F9
:1011D000C2B2301C211C034B984704BC9046F0BDA2
:1011E0007511000065110000F0B557464E464546A2
:1011F000E0B48418802C03DD80225242121AD2B24D
:10120000002A53D0CC08E500491B01258D40A84693
:10121000EFB2012B0BD0002B11D0022B46D1151CA5
:1012200001388246244B9946244988462FE0151CF4
:1012300001388246204B99462049884606E0151C15
:10124000013882461C4B99461C4F0FE051466E18E0
:10125000F6B2201C311CC8473843C2B2201C311CD6
:10126000C047013DEDB2002DF0D11FE05346EE180E
:10127000F6B2201C311CC84741468843C2B2201C2C
:10128000311CB847013DEDB2002DEFD10EE05346C1
:10129000EE18F6B2201C311CC8477840C2B2201CA0
:1012A000311CC047013DEDB2002DF0D11CBC904671
:1012B0009946A246F0BDC0467511000065110000B8
:1012C000F8B54F464646C0B4051C161C08AA177848
:1012D000002B0FD01C1C01398946084B98464B4601
:1012E000E118C9B2281C321C3B1CC047013CE4B2C7
:1012F000002CF4D10CBC90469946F8BDE9110000D1
:10130000F8B55F4656464D464446F0B4051C0F1CE2
:101310004378DB089A46D20893468378002B08D09E
:10132000012B34D15046002831D000261B49894674
:1013300015E000245246002A1AD128E0E119C9B26A
:10134000734368680219D25C4046C8470134E4B26E
:101350002B78A342F2D80136F3B2534517D22B783B
:10136000002BF8D0002459468A19D2B29046E5E7FE
:101370000B4E2B78181C60436A6810185A461119D6
:10138000C9B23A1CB0470134E3B29A45F1D83CBC2B
:1013900090469946A246AB46F8BDC046651100008E
:1013A00041110000F0B54F464646C0B483B0061C5C
:1013B0000C1C407C03212A4B9847C7B2B37CBB422C
:1013C00001D1002C0AD0002300930020102180229C
:1013D0003023244CA0470122234B1A70B7740023FA
:1013E000009300201021062230231E4CA047707C61
:1013F00003211E4B9847CAB201321201D2B21C48D7
:1014000000211C4B9847184B1B78002B22D07C00E6
:101410003C19E4B201377B00DF19BC4217DA337A9A
:10142000A34214D91025144A9146144B9846A300A0
:101430007268985807212A1C4B46C0470134E4B211
:10144000BC4204DA1035EDB2337AA342EFD8002261
:10145000054B1A7003B00CBC90469946F0BDC046CF
:10146000714D0000C1120000C4010020F94D0000C0
:10147000000000200113000008000020ED1500000E
:1014800030B583B0041C002300930020002180228B
:101490004023074DA847206800210022054B064D38
:1014A000A847201C0121054B984703B030BDC0461A
:1014B000C112000008000020ED150000A513000077
:1014C00008B50D2925D003D8FE20082924D022E014
:1014D000262910D028291ED1437C027A013A934252
:1014E00002D10023437401E00133437400210B4B0C
:1014F0009847FF2010E0437C002B02D0013B43744F
:1015000002E0037A013B43740021044B9847FF201B
:1015100002E0407C00E0FF2008BDC046A5130000AB
:1015200008B50248024B984708BDC046480600204F
:1015300035110000F0B55F4656464D464446F0B4BE
:1015400085B0061C8846141C03931A7A5B7A002126
:1015500000914046211C234DA84703990B78002B8E
:1015600039D10A7AD308510700D00133039A527A4D
:10157000934603998A7AB61A5A4656435E43B6B2E0
:101580004B689E19A24607218946039A177A002FB5
:1015900017D000240025E3B241465818C0B24A468D
:1015A0001A4201D1357801366BB2002B03DA51466D
:1015B00001220D4B98476D00EDB20134E3B29F421A
:1015C000E9D853460133DBB29A465B46013BDBB2B6
:1015D0009B46002BD9D105B03CBC90469946A2460B
:1015E000AB46F0BDC112000085110000F8B54F46B2
:1015F0004646C0B4041C884691461F1C007800284B
:1016000017D00D1C0A2806D17B7A01334B44DBB27C
:101610009946454609E00D2807D0291C4A463B1C3F
:10162000064EB0473B7AED18EDB201342078002821
:10163000E8D10CBC90469946F8BDC046351500006F
:1016400010B5031C4908402099420CD30024C91A44
:10165000601C80B28B4201D8041CF8E74020FF2CAC
:1016600001D81480002010BDF0B55F4656464D46A7
:101670004446F0B487B0061C0D1C049210AA1078E2
:10168000321C424340248A4200D9B3E0002B4BD1A4
:101690000021321C5E4CA04783462E1C00270020F0
:1016A0000021002200233F24A4460125A8460290E1
:1016B00003916146203903D440468840814605E0C5
:1016C000202165464C1B4046E04081464146644629
:1016D000A1408A46101C191C80185941021C0B1C81
:1016E0005D464C46254202D0424602430B1C9F42B7
:1016F0000CD801D1964209D8921BBB415046029D9D
:1017000028434946039C2143029003916546013DCD
:10171000AC46CED2029803993C4B3B4A121A8B41FD
:10172000120C1B041A4362E00022012B5FD14F0F01
:10173000B946CD00AB460021321C0023344CA047F3
:10174000061C0F1C00230125029603979A4650465B
:10175000C0B2059000218846002200233F24271CA8
:10176000203F03D42E1CBE40019604E02020071B1E
:10177000291CF94001912E1CA6400096101C191C32
:1017800080185941021C0B1C5F463740BC46019E25
:101790004F463E4067463E4302D02A1C02430B1C84
:1017A000039898420BD802D10299914207D8029E21
:1017B000039F921BBB41474600980743B846013C34
:1017C000CDD2414652468B1ADB08124CA34208D9AF
:1017D000059A0132D2B205920126B2445746082F2B
:1017E000B5D140240598082804D042031A43049C2C
:1017F00022800024201C07B03CBC90469946A2469B
:10180000AB46F0BDC046C04600000000010000002D
:101810004D4F0000FF1F000010B582B0041C0F4B9D
:101820001B78002B01D000290DD001A90C701320CA
:101830000B4B984713200B4B9847084B5C700122C9
:101840001A70002007E0054B5A781D20141B621EF9
:1018500094416442204002B010BDC046C80100203F
:10186000192700008D2600002E4B98421CD003D86B
:101870002D4B984207D04AE02C4B984225D02C4B58
:10188000984233D043E0012943D0002904D00229F3
:1018900006D0032906D001E0264841E000203FE0C1
:1018A00025483DE025483BE0012934D0002904D0FB
:1018B000022906D0032906D001E0032030E00020F1
:1018C0002EE01F482CE01F482AE0012925D00029DE
:1018D00004D0022906D0032906D001E01A481FE0EF
:1018E00000201DE019481BE0194819E0012916D015
:1018F000002904D0022906D0032906D001E01548AA
:101900000EE000200CE014480AE0144808E0002033
:1019100006E0134804E0134802E0134800E01348CF
:101920007047C046000C0042000800420010004210
:101930000014004203000400030006000300070037
:1019400003001E0003001F000300080003000A003C
:1019500003000B000300100003001200030013003B
:10196000030005000300010003000900030011004B
:1019700070B584B00E4A694670CA70C112680A60B8
:10198000031C009A82420FD0019C844208D0029D21
:10199000854207D00020039E9E4207D1032004E029
:1019A000012002E0022000E00020C0B204B070BDBF
:1019B0005C830000F0B5474680B488B0051C0C1C61
:1019C000161C29600B681C209A0700D5DFE00B6805
:1019D0000520DA0700D5DAE0081C6F4B98476F4BFB
:1019E000196A821C012797403A1C0A431A6207A908
:1019F0002427F35D0B701430C0B28046684B9847C3
:101A00004046684B9847F05D0021674B9847337814
:101A1000012B03D122680C23134323603378002B5E
:101A200000D0B1E02268082313432360ACE0EA1839
:101A3000D16004331C2BFAD10023EB62AB6200248B
:101A4000AB862B863623EC543723EC543823EC54E6
:101A500003236B722C7128684F4B9847071C53491E
:101A6000534B9847BF00534BFD502F6802AB802269
:101A70001A705C7001229A70DC703378002B02D1EE
:101A8000002202AB9A70B36A0393F06A0490326B3F
:101A90000592736B06930024E1B2A30003AA985841
:101AA000002802D1381C444A9047431C06D06A469D
:101AB0001072000CC0B202A9404B98470134042CAC
:101AC000EAD133786B71337CAB71B37CEB71337DCE
:101AD0002B7200226B46DA803378012B14D12868F0
:101AE0002D4B98471430C0B2354B9847011CB06954
:101AF0006A460632334B9847031C1720002B46D109
:101B00006B4606331B783B733378002B0FD1B169DA
:101B1000B38B786AF47F2404B27F224302437A6253
:101B20002022B25C002A04D04022134301E00023AB
:101B30000021B26870680243F06802430A43317CB6
:101B40000B43717C002903D11F498978880701D58F
:101B500080210A43B17C002902D0802189020B43F5
:101B6000F17C002902D0802189000B43317D0029BE
:101B700002D0802189010B4339680A433A607A68B0
:101B800013437B60002002E0002300214FE708B0F0
:101B900004BC9046F0BDC04671190000000400402E
:101BA000192700008D26000019180000D51E00001E
:101BB000B92000009C0A002069180000F5270000E9
:101BC00035270000411600000020004110B544797F
:101BD0001523012C6CD1047A0023002C68D1002A33
:101BE00057D04B78002B44D00268137EDC070FD40B
:101BF0000B78D9090022002903D15A09D2012D49B5
:101C000052181F210B4001219940916105234FE09B
:101C10000B78DC090022002C03D15A09D201254C93
:101C200012191F24234001249C40546189780368C1
:101C30001A7ED40700D59962C2790023002A37D1D1
:101C400002680421137E0B42FCD0117E00234C0756
:101C50002ED5538B590703D5518B04230B43538344
:101C60008379012B02D1936A002321E0936A002338
:101C70001EE00B78D9090022002903D15A09D201AC
:101C80000C4C12191F210B40012199405161002376
:101C90000EE00B78D9090022002903D15A09D2019C
:101CA000044952181F210B400121994091610023E2
:101CB000181C10BD00440041F0B55F4656464D4625
:101CC0004446F0B483B0041C92463823C05CC0B2D2
:101CD000052800D1F1E01720002A00D1EDE063795A
:101CE000002B05D12368187E820701D502201876C3
:101CF0005546002001230226B4460427BB468FE048
:101D00006279002A01D0266816E02268167E1E42FB
:101D100006D16D4E177E1F4202D1013E002EF9D131
:101D2000167E67463E4203D0022313760420C4E0A9
:101D3000127E1A42E7D1B3E0327E1A42FCD0421C36
:101D400092B290460F5CA279012A01D0404605E08C
:101D5000023080B242468A5C12021743327E1A4237
:101D600002D0FF05FF0DB7626A1E96B2E279002A23
:101D700001D1351C56E06279002A37D1534A0191CE
:101D80002668377E1F421CD0471CBFB2B946019956
:101D9000095C8846A779012F01D0484608E0023047
:101DA00080B201994F46C95D090247460F43B846C4
:101DB000377E1F4203D04746F905CF0DB762013D7C
:101DC000ADB22668377E59460F4202D1013A002A49
:101DD000D6D10199327E67463A4203D00223337648
:101DE00004206AE0327E5E4632425BD02668327E54
:101DF0005F463A42FBD0327E3A420DD0728B3A4275
:101E000004D0728B04273A4392B27283A279012ADA
:101E100001D1B26A00E0B26A5246013A92B29246E9
:101E2000013DADB22A4A954200D069E75146637937
:101E3000012B05D1216802220B7E1342FCD033E036
:101E4000002B33D1E3790020002B36D000292FD08E
:101E500004251D4E042750461CE00A7E2A4202D16A
:101E6000013B002BF9D10B7E2B4223D00B7E2B4262
:101E70000CD04B8B2B4203D04B8B3B439BB24B8301
:101E8000A379012B01D18B6A00E08B6A013880B203
:101E9000002811D021680B7E2B42E4D1331CDCE7F3
:101EA00012200AE0122008E0002006E0002004E0F2
:101EB000002002E0122000E0002003B03CBC90466D
:101EC0009946A246AB46F0BD10270000112700003E
:101ED000FFFF0000F8B58000744BC4582568362316
:101EE000E35C3722A75C1F402B7EAE7D1E40F107CE
:101EF00049D56379012B16D1637A002B0FD16C4B36
:101F00001B88AB62638E013B9BB26386638E9BB280
:101F1000002B01D101232B756379012B03D1637A47
:101F2000002B05D12FE0002B2DD1637A002B2AD076
:101F30002268E36A1978C9B2581CE062A0790128C6
:101F400004D15878000201430233E362CB05DB0D74
:101F50009362A38E013B9BB2A386A38E9BB2002B00
:101F600011D101232B75637A012B0CD1E379002B5E
:101F700009D10323637200223823E254FA0702D501
:101F8000201CE3689847710761D56B8B5A0714D5FD
:101F9000637A012B0BD01E223823E2540323637291
:101FA00005232B753B0702D5201CA1698847AB6A26
:101FB0006A8B042313436B8349E0637A012B16D1A8
:101FC00023689B6A638E013B9BB26386638E9BB2E0
:101FD000002B3CD104232B7500223823E254032329
:101FE0006372FA0733D5201CE36898472FE0236813
:101FF0009A6AD205D20DD3B2A16A0B70A36A591C9A
:10200000A162A179012904D1120A5A70A36A01338D
:10201000A362238E013B9BB22386238E9BB2002BAF
:1020200015D100223823E25404232B75637A022B46
:1020300005D17A070BD5201C6369984707E0637ABE
:10204000002B04D1B90702D5201C22699047B307A1
:1020500013D56379002B10D107232B7502232B7620
:10206000032363720023A386238638230022E254CD
:10207000F90602D5201CE269904733070AD5637937
:10208000002B07D108232B752B76B90602D5201C0F
:10209000226A9047F60907D080232B752B767B06A2
:1020A00002D5636A201C9847F8BDC0469C0A0020F0
:1020B000980A00207047C04630B50B4B1B78002BA8
:1020C0000ED10A4C0A4D25600A4B00221A60656049
:1020D0005A60A5609A60E560DA600122024B1A70CE
:1020E0008000024BC15030BDCC010020D001002047
:1020F000B52000009C0A002030B583B0051C01AC5F
:10210000201C05490422054B9847281C044B98477E
:10211000205603B030BDC0466C830000CD2C0000BB
:102120007119000008B5024B1B680020984708BDD4
:10213000D001002008B5024B5B680120984708BD1C
:10214000D001002008B5024B9B680220984708BDCB
:10215000D001002008B5024BDB680320984708BD7A
:10216000D001002010B50020084B9847084CFA21F8
:102170008900A047074B1860FA218900A047064B49
:1021800018600522054B1A6010BDC04601260000EC
:10219000714D0000180000201400002010E000E045
:1021A00000B583B001AB80221A700A785A704A7861
:1021B0009A708A78DA70191C014B984703B000BDF9
:1021C000F52700007047C0460C4B1B68002B10D150
:1021D000EFF31083002B09D172B6BFF35F8F00229B
:1021E000074B1A700122074B1A7002E00022054BC0
:1021F0001A70024B1A6801321A607047E001002021
:102200001C000020E4010020084B1A68013A1A6003
:102210001B68002B09D1064B1B78002B05D001222F
:10222000044B1A70BFF35F8F62B67047E001002065
:10223000E40100201C00002008B5082834D88000E4
:102240001B4B1B589F468020000230E0194B186939
:102250002DE0194B186A8005800F184BC340181CDD
:1022600025E0144B586922E0124B1B6802201840ED
:102270001DD011491022CB681A42FCD00D4B1B68AF
:102280005A0713D500200E4B98470A4B9B681B0436
:102290001B0C58430BE05023074AD35C00205A071D
:1022A00005D5044BD86802E0002000E0054808BDD1
:1022B00070830000E80100200008004000127A004E
:1022C00035270000006CDC0270B50C4B1C6A0178ED
:1022D000857840780122104080014026B4430443B1
:1022E0002A40D00180229443221C02430320014053
:1022F0000902034802400A431A6270BD0008004008
:10230000FFFCFFFF10B5027A9206120C43899B0571
:102310009B0D1A43154B5A60818842881143C4793A
:10232000827922430A434178C9010A431A6003783B
:10233000042B0FD1027B9206038A1A43C3891B0424
:102340000B490B401A43094B9A60196804220A434F
:102350001A6009E0202B07D1028A044B9A601968A1
:102360008422D2000A431A6010BDC046E801002052
:102370000000FF03082843D88000224B1B589F46CB
:1023800000203EE0204B196A02220A431A62002014
:1023900037E01D4B996902220A439A61002030E020
:1023A000194B198A02220A431A82002029E0164B8F
:1023B000998A02220A439A82002022E0134B19686C
:1023C00002220A431A601A68114B1A400E4B9A8473
:1023D000191C1022CB681A42FCD00C4A91680A4B97
:1023E000D96251689962126892B29A84002008E01A
:1023F000054A4423D05C02210143D154002000E06F
:10240000172070479483000000080040E801002076
:102410007FFF000030B58BB0C222D200274B9A60FC
:10242000274B5A681E218A4302210A435A6001221F
:1024300001AB1A700024234DE0B201A9A847013472
:10244000252CF9D105A80023037000244380838044
:102450008471C471072202723F23438106210182E5
:1024600044700273C381184B984704A84470012339
:1024700083700470154B98470620154CA047154BE8
:1024800098470720A0470D491022CB681A42FCD07C
:10249000114A002313725372937201A901224A60F8
:1024A0004B7006220A700B724B7200200B4B984740
:1024B00000200B4B98470BB030BDC04600080040D1
:1024C000004000411927000005230000C922000038
:1024D00075230000E52400000004004009250000E9
:1024E000BD250000064B996908220A439A61012222
:1024F000044B1A70191C0B781342FCD17047C0466C
:1025000000040040000C0040F8B5061C071C0D78C4
:102510002D0205434B78002B02D08023DB021D43A4
:102520004B7A002B02D080231B031D434C68012CE7
:1025300017D9631E1C420FD1022C06D90223002298
:1025400001325B009C42FBD800E0002217023743B7
:1025500080235B031D4304E02702374380239B0253
:102560001D430B7A002B02D080239B031D430F4A8F
:1025700053785BB2002BFBDB0D4B98470D4B1E7065
:102580000A4A53785BB2002BFBDB084B9F601A1C96
:1025900053785BB2002BFBDB044B5968802252025C
:1025A0000A4015435D60044B9847F8BD000C00409D
:1025B000C9210000080C00400922000010B5041CCD
:1025C0000B4A53785BB2002BFBDB0A4B98470A4B54
:1025D0001C70074A53785BB2002BFBDB044B596835
:1025E000802252020A435A60044B984710BDC046ED
:1025F000000C0040C9210000040C0040092200002A
:1026000070B5041C1A4A53785BB2002BFBDB194BE4
:102610009847194B1C70164A53785BB2002BFBDBB2
:10262000134E7068C004C00E144B9847051C124B23
:102630001C707668F602F60F114B1C700C4A53782A
:102640005BB2002BFBDB0A4B9C68240AA4B20D4B47
:102650009847002E07D1012C07D9281C211C0A4BB2
:102660009847051C01E00134E540281C70BDC046B8
:10267000000C0040C9210000040C00403922000079
:10268000080C004009220000714D000010B5041C28
:10269000064B9847064B1C70064B59888022D20186
:1026A0000A435A80044B984710BDC046C921000018
:1026B000020C0040000C00400922000010B5041C70
:1026C0000F4B98470F4B1C700F4B58880005000F9D
:1026D00059880E4A0A405A8059880D4A0A405A8041
:1026E000191C8022D2014B881342FCD1064B0102F7
:1026F0005888064A02400A435A80064B984710BD44
:10270000C9210000020C0040000C0040FFF0FFFF58
:10271000FFBFFFFF0922000010B50C78240204431C
:10272000024B9847A4B2024B5C8010BDBD2600004E
:10273000000C004010B5041C064B9847064B1C705B
:10274000064B5C882405240F054B9847201C054B3D
:10275000984710BDC9210000020C0040000C004049
:10276000092200000126000030B5D378002B1ED1CD
:102770001378802B04D01B0680246402234300E0DE
:10278000002354780225AC430AD19478002C03D15D
:102790008024A402234302E0C024E40223434160D6
:1027A0005478013C012C04D8114C234001E04160D5
:1027B00000230D042D0CA024E4052C431C4384624B
:1027C0000D0CD02424062C431C438462D478002CA6
:1027D0000CD15C0305D59378012B01D1816100E018
:1027E00041615378013B012B00D8816030BDC04668
:1027F000FFFFFBFF08B5031C0A1CC10900200029CC
:1028000003D15809C001044940181F210B40012180
:102810009940024B984708BD0044004169270000D9
:102820007047C04608B5044B9847044B9847044B83
:102830009847044B984708BD15240000C5210000A7
:102840002128000021280000FEE7C04670B50221C3
:1028500090235B00284AD150284BD8780321884325
:1028600002221043D870DD780C24A54308200543CC
:10287000DD70234B9E7B3025AE43202535439D7371
:102880009D7BA54328439873987B884302439A73A2
:102890001C4B1D4A9A4203D01C4B1A4A9A4204D33D
:1028A0001B4B1C4A9A4210D31BE01B4B17480330AA
:1028B000C01A80080130800000231249124AD458FF
:1028C000CC5004338342FAD1EAE7124B1A1D104967
:1028D0000331891A890889005218002102C39342E2
:1028E000FCD10E4B7F210E4A8A439A600D4B9847CC
:1028F0000D4B9847FEE7C046007000410050004174
:102900000048004100000020A4860000A40100202F
:10291000EC0A0020A40100200400002000ED00E0EB
:1029200000000000812C0000F5290000064B1B6808
:10293000002B02D1054A044B1A60034A1368181889
:102940001060181C7047C04600020020F02A0020CA
:10295000012040427047C046002070477047C04683
:1029600008B5034803490522034B984708BDC046F4
:10297000B40A0020AC0A00201109000070B582B032
:10298000051C0E1C00226B46DA80064C281C69468A
:102990000631A0470028F9D16B4606331B883370F7
:1029A00002B070BD5908000070B5061C0D1C034C28
:1029B000301C291CA0470028FAD170BD2D0800004A
:1029C00038B5084C201C08490022084DA847201C97
:1029D00007490122A8473123E15C03220A43E2545C
:1029E00038BDC046B40A00205D290000F908000087
:1029F00061290000F0B5474680B490B07C4B984701
:102A00007C4B98478023DB05009300230193FF2232
:102A10006846028100228372C3729621890108915F
:102A2000012124206C462154252021542621635461
:102A3000272163540A938821490303912C2163546D
:102A40002D21635405932382E376227622776276E2
:102A50001323A3766277684B0C93684B0D93012385
:102A60005B420E930F93664E664D674C301C291CDB
:102A70006A46A0470028F9D1614C644B1C60644A47
:102A8000644B1A60644A654B1A60201C5D496A46B3
:102A90005D4B9847624E336898680021614DA847A6
:102AA000336858680021A8472568281C5E4B984762
:102AB0001F221040012282405C4B1A602368DA69B1
:102AC000002AFCD12A68022313432B60584B9847F5
:102AD0000122584B1A70BFF35F8F62B6564B98476E
:102AE000564B9847564B9847564B98471622564B8D
:102AF0001A70564B9847564B98470420554B9847A9
:102B0000554B98473E4E554D554C301C291C0522BF
:102B1000A047544B1B78002B0FD00022514B1A704A
:102B2000514B1B78043B9800C3189B004F48C018BA
:102B300028214F4B9847484B98474E4B1B78002B0A
:102B4000E3D000224B4B1A70474B18784A4B9847FA
:102B5000002805D03E4B984704203E4B9847D4E7C9
:102B6000424F414988460B78043B9800C0188000CA
:102B700038180D213E4B98476B4618704046037835
:102B8000043B69460A78D2B29900C91889007F18B7
:102B9000F968885C0B2827D1344A9900C81880004E
:102BA0001018002787744774CB189B00D218107C2C
:102BB000314B984700280BD02B4B1B78043B9A00D5
:102BC000D3189B00294AD318187C2C4B98479CE7B4
:102BD000254B1B78043B9A00D3189B00234AD3183B
:102BE000187C1C4B984790E71A4B98478DE7C046D6
:102BF000252800006521000002000A0002000900EB
:102C0000B40A00200008004225050000540A0020F4
:102C1000A9290000500A00207D2900004C0A00204C
:102C200068010020EF2C0000F920000000E100E026
:102C3000C12900001C000020211500003D100000EB
:102C400081100000E5100000800A00205D010000F6
:102C5000E50300009D0B000091030000AC0A00207A
:102C600041090000940A0020580A0020900000202A
:102C7000C1140000900A0020D50B0000010C0000D8
:102C800070B50E4B0E4D0024ED1AAD101E1CAC425B
:102C900004D0A300F35898470134F8E705F0F2FC9C
:102CA000084B094D0024ED1AAD101E1CAC4204D097
:102CB000A300F35898470134F8E770BD90860000F0
:102CC00090860000908600009486000010B50023D6
:102CD000934203D0CC5CC4540133F9E710BD031C0C
:102CE0008218934202D019700133FAE7704708B591
:102CF0004A424A4180235200DB0000F001F808BD3F
:102D0000F7B51E1C3C4B041C1D680F1C0192002DC6
:102D100005D0AA69002A02D1281C01F02BFB374BF1
:102D20009C4201D16C6808E0354B9C4201D1AC68F3
:102D300003E0344B9C4200D1EC68019B022B57D836
:102D4000002E55DB281C211C01F094FA002363603F
:102D5000A361A3891A0603D5281C216901F084FE0A
:102D6000A38983229343A381019B022B13D0002FBD
:102D700025D1002E01D18026F600301C01F06EFB1B
:102D8000071E18D18020C00001F068FB071E10D17B
:102D90000120404200E00020A38902221343A381C6
:102DA0000023A360231C4733236023610123636155
:102DB00020E08026F600A38980221343A381019A94
:102DC000012A04D1A3891343A3817342A3610E4B4B
:102DD0000020AB62A3892760276166611A0709D5C5
:102DE000032213405A4253415B421E40A66001E059
:102DF00001204042FEBDC046680100209C840000C6
:102E0000BC840000DC840000CD4200000000000013
:102E1000F0B58BB0161C1C1C129904D5802212062A
:102E2000A4182D2300E00023149F0B7020239F4340
:102E3000462F08D03A1C453A51424A411099022384
:102E40008918109100E003230093139B109A0293BA
:102E500008AB039309AB01920493321C231C00F0CE
:102E6000A3FB051C472F02D11199C9072CD5109936
:102E700069180791462F14D12B78302B0CD1301CB8
:102E8000211C164B144A02F033F8002804D1109A82
:102E9000012313999B1A0B60139A07991368C91899
:102EA0000791301C211C0D4B0B4A02F021F8002821
:102EB00001D0079A0992099B07998B4204D25A1CA8
:102EC000099230221A70F6E7099B281C5A1B159BA1
:102ED0001A600BB0F0BDC04600000000000000000A
:102EE000F0B52B2385B0051C0C1C0270861C002934
:102EF00001DA4C422D236B70092C1EDD6F460E3714
:102F0000201C0A21019701F0D7FF30313970201CB5
:102F10000A2101F07BFF013F041E092CF0DC019B1C
:102F20003034013B1C706A460F32301C934209D288
:102F30001A78013332700136F5E73023E418337024
:102F4000B01C7470401B05B0F0BD00000000000014
:102F5000F0B593B00C1C0A920B93189E051C01F05F
:102F600079FA00680C9001F0A3FE002310933368F7
:102F70000722073393431A1C08320D90277E1868E6
:102F800059683260A064E16401F00AFE012819D199
:102F9000A06CE16CB94BB84A01F0B0FF002803D037
:102FA000231C2D2243331A70472F01D8B44E00E062
:102FB000B44E03232068236104239843002120603A
:102FC000099191E0A06CE16C01F0EAFD2368002812
:102FD0000CD1472F01D8AC4E00E0AC4E0322226149
:102FE000042293430022236009927DE06268561C0C
:102FF00001D1062207E02021381C8843472803D14D
:10300000002A01D1012262608022D2001343236092
:1030100001936B463B3302930FAB6168039310AB94
:1030200005930023009106930497A26CE36C281C7F
:10303000FFF7EEFE20233A1C061C9A430F99472AFD
:1030400007D1CB1C02DB606881422EDD023FFFB25C
:1030500001E0652F12D8201C01393A1C50300F9125
:10306000FFF73EFF109B0990C2182261012B02DC82
:103070002168C9072FD5013222612CE0662F15D1B6
:103080006368002908DD2161002B02D12268D20784
:103090001DD50133C91811E0002B03D1206801228E
:1030A000104200D09A1C226111E06727109A9142C9
:1030B00006DB22682161D20709D50131216106E0D2
:1030C0000123002901DC02235B1AD31823610F9B23
:1030D0000020A36509906B463B331B78002B03D07F
:1030E000231C2D2243331A700B99281C009111AA1E
:1030F000211C0A9B00F058F9013002D10120404206
:103100004CE12268530504D4281C0A99321C236917
:1031100067E0652F00D8E0E0A06CE16C574B564AA1
:1031200001F0E6FE00282BD0281C0A99584A0123FA
:103130000B9EB0470130E1D00F9F1098874207DB0C
:103140002168C90704D42768BF0700D50EE113E141
:10315000281C0A990C9A0D9B0B9EB0470130CDD0CC
:103160000026109B013B9E42EDDA221C281C0A9986
:103170001A3201230B9FB8470130BFD00136F0E768
:103180000F98002830DC281C0A99414A01230B9F24
:10319000B8470130B2D00F98002805D11099002906
:1031A00002D12268D207CED5281C0A990C9A0D9B11
:1031B0000B9FB8470130A1D000270F980997099FAE
:1031C00043420A99281C9F4209DA221C1A32012321
:1031D0000B9FB847013091D0099F0137EDE7109B55
:1031E000321C0B9EB047B5E0109FA36D08979F421D
:1031F00000DD0893089F002F01DC002714E0281C45
:103200000A99321C089B0B9FB8470130F5D175E72E
:10321000221C281C0A991A3201230B9FB84701303F
:1032200000D16BE7099F01370997089FA36DFA4307
:10323000D2173A40099F9A1A9742E9DB0F981099E2
:10324000F318099388420EDB2268D2070BD4109B37
:103250000F9FF618DB1B099FF61B9E4200DD1E1C0C
:10326000002E17DC1FE0281C0A990C9A0D9B0B9F5F
:10327000B8470130EBD141E700000000000000003A
:103280007C84000080840000848400008884000026
:103290008C840000281C0A99099A331C0B9FB8479C
:1032A000013000D12AE700270BE0221C281C0A99D4
:1032B0001A3201230B9FB847013000D11EE7099F46
:1032C0000137099710980F99F343DB17099F421AAA
:1032D0003340D31A9F42E8DB35E71098012802DC1F
:1032E00001231A423AD0281C0A99321C01230B9F51
:1032F000B847013000D101E7281C0A990C9A0D9BB0
:10330000B847013000D1F9E6A06CE16C254B244AA6
:1033100001F0EEFD002801D0002610E0109B721C89
:10332000013B281C0A991CE0221C281C0A991A320D
:1033300001230B9FB847013000D1DFE60136109B17
:10334000013B9E42F0DB221C281C0A995032099B4B
:103350000B9FB847013000D0F5E6CFE60A99281C4C
:10336000321C0B9EB0470130EDD1C7E60026E06865
:103370001199431A9E4205DB119BE06898420DDAD1
:10338000181C0BE0221C281C0A99193201230B9FE0
:10339000B847013000D1B1E60136E8E713B0F0BD1F
:1033A0000000000000000000F7B5151C01930A6939
:1033B0008B68061C0C1C934200DA131C221C2B6029
:1033C00043321278002A01D001332B602068800636
:1033D00002D52B6802332B60216806270F401FD0CF
:1033E000231C43331B785A1E9341226892061FD533
:1033F000E11840313020C870211C5A1C4531097831
:10340000A21840320233D17012E0221C301C019904
:1034100019320123089FB847013011D0009F0137AE
:103420000097E0682968009F431A9F42EDDBD7E7C9
:10343000221C301C01994332089FB847013002D149
:103440000120404223E0206806212B68E268014009
:103450000025042903D1D51AEB43DB171D40A268D0
:1034600023699A4201DDD31AED1800270097009FC7
:10347000AF420BDA221C301C01991A320123089F3B
:10348000B8470130DCD0009F0137EFE70020FEBDD8
:10349000F0B589B006910B690169051C00269942B7
:1034A0007FDB069C5F1E143404940499BC00091948
:1034B000021C0B68143205911419191C0131206883
:1034C000039201F055FC0290B04238D00499039B5E
:1034D0008C4601960796624604329446043A40CAE6
:1034E0000299B0B24843310C029E019A7143101800
:1034F000020C51180A0C01921A6880B296B2079A0F
:1035000089B2B618301A1E68320C521A0614921973
:10351000111480B21204059E1043079101C3664541
:10352000D9D2216800290AD1039E043CB44201D8B3
:103530002F6104E021680029FAD1013FF4E7281C3B
:10354000069901F0A9F900282ADB029C039A0134AC
:10355000049B02940024116840CB88B200191468BF
:10356000B1B2401A360C210C891B041409190C1431
:1035700080B20904059E014302C29E42EBD2039C25
:10358000BB00E3181E68002E0AD1039C043BA34233
:1035900001D82F6104E01E68002EFAD1013FF4E744
:1035A000029E301C09B0F0BDF0B5446A9BB0079094
:1035B000239D04920593002C08D1102000F04EFFAB
:1035C00007994862446084600460C460079C636A31
:1035D000196800290AD05B6801229A404B608A6012
:1035E000201C00F07DFF636A00221A600598002805
:1035F00005DA01232B6043005B08059301E00023FB
:103600002B60059EBE4B321C1A409A4218D1BD4B0E
:10361000229C049D2360002D01D1360301D0BA48BD
:1036200000E0BA48249C002C01D100F093FDC27840
:10363000C31C002A00D00533249D2B6000F08AFDB6
:10364000049C059DA54BA44A201C291C01F050FC9C
:10365000071E0CD0229C249D01232360002D01D144
:1036600000F075FDAA482860013800F073FD19AB21
:10367000009318AB019307982B1C221C01F08EF9C4
:1036800073000A905B0D09D0201CA24C2A03120B78
:10369000211C1143A04A16979E181BE0189B199CE9
:1036A0001D199E4B9D4209DB9D49049A9D4B68184C
:1036B000C2405B1B101C9E40304304E09A48049BB0
:1036C000401B8340181C03F025FA984C6E1E012500
:1036D00009191695824A834B02F076FE824A834B83
:1036E00002F0E2FB824A834B01F052FC041C301CC6
:1036F0000D1C03F0D1F9804A804B02F0D5FB021C6F
:103700000B1C201C291C01F043FC041C0D1C03F0A5
:103710008FF9724B704A0690291C201C01F0EEFBB9
:1037200000280DD0069803F0B7F90B1C021C291CC9
:10373000201C01F0DDFB069C43424341E41A069441
:10374000069C01251395162C10D8794AE300D3184E
:1037500018685968049A059B01F0E4FB002804D01E
:10376000013C00250694139500E01390189800245E
:10377000861B351C0294013D099504D5099C002542
:10378000644202940995069C002C06DB099D129464
:103790002D19002409950D9407E0069C029D2D1B10
:1037A0000295654200240D951294209D0124092D57
:1037B00024D8052D02DD043D2095002420980238F0
:1037C000032823D801F0CAFA060E0204012502E0FC
:1037D000012508E000251095219D002D1FDD0C9589
:1037E000089509E0002510950698219D2D180C9547
:1037F00001350895002D18DD2B1C17E063420025CC
:103800000C93089320951094122306E001256B4237
:1038100010950C93089300251223219506E00125AD
:103820000C9508952B1C219500E001230798002298
:10383000456A6A600422101C14306968984203D8F3
:10384000013169605200F6E7079800F011FE286028
:10385000079D6B6A089D1B680B930E2D00D987E1AD
:10386000002C00D184E1049C059D14941595069DBF
:10387000002D61DD2A1C0F231A402D49D2008A1821
:10388000146855680E940F95069D2A4C2F11022539
:10389000F80617D51F4014981599226A636A01F03B
:1038A00099FE0325049005910CE0F90708D50E98C0
:1038B0000F992268636802F0F7FA0E900F910135B4
:1038C0007F100834002FF0D1049805990E9A0F9BB1
:1038D00001F080FE4EE0C046000000000000000045
:1038E000000000000000F83F61436F63A787D23FEC
:1038F000B3C8608B288AC63FFB799F501344D33FDF
:103900000000F07F0F270000978400008E840000E5
:103910008D8400000000F03F01FCFFFFEFFBFFFF84
:10392000120400000EFCFFFFEEFBFFFF000010FE84
:1039300008850000D0850000069C02256742002F04
:103940001AD00F233B40CC4ADB00D31814981599AA
:103950001A685B6802F0A8FAC84E3F11002F09D020
:10396000FA0704D532687368013502F09DFA7F10BA
:103970000836F3E704900591139C002C1ED0049E9A
:10398000059FB44BB24A301C391C01F0B7FA00282D
:1039900014D0089C002C11D00C9C002C00DCE3E01F
:1039A000069C301C013C391CAB4AAC4B119402F014
:1039B0007BFA0135049005910C9C02E0069C119461
:1039C000089C281C049E059F0E9403F065F8321C89
:1039D0003B1C02F069FAA24AA24B01F0D9FA041C7E
:1039E000A74808180E990490051C00291BD19E4A6F
:1039F0009E4B301C391C02F0E7FC221C049B061C69
:103A00000F1C01F08FFA002800D05CE2221C8025F8
:103A1000049C2D06301C391C631901F06FFA002834
:103A200000D047E2A0E00E9A934B013A1098D200E2
:103A30009B18002849D01A685B688D488D4901F0B1
:103A4000C9FD2B1C221C02F0BFFC049005910B9DAC
:103A5000391C301C02F0ECFF041C03F01DF8021CA2
:103A60000B1C301C391C02F0AFFC01356B1E3034CE
:103A70001C70049A059B061C0F1C01F03FFA0028DD
:103A800000D053E3321C3B1C7249714802F09CFC8D
:103A9000049A059B01F032FA002800D0CBE00B9C81
:103AA0002B1B0E9CA3425FDA049805996A4A6B4B64
:103AB00002F0FAF9684A694B04900591301C391CF0
:103AC00002F0F2F9061C0F1CC2E718685968221CA4
:103AD0002B1C02F0E9F90B9C0E9D049005916519D1
:103AE0001795391C301C02F0A3FF051C02F0D4FF0F
:103AF000021C0B1C301C391C02F066FC3035257092
:103B0000179D0134061C0F1CAC4226D10E980B9C4D
:103B1000574A584B25180498059901F039FA021CA8
:103B20000B1C301C391C01F0FDF9002800D082E08C
:103B3000049A059B4E484F4902F046FC021C0B1CA0
:103B4000301C391C01F0DAF900280DD06B1E1A78F0
:103B5000302A00D0EAE21D1CF8E73F4A3F4B02F052
:103B6000A3F9061C0F1CBCE7149C159D0494059535
:103B7000199B002B00DA9FE0069D0E2D00DD9BE0D7
:103B80003D4AEB00D3181C685D6802940395219DA3
:103B9000002D14DA089C002C11DC00D08CE1324A94
:103BA000324B0298039902F07FF9049A059B01F0C9
:103BB000C3F9089F3E1C002800D07FE187E10B9DE0
:103BC000049E059F029A039B301C391C01F002FDE4
:103BD00002F02EFF041C02F05FFF029A039B02F02A
:103BE00063F9021C0B1C301C391C02F0EDFB013583
:103BF000021C201C30300B1C691E08700B98291AFF
:103C00000898814248D1101C191C01F0C1F9029A90
:103C1000039B061C0F1C01F085F900280DD1301CF8
:103C2000391C029A039B01F063F9002800D17FE25E
:103C3000E10702D47CE2119C06946B1E1A78392AA3
:103C400026D10B9CA3421DD01D1CF6E7C046C046E2
:103C5000000000000000F03F0000000000002440D1
:103C60000000000000001C400000000000001440A4
:103C7000000000000000E03F08850000D085000043
:103C80000000C0FC069C3022013406940B9C22707C
:103C90001A7801321A704BE2101C191CC94BC84A21
:103CA00002F002F9C84AC94B061C0F1C01F020F9AA
:103CB000002800D186E73BE2109D002D31D0209CEA
:103CC000012C0BDC169D002D02D0C1481B1802E010
:103CD000189936235B1A0D9D029C16E0089D0D9CD9
:103CE000013DAC4201DB651B06E00D9C0D952B1BD5
:103CF000129C0025E4181294089C002C03DA029808
:103D00000023041B01E0029C089B0299099AC91830
:103D10000291D21807980121099200F081FC061C3B
:103D200002E00D9D029C109E002C0CD0099B002BE4
:103D300009DDA34200DD231C02980999C01AC91AA3
:103D40000290E41A09910D9A002A21DD109B002BA4
:103D500018D0002D10DD311C2A1C079800F0F8FC4B
:103D6000061C311C0A9A079800F063FC0A99071C8C
:103D7000079800F0B5FB0A970D98421B08D00798EA
:103D80000A9902E007980A990D9A00F0E1FC0A905E
:103D90000798012100F044FC129D071C002D05DD51
:103DA000391C07982A1C00F0D3FC071C209800251A
:103DB000012810DC0499A9420DD1059A1303AB42E6
:103DC00009D1844B134206D0029D01350295099D0D
:103DD00001350995012512990120002908D03B6978
:103DE00003339B00FB18586800F0D1FB2023181AFE
:103DF000099A1F23801818400DD020231B1A042B6A
:103E000006DD1C23181A029B24181B18029308E0D5
:103E1000042B08D0181C02991C300918099A029129
:103E2000241812180992029B002B05DD07980A99A5
:103E30001A1C00F0DFFC0A900998002805DD391CE7
:103E40000798099A00F0D6FC071C139900291BD08B
:103E50000A98391C00F020FD002815DA069A002384
:103E6000013A069207980A990A2200F052FB0C9B2D
:103E70000A9010980893002806D0311C07980A224F
:103E8000002300F046FB061C089900292ADC209A32
:103E9000022A27DD002911D1391C07980522089B29
:103EA00000F037FB071C391C0A9800F0F5FC0028CD
:103EB0000DDC03E00E9F00E000273E1C219C0B9DC3
:103EC000E44306940BE0119D0E9F06953E1C0B9C4F
:103ED00031232370069C0B9D013401350694029614
:103EE00000260FE11098002800D1C5E0002C05DD68
:103EF000311C0798221C00F07DFC061C0296002D48
:103F000012D07168079800F0B3FA3269311C02329E
:103F1000041C92000C310C30FEF7D8FE0798211CCF
:103F2000012200F067FC02900B9C089D231C013BC2
:103F30005B1909941093391C0A98FFF7A9FA311CF0
:103F40000D90041C0A9800F0A7FC391C0C90029AF2
:103F5000079800F0BCFC051CC0683034002805D16F
:103F60000A98291C00F098FC089001E001210891B2
:103F7000291C079800F0B4FA089B209D2B430DD113
:103F800004980123034209D1392C44D00C9D002D03
:103F900001DD0D9C3134099D013544E00C9D002D5F
:103FA00003DA089D002D17DC28E00C9B209D2B4395
:103FB00029D104980123034225D1F2E7C046C04627
:103FC000000000000000244000000000000000008D
:103FD000330400000000F07F0A990798012200F0E6
:103FE00009FC391C0A9000F057FC002802DC05D1BE
:103FF000E10703D5392C0ED00D9C3134099D099A67
:10400000013514707EE0099D01350C95089D002D49
:104010000CDD392C05D1099D099C3923013523700C
:104020005BE00C9D0134099804706BE00999109ACB
:104030000C9D0C7091423DD00A990A2200230798EA
:1040400000F067FA029C0A90311C07980A220023AC
:10405000A64204D100F05DFA061C029009E000F0CF
:1040600058FA0299061C0A220798002300F051FA18
:1040700002900C9D09955EE70B9D391C0A98FFF78D
:1040800007FA041C30340B9808992C7001352B1A50
:104090008B4207DB0B1E00DC01230B9A0296D5181E
:1040A000002607E007980A990A22002300F031FA57
:1040B0000A90E2E70A990798012200F09BFB391C5D
:1040C0000A9000F0E9FB002807DC15D1E30704D4CF
:1040D00012E00B9CA34205D01D1C6B1E1A78392AD6
:1040E000F7D006E0069C3123013406940B9C237024
:1040F00008E001321A7005E06B1E1A78302A01D1EF
:104100001D1CF9E70798391C00F0EAF9029C002C05
:104110000ED0002E05D0A64203D00798311C00F027
:10412000DFF90798029900F0DBF901E0119C069491
:1041300007980A9900F0D4F900232B70069B229C63
:1041400001332360249C002C03D0256001E0024849
:1041500000E00B981BB0F0BD8C840000C046C04648
:10416000F7B58B89051C0C1C19075ED46268002A00
:1041700002DC276C002F1ADDE76A002F17D000221F
:104180002E682A60802252011A4001D0626D15E02B
:10419000281C216A0123B847021C411C0ED12B6840
:1041A000002B0BD01D2B01D0162B02D12E6000202E
:1041B0005EE0A38940210B43A38159E0A3895F07F7
:1041C00006D56168636B521A002B01D0276CD21B95
:1041D000281C216A0023E76AB847A289411C06D13E
:1041E0002B68002B03D01D2B01D0162B19D10023D7
:1041F000636023692360D70405D5411C02D12A6876
:10420000002A00D16065616B2E600029CFD0231C8D
:104210004433994202D0281C00F026FC0020606341
:1042200026E040231A43A28122E02669002EBED058
:1042300027680022BF1B01972660990700D1626999
:10424000A260019F002FB2DD281C216A321C019B55
:10425000A76AB847002806DCA3894022134301203F
:10426000A381404204E0019F36183F1A0197E8E716
:10427000FEBD00000A6938B5051C0C1C002A01D1DE
:1042800000201CE0002804D08369002B01D100F03D
:1042900071F80B4B9C4201D16C6808E0094B9C42C1
:1042A00001D1AC6803E0084B9C4200D1EC680C22C1
:1042B000A35E002BE4D0281C211CFFF751FF38BD62
:1042C0009C840000BC840000DC840000F8B5041C61
:1042D000071C4834002C12D0A5686668013E0CD437
:1042E000AB89012B07D90E22AB5E013303D0381CFA
:1042F000291CFFF7BFFF6835F0E72468EAE7F8BD3F
:10430000002310B5041C0360436083608181436611
:10431000C281036143618361191C08225C30FEF78E
:10432000DEFC054B24626362044BA362044BE36230
:10433000044B236310BDC046194C0000414C0000E3
:10434000794C0000A54C000070B54B1E68255D43FC
:104350000E1C291C743100F0CFFB041E08D0002174
:10436000016046602A1C0C30A0606832FEF7B7FC82
:10437000201C70BD836913B5041C002B27D18364F6
:10438000C3640365124B134A1B688262984201D1D1
:1043900001238361201C00F01FF86060201C00F0E6
:1043A0001BF8A060201C00F017F80421E060002238
:1043B0006068FFF7A5FFA06809210122FFF7A0FFB1
:1043C000E06812210222FFF79BFF0123A36113BDC6
:1043D00078840000CD420000F8B51D4B071C1E6814
:1043E000B269002A02D1301CFFF7C4FF4836B46816
:1043F0007368013B05D40C22A55E002D10D06834F3
:10440000F7E73368002B06D1381C0421FFF79CFF27
:104410003060002801D03668E9E70C233B6016E0E5
:1044200001235B42E381201C0123A3816566256093
:10443000A560656025616561A5615C30291C082265
:10444000FEF74DFC6563A563A564E564201CF8BD1B
:1044500078840000004870476C01002008B5034BC9
:10446000011C186800F048FB08BDC0466801002028
:1044700070B5456A041C0E1C002D07D11020FFF7F3
:10448000EDFF6062456085600560C560656AEB6848
:10449000002B09D0636AB200DB689A181068002804
:1044A0000ED00368136017E0201C0421212200F0C5
:1044B000CDFA636AE860DB68002BEBD100200EE0E8
:1044C00001210D1CB5406A1D9200201C00F0BEFAAF
:1044D0000028F3D04660856000220261C26070BD92
:1044E00070B5446A061C0D1C002C07D11020FFF784
:1044F000B5FF7062446084600460C460002D07D022
:10450000726A6968D2688B00D3181A682A601D60C5
:1045100070BDF7B50C1C1E1C0D69071C143100235F
:104520000868013380B2504380198446060C08683D
:10453000000C50433018060C00040190604680B215
:10454000844601988444604601C1AB42E8DB002EFA
:104550001BD0A3689D4212DB6168381C0131FFF754
:1045600087FF2269211C023201900C3192000C302D
:10457000FEF7ACFB211C381CFFF7B2FF019C2B1D82
:104580009B00E31801355E602561201CFEBD002202
:10459000031C010C914201D103041022190E01D118
:1045A00008321B02190F01D104321B01990F01D1EE
:1045B00002329B00002B04DB2020590002D5501C46
:1045C00000E0101C704703680722011C1A400BD042
:1045D00001220020134222D10220034201D0D34005
:1045E0001BE09B080B601AE098B2002801D11B0C5D
:1045F0001022D8B2002801D108321B0A180701D1B5
:1046000004321B09980701D102329B08D80704D451
:104610005B082020002B02D001320B60101C704779
:1046200010B50C1C0121FFF723FF01234461036136
:1046300010BDF0B50C1C151C096912698BB09142B4
:1046400002DA231C2C1C1D1C27692E69A268BB19C9
:1046500061680293934200DD0131FFF709FF031CFB
:1046600003900298143382009A18191C914202D2C6
:10467000002001C1FAE714351434BF00AC46B6007F
:10468000E7196644049407970996099EB44556D2E3
:1046900065462D880595002D1FD0049C191C00200F
:1046A0000F6840CCBFB2059D0697B7B26F43069D19
:1046B000360CEF193F1808680891050C0598464319
:1046C000380CAD192D18280CBFB22D043D4320C164
:1046D000079DAC42E4D3089E706067467D88002D3C
:1046E00022D000261868049C191C0196278880B2E5
:1046F0006F430697069E4F880591F619019FF7199B
:1047000006973F043843086001CC8F88000C68434B
:10471000C019069F04313E0C8019079F060C0196B4
:10472000A742E3D8059948600425AC445B19ACE77F
:10473000043A1068002805D1029F013F0297029DAC
:10474000002DF5DC039F029E381C3E610BB0F0BDCE
:104750000323F7B51340051C0E1C141C002B07D0B7
:10476000224A013B9B009A580023FFF7D2FE061C09
:10477000A410019437D06C6A002C07D11020FFF7E9
:104780006DFE6862446084600460C4606F6ABC68E7
:10479000002C10D1281C1649FFF742FF0023B860F7
:1047A000041C036007E0019B5B1001931BD0206891
:1047B00000280FD0041C019BDB07F4D5311C221C00
:1047C000281CFFF736FF311C071C281CFFF788FE4A
:1047D0003E1CE8E7281C211C221CFFF72AFF0023AF
:1047E00020600360E6E7301CFEBDC046F88500008F
:1047F00071020000F0B50C1C85B0039020695511C2
:104800002818029049680130A368171C0090009A8C
:104810009A4202DD01315B00F9E70398FFF728FEB9
:10482000021C061C14320023AB4204DA990000205B
:1048300050500133F8E7EB43DB171D40AD00206912
:104840005519221C143283009B189C461F231F40BD
:1048500014D02023DB1B019300231068291CB840CF
:10486000034308C508CA0198C3409445F5D84B6076
:10487000002B07D002990231009103E008CA08C555
:104880009445FBD8009B0398013B3361211CFFF743
:1048900027FE301C05B0F0BD10B502690C69031C81
:1048A000101B13D11A1CA00014321431131809184C
:1048B000043B04391C680868844204D08442804167
:1048C0000123184302E09342F2D8002010BDF0B556
:1048D000071C85B0081C0D1C111C141CFFF7DCFF05
:1048E000061E07D1381C311CFFF7C2FD01230361EE
:1048F000466150E0002801DB002603E02B1C012666
:10490000251C1C1C6968381CFFF7B2FD2A692B1C8A
:1049100014339100591802912169251C143589001E
:104920006918041C0391C6601434002140CB80CD6B
:10493000B446B6B27118BEB28E1B614601963F0CEA
:104940000E0CF71B019E043431147F1839143F04F8
:104950000097019F261FB446BEB2009F37436646AC
:104960003760039FBD42E1D3029E251CB3420BD2A8
:1049700080CBBDB26D182E143F0CF6193114ADB2B8
:104980003604354320C4EFE7043D2F68002F01D1E2
:10499000013AF9E7026105B0F0BD0000F7B5012169
:1049A0001D1C141CFFF764FD6F002B03061C1B0B62
:1049B0007F0D02D08022520313430193002C19D0A3
:1049C00068460094FFF7FFFD009A002809D0019B7C
:1049D00020211C1C091A8C402243C34072610193A0
:1049E00000E07261019CB461634263410224E41AF5
:1049F000346107E001A8FFF7E6FD01990124716128
:104A000034612030002F09D00D4A089CBF183F1890
:104A100027603523099C181A20600EE00949089A7E
:104A200040180949106063189B00F3185869FFF794
:104A3000AEFD6401099A241A1460301CFEBDC04604
:104A4000CDFBFFFFCEFBFFFFFFFFFF3F38B5151C7F
:104A50004D43291C00F050F8041E03D000212A1CED
:104A6000FEF73DF9201C38BD30B5002940D004398F
:104A70000B68002B00DAC9181E4A1368141C002B9F
:104A800002D14B60116033E099420FD208680A18D6
:104A90009A4205D113685268C01808604A6000E065
:104AA0004B60216024E08A4203D8131C5A68002A14
:104AB000F9D11D685C198C420BD109686918581826
:104AC0001960904214D114685268091919605A602B
:104AD0000EE08C4202D90C23036009E008680C1830
:104AE000944203D114685268001908604A60596002
:104AF00030BDC0460802002070B50323CD1C9D4385
:104B00000835061C0C2D01D20C2501E0002D3FDBE1
:104B10008D423DD3204B1C681A1C211C002913D048
:104B20000868431B0DD40B2B02D90B60CC181EE078
:104B30008C4202D1636813601AE0486860600C1C04
:104B400016E00C1C4968E9E7144C2068002803D1E2
:104B5000301C00F04FF82060301C291C00F04AF88F
:104B6000431C15D0C41C03239C4384420AD12560F6
:104B7000201C0B300722231D9043C31A0BD05A422E
:104B8000E25008E0211A301C00F034F80130EED178
:104B90000C233360002070BD0802002004020020B6
:104BA00030B50B1C041C021C1C430220002C17D027
:104BB00080242406A34201D1002A11D009485900BB
:104BC0004908094C0D180420A54209D9074C0320B7
:104BD000A14205D9064C0020A14201D150425041CA
:104BE00030BDC0460000F0FFFFFFDF7FFFFF0F007A
:104BF0000000F07F38B5074C0023051C081C23601B
:104C0000FDF794FE431C03D12368002B00D02B60DA
:104C100038BDC046E80A002038B50C1C0E25495F97
:104C200000F088F8002803DB626D1318636503E069
:104C3000A289024B1340A38138BDC046FFEFFFFF9E
:104C4000F8B51E1C8B89051C0C1C171CDA0505D534
:104C50000E23C95E0022022300F058F8A289054BFA
:104C6000281C1340A3810E22A15E331C3A1C00F0C5
:104C700027F8F8BDFFEFFFFF38B50C1C0E25495F84
:104C800000F044F8A389421C03D1054A1340A381D4
:104C900004E0802252011343A381606538BDC04601
:104CA000FFEFFFFF08B50E23C95E00F01DF808BD39
:104CB0000023C25C0133002AFBD1581E704700005C
:104CC00038B5084C051C00202060081C111C1A1C5B
:104CD000FBF73AFF431C03D12368002B00D02B6065
:104CE00038BDC046E80A002038B5074C0023051C33
:104CF000081C2360FDF72CFE431C03D12368002B06
:104D000000D02B6038BDC046E80A002038B5084CFA
:104D1000051C00202060081C111C1A1CFDF71CFE3D
:104D2000431C03D12368002B00D02B6038BDC04644
:104D3000E80A002038B5084C051C00202060081C3B
:104D4000111C1A1CFBF7DEFE431C03D12368002B49
:104D500000D02B6038BDC046E80A002002B471467E
:104D600049084900095C49008E4402BC7047C046AE
:104D7000002934D00123002210B488422CD301240E
:104D80002407A14204D2814202D209011B01F8E7A3
:104D9000E400A14204D2814202D249005B00F8E75C
:104DA000884201D3401A1A434C08A04202D3001B88
:104DB0005C0822438C08A04202D3001B9C082243BB
:104DC000CC08A04202D3001BDC082243002803D0F9
:104DD0001B0901D00909E3E7101C10BC704700282B
:104DE00001D00020C04307B4024802A1401802903D
:104DF00003BDC046D90000000029F0D003B5FFF77D
:104E0000B9FF0EBC4243891A1847C046002941D059
:104E100010B4041C4C40A44601230022002900D5F4
:104E20004942002800D5404288422CD3012424075F
:104E3000A14204D2814202D209011B01F8E7E40039
:104E4000A14204D2814202D249005B00F8E78842C5
:104E500001D3401A1A434C08A04202D3001B5C083D
:104E600022438C08A04202D3001B9C082243CC089A
:104E7000A04202D3001BDC082243002803D01B09F8
:104E800001D00909E3E7101C6446002C00D540421C
:104E900010BC7047002806D003DB0020C043400848
:104EA00001E08020000607B4024802A140180290E9
:104EB00003BDC046190000000029EBD003B5FFF781
:104EC000A7FF0EBC4243891A1847C0467047C04628
:104ED0008446101C62468C46191C634600E0C0469E
:104EE0001FB500F063FF002801D40021C8421FBD98
:104EF00010B500F093FE4042013010BD10B500F037
:104F000055FF002801DB002010BD012010BDC04668
:104F100010B500F04BFF002801DD002010BD01207E
:104F200010BDC04610B500F0C3FE002801DC002013
:104F300010BD012010BDC04610B500F0B9FE00281C
:104F400001DA002010BD012010BDC0469C460304BC
:104F5000F0B51B0C17043F0C150C1E1C041C000C98
:104F60007E436B4347434543FB18300C1818874278
:104F700002D980235B02ED18030CED1863465C43F5
:104F80004A433604360CA118000480194919F0BDB3
:104F9000F8B55F46564644464D46F0B40C034D0006
:104FA000CE0F610A440F2143C40018038046580005
:104FB000400D8246D80F84464046400A530F0343B3
:104FC000D0006D0D371C83465246664500D1A4E0E3
:104FD000AF1A002F00DC09E1002A3BD1184300D0B2
:104FE000EAE0630700D187E00F232340042B00D1C0
:104FF00082E0221DA242A4416442802309191B04BD
:105000000B40371C141C002B00D17CE0CE4B01352B
:105010009D4200D105E1CD4BE40819404807490203
:1050200004430B0B002000211B031A0B0B0D6D0515
:105030001B0513436A08C64DFF071D4015436D004D
:105040006D08291C3943201C3CBC90469946A24659
:10505000AB46F8BDBC488542C3D080200004034362
:10506000382F00DDF0E01F2F00DD24E12020C01BE1
:105070001A1C814682405846F840024394465846DE
:105080004A469040421E9041FB40624602431F1C2C
:10509000A21A9442A4416442C91B091B141C0B02AE
:1050A0009FD549024F0A002F00D1C8E0381C01F0FB
:1050B00065FD021C083A1F2A00DDB5E02821091A07
:1050C000201C9740C84007439440954200DDB2E061
:1050D000551B691C1F2900DDDCE01F22551B3B1CF2
:1050E000221CAB40CA40AC40651EAC411343CF40CC
:1050F0001C43391C002574E780231B040B40371C1C
:10510000002B00D082E7904B4807E4080443C9080D
:105110009D4248D009030B0B84E7AA1A9446002A43
:1051200000DC98E05046002852D08748854200D1E4
:1051300057E78020000403436246382A00DDFCE084
:105140001F2A00DD4AE120226046101A1A1C824004
:105150008246914658466246D0404A4602439046AF
:10516000584652469040421E904142460243604695
:10517000C3401219A242A441644259180919141CCF
:10518000080200D42DE7704B01359D4200D122E189
:105190006E4B60081940012323401C1C0443CB07BD
:1051A0001C4349081DE7231C0B433AD080231B03F3
:1051B0000B431B031B0B35E7013F002F65D15846FE
:1051C000221A9442A4416442C91A091B141C66E7BE
:1051D0005846184300D104E70122524294446046E5
:1051E000002800D0C5E058460219C3E7002F73D14C
:1051F000681C4005400D012800DCDEE05A46A21A7A
:105200009442BF41C81A7F42C71B380200D489E0CC
:105210005A46141BA3459241591A52428F1A6646A8
:1052200041E700230024FDE6271C2838874000249E
:10523000954200DC4CE74549AD1A3940D1E6201CC7
:1052400001F09CFC203034E75A461A43531E9A4121
:10525000D2B200271CE7002A00D0DCE0681C42051F
:10526000520D012A00DC8DE0374DA84200D1F3E059
:105270005D462A19A242A441644259180919CC0773
:10528000520814434908051CABE62F48854200D05C
:10529000E6E6A6E62B1C1F3B3A1CDA40131C20292D
:1052A0006CD03F22551BAF403C43601E84411C43E1
:1052B0000021002595E6381C20381A1CC240101C1D
:1052C000202F5DD04022D71BBB405A461A43531EA5
:1052D0009A4102430027DBE6002D3BD01A4DAA4538
:1052E00000D193E080252D047F422943382F00DD33
:1052F000ACE01F2F00DD29E12025ED1B081C261C3A
:10530000A840FE40AC400643651EAC413443F94022
:105310005D462C1BA34592415B1A5242991A554691
:105320006646BCE6131C3B43141C002B00D0BAE6B7
:105330000027002100250024E5E65A461A43531EA3
:105340009A41D2B2002314E7FF070000FFFF7FFF5E
:10535000FFFF0F800D1C254358D0FF43002F51D174
:10536000041BA3459241591A5242891A5546664672
:1053700095E69648854200D0DEE632E6002793E7C0
:105380000023A2E7081C2043002D00D0C4E0002821
:1053900000D1F7E05846184300D122E658460219DA
:1053A000A242A441644259180919141C0A0200D4EB
:1053B00017E6874B0125194013E6081C2043002DF2
:1053C00039D1002871D15946194303D0191C5C46C4
:1053D000664606E600270021002494E66046203851
:1053E0001A1CC24060469146202800D1ACE0402201
:1053F000121A93405A461A43531E9A414B461A4377
:105400000023B6E6714DAA4500D06FE7191C5C4633
:1054100055466646E5E5002D22D10D1C254377D083
:10542000D543002D71D15C445C45924159185242DC
:1054300089185546A4E600284DD15946194300D194
:1054400094E0191C5C466646604DCAE50C43611E3B
:105450008C41E4B200215BE7051C0021002452E6E8
:105460005A4DAA4554D05542802210040143382D8C
:1054700000DD81E01F2D00DD92E02022501B0A1C80
:1054800084468240201CE840024390466246944095
:10549000601E844142461443E9405C445C459241AD
:1054A000CB185242991855466AE65846184300D11F
:1054B00097E55846271ABC429241C81A5242801AB0
:1054C000020266D55846041BA3459241591A52421E
:1054D000891A664685E55846184333D04807E408DC
:1054E00004438020C9080003014208D0DD080542BA
:1054F00005D15946CA085C071443291C6646630F48
:10550000C9001943E400314D6BE5304A9245AED1F4
:10551000191C5C46554664E5002836D058461843A9
:1055200010D080254807E408C9082D030443294208
:10553000E5D0D8082842E2D15D46EA085C0714436A
:10554000011CDCE7214D4CE5002353E73D1C203DC9
:105550000A1CEA40151C202F34D04026F71BB94006
:105560000C43611E8C412C430021D1E68021002791
:10557000C903164D0024C6E50C43611E8C41E4B2FC
:1055800000218AE7191C5C462BE5191C5C460F4D6F
:1055900027E5031C3B4300D11CE7011C3C1C20E514
:1055A0002020404240190A1CC2409046202D0BD0BA
:1055B0004020451BA9400C43611E8C4145462C43AD
:1055C00000216AE70021CBE70021F4E7FF07000094
:1055D000FFFF7FFFF0B5564644465F464D46F0B4A8
:1055E0001F1C0B031B0B98464B0087B0041C814605
:1055F0005B0DC80F161C9A460090002B51D06A4BC9
:105600009A4531D08022414652030A43630FD200AB
:105610001A43664B90460025E20091469A440024C6
:1056200002953B031B0B9B46FD0F7B00311C5B0D62
:10563000019560D05C4A934254D08021584649037A
:105640000143720FC9001143584A8B469B18F10061
:105650000020009A04436A4003920F2C00D9ADE069
:10566000534EA4003459A746404604436ED100214E
:1056700002250824884689460295D2E7009C0298B4
:10568000C34649460194022864D0032800D1ABE206
:10569000012800D038E2019A002402400025A146EA
:1056A00060E0434623434AD04046002800D1C0E191
:1056B00001F064FA031E272B00DDB3E128210D1A47
:1056C000211C083B4246E9409A400D1C1543221C10
:1056D0009A40A8469146374B00251B1A9A4600244B
:1056E00002959EE75A4616430320002EB1D1B346D9
:1056F00000210220ADE75A4632431BD05B46002B07
:1057000000D18AE1584601F039FA272800DD7DE111
:105710002822171A011C321C08395B46FA408B40BC
:10572000171C1F43331C8B40BB46191C214B1B1AF3
:1057300000208EE70027BB460021012089E70020DA
:10574000012504248046814602956AE703250C243E
:10575000029566E7019C0394039D01222A400024E0
:10576000114DA146002000212403260B0C0D240519
:10577000114B34432D0523402B435B005B08D207BC
:10578000191C4846114307B03CBC90469946A246B6
:10579000AB46F0BD0022802424039146024DE1E790
:1057A00000240025A146DDE7FF07000001FCFFFF04
:1057B000048600000DFCFFFFFFFF0F805546ED1A29
:1057C0000495D84500D953E100D14EE1049C002551
:1057D000013C4E4604944746A946584603020C0E27
:1057E0001C430902250C23041B0C0091381C291CA6
:1057F0000193FFF7BDFA019983464143381C8A465D
:10580000291CFFF7F9FA330C090419438A450CD90E
:105810005B460919013B8C4200D947E18A4500D813
:1058200044E102225242934409195346CB1A181CF0
:10583000291C9846FFF79CFA071C0198291C7843FD
:1058400082464046FFF7D8FA36040B04360C334341
:105850009A4509D91B197A1E9C4200D924E19A4520
:1058600000D821E1023F1B195E4632041743380C71
:10587000BB46009E009F51463F0C32045B1A5946BE
:10588000BA46120C0F043F0C904651467A434F43E0
:105890004146414356467043CF19160CBE19B142DA
:1058A00002D980277F02C019310C12043604120C71
:1058B0004018B618834200D2C4E000D1BEE0191AE5
:1058C0004846861BB145BF417F42CF1BA74200D14E
:1058D00013E1291C381CFFF74BFA01990290414350
:1058E000381C8946291CFFF787FA330C0904194331
:1058F00089450CD9029B0919013B8C4200D9FFE074
:10590000894500D8FCE0029F0919023F02974F46E3
:10591000CF1B381C291C0597FFF72AFA071C019892
:10592000291C784381460598FFF766FA3604090476
:10593000360C0E43B14509D936197B1EB44200D945
:10594000E0E0B14500D8DDE0023F3619029D49464E
:10595000761A290439430B0457460A0C1B0C40469F
:105960004546584355437B437A43EB18070CDB19F4
:105970009D4202D980256D0252191D0C00041B04A2
:10598000000C52191B18964235D300D1FCE00123BC
:105990001943049E994FF519002D00DCA1E048073A
:1059A00009D00F230B40042B05D00B1D8B428941DE
:1059B00049428B44191C5A46D20107D5904B5C468C
:1059C000049E80271C40FF00A346F5198D4B9D4285
:1059D0007ADD039C0122224000248B4DA146C1E6C2
:1059E00080242403474627424CD13C432403240B04
:1059F000009A854DB6E63619481EB4425ED9011CA0
:105A00009642C4D1009E9E42C1D1C2E7031C283BEE
:105A1000311C99408B46002188E6301C01F0AEF81D
:105A2000203072E6283B211C99400022884691468E
:105A300051E6201C01F0A2F820303BE60021B145E0
:105A400000D33DE7009F5A46B944B945BF417F4264
:105A50003F19FB18013A9C421ED2984200D97EE0C1
:105A600000D1B5E0191A93462AE7894500D8ADE67A
:105A70004846464642467708D3074608C0071E43B5
:105A80008146AAE65846204212D1044324032A1C28
:105A9000240B89465C4D65E6A342E3D1009F4F4548
:105AA000DBD9211A93460BE7171CDDE69B46BCE6C3
:105AB0003C432403240B009A534D53E6B24259D879
:105AC00000D18AE0011C62E75F46C9087B07039E9C
:105AD0000B437C026D0501229946240B6D0D32406B
