:1000000008210020390700003507000035070000EF
:1000100000000000000000000000000000000000E0
:100020000000000000000000000000003507000094
:100030000000000000000000350700003507000048
:1000400035070000350700003507000035070000C0
:1000500035070000350700003507000035070000B0
:10006000350700009D010000AD010000BD0100004A
:10007000CD010000350700003507000035070000FE
:1000800035070000350700006D0100007D0100000C
:100090008D0100003507000035070000350700001E
:1000A0003507000035070000350700003507000060
:1000B00010B5064C2378002B07D1054B002B02D03E
:1000C000044800E000BF0123237010BDA000002001
:1000D00000000000B443000008B5084B002B03D01B
:1000E0000748084900E000BF07480368002B03D019
:1000F000064B002B00D0984708BDC046000000000A
:10010000B4430000A4000020B4430000000000003D
:1001100038B58000144BC4582268957B237E1D405F
:10012000637E1D40EB0705D5201CA2689047012384
:1001300022689373AB0705D5201CE2689047022321
:1001400022689373EB0605D5201C22699047102383
:1001500022689373AB0605D5201C6269904723681B
:1001600020229A7338BDC046F800002008B5002050
:10017000014B984708BDC0461101000008B5012099
:10018000014B984708BDC0461101000008B5022088
:10019000014B984708BDC0461101000008B5024B4D
:1001A0001B680020984708BDBC00002008B5024B22
:1001B0005B680120984708BDBC00002008B5024BD1
:1001C0009B680220984708BDBC00002008B5024B80
:1001D000DB680320984708BDBC0000207047C0467C
:1001E0000C4B1B68002B10D1EFF31083002B09D1AF
:1001F00072B6BFF35F8F0022074B1A700122074BC4
:100200001A7002E00022054B1A70024B1A68013284
:100210001A607047CC00002000000020D0000020B1
:10022000084B1A68013A1A601B68002B09D1064B6B
:100230001B78002B05D00122044B1A70BFF35F8F8F
:1002400062B67047CC000020D000002000000020E3
:1002500070B50C4B1C6A01788578407801221040FB
:1002600080014026B44304432A40D00180229443B5
:10027000221C0243032001400902034802400A43B2
:100280001A6270BD00080040FFFCFFFFF0B55F463A
:1002900056464D464446F0B4254A948A457803783C
:1002A000594259418A4683789C46C17888460379E9
:1002B0009946467B077B817B8B4680681D4B586146
:1002C00001235146880004218C43044348461840CA
:1002D000C00008218C43044340461840000110210F
:1002E0008C43044360461840400120218C43044362
:1002F000181C384080014027BC430443181C304080
:10030000C0018026B44304430720284000020A4D60
:100310002C40044359460B4019030848231C034052
:100320000B4393823CBC90469946A246AB46F0BD37
:1003300000080040D4000020FFF8FFFFFFEFFFFFA0
:1003400010B5027A9206120C43899B059B0D1A4345
:10035000154B5A60818842881143C47982792243BF
:100360000A434178C9010A431A600378042B0FD16C
:10037000027B9206038A1A43C3891B040B490B4074
:100380001A43094B9A60196804220A431A6009E06B
:10039000202B07D1028A044B9A6019688422D2006C
:1003A0000A431A6010BDC046D40000200000FF03BD
:1003B000082843D88000224B1B589F4600203EE06F
:1003C000204B196A02220A431A62002037E01D4BB3
:1003D000996902220A439A61002030E0194B198A78
:1003E00002220A431A82002029E0164B998A02222F
:1003F0000A439A82002022E0134B196802220A4322
:100400001A601A68114B1A400E4B9A84191C10225C
:10041000CB681A42FCD00C4A91680A4BD9625168E9
:100420009962126892B29A84002008E0054A442337
:10043000D05C02210143D154002000E01720704716
:100440006441000000080040D40000207FFF00004D
:1004500070B58EB0C222D2003C4B9A603C4A5168C3
:100460001E23994302231943516001AA13700024EB
:10047000384DE0B201A9A8470134252CF9D10AA8CA
:10048000002303708370802212028260C3700122F5
:100490000271037383730622427043732E4B984795
:1004A00005202E4B984729490222CB681A42FCD0DE
:1004B000264B998A80220A439A8205A8002303705A
:1004C0000024438083808471C471072202723F2319
:1004D00043810621018244700273C381204B9847F7
:1004E00004A844700126867004701E4B98470620AD
:1004F0001A4DA8471C4B984701A94E604C700C72CE
:100500004C7205230B700120184B98470120184BA3
:1005100098470720A8470D491022CB681A42FCD003
:10052000144A002313725372937201A901224A6084
:100530004B7006220A700B724B7200200B4B9847CF
:1005400000200B4B98470EB070BDC046000800401D
:1005500000400041F10600008D020000B1030000E0
:100560004103000051020000790500009D050000D4
:100570005106000000040040064B996908220A4316
:100580009A610122044B1A70191C0B781342FCD19A
:100590007047C04600040040000C0040F8B5061C3F
:1005A000071C0D782D0205434B78002B02D08023C9
:1005B000DB021D434B7A002B02D080231B031D431B
:1005C0004C68012C17D9631E1C420FD1022C06D98E
:1005D0000223002201325B009C42FBD800E0002293
:1005E0001702374380235B031D4304E02702374390
:1005F00080239B021D430B7A002B02D080239B0398
:100600001D430F4A53785BB2002BFBDB0D4B984721
:100610000D4B1E700A4A53785BB2002BFBDB084B74
:100620009F601A1C53785BB2002BFBDB044B5968AC
:10063000802252020A4015435D60044B9847F8BD82
:10064000000C0040E1010000080C00402102000005
:1006500010B5041C0B4A53785BB2002BFBDB0A4B32
:1006600098470A4B1C70074A53785BB2002BFBDBA0
:10067000044B5968802252020A435A60044B98473F
:1006800010BDC046000C0040E1010000040C004019
:100690002102000010B5041C0F4B98470F4B1C7033
:1006A0000F4B58880005000F59880E4A0A405A809F
:1006B00059880D4A0A405A80191C8022D2014B8861
:1006C0001342FCD1064B01025888064A02400A43F5
:1006D0005A80064B984710BDE1010000020C004013
:1006E000000C0040FFF0FFFFFFBFFFFF21020000F2
:1006F00010B50C7824020443024B9847A4B2024B75
:100700005C8010BD95060000000C00407047C0469C
:1007100008B5044B9847044B9847044B9847044B43
:10072000984708BD51040000DD0100000D070000DE
:100730000D070000FEE7C04670B5022190235B0064
:10074000284AD150284BD8780321884302221043ED
:10075000D870DD780C24A54308200543DD70234BB9
:100760009E7B3025AE43202535439D739D7BA5435D
:1007700028439873987B884302439A731C4B1D4A05
:100780009A4203D01C4B1A4A9A4204D31B4B1C4A70
:100790009A4210D31BE01B4B17480330C01A800845
:1007A0000130800000231249124AD458CC5004333F
:1007B0008342FAD1EAE7124B1A1D10490331891A14
:1007C000890889005218002102C39342FCD10E4BC4
:1007D0007F210E4A8A439A600D4B98470D4B9847EC
:1007E000FEE7C04600700041005000410048004153
:1007F00000000020B4430000A000002008010020F9
:10080000A00000200400002000ED00E00000000037
:10081000490800003D080000064B1B68002B02D170
:10082000054A044B1A60034A136818181060181C14
:100830007047C046EC0000200821002008B5014B9D
:100840009847FEE71107000070B50E4B0E4D0024CF
:10085000ED1AAD101E1CAC4204D0A300F35898470B
:100860000134F8E703F096FD084B094D0024ED1A1A
:10087000AD101E1CAC4204D0A300F35898470134BD
:10088000F8E770BDA0430000A0430000A0430000B3
:10089000A443000010B50023934203D0CC5CC454A1
:1008A0000133F9E710BD031C8218934202D019707E
:1008B0000133FAE770470023C25C0133002AFBD101
:1008C000581E704700000000F0B58BB0161C1C1CB1
:1008D000129904D580221206A4182D2300E00023CB
:1008E000149F0B7020239F43462F08D03A1C453A93
:1008F00051424A41109902238918109100E00323C4
:100900000093139B109A029308AB039309AB0192D7
:100910000493321C231C00F0A3FB051C472F02D1BB
:100920001199C9072CD5109969180791462F14D130
:100930002B78302B0CD1301C211C164B144A01F0A3
:10094000CFFD002804D1109A012313999B1A0B6044
:10095000139A07991368C9180791301C211C0D4B75
:100960000B4A01F0BDFD002801D0079A0992099BAE
:1009700007998B4204D25A1C099230221A70F6E76A
:10098000099B281C5A1B159B1A600BB0F0BDC04672
:100990000000000000000000F0B52B2385B0051C0E
:1009A0000C1C0270861C002901DA4C422D236B704E
:1009B000092C1EDD6F460E37201C0A21019701F01D
:1009C00073FD30313970201C0A2101F017FD013F01
:1009D000041E092CF0DC019B3034013B1C706A467C
:1009E0000F32301C934209D21A780133327001362B
:1009F000F5E73023E4183370B01C7470401B05B069
:100A0000F0BD000000000000F0B593B00C1C0A928D
:100A10000B93189E051C01F0FFF800680C90FFF77F
:100A20004AFF0023109333680722073393431A1CAD
:100A300008320D90277E186859683260A064E1641E
:100A400001F048FC012819D1A06CE16CB94BB84AFF
:100A500001F04CFD002803D0231C2D2243331A70D3
:100A6000472F01D8B44E00E0B44E03232068236121
:100A70000423984300212060099191E0A06CE16C6F
:100A800001F028FC236800280CD1472F01D8AC4E78
:100A900000E0AC4E03222261042293430022236033
:100AA00009927DE06268561C01D1062207E02021F0
:100AB000381C8843472803D1002A01D101226260F3
:100AC0008022D2001343236001936B463B33029391
:100AD0000FAB6168039310AB05930023009106935D
:100AE0000497A26CE36C281CFFF7EEFE20233A1C4F
:100AF000061C9A430F99472A07D1CB1C02DB60687A
:100B000081422EDD023FFFB201E0652F12D8201C8A
:100B100001393A1C50300F91FFF73EFF109B0990AE
:100B2000C2182261012B02DC2168C9072FD50132CE
:100B300022612CE0662F15D16368002908DD216150
:100B4000002B02D12268D2071DD50133C91811E04C
:100B5000002B03D120680122104200D09A1C226190
:100B600011E06727109A914206DB22682161D207C3
:100B700009D50131216106E00123002901DC0223AE
:100B80005B1AD31823610F9B0020A36509906B4665
:100B90003B331B78002B03D0231C2D2243331A70C8
:100BA0000B99281C009111AA211C0A9B00F058F9EE
:100BB000013002D1012040424CE12268530504D4A7
:100BC000281C0A99321C236967E0652F00D8E0E0F1
:100BD000A06CE16C574B564A01F082FC00282BD0E8
:100BE000281C0A99584A01230B9EB0470130E1D0D6
:100BF0000F9F1098874207DB2168C90704D4276834
:100C0000BF0700D50EE113E1281C0A990C9A0D9B31
:100C10000B9EB0470130CDD00026109B013B9E4279
:100C2000EDDA221C281C0A991A3201230B9FB847BF
:100C30000130BFD00136F0E70F98002830DC281CC7
:100C40000A99414A01230B9FB8470130B2D00F984F
:100C5000002805D11099002902D12268D207CED5EB
:100C6000281C0A990C9A0D9B0B9FB8470130A1D004
:100C700000270F980997099F43420A99281C9F4211
:100C800009DA221C1A3201230B9FB847013091D098
:100C9000099F0137EDE7109B321C0B9EB047B5E072
:100CA000109FA36D08979F4200DD0893089F002FB7
:100CB00001DC002714E0281C0A99321C089B0B9FBA
:100CC000B8470130F5D175E7221C281C0A991A3261
:100CD00001230B9FB847013000D16BE7099F013713
:100CE0000997089FA36DFA43D2173A40099F9A1AB1
:100CF0009742E9DB0F981099F318099388420EDBAD
:100D00002268D2070BD4109B0F9FF618DB1B099F9C
:100D1000F61B9E4200DD1E1C002E17DC1FE0281C67
:100D20000A990C9A0D9B0B9FB8470130EBD141E714
:100D300000000000000000008A4100008E41000019
:100D400092410000964100009A410000281C0A9937
:100D5000099A331C0B9FB847013000D12AE70027BE
:100D60000BE0221C281C0A991A3201230B9FB8475A
:100D7000013000D11EE7099F0137099710980F999C
:100D8000F343DB17099F421A3340D31A9F42E8DB33
:100D900035E71098012802DC01231A423AD0281CBA
:100DA0000A99321C01230B9FB847013000D101E79B
:100DB000281C0A990C9A0D9BB847013000D1F9E61E
:100DC000A06CE16C254B244A01F08AFB002801D07D
:100DD000002610E0109B721C013B281C0A991CE0A5
:100DE000221C281C0A991A3201230B9FB847013094
:100DF00000D1DFE60136109B013B9E42F0DB221C56
:100E0000281C0A995032099B0B9FB847013000D02B
:100E1000F5E6CFE60A99281C321C0B9EB04701303C
:100E2000EDD1C7E60026E0681199431A9E4205DB22
:100E3000119BE06898420DDA181C0BE0221C281C5C
:100E40000A99193201230B9FB847013000D1B1E64E
:100E50000136E8E713B0F0BD00000000000000001C
:100E6000F7B5151C01930A698B68061C0C1C93428C
:100E700000DA131C221C2B6043321278002A01D0A6
:100E800001332B602068800602D52B6802332B606B
:100E9000216806270F401FD0231C43331B785A1E9E
:100EA0009341226892061FD5E11840313020C87066
:100EB000211C5A1C45310978A21840320233D170E6
:100EC00012E0221C301C019919320123089FB847F7
:100ED000013011D0009F01370097E0682968009F1A
:100EE000431A9F42EDDBD7E7221C301C01994332A5
:100EF000089FB847013002D10120404223E020681A
:100F000006212B68E26801400025042903D1D51A87
:100F1000EB43DB171D40A26823699A4201DDD31A17
:100F2000ED1800270097009FAF420BDA221C301CFF
:100F300001991A320123089FB8470130DCD0009F85
:100F40000137EFE70020FEBDF0B589B006910B69CF
:100F50000169051C002699427FDB069C5F1E143444
:100F600004940499BC000919021C0B681432059101
:100F70001419191C01312068039201F0F1F9029053
:100F8000B04238D00499039B8C460196079662467E
:100F900004329446043A40CA0299B0B24843310C34
:100FA000029E019A71431018020C51180A0C01920A
:100FB0001A6880B296B2079A89B2B618301A1E68BB
:100FC000320C521A06149219111480B21204059EA2
:100FD0001043079101C36645D9D2216800290AD17F
:100FE000039E043CB44201D82F6104E0216800292B
:100FF000FAD1013FF4E7281C069901F02FF80028E8
:101000002ADB029C039A0134049B02940024116899
:1010100040CB88B200191468B1B2401A360C210CCA
:10102000891B041409190C1480B20904059E01439C
:1010300002C29E42EBD2039CBB00E3181E68002E46
:101040000AD1039C043BA34201D82F6104E01E682F
:10105000002EFAD1013FF4E7029E301C09B0F0BD2A
:10106000F0B5446A9BB00790239D04920593002C31
:1010700008D1102000F0D4FD0799486244608460D4
:101080000460C460079C636A196800290AD05B6821
:1010900001229A404B608A60201C00F003FE636AC4
:1010A00000221A600598002805DA01232B6043000E
:1010B0005B08059301E000232B60059EBE4B321CAC
:1010C0001A409A4218D1BD4B229C049D2360002DEA
:1010D00001D1360301D0BA4800E0BA48249C002C64
:1010E00001D100F093FDC278C31C002A00D0053363
:1010F000249D2B6000F08AFD049C059DA54BA44A0D
:10110000201C291C01F0ECF9071E0CD0229C249D08
:1011100001232360002D01D100F075FDAA4828604D
:10112000013800F073FD19AB009318AB01930798D9
:101130002B1C221C01F014F873000A905B0D09D0DF
:10114000201CA24C2A03120B211C1143A04A169703
:101150009E181BE0189B199C1D199E4B9D4209DB94
:101160009D49049A9D4B6818C2405B1B101C9E4011
:10117000304304E09A48049B401B8340181C02F053
:101180009FFF984C6E1E012509191695824A834BC4
:1011900002F0F0FB824A834B02F05CF9824A834BF7
:1011A00001F0CCF9041C301C0D1C02F04BFF804AEE
:1011B000804B02F04FF9021C0B1C201C291C01F073
:1011C000BDF9041C0D1C02F009FF724B704A069019
:1011D000291C201C01F08AF900280DD0069802F085
:1011E00031FF0B1C021C291C201C01F079F9069C04
:1011F00043424341E41A0694069C01251395162C9C
:1012000010D8794AE300D31818685968049A059BE6
:1012100001F080F9002804D0013C002506941395C4
:1012200000E0139018980024861B351C0294013DA1
:10123000099504D5099C0025644202940995069CF1
:10124000002C06DB099D12942D19002409950D949C
:1012500007E0069C029D2D1B0295654200240D951A
:101260001294209D0124092D24D8052D02DD043D72
:101270002095002420980238032823D801F066F82E
:10128000060E0204012502E0012508E00025109564
:10129000219D002D1FDD0C95089509E00025109576
:1012A0000698219D2D180C9501350895002D18DD07
:1012B0002B1C17E0634200250C9308932095109493
:1012C000122306E001256B4210950C93089300252C
:1012D0001223219506E001250C9508952B1C2195DC
:1012E00000E0012307980022456A6A600422101C6E
:1012F00014306968984203D8013169605200F6E7FA
:10130000079800F097FC2860079D6B6A089D1B6892
:101310000B930E2D00D987E1002C00D184E1049CB1
:10132000059D14941595069D002D61DD2A1C0F2343
:101330001A402D49D2008A18146855680E940F95EA
:10134000069D2A4C2F110225F80617D51F40149828
:101350001599226A636A01F013FC03250490059134
:101360000CE0F90708D50E980F992268636802F01F
:1013700071F80E900F9101357F100834002FF0D1D5
:10138000049805990E9A0F9B01F0FAFB4EE0C046B7
:101390000000000000000000000000000000F83F16
:1013A00061436F63A787D23FB3C8608B288AC63F6B
:1013B000FB799F501344D33F0000F07F0F270000BC
:1013C000A54100009C4100009B4100000000F03F4F
:1013D00001FCFFFFEFFBFFFF120400000EFCFFFF0C
:1013E000EEFBFFFF000010FE18420000E04200008C
:1013F000069C02256742002F1AD00F233B40CC4A9F
:10140000DB00D318149815991A685B6802F022F86B
:10141000C84E3F11002F09D0FA0704D5326873680F
:10142000013502F017F87F100836F3E704900591B4
:10143000139C002C1ED0049E059FB44BB24A301C56
:10144000391C01F053F8002814D0089C002C11D04E
:101450000C9C002C00DCE3E0069C301C013C391C99
:10146000AB4AAC4B119401F0F5FF013504900591A6
:101470000C9C02E0069C1194089C281C049E059F6D
:101480000E9402F0DFFD321C3B1C01F0E3FFA24A88
:10149000A24B01F053F8041CA74808180E990490B9
:1014A000051C00291BD19E4A9E4B301C391C02F0A2
:1014B00061FA221C049B061C0F1C01F02BF800286B
:1014C00000D05CE2221C8025049C2D06301C391CB7
:1014D000631901F00BF8002800D047E2A0E00E9A53
:1014E000934B013A1098D2009B18002849D01A68F3
:1014F0005B688D488D4901F043FB2B1C221C02F0D8
:1015000039FA049005910B9D391C301C02F066FDE0
:10151000041C02F097FD021C0B1C301C391C02F04D
:1015200029FA01356B1E30341C70049A059B061C89
:101530000F1C00F0DBFF002800D053E3321C3B1CE3
:101540007249714802F016FA049A059B00F0CEFF2A
:10155000002800D0CBE00B9C2B1B0E9CA3425FDA33
:10156000049805996A4A6B4B01F074FF684A694B0D
:1015700004900591301C391C01F06CFF061C0F1CF7
:10158000C2E718685968221C2B1C01F063FF0B9CF2
:101590000E9D0490059165191795391C301C02F0B9
:1015A0001DFD051C02F04EFD021C0B1C301C391CDD
:1015B00002F0E0F930352570179D0134061C0F1C30
:1015C000AC4226D10E980B9C574A584B25180498CC
:1015D000059900F0B3FF021C0B1C301C391C00F0F5
:1015E00099FF002800D082E0049A059B4E484F499D
:1015F00002F0C0F9021C0B1C301C391C00F076FFF5
:1016000000280DD06B1E1A78302A00D0EAE21D1C8B
:10161000F8E73F4A3F4B01F01DFF061C0F1CBCE7DB
:10162000149C159D04940595199B002B00DA9FE0EE
:10163000069D0E2D00DD9BE03D4AEB00D3181C6893
:101640005D6802940395219D002D14DA089C002CFE
:1016500011DC00D08CE1324A324B0298039901F040
:10166000F9FE049A059B00F05FFF089F3E1C0028CE
:1016700000D07FE187E10B9D049E059F029A039BAA
:10168000301C391C01F07CFA02F0A8FC041C02F0AA
:10169000D9FC029A039B01F0DDFE021C0B1C301CDE
:1016A000391C02F067F90135021C201C30300B1C7C
:1016B000691E08700B98291A0898814248D1101C9D
:1016C000191C00F03BFF029A039B061C0F1C00F044
:1016D00021FF00280DD1301C391C029A039B00F019
:1016E000FFFE002800D17FE2E10702D47CE2119CDA
:1016F00006946B1E1A78392A26D10B9CA3421DD062
:101700001D1CF6E7C046C046000000000000F03F88
:1017100000000000000024400000000000001C4009
:101720000000000000001440000000000000E03F46
:1017300018420000E04200000000C0FC069C30227D
:10174000013406940B9C22701A7801321A704BE215
:10175000101C191CC94BC84A01F07CFEC84AC94B71
:10176000061C0F1C00F0BCFE002800D186E73BE2FF
:10177000109D002D31D0209C012C0BDC169D002DDE
:1017800002D0C1481B1802E0189936235B1A0D9D40
:10179000029C16E0089D0D9C013DAC4201DB651BDF
:1017A00006E00D9C0D952B1B129C0025E41812944D
:1017B000089C002C03DA02980023041B01E0029C21
:1017C000089B0299099AC9180291D2180798012119
:1017D000099200F007FB061C02E00D9D029C109E82
:1017E000002C0CD0099B002B09DDA34200DD231C3B
:1017F00002980999C01AC91A0290E41A09910D9A1F
:10180000002A21DD109B002B18D0002D10DD311C8B
:101810002A1C079800F07EFB061C311C0A9A0798C8
:1018200000F0E9FA0A99071C079800F03BFA0A97BA
:101830000D98421B08D007980A9902E007980A9968
:101840000D9A00F067FB0A900798012100F0CAFA90
:10185000129D071C002D05DD391C07982A1C00F07D
:1018600059FB071C20980025012810DC0499A94287
:101870000DD1059A1303AB4209D1844B134206D014
:10188000029D01350295099D0135099501251299A1
:101890000120002908D03B6903339B00FB185868DE
:1018A00000F057FA2023181A099A1F2380181840AD
:1018B0000DD020231B1A042B06DD1C23181A029BB3
:1018C00024181B18029308E0042B08D0181C029956
:1018D0001C300918099A0291241812180992029BC7
:1018E000002B05DD07980A991A1C00F065FB0A9089
:1018F0000998002805DD391C0798099A00F05CFB5F
:10190000071C139900291BD00A98391C00F0A6FB6C
:10191000002815DA069A0023013A069207980A99D8
:101920000A2200F0D8F90C9B0A901098089300281E
:1019300006D0311C07980A22002300F0CCF9061CBF
:10194000089900292ADC209A022A27DD002911D1D2
:10195000391C07980522089B00F0BDF9071C391CAB
:101960000A9800F07BFB00280DDC03E00E9F00E0EE
:1019700000273E1C219C0B9DE44306940BE0119D27
:101980000E9F06953E1C0B9C31232370069C0B9DDD
:10199000013401350694029600260FE110980028C4
:1019A00000D1C5E0002C05DD311C0798221C00F099
:1019B00003FB061C0296002D12D07168079800F0F8
:1019C00039F93269311C0232041C92000C310C309E
:1019D000FEF760FF0798211C012200F0EDFA02904B
:1019E0000B9C089D231C013B5B1909941093391C27
:1019F0000A98FFF7A9FA311C0D90041C0A9800F010
:101A00002DFB391C0C90029A079800F042FB051C34
:101A1000C0683034002805D10A98291C00F01EFB4C
:101A2000089001E001210891291C079800F03AF97B
:101A3000089B209D2B430DD104980123034209D11B
:101A4000392C44D00C9D002D01DD0D9C3134099DB5
:101A5000013544E00C9D002D03DA089D002D17DCB4
:101A600028E00C9B209D2B4329D10498012303429D
:101A700025D1F2E7C046C046000000000000244027
:101A80000000000000000000330400000000F07FB0
:101A90000A990798012200F08FFA391C0A9000F089
:101AA000DDFA002802DC05D1E10703D5392C0ED080
:101AB0000D9C3134099D099A013514707EE0099D11
:101AC00001350C95089D002D0CDD392C05D1099DA3
:101AD000099C3923013523705BE00C9D0134099882
:101AE00004706BE00999109A0C9D0C7091423DD0E6
:101AF0000A990A220023079800F0EDF8029C0A9048
:101B0000311C07980A220023A64204D100F0E3F812
:101B1000061C029009E000F0DEF80299061C0A2279
:101B20000798002300F0D7F802900C9D09955EE716
:101B30000B9D391C0A98FFF707FA041C30340B98E8
:101B400008992C7001352B1A8B4207DB0B1E00DC29
:101B500001230B9A0296D518002607E007980A99E8
:101B60000A22002300F0B7F80A90E2E70A990798E2
:101B7000012200F021FA391C0A9000F06FFA0028C7
:101B800007DC15D1E30704D412E00B9CA34205D077
:101B90001D1C6B1E1A78392AF7D006E0069C3123EB
:101BA000013406940B9C237008E001321A7005E0A2
:101BB0006B1E1A78302A01D11D1CF9E70798391CD1
:101BC00000F070F8029C002C0ED0002E05D0A6422A
:101BD00003D00798311C00F065F80798029900F0CF
:101BE00061F801E0119C069407980A9900F05AF8F0
:101BF00000232B70069B229C01332360249C002C25
:101C000003D0256001E0024800E00B981BB0F0BD56
:101C10009A410000C046C046004870476800002056
:101C200008B5034B011C186800F000FB08BDC04656
:101C30006400002070B5456A041C0E1C002D07D1FD
:101C40001020FFF7EDFF6062456085600560C560AC
:101C5000656AEB68002B09D0636AB200DB689A18EA
:101C6000106800280ED00368136017E0201C0421C0
:101C7000212200F0CDFA636AE860DB68002BEBD12B
:101C800000200EE001210D1CB5406A1D9200201CB1
:101C900000F0BEFA0028F3D04660856000220261A1
:101CA000C26070BD70B5446A061C0D1C002C07D1C3
:101CB0001020FFF7B5FF7062446084600460C46068
:101CC000002D07D0726A6968D2688B00D3181A6831
:101CD0002A601D6070BDF7B50C1C1E1C0D69071C29
:101CE000143100230868013380B2504380198446C0
:101CF000060C0868000C50433018060C00040190D4
:101D0000604680B2844601988444604601C1AB427B
:101D1000E8DB002E1BD0A3689D4212DB6168381CF3
:101D20000131FFF787FF2269211C023201900C313B
:101D300092000C30FEF7AEFD211C381CFFF7B2FFFD
:101D4000019C2B1D9B00E31801355E602561201C62
:101D5000FEBD0022031C010C914201D1030410229C
:101D6000190E01D108321B02190F01D104321B01D7
:101D7000990F01D102329B00002B04DB2020590077
:101D800002D5501C00E0101C704703680722011C9C
:101D90001A400BD001220020134222D1022003421C
:101DA00001D0D3401BE09B080B601AE098B20028DA
:101DB00001D11B0C1022D8B2002801D108321B0A15
:101DC000180701D104321B09980701D102329B0880
:101DD000D80704D45B082020002B02D001320B600E
:101DE000101C704710B50C1C0121FFF723FF0123C5
:101DF0004461036110BDF0B50C1C151C0969126922
:101E00008BB0914202DA231C2C1C1D1C27692E6901
:101E1000A268BB1961680293934200DD0131FFF7AC
:101E200009FF031C03900298143382009A18191CAE
:101E3000914202D2002001C1FAE714351434BF00E8
:101E4000AC46B600E7196644049407970996099EC4
:101E5000B44556D265462D880595002D1FD0049CAB
:101E6000191C00200F6840CCBFB2059D0697B7B281
:101E70006F43069D360CEF193F1808680891050C52
:101E800005984643380CAD192D18280CBFB22D0407
:101E90003D4320C1079DAC42E4D3089E7060674675
:101EA0007D88002D22D000261868049C191C0196FC
:101EB000278880B26F430697069E4F880591F619D2
:101EC000019FF71906973F043843086001CC8F88BB
:101ED000000C6843C019069F04313E0C8019079F0F
:101EE000060C0196A742E3D8059948600425AC4446
:101EF0005B19ACE7043A1068002805D1029F013F46
:101F00000297029D002DF5DC039F029E381C3E6166
:101F10000BB0F0BD0323F7B51340051C0E1C141CB9
:101F2000002B07D0224A013B9B009A580023FFF761
:101F3000D2FE061CA410019437D06C6A002C07D185
:101F40001020FFF76DFE6862446084600460C46026
:101F50006F6ABC68002C10D1281C1649FFF742FF9D
:101F60000023B860041C036007E0019B5B10019331
:101F70001BD0206800280FD0041C019BDB07F4D580
:101F8000311C221C281CFFF736FF311C071C281CA3
:101F9000FFF788FE3E1CE8E7281C211C221CFFF7E7
:101FA0002AFF002320600360E6E7301CFEBDC04628
:101FB0000843000071020000F0B50C1C85B00390CE
:101FC000206955112818029049680130A368171C30
:101FD0000090009A9A4202DD01315B00F9E7039814
:101FE000FFF728FE021C061C14320023AB4204DA61
:101FF0009900002050500133F8E7EB43DB171D40F8
:10200000AD0020695519221C143283009B189C4690
:102010001F231F4014D02023DB1B019300231068D3
:10202000291CB840034308C508CA0198C340944519
:10203000F5D84B60002B07D002990231009103E0E4
:1020400008CA08C59445FBD8009B0398013B33613F
:10205000211CFFF727FE301C05B0F0BD10B502694A
:102060000C69031C101B13D11A1CA000143214316C
:1020700013180918043B04391C680868844204D00A
:10208000844280410123184302E09342F2D80020A9
:1020900010BDF0B5071C85B0081C0D1C111C141CCC
:1020A000FFF7DCFF061E07D1381C311CFFF7C2FD0D
:1020B00001230361466150E0002801DB002603E0B4
:1020C0002B1C0126251C1C1C6968381CFFF7B2FD5F
:1020D0002A692B1C14339100591802912169251C7F
:1020E000143589006918041C0391C660143400215A
:1020F00040CB80CDB446B6B27118BEB28E1B6146DD
:1021000001963F0C0E0CF71B019E043431147F180E
:1021100039143F040097019F261FB446BEB2009FAA
:10212000374366463760039FBD42E1D3029E251CBC
:10213000B3420BD280CBBDB26D182E143F0CF619F2
:102140003114ADB23604354320C4EFE7043D2F68A7
:10215000002F01D1013AF9E7026105B0F0BD00009E
:10216000F7B501211D1C141CFFF764FD6F002B0344
:10217000061C1B0B7F0D02D08022520313430193D8
:10218000002C19D068460094FFF7FFFD009A002844
:1021900009D0019B20211C1C091A8C402243C340FA
:1021A0007261019300E07261019CB461634263411A
:1021B0000224E41A346107E001A8FFF7E6FD019963
:1021C0000124716134612030002F09D00D4A089C30
:1021D000BF183F1827603523099C181A20600EE0AD
:1021E0000949089A40180949106063189B00F318C0
:1021F0005869FFF7AEFD6401099A241A1460301C77
:10220000FEBDC046CDFBFFFFCEFBFFFFFFFFFF3F44
:1022100038B5151C4D43291C00F008F8041E03D0E6
:1022200000212A1CFEF73FFB201C38BD70B503239C
:10223000CD1C9D430835061C0C2D01D20C2501E058
:10224000002D3FDB8D423DD3204B1C681A1C211C06
:10225000002913D00868431B0DD40B2B02D90B6047
:10226000CC181EE08C4202D1636813601AE0486803
:1022700060600C1C16E00C1C4968E9E7144C2068EF
:10228000002803D1301C00F04FF82060301C291CBE
:1022900000F04AF8431C15D0C41C03239C4384421D
:1022A0000AD12560201C0B300722231D9043C31A3E
:1022B0000BD05A42E25008E0211A301C00F034F8EA
:1022C0000130EED10C233360002070BDF4000020FB
:1022D000F000002030B50B1C041C021C1C43022023
:1022E000002C17D080242406A34201D1002A11D04B
:1022F000094859004908094C0D180420A54209D97C
:10230000074C0320A14205D9064C0020A14201D16F
:102310005042504130BDC0460000F0FFFFFFDF7F5C
:10232000FFFF0F000000F07F38B5074C0023051CAD
:10233000081C2360FEF770FA431C03D12368002BAE
:1023400000D02B6038BDC0460401002002B47146A5
:1023500049084900095C49008E4402BC7047C046E8
:10236000002934D00123002210B488422CD3012448
:102370002407A14204D2814202D209011B01F8E7DD
:10238000E400A14204D2814202D249005B00F8E796
:10239000884201D3401A1A434C08A04202D3001BC2
:1023A0005C0822438C08A04202D3001B9C082243F5
:1023B000CC08A04202D3001BDC082243002803D033
:1023C0001B0901D00909E3E7101C10BC7047002865
:1023D00001D00020C04307B4024802A14018029077
:1023E00003BDC046D90000000029F0D003B5FFF7B7
:1023F000B9FF0EBC4243891A1847C046002941D094
:1024000010B4041C4C40A44601230022002900D52E
:102410004942002800D5404288422CD30124240799
:10242000A14204D2814202D209011B01F8E7E40073
:10243000A14204D2814202D249005B00F8E78842FF
:1024400001D3401A1A434C08A04202D3001B5C0877
:1024500022438C08A04202D3001B9C082243CC08D4
:10246000A04202D3001BDC082243002803D01B0932
:1024700001D00909E3E7101C6446002C00D5404256
:1024800010BC7047002806D003DB0020C043400882
:1024900001E08020000607B4024802A14018029023
:1024A00003BDC046190000000029EBD003B5FFF7BB
:1024B000A7FF0EBC4243891A1847C0467047C04662
:1024C0008446101C62468C46191C634600E0C046D8
:1024D0001FB500F041FF002801D40021C8421FBDF4
:1024E00010B500F071FE4042013010BD10B500F093
:1024F00033FF002801DB002010BD012010BDC046C5
:1025000010B500F029FF002801DD002010BD0120DA
:1025100010BDC04610B500F0A1FE002801DC00206F
:1025200010BD012010BDC04610B500F097FE002878
:1025300001DA002010BD012010BDC046F8B55F468D
:10254000564644464D46F0B40C034D00CE0F610A8A
:10255000440F2143C400180380465800400D8246B2
:10256000D80F84464046400A530F0343D0006D0DF8
:10257000371C83465246664500D1A4E0AF1A002FAF
:1025800000DC09E1002A3BD1184300D0EAE06307F0
:1025900000D187E00F232340042B00D182E0221DCD
:1025A000A242A4416442802309191B040B40371C3A
:1025B000141C002B00D17CE0CE4B01359D4200D194
:1025C00005E1CD4BE40819404807490204430B0BD1
:1025D000002000211B031A0B0B0D6D051B05134377
:1025E0006A08C64DFF071D4015436D006D08291C84
:1025F0003943201C3CBC90469946A246AB46F8BDE8
:10260000BC488542C3D0802000040343382F00DD3E
:10261000F0E01F2F00DD24E12020C01B1A1C8146A2
:1026200082405846F8400243944658464A469040F5
:10263000421E9041FB40624602431F1CA21A944274
:10264000A4416442C91B091B141C0B029FD54902FB
:102650004F0A002F00D1C8E0381C01F065FD021CB4
:10266000083A1F2A00DDB5E02821091A201C9740EE
:10267000C84007439440954200DDB2E0551B691CF9
:102680001F2900DDDCE01F22551B3B1C221CAB4038
:10269000CA40AC40651EAC411343CF401C43391CBB
:1026A000002574E780231B040B40371C002B00D04F
:1026B00082E7904B4807E4080443C9089D4248D08C
:1026C00009030B0B84E7AA1A9446002A00DC98E061
:1026D0005046002852D08748854200D157E78020D5
:1026E000000403436246382A00DDFCE01F2A00DDB7
:1026F0004AE120226046101A1A1C82408246914606
:1027000058466246D0404A46024390465846524692
:102710009040421E9041424602436046C340121917
:10272000A242A441644259180919141C080200D499
:102730002DE7704B01359D4200D122E16E4B6008C0
:102740001940012323401C1C0443CB071C434908A8
:102750001DE7231C0B433AD080231B030B431B03B1
:102760001B0B35E7013F002F65D15846221A9442D2
:10277000A4416442C91A091B141C66E75846184351
:1027800000D104E70122524294446046002800D060
:10279000C5E058460219C3E7002F73D1681C4005F5
:1027A000400D012800DCDEE05A46A21A9442BF41E7
:1027B000C81A7F42C71B380200D489E05A46141B4E
:1027C000A3459241591A52428F1A664641E70023A7
:1027D0000024FDE6271C283887400024954200DCB1
:1027E0004CE74549AD1A3940D1E6201C01F09CFC6C
:1027F000203034E75A461A43531E9A41D2B200277A
:102800001CE7002A00D0DCE0681C4205520D012ABA
:1028100000DC8DE0374DA84200D1F3E05D462A1977
:10282000A242A441644259180919CC075208144322
:102830004908051CABE62F48854200D0E6E6A6E62F
:102840002B1C1F3B3A1CDA40131C20296CD03F2262
:10285000551BAF403C43601E84411C4300210025B2
:1028600095E6381C20381A1CC240101C202F5DD061
:102870004022D71BBB405A461A43531E9A4102437B
:102880000027DBE6002D3BD01A4DAA4500D193E08E
:1028900080252D047F422943382F00DDACE01F2F17
:1028A00000DD29E12025ED1B081C261CA840FE4068
:1028B000AC400643651EAC413443F9405D462C1BD9
:1028C000A34592415B1A5242991A55466646BCE6A8
:1028D000131C3B43141C002B00D0BAE60027002138
:1028E00000250024E5E65A461A43531E9A41D2B207
:1028F000002314E7FF070000FFFF7FFFFFFF0F80AB
:102900000D1C254358D0FF43002F51D1041BA34574
:102910009241591A5242891A5546664695E696489A
:10292000854200D0DEE632E6002793E70023A2E7E7
:10293000081C2043002D00D0C4E0002800D1F7E09F
:102940005846184300D122E658460219A242A44133
:10295000644259180919141C0A0200D417E6874B5F
:102960000125194013E6081C2043002D39D1002809
:1029700071D15946194303D0191C5C46664606E6D8
:1029800000270021002494E6604620381A1CC2402B
:1029900060469146202800D1ACE04022121A9340B4
:1029A0005A461A43531E9A414B461A430023B6E631
:1029B000714DAA4500D06FE7191C5C465546664626
:1029C000E5E5002D22D10D1C254377D0D543002D00
:1029D00071D15C445C459241591852428918554660
:1029E000A4E600284DD15946194300D194E0191CA2
:1029F0005C466646604DCAE50C43611E8C41E4B2FC
:102A000000215BE7051C0021002452E65A4DAA452F
:102A100054D05542802210040143382D00DD81E05E
:102A20001F2D00DD92E02022501B0A1C84468240AC
:102A3000201CE8400243904662469440601E844158
:102A400042461443E9405C445C459241CB185242F3
:102A5000991855466AE65846184300D197E55846F6
:102A6000271ABC429241C81A5242801A020266D505
:102A70005846041BA3459241591A5242891A664688
:102A800085E55846184333D04807E40804438020BE
:102A9000C9080003014208D0DD08054205D15946A6
:102AA000CA085C071443291C6646630FC900194312
:102AB000E400314D6BE5304A9245AED1191C5C46BD
:102AC000554664E5002836D05846184310D0802576
:102AD0004807E408C9082D0304432942E5D0D80873
:102AE0002842E2D15D46EA085C071443011CDCE79A
:102AF000214D4CE5002353E73D1C203D0A1CEA40D4
:102B0000151C202F34D04026F71BB9400C43611E02
:102B10008C412C430021D1E680210027C903164DAA
:102B20000024C6E50C43611E8C41E4B200218AE713
:102B3000191C5C462BE5191C5C460F4D27E5031C50
:102B40003B4300D11CE7011C3C1C20E520204042F7
:102B500040190A1CC2409046202D0BD04020451B36
:102B6000A9400C43611E8C4145462C4300216AE775
:102B70000021CBE70021F4E7FF070000FFFF7FFF04
:102B8000F0B5564644465F464D46F0B41F1C0B0355
:102B90001B0B98464B0087B0041C81465B0DC80F89
:102BA000161C9A460090002B51D06A4B9A4531D0A2
:102BB0008022414652030A43630FD2001A43664BF8
:102BC00090460025E20091469A44002402953B037A
:102BD0001B0B9B46FD0F7B00311C5B0D019560D0EC
:102BE0005C4A934254D08021584649030143720FF6
:102BF000C9001143584A8B469B18F1000020009AE7
:102C000004436A4003920F2C00D9ADE0534EA40058
:102C10003459A746404604436ED1002102250824BA
:102C2000884689460295D2E7009C0298C3464946E9
:102C30000194022864D0032800D1ABE2012800D01F
:102C400038E2019A002402400025A14660E0434694
:102C500023434AD04046002800D1C0E101F064FA85
:102C6000031E272B00DDB3E128210D1A211C083B90
:102C70004246E9409A400D1C1543221C9A40A84642
:102C80009146374B00251B1A9A46002402959EE771
:102C90005A4616430320002EB1D1B346002102202C
:102CA000ADE75A4632431BD05B46002B00D18AE188
:102CB000584601F039FA272800DD7DE12822171A4D
:102CC000011C321C08395B46FA408B40171C1F431D
:102CD000331C8B40BB46191C214B1B1A00208EE76E
:102CE0000027BB460021012089E70020012504249C
:102CF0008046814602956AE703250C24029566E723
:102D0000019C0394039D01222A400024114DA146F9
:102D1000002000212403260B0C0D2405114B344305
:102D20002D0523402B435B005B08D207191C484646
:102D3000114307B03CBC90469946A246AB46F0BD55
:102D40000022802424039146024DE1E7002400255F
:102D5000A146DDE7FF07000001FCFFFF1443000070
:102D60000DFCFFFFFFFF0F805546ED1A0495D84577
:102D700000D953E100D14EE1049C0025013C4E46B0
:102D800004944746A946584603020C0E1C43090208
:102D9000250C23041B0C0091381C291C0193FFF700
:102DA000DFFA019983464143381C8A46291CFFF704
:102DB0001BFB330C090419438A450CD95B460919DE
:102DC000013B8C4200D947E18A4500D844E1022208
:102DD0005242934409195346CB1A181C291C984691
:102DE000FFF7BEFA071C0198291C7843824640462B
:102DF000FFF7FAFA36040B04360C33439A4509D927
:102E00001B197A1E9C4200D924E19A4500D821E181
:102E1000023F1B195E4632041743380CBB46009E26
:102E2000009F51463F0C32045B1A5946BA46120CB9
:102E30000F043F0C904651467A434F43414641436D
:102E400056467043CF19160CBE19B14202D98027DD
:102E50007F02C019310C12043604120C4018B61847
:102E6000834200D2C4E000D1BEE0191A4846861B56
:102E7000B145BF417F42CF1BA74200D113E1291CBE
:102E8000381CFFF76DFA019902904143381C8946BE
:102E9000291CFFF7A9FA330C0904194389450CD9F9
:102EA000029B0919013B8C4200D9FFE0894500D8FB
:102EB000FCE0029F0919023F02974F46CF1B381CC6
:102EC000291C0597FFF74CFA071C0198291C784329
:102ED00081460598FFF788FA36040904360C0E433C
:102EE000B14509D936197B1EB44200D9E0E0B1459D
:102EF00000D8DDE0023F3619029D4946761A2904C2
:102F000039430B0457460A0C1B0C404645465843B0
:102F100055437B437A43EB18070CDB199D4202D9DA
:102F200080256D0252191D0C00041B04000C52195F
:102F30001B18964235D300D1FCE001231943049EAF
:102F4000994FF519002D00DCA1E0480709D00F23A7
:102F50000B40042B05D00B1D8B42894149428B4409
:102F6000191C5A46D20107D5904B5C46049E802717
:102F70001C40FF00A346F5198D4B9D427ADD039C52
:102F80000122224000248B4DA146C1E68024240367
:102F9000474627424CD13C432403240B009A854DDD
:102FA000B6E63619481EB4425ED9011C9642C4D119
:102FB000009E9E42C1D1C2E7031C283B311C9940B0
:102FC0008B46002188E6301C01F0AEF8203072E616
:102FD000283B211C994000228846914651E6201C3E
:102FE00001F0A2F820303BE60021B14500D33DE7D7
:102FF000009F5A46B944B945BF417F423F19FB186B
:10300000013A9C421ED2984200D97EE000D1B5E040
:10301000191A93462AE7894500D8ADE64846464640
:1030200042467708D3074608C0071E438146AAE6F2
:103030005846204212D1044324032A1C240B8946FB
:103040005C4D65E6A342E3D1009F4F45DBD9211AD1
:1030500093460BE7171CDDE69B46BCE63C43240386
:10306000240B009A534D53E6B24259D800D18AE05E
:10307000011C62E75F46C9087B07039E0B437C0285
:103080006D0501229946240B6D0D324040E64A4BF6
:10309000049FDB1B382B10DD039C012222400024FF
:1030A0000025A14634E60121494248E7029304E79E
:1030B0001F1C21E7019C039441E71F2B40DC3F4884
:1030C000049F0C1C3A1858469140DC409040204325
:1030D0000A1C511E8A41011C11435A46DA40131C36
:1030E000480709D00F220A40042A05D00A1D8A4247
:1030F000894149425B18111C1A0234D5039C0122F4
:10310000224000240125A14602E6009F02214942F7
:10311000B9448B44B945894149420919CB18A4E601
:10312000009D881E6900A942AD416D422C193619D7
:1031300000913AE7002B00D033E70024009437E7F2
:103140001F4A049C5D46121BD5402A1C202B1FD011
:103150001C4E5F46A3199F403B1C19434B1E9941CF
:1031600011430023BCE75A07C9080A43039F91464D
:103170005B0201221C0B3A400025C9E54E45C4D82C
:103180009346002172E6009F9F42C9D3011C0FE7BE
:103190000023E2E7802424035F463C432403240BFE
:1031A000019A8946034DB3E5FF030000FFFFFFFED0
:1031B000FE070000FF07000002FCFFFF1E040000E6
:1031C000E2FBFFFF3E040000F0B55F4656464D4669
:1031D0004446F0B40D1C041C8046E80F81461803D9
:1031E0000F03000B3F0B83B084461B480097490038
:1031F0005E00DF0F490D9246760DBB4681420CD032
:103200001548864210D00120B14215D003B03CBC15
:1032100090469946A246AB46F0BD009F0120274349
:10322000F4D10D488642EED1604602430120002AC7
:10323000ECD10120B142E9D1009B6345E6D1D045F4
:10324000E4D1D94506D00029E0D11C43201C441EFE
:10325000A041DBE70020D9E7FF070000F0B55F469B
:1032600056464D464446F0B4CD0FDE0FAC461D0326
:103270002D0BB146374E0F034C00AB465D00804628
:103280003F0B640D92466D0DB44232D0314EB542C3
:1032900035D0002C0ED1384341424141081C002D4D
:1032A0000BD0002919D1CC452DD0654668420123A9
:1032B000184318E0002DF6D1281C59460A43534202
:1032C0005341002806D1002BEDD06346584201231C
:1032D000184308E00020002B05D14A4650425041D7
:1032E0004042012318433CBC90469946A246AB4657
:1032F000F0BD3E1C0643C9D002204042F3E75E46C3
:103300001643C6D0F8E7AC4207DC0BDA6146484208
:103310004841404201231843E5E7664670420123D5
:103320001843E0E75F450AD80ED000205F45DAD2A7
:10333000654668426841404201231843D3E762462C
:10334000504201231843CEE7D045F8D80020D0459D
:10335000EED3C8E7FF070000F0B556464D46444699
:103360005F46F0B40D1C83B0041C0190E80F814649
:1033700018030F03000B3F0B8446354800974900A4
:103380005E00DF0F490D9246760DB846814234D07B
:103390002F48864236D0002918D0002E1FD1341C69
:1033A00067463A4353425341002C1FD00020002B64
:1033B00005D142465042504140420123184303B0D8
:1033C0003CBC90469946A246AB46F0BD00980443EB
:1033D00060426041041C002EE2D00028E9D1C145C2
:1033E00015D04F46784201231843E8E7002BF6D06A
:1033F0004B46584201231843E1E7009F0220274330
:10340000DDD1C5E7674602201743D8D1C3E7B142F3
:1034100004DD4A46504201231843D0E7B14207DB9E
:1034200000986045E4D80AD0009F00206745C6D2C6
:103430004F4678427841404201231843BFE7019A42
:103440005245D5D8019A00205245F1D3B7E7C0467E
:10345000FF070000F0B5564644465F464D46F0B4BF
:103460001F1C0B031B0B9A464B0087B0041C8046A5
:103470005B0DC80F161C02938146002B68D0694B68
:103480000299994232D08022534652031A43D20005
:10349000630F1A439246644AE000891880460291FD
:1034A000002400253B031B0B9B467800FB0F321CBE
:1034B000400D039300D175E05A4B984269D08022A9
:1034C000594652030A43730FD2001A43564B934690
:1034D000C018F200002303994E4671401C430F2C84
:1034E00000D9A9E0514EA4003459A74653461C43C5
:1034F00000D087E00025AA46A84608240225D1E787
:103500004946022D6CD0032D00D117E2012D00D0C9
:1035100058E10D40EDB20024A9460023A04600204A
:10352000002125030A0D1C052D0B1205404B2A43D3
:10353000134023435B004C465B08E207191C4046DE
:10354000114307B03CBC90469946A246AB46F0BD3D
:103550005346234350D05346002B00D184E15046BC
:1035600000F0E2FD031E272B00DD76E128210D1A75
:10357000211C083B5246E9409A400D1C1543221C71
:103580009A40AA4690462B4B00241B1A0293002512
:1035900088E75B461E430323002E9CD1B3460022DE
:1035A000022398E75B46334321D05846002800D1D8
:1035B0004EE100F0B9FD272800DD42E128210F1A75
:1035C000021C311C083A5B46F94093400F1C1F4314
:1035D000331C9340BB461A1C164B181A00237AE77B
:1035E00001230B4000249946A0460E4B97E7002785
:1035F000BB46002201236EE7002104248A46884648
:1036000001254FE70C2403254CE700258024A9461B
:103610002403A846034B82E7DA46904603991D1C13
:103620006FE7C046FF07000001FCFFFF54430000A6
:10363000FFFF0F800DFCFFFF029F160C381804904F
:103640004046070C0004000C1204120C031C5343E8
:10365000041C3D1C7443554398463B1C734364193A
:10366000A44644460293230C63449D4204D9029D20
:10367000802464022D1902951D0C039545462C04E7
:103680001B04240C1C1905945C46230C051C584390
:103690002404240C8446381C604365435F43814600
:1036A000CC44280C6044BB46814502D980277F0268
:1036B000BB442D04070C2D0C000440195546BC4694
:1036C0002F04E3448446280C3D0C2F1C5743B84676
:1036D0002F1C77434243B94647463F0C9144BA46B4
:1036E000D14446434A4502D980225202B6184F4679
:1036F0003A0CB6183A0447463F043F0CB8462F1C14
:1037000067435D434443584365190190380C2D18B5
:103710004244B846AC4204D9019880235B02C018E9
:103720000190039C029F201C6044C0196045A44185
:1037300047466442A4462B043C049946240C4C445E
:10374000A046D8448018C246E2449042924157466F
:1037500052429146F219E245BF417F424B46BC4678
:10376000D845BF41D4187F4263461F432D0C7F19B3
:10377000B24292414C45AD4152426D421543019EC9
:103780007D19AB19E20D5B02059F134342023A43D8
:103790009A46531E9A41C30D101C184364022043DD
:1037A00080465046C0010DD5454601225646049C30
:1037B0006B082A401A43F30701341A43760804942D
:1037C0009046B246049E634FF319002B61DD4046DC
:1037D00040070BD00F2244462240042A06D042461E
:1037E0000432424580414042824490465546ED01B4
:1037F00007D5594B5646049F80201E40C000B24654
:103800003B18564A934200DDEAE644465546E20834
:103810006807104301226C025B050A408046240BB6
:103820005B0D91467BE6DA4690461D1C69E68024D6
:103830002403574627421CD13C432403240B484B06
:103840006DE6031C283B311C99408B460022C3E6E1
:10385000301C00F069FC2030ADE6283B211C99406B
:1038600000228A4690468EE6201C00F05DFC203047
:1038700078E65846204207D1044303992403240BD9
:1038800089469046364B4AE63C432403240B344B8E
:1038900045E6344B049E9B1B382B06DD01230B4071
:1038A00000249946A046002339E61F2B25DC049C02
:1038B0002D4D46466019524644468640DC408240C3
:1038C0005746301C2243DF40441EA04102433B1CAC
:1038D000540709D00F201040042805D0101D904235
:1038E000924152429B18021C1D021AD501230B4023
:1038F00000249946A046012311E61C48049C554625
:10390000001BC540281C202B16D0194E5746A21963
:1039100097403A1C43461A43531E9A4102430023E0
:10392000D6E758075B02D2081C0B01230B4010435B
:10393000994680460023F2E50022EBE78024240329
:1039400050460123044319402403240B8946044BA9
:10395000E5E5C046FF030000FFFFFFFEFE07000095
:10396000FF07000002FCFFFF1E040000E2FBFFFF58
:103970003E040000F8B55F46564644464D46F0B456
:103980000C034D00CF0F610A440F2143C4001803FC
:10399000DE0F8046B44646465800760A530F33433E
:1039A000D600D14A6D0DBA46400DB346904200D1C3
:1039B000F5E06246012672409446674500D1ABE0CF
:1039C0002F1A002F00DC11E100283ED15846184381
:1039D00000D0F1E0600700D197E00F232340042BD3
:1039E00000D122E1221DA242A44164428023091990
:1039F0001B04012750460B400740141C002B00D12C
:103A000079E0B94B01359D4200D10BE1B74BE40899
:103A100019404807490204430B0B002000211B03F7
:103A20001A0B0B0D6D051B0513436A08B04DFF07FC
:103A30001D4015436D006D08291C3943201C3CBCFA
:103A400090469946A246AB46F8BDA7488542C1D0EC
:103A5000802000040343382F00DDFDE01F2F00DD30
:103A600031E12020C01B1A1C5E468240FE403243DA
:103A700094465A468240101C421E9041FB406246CA
:103A800002431F1CA21A9442A4416442C91B091B91
:103A9000141C0A029ED549024F0A002F00D1D6E01D
:103AA000381C00F041FB021C083A1F2A00DDC3E06D
:103AB0002821231C091A9740CB401F43944095426C
:103AC00000DDC0E0551B691C1F2900DDEAE01F2254
:103AD000551B3B1C221CAB40CA40AC40651EAC4190
:103AE0001343CF401C43391C002573E780217E4DD2
:103AF0000027C90300247C4B4807E4080443C90895
:103B00009D4250D009030B0B87E780231B0401273C
:103B100052460B40174071E72A1A9446002A00DCEF
:103B2000A1E0002854D07048854200D152E780209F
:103B3000000403436046382800DD0EE11F2800DD45
:103B400057E162462020801A1E1C8640B1465E4620
:103B5000D6404A4632435E4686409046301C421E5E
:103B60009041424602436046C3401219A242A4411A
:103B7000644259180919141C080200D42AE75A4B48
:103B800001359D4200D131E1584B600819400123B5
:103B900023401C1C0443CB071C4349081AE71E435F
:103BA00000D00AE705E7231C0B433BD080231B030F
:103BB0000B431B031B0B30E7013F002F6DD15E460B
:103BC000A21B9442A4416442C91A091B141C60E759
:103BD0005846184300D1FDE601267642B4446046BB
:103BE000002800D0D0E05E463219BFE7002F00D099
:103BF00080E0681C4005400D012800DCE8E05A46E2
:103C0000A21A9442BF41C81A7F42C71B3E0200D489
:103C100098E05846041BA3459241591A52428F1A04
:103C2000E2463AE700230024F7E680231B0401273D
:103C300056460B403740E1E6271C283887400024D1
:103C4000954200DC3EE72949AD1A3940C2E6201C06
:103C500000F06AFA203026E75A461A43531E9A416A
:103C6000D2B200270EE7002A00D0DEE0681C46052D
:103C7000760D012E00DC90E01B4DA84200D1F5E04E
:103C80005E463219A242A441644259180919CC0770
:103C9000520814434908051C9CE61348854200D08D
:103CA000D9E697E62B1C1F3B3E1CDE40331C202927
:103CB0006FD03F22551BAF403C43601E84411C43E4
:103CC0000021002586E6381C20381E1CC640301C0A
:103CD000202F60D04022D71BBB405A461A43531EA8
:103CE0009A4102430027CDE6FF070000FFFF7FFF58
:103CF000FFFF0F80002D37D0B64DA84200D18FE0D6
:103D000080252D047F422943382F00DDA8E01F2F96
:103D100000DD24E12025ED1B0E1CAE40B046261C24
:103D2000FE404246AC401643651EAC413443F94068
:103D30005A46141BA34592415B1A5242991A051C1C
:103D4000E246A6E6131C3B43141C002B00D0A4E65D
:103D50000027002100250024CDE65A461A43531EB1
:103D60009A41D2B2002300E70D1C254358D0FF43EF
:103D7000002F51D15A46141BA3459241591A524261
:103D8000891A051CE24684E69248854200D0D1E6B5
:103D900020E6002790E700239FE7081C2043002D22
:103DA00000D0C2E0002800D1EFE05846184300D10F
:103DB00010E658460219A242A44164425918091952
:103DC000141C0A0200D405E6834B0125194001E6C4
:103DD000081C2043002D38D100286FD159461943C3
:103DE00003D0191C5C46E246F4E5002700210024BC
:103DF00081E6604620381A1CC2406646101C202E00
:103E000000D1AAE04022921B93405A461A43531E07
:103E10009A4102430023A8E66E4DA84200D073E702
:103E2000191C5C46051CE246D4E5002D22D10D1C70
:103E3000254376D0D543002D70D15C445C4592413A
:103E4000591852428918051C96E600284CD159464B
:103E5000194300D14AE6191C5C46E2465D4DB9E5BE
:103E60000C43611E8C41E4B2002161E7051C002176
:103E7000002440E6574DA84253D0554280221604F4
:103E80003143382D7BDC1F2D00DD8CE02022561BBA
:103E90000A1CB446B240261CEE40324390466246AD
:103EA0009440661EB44142461443E9405C445C457C
:103EB0009241CB1852429918051C5DE658461843AA
:103EC00000D187E55E46A71BBC429241C81A524208
:103ED000801A060260D55846041BA3459241591A20
:103EE0005242891AE24675E55846184333D04807CE
:103EF000E40804438020C9080003014208D0DD081B
:103F0000054205D15946CA085C071443291CE246FC
:103F1000630FC9001943E4002E4D5BE52D4A904222
:103F2000AFD1191C5C46051C54E5002830D058461A
:103F3000184310D080254807E408C9082D0304431E
:103F40002942E5D0D8082842E2D15D46EA085C075C
:103F50001443011CDCE71F4D3CE5002355E73D1CE5
:103F6000203D0E1CEE40351C202F2ED04026F71B86
:103F7000B9400C43611E8C412C430021D8E60C4310
:103F8000611E8C41E4B2002190E7191C5C4621E5DA
:103F9000191C5C460F4D1DE5031C3B4300D124E773
:103FA000011C3C1C16E52026764276190A1CF240BC
:103FB0009046202D0BD04026751BA9400C43611E56
:103FC0008C4145462C43002170E70021D1E70021B8
:103FD000F4E7C046FF070000FFFF7FFF70B50B1C32
:103FE000124C09030E0B5900021C490DDD0F002075
:103FF000A14211DD0E4881420FDC802040030643C0
:104000000C48401A1F280BDD0B4A521AD640321CAE
:104010005042002D00D1101C70BD084BE818FBE782
:10402000074BC240C9188E403243F1E7FE0300003F
:104030001D0400003304000013040000FFFFFF7F95
:10404000EDFBFFFFF8B5041E31D0C70F00D044428E
:10405000201C00F069F8184D2D1A0A2819DD0B38BC
:10406000844024036D05240B6D0D3A1C00260020AE
:1040700000210B0D2403240B1B0523430F4C2D059E
:104080001C402C4364006408D307211C301C1943D6
:10409000F8BD061C1536231CB3401E1C0B23181A32
:1040A000C44024036D05240B6D0D3A1CDFE700228C
:1040B000002500240026DAE71E040000FFFF0F8021
:1040C00010B5041E28D000F02FF8154A121A0A283D
:1040D00015DD0B38844024035205240B520D0023B8
:1040E000002000212403181C0B0D240B1B05234367
:1040F0000C4C12051C4014436400610810BD031CE5
:104100001533211C99400B1C0B21081AC4402403B1
:104110005205240B520DE3E7002200240023DFE7C1
:104120001E040000FFFF0F801C2101231B04984286
:1041300001D3000C10391B0A984201D3000A083938
:104140001B09984201D30009043902A2105C4018EF
:104150007047C04604030202010101010000000093
:1041600000000000DC0300003C0400003C040000F0
:10417000BC030000CE030000EA030000C0030000FF
:10418000F80300002C0400004300494E4600696E0D
:1041900066004E414E006E616E003000496E6669E9
:1041A0006E697479004E614E00000000000000004E
:1041B00000000000000000000000000000000000FF
:1041C00000000000000000000000000000000000EF
:1041D00000000000000000000000000000000000DF
:1041E00000000000000000000000000000000000CF
:1041F00000000000000000000000000000000000BF
:10420000000000000000000000000000504F534973
:1042100058002E0000000000000000000000F03FE9
:104220000000000000002440000000000000594091
:104230000000000000408F40000000000088C340E4
:1042400000000000006AF8400000000080842E4159
:1042500000000000D01263410000000084D79741A5
:104260000000000065CDCD41000000205FA00242AB
:10427000000000E876483742000000A2941A6D4220
:10428000000040E59C30A2420000901EC4BCD64213
:1042900000003426F56B0C430080E03779C34143BE
:1042A00000A0D8855734764300C84E676DC1AB4334
:1042B000003D9160E458E143408CB5781DAF154452
:1042C00050EFE2D6E41A4B4492D54D06CFF080442D
:1042D000F64AE1C7022DB544B49DD9794378EA4442
:1042E0000080E03779C34143176E05B5B5B89346F2
:1042F000F5F93FE9034F384D321D30F94877825ABE
:104300003CBF737FDD4F15750500000019000000EC
:104310007D000000682D0000042D00004C2D0000E1
:10432000322C00004C2D0000402D00004C2D0000D0
:10433000322C0000042D0000042D0000402D000050
:10434000322C0000282C0000282C0000282C000013
:104350008C2F000038360000263800002638000078
:104360001836000002350000023500000A36000051
:1043700018360000023500000A3600000235000041
:104380001836000000350000003500000035000040
:104390002E380000F8B5C046F8BC08BC9E467047F1
:1043A000D9000000F8B5C046F8BC08BC9E4670476E
:0443B000B100000058
:1043B4000100000000000000AC410000CC410000FE
:1043C400EC410000000000000000000000000000BC
:1043D4000000000088410000000000000000000010
:1043E40000000000000000000000000000000000C9
:1043F40000000000000000000000000000000000B9
:1044040000000000000000000000000000000000A8
:1044140000000000040000201242000013420000CB
:104424001342000013420000134200001342000034
:104434001342000013420000134200001342000024
:10444400FFFFFFFFFFFFFFFFFFFFFFFFFFFF000076
:0400000300000739B9
:00000001FF
