S01000004F4C45445F5350492E73726563A5
S1130000D0280020C9190000C5190000C519000036
S113001000000000000000000000000000000000DC
S1130020000000000000000000000000C5190000EE
S11300300000000000000000C5190000C519000000
S1130040C5190000C5190000C5190000C519000034
S1130050C5190000C5190000C5190000C519000024
S1130060C5190000751200008512000095120000E9
S1130070A5120000C5190000C5190000C51900002B
S1130080C5190000C5190000C5190000C5190000F4
S1130090C5190000C5190000C5190000C5190000E4
S11300A0C5190000C5190000C5190000C5190000D4
S11300B010B5064C2378002B07D1054B002B02D03A
S11300C0044800E000BF0123237010BD200000207D
S11300D0000000001029000008B5084B002B03D0D5
S11300E00748084900E000BF07480368002B03D015
S11300F0064B002B00D0984708BDC0460000000006
S11301001029000024000020102900000000000035
S1130110F0B583B06F46F87107370B4C0B4E201CBB
S1130120311C01220A4DA8478022D203094B5A618F
S1130130201C391C0122084B9847201C311C00222A
S1130140A84703B0F0BDC0467C000020B8080020DA
S11301501D0D000000440041090E0000F0B591B0EF
S1130160644B98470020644B98476449644B984714
S113017083001818400080221204624B5A61002840
S113018000D1A3E0604B586000229A60191C8022C1
S113019052020B681342FCD09DE00B681342FCD062
S11301A05A4C1823237000236370A37002A9012200
S11301B04A708B700A701820554B98472378D909D8
S11301C00022002903D15A09D2014E4952181F278F
S11301D03B400124211C9940916102AA1470002320
S11301E053609360137453749474D47413752421FA
S11301F0535409930A9380235B02D360454B936263
S1130200454BD362454B1363454B53633B4B93615F
S1130210444E301C4449454B98473568281C444B90
S113022098470740BC40434B1C603268D369002B9D
S1130230FCD12A68022313432B6001AC01236370B1
S11302400022A27023701620211C314DA8471720CC
S1130250211CA847802212042A4B9A61D520364CCF
S1130260A0478020A047A820A0473F20A047D32034
S1130270A0470020A0474020A0478D20A04714207D
S1130280A0472020A0470020A047A120A047C820C5
S1130290A047DA20A0471220A0478120A047FF20D2
S11302A0A047A420A047A620A047DB20A0474020C9
S11302B0A047D920A047F120A04720480021802250
S11302C0D2001F4B9847AF20A04710E080221204B1
S11302D00C4B9A6164E7802212040A4B9A610A4B20
S11302E0586000229A60191C8022520255E711B00E
S11302F0F0BDC046B51200007D17000040420F005B
S1130300751B00000044004110E000E0B808002024
S11303101D13000002001000020011000200120070
S1130320020013007C000020000C0042050B0000BA
S11303304912000000E100E011010000B8000020B3
S1130340731C0000F0B583B06F46F87107370B4C8F
S11303500B4E201C311C01220A4DA8478022D203D7
S1130360094B9A61201C391C0122084B9847201C18
S1130370311C0022A84703B0F0BDC0467C00002019
S1130380B80800201D0D000000440041090E0000C3
S113039070B50E480E4901220E4B984721200E4C91
S11303A0A0470020A0477F20A0472220A04700208C
S11303B0A0470720A047094C8023DB00E618084D1E
S11303C02078A8470134B442FAD170BD7C000020E3
S11303D0B80800201D0D000011010000B804002021
S11303E04503000038B50E480E4901220E4B9847CC
S11303F021200E4CA0470020A0477F20A0472220A8
S1130400A0470020A0470720A0478024E400084D0F
S11304100020A847013CA4B2002CF9D138BDC04645
S11304207C000020B80800201D0D00001101000010
S113043045030000014B18607047C0463C00002093
S113044010B5C9018A18064909688A185C1EE4B205
S113045001340023C15CD1540133A342FAD110BD4D
S11304603C000020024B1B68C0014118CA5470476D
S11304703C000020024B1B68C0014018185C704708
S11304803C000020F0B5474680B4041C151C43B260
S1130490002B22DB3F2920D8CE08F700C91B0127F7
S11304A08F40FBB29846301C211C0D4B9847021C10
S11304B0012D04D0002D06D0022D07D009E04346BB
S11304C01843C2B205E0B843C2B202E04346584002
S11304D0C2B2301C211C034B984704BC9046F0BDAB
S11304E07504000065040000F0B557464E464546C5
S11304F0E0B48418802C03DD80225242121AD2B256
S1130500002A53D0CC08E500491B01258D40A8469C
S1130510EFB2012B0BD0002B11D0022B46D1151CAE
S113052001388246244B9946244988462FE0151CFD
S113053001388246204B99462049884606E0151C1E
S1130540013882461C4B99461C4F0FE051466E18E9
S1130550F6B2201C311CC8473843C2B2201C311CDF
S1130560C047013DEDB2002DF0D11FE05346EE1817
S1130570F6B2201C311CC84741468843C2B2201C35
S1130580311CB847013DEDB2002DEFD10EE05346CA
S1130590EE18F6B2201C311CC8477840C2B2201CA9
S11305A0311CC047013DEDB2002DF0D11CBC90467A
S11305B09946A246F0BDC0467504000065040000DB
S11305C0F8B54F464646C0B4051C161C08AA177851
S11305D0002B0FD01C1C01398946084B98464B460A
S11305E0E118C9B2281C321C3B1CC047013CE4B2D0
S11305F0002CF4D10CBC90469946F8BDE9040000E7
S1130600F8B55F4656464D464446F0B4051C0F1CEB
S11306104378DB089A46D20893468378002B08D0A7
S1130620012B34D15046002831D000261B4989467D
S113063015E000245246002A1AD128E0E119C9B273
S1130640734368680219D25C4046C8470134E4B277
S11306502B78A342F2D80136F3B2534517D22B7844
S1130660002BF8D0002459468A19D2B29046E5E707
S11306700B4E2B78181C60436A6810185A461119DF
S1130680C9B23A1CB0470134E3B29A45F1D83CBC34
S113069090469946A246AB46F8BDC04665040000A4
S11306A041040000F0B54F464646C0B483B0061C72
S11306B00C1C407A03212A4B9847C7B2B37ABB4239
S11306C001D1002C0AD000230093002010218022A5
S11306D03023244CA0470122234B1A70B772002305
S11306E0009300201021062230231E4CA047707A6C
S11306F003211E4B9847CAB201321201D2B21C48E0
S113070000211C4B9847184B1B78002B22D07C00EF
S11307103C19E4B201377B00DF19BC4217DA337AA3
S1130720A34214D91025144A9146144B9846A300A9
S11307307268985807212A1C4B46C0470134E4B21A
S1130740BC4204DA1035EDB2337AA342EFD800226A
S1130750054B1A7003B00CBC90469946F0BDC046D8
S1130760751B0000C105000040000020FD1B0000B7
S1130770000000200106000008000020ED08000031
S113078030B583B0041C0023009300200021802294
S11307904023074DA847206800210022054B064D41
S11307A0A847201C0121054B984703B030BDC04623
S11307B0C105000008000020ED080000A5060000A7
S11307C008B50D2925D003D8FE20082924D022E01D
S11307D0262910D028291ED1437A027A013A93425D
S11307E002D10023437201E00133437200210B4B19
S11307F09847FF2010E0437A002B02D0013B43725C
S113080002E0037A013B43720021044B9847FF2026
S113081002E0407A00E0FF2008BDC046A5060000C3
S113082008B50248024B984708BDC046B8040020EA
S113083035040000F0B55F4656464D464446F0B4D4
S113084085B0061C8846141C03931A7A5B7A00212F
S113085000914046211C234DA84703990B78002B97
S113086039D10A7AD308510700D00133039A527A56
S1130870934603998A7AB61A5A4656435E43B6B2E9
S11308804B689E19A24607218946039A177A002FBE
S113089017D000240025E3B241465818C0B24A4696
S11308A01A4201D1357801366BB2002B03DA514676
S11308B001220D4B98476D00EDB20134E3B29F4223
S11308C0E9D853460133DBB29A465B46013BDBB2BF
S11308D09B46002BD9D105B03CBC90469946A24614
S11308E0AB46F0BDC105000085040000F8B54F46D5
S11308F04646C0B4041C884691461F1C0078002854
S113090017D00D1C0A2806D17B7A01334B44DBB285
S11309109946454609E00D2807D0291C4A463B1C48
S1130920064EB0473B7AED18EDB20134207800282A
S1130930E8D10CBC90469946F8BDC0463508000085
S113094010B5031C4908402099420CD30024C91A4D
S1130950601C80B28B4201D8041CF8E74020FF2CB5
S113096001D81480002010BD10B582B0041C0F4BB8
S11309701B78002B01D000290DD001A90C70132085
S11309800B4B984713200B4B9847084B5C70012284
S11309901A70002007E0054B5A781D20141B621EB4
S11309A094416442204002B010BDC046440000207F
S11309B095180000091800002E4B98421CD003D84B
S11309C02D4B984207D04AE02C4B984225D02C4B13
S11309D0984233D043E0012943D0002904D00229AE
S11309E006D0032906D001E0264841E000203FE07C
S11309F025483DE025483BE0012934D0002904D0B6
S1130A00022906D0032906D001E0032030E00020AB
S1130A102EE01F482CE01F482AE0012925D0002998
S1130A2004D0022906D0032906D001E01A481FE0A9
S1130A3000201DE019481BE0194819E0012916D0CF
S1130A40002904D0022906D0032906D001E0154864
S1130A500EE000200CE014480AE0144808E00020EE
S1130A6006E0134804E0134802E0134800E013488A
S1130A707047C046000C00420008004200100042CB
S1130A8000140042030004000300060003000700F2
S1130A9003001E0003001F000300080003000A00F7
S1130AA003000B00030010000300120003001300F6
S1130AB00300050003000100030009000300110006
S1130AC070B584B00E4A694670CA70C112680A6073
S1130AD0031C009A82420FD0019C844208D0029DDC
S1130AE0854207D00020039E9E4207D1032004E0E4
S1130AF0012002E0022000E00020C0B204B070BD7A
S1130B0050280000F0B5474680B488B0051C0C1C82
S1130B10161C29600B681C209A0700D5DFE00B68BF
S1130B200520DA0700D5DAE0081C6F4B98476F4BB5
S1130B30196A821C012797403A1C0A431A6207A9C2
S1130B402427F35D0B701430C0B28046684B98477D
S1130B504046684B9847F05D0021674B98473378CF
S1130B60012B03D122680C23134323603378002B19
S1130B7000D0B1E02268082313432360ACE0EA18F4
S1130B80D16004331C2BFAD10023EB62AB62002446
S1130B90AB862B863623EC543723EC543823EC54A1
S1130BA003236B722C7128684F4B9847071C5349D9
S1130BB0534B9847BF00534BFD502F6802AB802224
S1130BC01A705C7001229A70DC703378002B02D1A9
S1130BD0002202AB9A70B36A0393F06A0490326BFA
S1130BE00592736B06930024E1B2A30003AA9858FC
S1130BF0002802D1381C444A9047431C06D06A4658
S1130C001072000CC0B202A9404B98470134042C66
S1130C10EAD133786B71337CAB71B37CEB71337D88
S1130C202B7200226B46DA803378012B14D12868AA
S1130C302D4B98471430C0B2354B9847011CB0690E
S1130C406A460632334B9847031C1720002B46D1C3
S1130C506B4606331B783B733378002B0FD1B16995
S1130C60B38B786AF47F2404B27F224302437A620E
S1130C702022B25C002A04D04022134301E0002366
S1130C800021B26870680243F06802430A43317C71
S1130C900B43717C002903D11F498978880701D54A
S1130CA080210A43B17C002902D0802189020B43B0
S1130CB0F17C002902D0802189000B43317D002979
S1130CC002D0802189010B4339680A433A607A686B
S1130CD013437B60002002E0002300214FE708B0AB
S1130CE004BC9046F0BDC046C10A000000040040A8
S1130CF0951800000918000069090000251000007B
S1130D0009120000C0080020B90900007119000090
S1130D10B1180000410900000020004110B54479D9
S1130D201523012C6CD1047A0023002C68D1002AED
S1130D3057D04B78002B44D00268137EDC070FD4C5
S1130D400B78D9090022002903D15A09D2012D496F
S1130D5052181F210B4001219940916105234FE056
S1130D600B78DC090022002C03D15A09D201254C4E
S1130D7012191F24234001249C405461897803687C
S1130D801A7ED40700D59962C2790023002A37D18C
S1130D9002680421137E0B42FCD0117E00234C0711
S1130DA02ED5538B590703D5518B04230B435383FF
S1130DB08379012B02D1936A002321E0936A0023F3
S1130DC01EE00B78D9090022002903D15A09D20167
S1130DD00C4C12191F210B40012199405161002331
S1130DE00EE00B78D9090022002903D15A09D20157
S1130DF0044952181F210B4001219940916100239D
S1130E00181C10BD00440041F0B55F4656464D46DF
S1130E104446F0B483B0041C92463823C05CC0B28C
S1130E20052800D1F1E01720002A00D1EDE0637914
S1130E30002B05D12368187E820701D5022018767D
S1130E405546002001230226B4460427BB468FE002
S1130E506279002A01D0266816E02268167E1E42B6
S1130E6006D16D4E177E1F4202D1013E002EF9D1EC
S1130E70167E67463E4203D0022313760420C4E064
S1130E80127E1A42E7D1B3E0327E1A42FCD0421CF1
S1130E9092B290460F5CA279012A01D0404605E047
S1130EA0023080B242468A5C12021743327E1A42F2
S1130EB002D0FF05FF0DB7626A1E96B2E279002ADE
S1130EC001D1351C56E06279002A37D1534A019189
S1130ED02668377E1F421CD0471CBFB2B946019911
S1130EE0095C8846A779012F01D0484608E0023002
S1130EF080B201994F46C95D090247460F43B8467F
S1130F00377E1F4203D04746F905CF0DB762013D36
S1130F10ADB22668377E59460F4202D1013A002A03
S1130F20D6D10199327E67463A4203D00223337602
S1130F3004206AE0327E5E4632425BD02668327E0E
S1130F405F463A42FBD0327E3A420DD0728B3A422F
S1130F5004D0728B04273A4392B27283A279012A95
S1130F6001D1B26A00E0B26A5246013A92B29246A4
S1130F70013DADB22A4A954200D069E751466379F2
S1130F80012B05D1216802220B7E1342FCD033E0F1
S1130F90002B33D1E3790020002B36D000292FD049
S1130FA004251D4E042750461CE00A7E2A4202D125
S1130FB0013B002BF9D10B7E2B4223D00B7E2B421D
S1130FC00CD04B8B2B4203D04B8B3B439BB24B83BC
S1130FD0A379012B01D18B6A00E08B6A013880B2BE
S1130FE0002811D021680B7E2B42E4D1331CDCE7AE
S1130FF012200AE0122008E0002006E0002004E0AD
S1131000002002E0122000E0002003B03CBC904627
S11310109946A246AB46F0BD1027000011270000F8
S1131020FFFF0000F8B58000744BC45825683623D0
S1131030E35C3722A75C1F402B7EAE7D1E40F10788
S113104049D56379012B16D1637A002B0FD16C4BF0
S11310501B88AB62638E013B9BB26386638E9BB23B
S1131060002B01D101232B756379012B03D1637A02
S1131070002B05D12FE0002B2DD1637A002B2AD031
S11310802268E36A1978C9B2581CE062A079012881
S113109004D15878000201430233E362CB05DB0D2F
S11310A09362A38E013B9BB2A386A38E9BB2002BBB
S11310B011D101232B75637A012B0CD1E379002B19
S11310C009D10323637200223823E254FA0702D5BC
S11310D0201CE3689847710761D56B8B5A0714D5B8
S11310E0637A012B0BD01E223823E254032363724C
S11310F005232B753B0702D5201CA1698847AB6AE1
S11311006A8B042313436B8349E0637A012B16D162
S113111023689B6A638E013B9BB26386638E9BB29A
S1131120002B3CD104232B7500223823E2540323E3
S11311306372FA0733D5201CE36898472FE02368CD
S11311409A6AD205D20DD3B2A16A0B70A36A591C54
S1131150A162A179012904D1120A5A70A36A013348
S1131160A362238E013B9BB22386238E9BB2002B6A
S113117015D100223823E25404232B75637A022B01
S113118005D17A070BD5201C6369984707E0637A79
S1131190002B04D1B90702D5201C22699047B3075C
S11311A013D56379002B10D107232B7502232B76DB
S11311B0032363720023A386238638230022E25488
S11311C0F90602D5201CE269904733070AD56379F2
S11311D0002B07D108232B752B76B90602D5201CCA
S11311E0226A9047F60907D080232B752B767B065D
S11311F002D5636A201C9847F8BDC046C008002089
S1131200BC0800207047C04630B50B4B1B78002B40
S11312100ED10A4C0A4D25600A4B00221A60656003
S11312205A60A5609A60E560DA600122024B1A7088
S11312308000024BC15030BD480000204C0000200B
S113124005120000C008002030B583B0051C01ACB5
S1131250201C05490422054B9847281C044B984739
S1131260205603B030BDC04660280000611C000059
S1131270C10A000008B5024B1B680020984708BD4E
S11312804C00002008B5024B5B680120984708BD5C
S11312904C00002008B5024B9B680220984708BD0B
S11312A04C00002008B5024BDB680320984708BDBA
S11312B04C00002010B50020084B9847084CFA2138
S11312C08900A047074B1860FA218900A047064B04
S11312D018600522054B1A6010BDC0467D1700003A
S11312E0751B0000180000201400002010E000E02E
S11312F030B5084B1C68084A00258021490206E0E5
S1131300002C04D05460956013680B42FCD0013863
S1131310F6D230BD1800002010E000E000B583B024
S113132001AB80221A700A785A704A789A708A78C7
S1131330DA70191C014B984703B000BD7119000005
S11313407047C0460C4B1B68002B10D1EFF3108381
S1131350002B09D172B6BFF35F8F0022074B1A70BE
S11313600122074B1A7002E00022054B1A70024B4F
S11313701A6801321A6070475C0000201C000020CB
S113138060000020084B1A68013A1A601B68002BA1
S113139009D1064B1B78002B05D00122044B1A708F
S11313A0BFF35F8F62B670475C00002060000020CE
S11313B01C00002008B5082834D880001B4B1B589B
S11313C09F468020000230E0194B18692DE0194B2C
S11313D0186A8005800F184BC340181C25E0144B75
S11313E0586922E0124B1B68022018401DD0114995
S11313F01022CB681A42FCD00D4B1B685A0713D538
S113140000200E4B98470A4B9B681B041B0C584347
S11314100BE05023074AD35C00205A0705D5044B40
S1131420D86802E0002000E0054808BD64280000F8
S1131430640000200008004000127A00B118000087
S1131440006CDC0270B50C4B1C6A0178857840781E
S11314500122104080014026B44304432A40D001B5
S113146080229443221C02430320014009020348C2
S113147002400A431A6270BD00080040FFFCFFFFEF
S113148010B5027A9206120C43899B059B0D1A43F0
S1131490154B5A60818842881143C479827922436A
S11314A00A434178C9010A431A600378042B0FD117
S11314B0027B9206038A1A43C3891B040B490B401F
S11314C01A43094B9A60196804220A431A6009E016
S11314D0202B07D1028A044B9A6019688422D20017
S11314E00A431A6010BDC046640000200000FF03D8
S11314F0082843D88000224B1B589F4600203EE01A
S1131500204B196A02220A431A62002037E01D4B5D
S1131510996902220A439A61002030E0194B198A22
S113152002220A431A82002029E0164B998A0222D9
S11315300A439A82002022E0134B196802220A43CC
S11315401A601A68114B1A400E4B9A84191C102207
S1131550CB681A42FCD00C4A91680A4BD962516894
S11315609962126892B29A84002008E0054A4423E2
S1131570D05C02210143D154002000E017207047C1
S11315808828000000080040640000207FFF00005D
S113159030B58BB0C222D200274B9A60274B5A68D1
S11315A01E218A4302210A435A60012201AB1A70A8
S11315B00024234DE0B201A9A8470134252CF9D118
S11315C005A8002303700024438083808471C471C0
S11315D0072202723F234381062101824470027371
S11315E0C381184B984704A8447001238370047086
S11315F0154B98470620154CA047154B98470720D4
S1131600A0470D491022CB681A42FCD0114A00238E
S113161013725372937201A901224A604B700B72C8
S11316204B7207230B7000200B4B984700200B4B89
S113163098470BB030BDC046000800400040004150
S1131640951800008114000045140000F1140000F6
S113165061160000000400408516000039170000E0
S1131660064B996908220A439A610122044B1A70B5
S1131670191C0B781342FCD17047C046000400408B
S1131680000C0040F8B5061C071C0D782D0205431C
S11316904B78002B02D08023DB021D434B7A002BB6
S11316A002D080231B031D434C68012C17D9631EF1
S11316B01C420FD1022C06D90223002201325B0006
S11316C09C42FBD800E000221702374380235B03CF
S11316D01D4304E02702374380239B021D430B7AFA
S11316E0002B02D080239B031D430F4A53785BB227
S11316F0002BFBDB0D4B98470D4B1E700A4A5378A9
S11317005BB2002BFBDB084B9F601A1C53785BB267
S1131710002BFBDB044B5968802252020A4015431C
S11317205D60044B9847F8BD000C00404513000071
S1131730080C00408513000010B5041C0B4A5378B4
S11317405BB2002BFBDB0A4B98470A4B1C70074A21
S113175053785BB2002BFBDB044B596880225202A6
S11317600A435A60044B984710BDC046000C004021
S113177045130000040C00408513000070B5041CE0
S11317801A4A53785BB2002BFBDB194B9847194B71
S11317901C70164A53785BB2002BFBDB134E706847
S11317A0C004C00E144B9847051C124B1C7076687D
S11317B0F602F60F114B1C700C4A53785BB2002BE7
S11317C0FBDB0A4B9C68240AA4B20D4B9847002EFD
S11317D007D1012C07D9281C211C0A4B9847051C4A
S11317E001E00134E540281C70BDC046000C0040F7
S11317F045130000040C0040B5130000080C004021
S113180085130000751B000010B5041C064B984797
S1131810064B1C70064B59888022D2010A435A8019
S1131820044B984710BDC04645130000020C00400D
S1131830000C00408513000010B5041C0F4B9847A2
S11318400F4B1C700F4B58880005000F59880E4A27
S11318500A405A8059880D4A0A405A80191C80222D
S1131860D2014B881342FCD1064B01025888064A28
S113187002400A435A80064B984710BD45130000A6
S1131880020C0040000C0040FFF0FFFFFFBFFFFF11
S11318908513000010B50C7824020443024B9847CA
S11318A0A4B2024B5C8010BD39180000000C00404B
S11318B010B5041C064B9847064B1C70064B5C88FD
S11318C02405240F054B9847201C054B984710BD51
S11318D045130000020C0040000C0040851300007A
S11318E07D17000030B5D378002B1ED11378802BE0
S11318F004D01B0680246402234300E000235478B0
S11319000225AC430AD19478002C03D18024A4028C
S1131910234302E0C024E402234341605478013CA1
S1131920012C04D8114C234001E0416000230D0434
S11319302D0CA024E4052C431C4384620D0CD024FC
S113194024062C431C438462D478002C0CD15C0301
S113195005D59378012B01D1816100E04161537871
S1131960013B012B00D8816030BDC046FFFFFBFF67
S113197008B5031C0A1CC1090020002903D1580919
S1131980C001044940181F210B4001219940024B1A
S1131990984708BD00440041E51800007047C04660
S11319A008B5044B9847044B9847044B9847044B9D
S11319B0984708BD91150000411300009D190000CF
S11319C09D190000FEE7C04670B5022190235B001C
S11319D0284AD150284BD878032188430222104347
S11319E0D870DD780C24A54308200543DD70234B13
S11319F09E7B3025AE43202535439D739D7BA543B7
S1131A0028439873987B884302439A731C4B1D4A5E
S1131A109A4203D01C4B1A4A9A4204D31B4B1C4AC9
S1131A209A4210D31BE01B4B17480330C01A80089E
S1131A300130800000231249124AD458CC50043398
S1131A408342FAD1EAE7124B1A1D10490331891A6D
S1131A50890889005218002102C39342FCD10E4B1D
S1131A607F210E4A8A439A600D4B98470D4B984745
S1131A70FEE7C046007000410050004100480041AC
S1131A80000000201029000020000020D0080020C1
S1131A90200000200400002000ED00E00000000011
S1131AA0151C0000A91A0000F0B5474680B488B0A0
S1131AB0244CA047244B984703AB24491A1C61C902
S1131AC061C221C921C2224A0092019302236E46B7
S1131AD0B3720523337201237372A0471D4B9847D9
S1131AE01D4B9847B7201D4CA0471020A04700204D
S1131AF0A0471B4B984768461A4B98471A4B984780
S1131B0068462821194B9847C820194B9847002448
S1131B10012515488046154F154E02E00134E4B204
S1131B20002500234022A2425B415B421C40C04787
S1131B3068462821B847C820B0476B1CDDB21A0696
S1131B40EFD5EBE7A119000021080000AC28000044
S1131B50C0280000B51200005D0100001101000062
S1131B60E50300008107000091030000C1070000A5
S1131B70F1120000002934D00123002210B488425D
S1131B802CD301242407A14204D2814202D20901A8
S1131B901B01F8E7E400A14204D2814202D24900C9
S1131BA05B00F8E7884201D3401A1A434C08A0426C
S1131BB002D3001B5C0822438C08A04202D3001B02
S1131BC09C082243CC08A04202D3001BDC08224319
S1131BD0002803D01B0901D00909E3E7101C10BC3D
S1131BE07047002801D00020C04307B4024802A176
S1131BF04018029003BDC046190000000029F0D02F
S1131C0003B5FFF7B9FF0EBC4243891A1847C04613
S1131C107047C04670B50E4B0E4D0024ED1AAD1042
S1131C201E1CAC4204D0A300F35898470134F8E7D3
S1131C3000F05EFE084B094D0024ED1AAD101E1C89
S1131C40AC4204D0A300F35898470134F8E770BDC0
S1131C50FC280000FC280000FC28000000290000EB
S1131C6010B50023934203D0CC5CC4540133F9E78C
S1131C7010BD031C8218934202D019700133FAE795
S1131C8070470000F0E0C08000000F07030100006F
S1131C900000000000000000000000000000000040
S1131CA00000000000000000000000000000000030
S1131CB00000000000003000300030003000300030
S1131CC03000300000003000300000000000000050
S1131CD00000000000006C006C006C006C00000050
S1131CE000000000000000000000000000000000F0
S1131CF0000000000000000048004800FC0048000C
S1131D0048004800FC0048004800000000000000B3
S1131D10000000000000100010003C0040003000F3
S1131D20080004007800100010000000000000000B
S1131D3000000000000000007C00A400A80048008F
S1131D40100014002A004A004400000000000000B3
S1131D500000000000007000880088008800700007
S1131D6088008A008A008C007000000000000000D7
S1131D70000000000000100010001000000000002F
S1131D80000000000000000000000000000000004F
S1131D9000000000080010001000200020002000B7
S1131DA020002000200010001000080000000000A7
S1131DB000000000200010001000080008000800C7
S1131DC008000800080010001000200000000000B7
S1131DD0000000000000280010007C001000280013
S1131DE000000000000000000000000000000000EF
S1131DF000000000000000000000000010001000BF
S1131E001000FE0010001000100000000000000090
S1131E1000000000000000000000000000000000BE
S1131E20000000000000180018003000200000002E
S1131E30000000000000000000000000000000009E
S1131E400000FE0000000000000000000000000090
S1131E50000000000000000000000000000000007E
S1131E60000000000000180018000000000000003E
S1131E70000000000000000004000800080010003A
S1131E80100020002000400040000000000000007E
S1131E900000000000007800840084008C0094009E
S1131EA0A400C40084008400780000000000000046
S1131EB0000000000000100030005000100010006E
S1131EC010001000100010007C0000000000000052
S1131ED000000000000070008800080008001000E6
S1131EE01000200020004000FC0000000000000062
S1131EF000000000000070008800080008003000A6
S1131F0008000800080088007000000000000000BD
S1131F100000000000000800180028002800480005
S1131F2088008800FC000800080000000000000091
S1131F300000000000007C0080008000B800C400A5
S1131F400400040004008400780000000000000085
S1131F500000000000003800400080008000B00055
S1131F60C800840084004800300000000000000025
S1131F70000000000000FC00040004000800080049
S1131F8010001000200020004000000000000000AD
S1131F9000000000000078008400840084007800C1
S1131FA084008400840084007800000000000000A5
S1131FB000000000000078008400840084008C008D
S1131FC07400040008001000E0000000000000009D
S1131FD000000000000000000000000000003000CD
S1131FE0300000000000300030000000000000005D
S1131FF0000000000000000000000000000060007D
S113200060000000000060006000C000800000006C
S113201000000000000000000000000004001800A0
S11320206000800060001800040000000000000050
S113203000000000000000000000000000007E001E
S1132040000000007E00000000000000000000000E
S1132050000000000000000000000000400030000C
S11320600C0002000C0030004000000000000000E2
S11320700000000000007000880008000800100044
S113208020002000000020002000000000000000CC
S1132090000000000000000000003C004200BA0004
S11320A0AA00AA00AA00BC0040003C0000000000F6
S11320B00000000000001000100028002800280084
S11320C044007C0044008200820000000000000004
S11320D0000000000000F000880088008800F00084
S11320E08800880088008800F000000000000000DC
S11320F000000000000038004400800080008000E0
S113210080008000800044003800000000000000CF
S1132110000000000000F0008800840084008400B7
S11321208400840084008800F000000000000000A7
S11321300000000000007C004000400040007800E7
S113214040004000400040007C000000000000000F
S11321500000000000007C004000400040004000FF
S113216078004000400040004000000000000000F3
S1132170000000000000380044008000800080005F
S11321809C008400840044003C0000000000000027
S11321900000000000008400840084008400FC002F
S11321A08400840084008400840000000000000097
S11321B00000000000007C0010001000100010005F
S11321C010001000100010007C000000000000004F
S11321D0000000000000F8000800080008000800E3
S11321E00800080008001000E000000000000000E3
S11321F00000000000008400840088009000A0001B
S1132200D0008800880084008400000000000000E2
S1132210000000000000800080008000800080003A
S11322208000800080008000FC00000000000000AE
S113223000000000000084008400CC00CC00B40046
S1132240B4008400840084008400000000000000C6
S11322500000000000008400C400C400A400A40026
S1132260940094008C008C008400000000000000A6
S11322700000000000003000480084008400840056
S11322808400840084004800300000000000000046
S1132290000000000000F000880084008400840036
S11322A08800F00080008000800000000000000032
S11322B00000000000003000480084008400840016
S11322C08400840084004800300020001C000000CA
S11322D0000000000000F0008800840084008800F2
S11322E0F0009000880084008400000000000000DA
S11322F000000000000078008400800040003000EE
S113230008000400040084007800000000000000BD
S1132310000000000000FE0010001000100010007B
S11323201000100010001000100000000000000059
S11323300000000000008400840084008400840005
S11323408400840084008400780000000000000001
S113235000000000000082008200440044004400A9
S1132360440028002800280010000000000000009D
S11323700000000000008400840084008400B40095
S1132380B400B400780048004800000000000000D9
S113239000000000000082004400440028001000F7
S11323A010002800440044008200000000000000E7
S11323B000000000000082004400440028002800BF
S11323C028001000100010001000000000000000A1
S11323D0000000000000FC000400080008001000D9
S11323E01000200040004000FE000000000000003B
S11323F000000000E0008000800080008000800079
S113240080008000800080008000E0000000000068
S113241000000000000040004000200020001000E8
S11324201000080008000400040000000000000080
S113243000000000E0002000200020002000200018
S113244020002000200020002000E0000000000008
S113245000000000000010002800440000000000FC
S11324600000000000000000000000000000000068
S11324700000000000000000000000000000000058
S113248000000000000000007C00000000000000CC
S11324900000000000002000100008000000000000
S11324A00000000000000000000000000000000028
S11324B0000000000000000000000000780004009C
S11324C004007C0084008C00760000000000000002
S11324D0000000008000800080008000B800C4007C
S11324E08400840084008800F000000000000000E4
S11324F00000000000000000000000007C008000DC
S113250080008000800080007C000000000000004B
S11325100000000002000200020002003E0042002F
S113252082008200820042003E00000000000000A1
S11325300000000000000000000000007C00820099
S11325408200FE00800080007E0000000000000089
S11325500000000000001C0020002000FC002000FF
S11325602000200020002000FC00000000000000EB
S11325700000000000000000000000007C00840057
S11325808400840084008C0074000400440038003B
S1132590000000008000800080008000B800C400BB
S11325A08400840084008400840000000000000093
S11325B00000000000001000000000007000100087
S11325C010001000100010007C000000000000004B
S11325D0000000000000080000000000780008006F
S11325E00800080008000800080008001000E000C7
S11325F000000000800080008000800088009000BF
S1132600A000E000900088008400000000000000AA
S1132610000000000000F000100010001000100086
S11326201000100010001000FE0000000000000068
S1132630000000000000000000000000AC00D40016
S113264094009400940094009400000000000000A2
S1132650000000000000000000000000B800C400FA
S113266084008400840084008400000000000000D2
S1132670000000000000000000000000780084005A
S113268084008400840084007800000000000000BE
S1132690000000000000000000000000B800C400BA
S11326A08400840084008400F8008000800080009E
S11326B00000000000000000000000007C00840016
S11326C084008400840084007C000400040004006E
S11326D0000000000000000000000000CC003000FA
S11326E02000200020002000F8000000000000006E
S11326F00000000000000000000000007C008000DA
S11327008000780004000400F800000000000000CD
S1132710000000000000000000002000FC00200079
S113272020002000200020001C0000000000000009
S11327300000000000000000000000008800880085
S113274088008800880088007400000000000000F1
S113275000000000000000000000000082004400AF
S113276044002800280010001000000000000000B1
S1132770000000000000000000000000840084004D
S1132780B400B40048004800480000000000000005
S113279000000000000000000000000044002800C9
S11327A0280010002800440044000000000000003D
S11327B0000000000000000000000000820044004F
S11327C044002800280028001000100020002000E9
S11327D0000000000000000000000000FC000400F5
S11327E00800100020004000FC0000000000000071
S11327F0000000000800100010000800080010008D
S1132800100008000800100010000800000000007C
S11328100000000010001000100010001000000064
S11328200000100010001000100010000000000054
S11328300000000020001000100020002000100004
S113284010002000200010001000200000000000F4
S113285000080042000C0042001000420014004234
S1132860090A0B0CC81300002414000024140000EF
S1132870C2130000C2130000DE130000CE130000D8
S1132880E4130000121400001C1500007C15000065
S11328907C150000FC1400000E1500002A15000031
S11328A000150000381500006C150000C828000051
S11328B0D0280000D8280000E0280000E828000004
S11328C04D656E750000000056616C2031000000FB
S11328D056616C2032000000416661730000000004
S11328E0415346460000000045786974000000002A
S11328F0F8B5C046F8BC08BC9E467047D900000035
S1132900F8B5C046F8BC08BC9E467047B10000004C
S113291006100100841C000000000000901C000050
S11329200A10207D08000000401F00000100000084
S90319C91A
