:10000000B8240020B9140000B5140000B514000095
:1000100000000000000000000000000000000000E0
:10002000000000000000000000000000B514000007
:100030000000000000000000B5140000B51400002E
:10004000B5140000B5140000B5140000B51400008C
:10005000B5140000B5140000B5140000B51400007C
:10006000B5140000910D0000A10D0000B10D0000BD
:10007000C10D0000B5140000B5140000B514000057
:10008000B5140000B5140000B5140000B51400004C
:10009000B5140000B5140000B5140000B51400003C
:1000A000B5140000B5140000B5140000B51400002C
:1000B00010B5064C2378002B07D1054B002B02D03E
:1000C000044800E000BF0123237010BD0C00002095
:1000D00000000000A417000008B5084B002B03D057
:1000E0000748084900E000BF07480368002B03D019
:1000F000064B002B00D0984708BDC046000000000A
:10010000A417000010000020A41700000000000049
:10011000F0B583B06F46F87107370B4C0B4E201CBF
:10012000311C01220A4DA8478022D203094B5A6193
:10013000201C391C0122084B9847201C311C00222E
:10014000A84703B0F0BDC046600000209C0400201A
:10015000390800000044004125090000F0B591B0C5
:10016000644B98470020644B98476449644B984718
:1001700083001818400080221204624B5A61002844
:1001800000D1A3E0604B586000229A60191C8022C5
:1001900052020B681342FCD09DE00B681342FCD066
:1001A0005A4C1823237000236370A37002A9012204
:1001B0004A708B700A701820554B98472378D909DC
:1001C0000022002903D15A09D2014E4952181F2793
:1001D0003B400124211C9940916102AA1470002324
:1001E00053609360137453749474D47413752421FE
:1001F000535409930A9380235B02D360454B936267
:10020000454BD362454B1363454B53633B4B936163
:10021000444E301C4449454B98473568281C444B94
:1002200098470740BC40434B1C603268D369002BA1
:10023000FCD12A68022313432B6001AC01236370B5
:100240000022A27023701620211C314DA8471720D0
:10025000211CA847802212042A4B9A61D520364CD3
:10026000A0478020A047A820A0473F20A047D32038
:10027000A0470020A0474020A0478D20A047142081
:10028000A0472020A0470020A047A120A047C820C9
:10029000A047DA20A0471220A0478120A047FF20D6
:1002A000A047A420A047A620A047DB20A0474020CD
:1002B000A047D920A047F120A04720480021802254
:1002C000D2001F4B9847AF20A04710E080221204B5
:1002D0000C4B9A6164E7802212040A4B9A610A4B24
:1002E000586000229A60191C8022520255E711B012
:1002F000F0BDC046D10D00006D12000040420F005D
:10030000191600000044004110E000E09C040020A9
:100310000D0E000002001000020011000200120089
:100320000200130060000020000C004221060000C3
:10033000650D000000E100E0110100009C000020BC
:1003400017170000F0B583B06F46F87107370B4CF4
:100350000B4E201C311C01220A4DA8478022D203DB
:10036000094B9A61201C391C0122084B9847201C1C
:10037000311C0022A84703B0F0BDC0466000002039
:100380009C040020390800000044004125090000B9
:1003900070B50E480E4901220E4B984721200E4C95
:1003A000A0470020A0477F20A0472220A047002090
:1003B000A0470720A047094C8023DB00E618084D22
:1003C0002078A8470134B442FAD170BD6000002003
:1003D0009C04002039080000110100009C0000204E
:1003E0004503000038B50E480E4901220E4B9847D0
:1003F00021200E4CA0470020A0477F20A0472220AC
:10040000A0470020A0470720A0478024E400084D13
:100410000020A847013CA4B2002CF9D138BDC04649
:10042000600000209C040020390800001101000039
:100430004503000080280DD840290BD8CB08DB01EC
:100440001818054B0722114001228A40111C1A5C22
:10045000114319547047C0469C00002010B5031C7E
:100460004908402099420CD30024C91A601C80B26C
:100470008B4201D8041CF8E74020FF2C01D81480DF
:10048000002010BD10B582B0041C0F4B1B78002B50
:1004900001D000290DD001A90C7013200B4B9847F7
:1004A00013200B4B9847084B5C7001221A700020F8
:1004B00007E0054B5A781D20141B621E94416442CC
:1004C000204002B010BDC046280000208513000067
:1004D000F91200002E4B98421CD003D82D4B9842A5
:1004E00007D04AE02C4B984225D02C4B984233D071
:1004F00043E0012943D0002904D0022906D0032972
:1005000006D001E0264841E000203FE025483DE0DC
:1005100025483BE0012934D0002904D0022906D027
:10052000032906D001E0032030E000202EE01F4820
:100530002CE01F482AE0012925D0002904D00229F7
:1005400006D0032906D001E01A481FE000201DE074
:1005500019481BE0194819E0012916D0002904D0D8
:10056000022906D0032906D001E015480EE000203C
:100570000CE014480AE0144808E0002006E01348A4
:1005800004E0134802E0134800E013487047C046F7
:10059000000C00420008004200100042001400421B
:1005A00003000400030006000300070003001E0010
:1005B00003001F000300080003000A0003000B00F3
:1005C00003001000030012000300130003000500E5
:1005D00003000100030009000300110070B584B09E
:1005E0000E4A694670CA70C112680A60031C009AFC
:1005F00082420FD0019C844208D0029D854207D0E0
:100600000020039E9E4207D1032004E0012002E067
:10061000022000E00020C0B204B070BD2817000026
:10062000F0B5474680B488B0051C0C1C161C296028
:100630000B681C209A0700D5DFE00B680520DA075D
:1006400000D5DAE0081C6F4B98476F4B196A821C83
:10065000012797403A1C0A431A6207A92427F35D31
:100660000B701430C0B28046684B98474046684BC8
:100670009847F05D0021674B98473378012B03D1F1
:1006800022680C23134323603378002B00D0B1E0A1
:100690002268082313432360ACE0EA18D1600433D6
:1006A0001C2BFAD10023EB62AB620024AB862B86B5
:1006B0003623EC543723EC543823EC5403236B7269
:1006C0002C7128684F4B9847071C5349534B984748
:1006D000BF00534BFD502F6802AB80221A705C7034
:1006E00001229A70DC703378002B02D1002202AB19
:1006F0009A70B36A0393F06A0490326B0592736B3D
:1007000006930024E1B2A30003AA9858002802D15E
:10071000381C444A9047431C06D06A461072000CAD
:10072000C0B202A9404B98470134042CEAD1337877
:100730006B71337CAB71B37CEB71337D2B72002218
:100740006B46DA803378012B14D128682D4B9847FB
:100750001430C0B2354B9847011CB0696A46063266
:10076000334B9847031C1720002B46D16B460633AA
:100770001B783B733378002B0FD1B169B38B786A48
:10078000F47F2404B27F224302437A622022B25CC7
:10079000002A04D04022134301E000230021B26864
:1007A00070680243F06802430A43317C0B43717C5A
:1007B000002903D11F498978880701D580210A4380
:1007C000B17C002902D0802189020B43F17C0029F1
:1007D00002D0802189000B43317D002902D0802185
:1007E00089010B4339680A433A607A6813437B6096
:1007F000002002E0002300214FE708B004BC90462F
:10080000F0BDC046DD050000000400408513000077
:10081000F912000085040000410B0000250D0000C6
:10082000A4040020D504000061140000A1130000FE
:100830005D0400000020004110B544791523012C0F
:100840006CD1047A0023002C68D1002A57D04B7851
:10085000002B44D00268137EDC070FD40B78D90933
:100860000022002903D15A09D2012D4952181F2113
:100870000B4001219940916105234FE00B78DC0981
:100880000022002C03D15A09D201254C12191F2431
:10089000234001249C405461897803681A7ED40760
:1008A00000D59962C2790023002A37D10268042159
:1008B000137E0B42FCD0117E00234C072ED5538BA8
:1008C000590703D5518B04230B4353838379012BA1
:1008D00002D1936A002321E0936A00231EE00B7883
:1008E000D9090022002903D15A09D2010C4C12194E
:1008F0001F210B4001219940516100230EE00B782C
:10090000D9090022002903D15A09D20104495218F9
:100910001F210B400121994091610023181C10BD3B
:1009200000440041F0B55F4656464D464446F0B49B
:1009300083B0041C92463823C05CC0B2052800D1A5
:10094000F1E01720002A00D1EDE06379002B05D1FA
:100950002368187E820701D50220187655460020AC
:1009600001230226B4460427BB468FE06279002AA1
:1009700001D0266816E02268167E1E4206D16D4E12
:10098000177E1F4202D1013E002EF9D1167E674626
:100990003E4203D0022313760420C4E0127E1A42A2
:1009A000E7D1B3E0327E1A42FCD0421C92B29046AC
:1009B0000F5CA279012A01D0404605E0023080B2E6
:1009C00042468A5C12021743327E1A4202D0FF0569
:1009D000FF0DB7626A1E96B2E279002A01D1351C7A
:1009E00056E06279002A37D1534A01912668377E52
:1009F0001F421CD0471CBFB2B9460199095C88460A
:100A0000A779012F01D0484608E0023080B2019951
:100A10004F46C95D090247460F43B846377E1F421D
:100A200003D04746F905CF0DB762013DADB2266848
:100A3000377E59460F4202D1013A002AD6D1019998
:100A4000327E67463A4203D00223337604206AE0BE
:100A5000327E5E4632425BD02668327E5F463A4244
:100A6000FBD0327E3A420DD0728B3A4204D0728B68
:100A700004273A4392B27283A279012A01D1B26A61
:100A800000E0B26A5246013A92B29246013DADB2DE
:100A90002A4A954200D069E751466379012B05D176
:100AA000216802220B7E1342FCD033E0002B33D1AD
:100AB000E3790020002B36D000292FD004251D4ECD
:100AC000042750461CE00A7E2A4202D1013B002B3B
:100AD000F9D10B7E2B4223D00B7E2B420CD04B8BBB
:100AE0002B4203D04B8B3B439BB24B83A379012B0F
:100AF00001D18B6A00E08B6A013880B2002811D0E6
:100B000021680B7E2B42E4D1331CDCE712200AE083
:100B1000122008E0002006E0002004E0002002E0AF
:100B2000122000E0002003B03CBC90469946A2464B
:100B3000AB46F0BD1027000011270000FFFF0000AA
:100B4000F8B58000744BC45825683623E35C37221F
:100B5000A75C1F402B7EAE7D1E40F10749D563790F
:100B6000012B16D1637A002B0FD16C4B1B88AB6223
:100B7000638E013B9BB26386638E9BB2002B01D1D7
:100B800001232B756379012B03D1637A002B05D1E7
:100B90002FE0002B2DD1637A002B2AD02268E36A44
:100BA0001978C9B2581CE062A079012804D158789C
:100BB000000201430233E362CB05DB0D9362A38E97
:100BC000013B9BB2A386A38E9BB2002B11D10123C4
:100BD0002B75637A012B0CD1E379002B09D1032308
:100BE000637200223823E254FA0702D5201CE3681E
:100BF0009847710761D56B8B5A0714D5637A012B1F
:100C00000BD01E223823E2540323637205232B7575
:100C10003B0702D5201CA1698847AB6A6A8B042375
:100C200013436B8349E0637A012B16D123689B6AD7
:100C3000638E013B9BB26386638E9BB2002B3CD1DB
:100C400004232B7500223823E25403236372FA072E
:100C500033D5201CE36898472FE023689A6AD205B1
:100C6000D20DD3B2A16A0B70A36A591CA162A179FB
:100C7000012904D1120A5A70A36A0133A362238E98
:100C8000013B9BB22386238E9BB2002B15D1002201
:100C90003823E25404232B75637A022B05D17A079B
:100CA0000BD5201C6369984707E0637A002B04D1B9
:100CB000B90702D5201C22699047B30713D5637981
:100CC000002B10D107232B7502232B76032363728D
:100CD0000023A386238638230022E254F90602D596
:100CE000201CE269904733070AD56379002B07D1AE
:100CF00008232B752B76B90602D5201C226A904753
:100D0000F60907D080232B752B767B0602D5636A04
:100D1000201C9847F8BDC046A4040020A004002071
:100D20007047C04630B50B4B1B78002B0ED10A4CD8
:100D30000A4D25600A4B00221A6065605A60A56062
:100D40009A60E560DA600122024B1A708000024B63
:100D5000C15030BD2C00002030000020210D0000CB
:100D6000A404002030B583B0051C01AC201C05494B
:100D70000422054B9847281C044B9847205603B083
:100D800030BDC0463817000005170000DD05000023
:100D900008B5024B1B680020984708BD30000020B2
:100DA00008B5024B5B680120984708BD3000002061
:100DB00008B5024B9B680220984708BD3000002010
:100DC00008B5024BDB680320984708BD30000020BF
:100DD00010B50020084B9847084CFA218900A0471D
:100DE000074B1860FA218900A047064B18600522BE
:100DF000054B1A6010BDC0466D12000019160000A8
:100E0000040000200000002010E000E000B583B0E6
:100E100001AB80221A700A785A704A789A708A78E0
:100E2000DA70191C014B984703B000BD6114000033
:100E30007047C0460C4B1B68002B10D1EFF310839A
:100E4000002B09D172B6BFF35F8F0022074B1A70D7
:100E50000122074B1A7002E00022054B1A70024B68
:100E60001A6801321A607047400000200800002014
:100E700044000020084B1A68013A1A601B68002BD6
:100E800009D1064B1B78002B05D00122044B1A70A8
:100E9000BFF35F8F62B6704740000020440000201F
:100EA0000800002008B5082834D880001B4B1B58C8
:100EB0009F468020000230E0194B18692DE0194B45
:100EC000186A8005800F184BC340181C25E0144B8E
:100ED000586922E0124B1B68022018401DD01149AE
:100EE0001022CB681A42FCD00D4B1B685A0713D551
:100EF00000200E4B98470A4B9B681B041B0C584361
:100F00000BE05023074AD35C00205A0705D5044B59
:100F1000D86802E0002000E0054808BD3C1700004A
:100F2000480000200008004000127A00A1130000D1
:100F3000006CDC0270B50C4B1C6A01788578407837
:100F40000122104080014026B44304432A40D001CE
:100F500080229443221C02430320014009020348DB
:100F600002400A431A6270BD00080040FFFCFFFF08
:100F700010B5027A9206120C43899B059B0D1A4309
:100F8000154B5A60818842881143C4798279224383
:100F90000A434178C9010A431A600378042B0FD130
:100FA000027B9206038A1A43C3891B040B490B4038
:100FB0001A43094B9A60196804220A431A6009E02F
:100FC000202B07D1028A044B9A6019688422D20030
:100FD0000A431A6010BDC046480000200000FF030D
:100FE000082843D88000224B1B589F4600203EE033
:100FF000204B196A02220A431A62002037E01D4B77
:10100000996902220A439A61002030E0194B198A3B
:1010100002220A431A82002029E0164B998A0222F2
:101020000A439A82002022E0134B196802220A43E5
:101030001A601A68114B1A400E4B9A84191C102220
:10104000CB681A42FCD00C4A91680A4BD9625168AD
:101050009962126892B29A84002008E0054A4423FB
:10106000D05C02210143D154002000E017207047DA
:101070006017000000080040480000207FFF0000CB
:1010800030B58BB0C222D200274B9A60274B5A68EA
:101090001E218A4302210A435A60012201AB1A70C1
:1010A0000024234DE0B201A9A8470134252CF9D131
:1010B00005A8002303700024438083808471C471D9
:1010C000072202723F23438106210182447002738A
:1010D000C381184B984704A844700123837004709F
:1010E000154B98470620154CA047154B98470720ED
:1010F000A0470D491022CB681A42FCD0114A0023A8
:1011000013725372937201A901224A604B700B72E1
:101110004B7207230B7000200B4B984700200B4BA2
:1011200098470BB030BDC046000800400040004169
:1011300085130000710F0000350F0000E10F000063
:101140005111000000040040751100002912000038
:10115000064B996908220A439A610122044B1A70CE
:10116000191C0B781342FCD17047C04600040040A4
:10117000000C0040F8B5061C071C0D782D02054335
:101180004B78002B02D08023DB021D434B7A002BCF
:1011900002D080231B031D434C68012C17D9631E0A
:1011A0001C420FD1022C06D90223002201325B001F
:1011B0009C42FBD800E000221702374380235B03E8
:1011C0001D4304E02702374380239B021D430B7A13
:1011D000002B02D080239B031D430F4A53785BB240
:1011E000002BFBDB0D4B98470D4B1E700A4A5378C2
:1011F0005BB2002BFBDB084B9F601A1C53785BB281
:10120000002BFBDB044B5968802252020A40154335
:101210005D60044B9847F8BD000C0040350E00009F
:10122000080C0040750E000010B5041C0B4A5378E2
:101230005BB2002BFBDB0A4B98470A4B1C70074A3A
:1012400053785BB2002BFBDB044B596880225202BF
:101250000A435A60044B984710BDC046000C00403A
:10126000350E0000040C0040750E000070B5041C23
:101270001A4A53785BB2002BFBDB194B9847194B8A
:101280001C70164A53785BB2002BFBDB134E706860
:10129000C004C00E144B9847051C124B1C70766896
:1012A000F602F60F114B1C700C4A53785BB2002B00
:1012B000FBDB0A4B9C68240AA4B20D4B9847002E16
:1012C00007D1012C07D9281C211C0A4B9847051C63
:1012D00001E00134E540281C70BDC046000C004010
:1012E000350E0000040C0040A50E0000080C004064
:1012F000750E00001916000010B5041C064B984727
:10130000064B1C70064B59888022D2010A435A8032
:10131000044B984710BDC046350E0000020C00403B
:10132000000C0040750E000010B5041C0F4B9847D0
:101330000F4B1C700F4B58880005000F59880E4A40
:101340000A405A8059880D4A0A405A80191C802246
:10135000D2014B881342FCD1064B01025888064A41
:1013600002400A435A80064B984710BD350E0000D4
:10137000020C0040000C0040FFF0FFFFFFBFFFFF2A
:10138000750E000010B50C7824020443024B9847F8
:10139000A4B2024B5C8010BD29130000000C004079
:1013A00010B5041C064B9847064B1C70064B5C8816
:1013B0002405240F054B9847201C054B984710BD6A
:1013C000350E0000020C0040000C0040750E0000BD
:1013D0006D12000030B5D378002B1ED11378802B0E
:1013E00004D01B0680246402234300E000235478C9
:1013F0000225AC430AD19478002C03D18024A402A6
:10140000234302E0C024E402234341605478013CBA
:10141000012C04D8114C234001E0416000230D044D
:101420002D0CA024E4052C431C4384620D0CD02415
:1014300024062C431C438462D478002C0CD15C031A
:1014400005D59378012B01D1816100E0416153788A
:10145000013B012B00D8816030BDC046FFFFFBFF80
:1014600008B5031C0A1CC1090020002903D1580932
:10147000C001044940181F210B4001219940024B33
:10148000984708BD00440041D51300007047C0468E
:1014900008B5044B9847044B9847044B9847044BB6
:1014A000984708BD81100000310E00008D14000027
:1014B0008D140000FEE7C04670B5022190235B004A
:1014C000284AD150284BD878032188430222104360
:1014D000D870DD780C24A54308200543DD70234B2C
:1014E0009E7B3025AE43202535439D739D7BA543D0
:1014F00028439873987B884302439A731C4B1D4A78
:101500009A4203D01C4B1A4A9A4204D31B4B1C4AE2
:101510009A4210D31BE01B4B17480330C01A8008B7
:101520000130800000231249124AD458CC500433B1
:101530008342FAD1EAE7124B1A1D10490331891A86
:10154000890889005218002102C39342FCD10E4B36
:101550007F210E4A8A439A600D4B98470D4B98475E
:10156000FEE7C046007000410050004100480041C5
:1015700000000020A41700000C000020B40400208C
:101580000C0000200400002000ED00E0000000003E
:10159000B916000099150000F0B5474680B4174C05
:1015A000A047A047164B9847164B9847B720164CB4
:1015B000A0471020A0470020A047144B98470020C8
:1015C0000021134B9847134B9847002401254022D4
:1015D00090460F4F0F4E02E00134E4B20025002385
:1015E0004246A2425B415B421C40281C211CB8477A
:1015F000B0476B1CDDB21A06F1D5EDE7911400007F
:10160000D10D00005D01000011010000E5030000A4
:101610003504000091030000002934D0012300228A
:1016200010B488422CD301242407A14204D2814261
:1016300002D209011B01F8E7E400A14204D2814271
:1016400002D249005B00F8E7884201D3401A1A43EE
:101650004C08A04202D3001B5C0822438C08A04225
:1016600002D3001B9C082243CC08A04202D3001BDB
:10167000DC082243002803D01B0901D00909E3E755
:10168000101C10BC7047002801D00020C04307B4D4
:10169000024802A14018029003BDC0461900000094
:1016A0000029F0D003B5FFF7B9FF0EBC4243891AF9
:1016B0001847C0467047C04670B50E4B0E4D00240B
:1016C000ED1AAD101E1CAC4204D0A300F35898478D
:1016D0000134F8E700F056F8084B094D0024ED1AE4
:1016E000AD101E1CAC4204D0A300F358984701343F
:1016F000F8E770BD901700009017000090170000E9
:101700009417000010B50023934203D0CC5CC4545E
:101710000133F9E710BD031C8218934202D01970FF
:101720000133FAE77047000000080042000C004255
:101730000010004200140042090A0B0CB80E000011
:10174000140F0000140F0000B20E0000B20E0000D3
:10175000CE0E0000BE0E0000D40E0000020F0000EE
:101760000C1000006C1000006C100000EC0F00006A
:10177000FE0F00001A100000F00F000028100000FB
:101780005C100000F8B5C046F8BC08BC9E46704727
:10179000D9000000F8B5C046F8BC08BC9E467047AA
:0417A000B100000094
:0C17A40008000000401F000001000000D1
:04000003000014B92C
:00000001FF
